{
	"contracts/BankTransaction.sol": {
		"BankTransaction": {
			"abi": [
				{
					"inputs": [
						{
							"internalType": "address",
							"name": "",
							"type": "address"
						},
						{
							"internalType": "uint256",
							"name": "",
							"type": "uint256"
						}
					],
					"name": "TXsarray",
					"outputs": [
						{
							"internalType": "bytes20",
							"name": "",
							"type": "bytes20"
						}
					],
					"stateMutability": "view",
					"type": "function"
				},
				{
					"inputs": [
						{
							"internalType": "address",
							"name": "_recipient_ID",
							"type": "address"
						},
						{
							"internalType": "uint256",
							"name": "amountOfPayment",
							"type": "uint256"
						},
						{
							"internalType": "string",
							"name": "Remarks",
							"type": "string"
						}
					],
					"name": "addNewPayment",
					"outputs": [
						{
							"components": [
								{
									"internalType": "bytes20",
									"name": "payment_ID",
									"type": "bytes20"
								},
								{
									"internalType": "address",
									"name": "client_ID",
									"type": "address"
								},
								{
									"internalType": "address",
									"name": "recipient_ID",
									"type": "address"
								},
								{
									"internalType": "uint256",
									"name": "amountOfPayment",
									"type": "uint256"
								},
								{
									"internalType": "uint256",
									"name": "timeOfPayment",
									"type": "uint256"
								},
								{
									"internalType": "string",
									"name": "Remarks",
									"type": "string"
								},
								{
									"internalType": "bytes20",
									"name": "paymentHash",
									"type": "bytes20"
								}
							],
							"internalType": "struct BankTransaction.ClientTransaction",
							"name": "clienttx",
							"type": "tuple"
						}
					],
					"stateMutability": "nonpayable",
					"type": "function"
				},
				{
					"inputs": [
						{
							"internalType": "bytes20",
							"name": "",
							"type": "bytes20"
						}
					],
					"name": "clienttransactions",
					"outputs": [
						{
							"internalType": "bytes20",
							"name": "payment_ID",
							"type": "bytes20"
						},
						{
							"internalType": "address",
							"name": "client_ID",
							"type": "address"
						},
						{
							"internalType": "address",
							"name": "recipient_ID",
							"type": "address"
						},
						{
							"internalType": "uint256",
							"name": "amountOfPayment",
							"type": "uint256"
						},
						{
							"internalType": "uint256",
							"name": "timeOfPayment",
							"type": "uint256"
						},
						{
							"internalType": "string",
							"name": "Remarks",
							"type": "string"
						},
						{
							"internalType": "bytes20",
							"name": "paymentHash",
							"type": "bytes20"
						}
					],
					"stateMutability": "view",
					"type": "function"
				},
				{
					"inputs": [
						{
							"internalType": "address",
							"name": "_client_ID",
							"type": "address"
						}
					],
					"name": "getAllTransactionsOfAClient",
					"outputs": [
						{
							"internalType": "bytes20[]",
							"name": "Array",
							"type": "bytes20[]"
						}
					],
					"stateMutability": "view",
					"type": "function"
				},
				{
					"inputs": [
						{
							"internalType": "bytes20",
							"name": "_payment_ID",
							"type": "bytes20"
						}
					],
					"name": "getPaymentByID",
					"outputs": [
						{
							"components": [
								{
									"internalType": "bytes20",
									"name": "payment_ID",
									"type": "bytes20"
								},
								{
									"internalType": "address",
									"name": "client_ID",
									"type": "address"
								},
								{
									"internalType": "address",
									"name": "recipient_ID",
									"type": "address"
								},
								{
									"internalType": "uint256",
									"name": "amountOfPayment",
									"type": "uint256"
								},
								{
									"internalType": "uint256",
									"name": "timeOfPayment",
									"type": "uint256"
								},
								{
									"internalType": "string",
									"name": "Remarks",
									"type": "string"
								},
								{
									"internalType": "bytes20",
									"name": "paymentHash",
									"type": "bytes20"
								}
							],
							"internalType": "struct BankTransaction.ClientTransaction",
							"name": "ct",
							"type": "tuple"
						}
					],
					"stateMutability": "view",
					"type": "function"
				}
			],
			"devdoc": {
				"kind": "dev",
				"methods": {},
				"version": 1
			},
			"evm": {
				"assembly": "    /* \"contracts/BankTransaction.sol\":66:2368  contract BankTransaction{\r... */\n  mstore(0x40, 0x80)\n  callvalue\n  dup1\n  iszero\n  tag_1\n  jumpi\n  0x00\n  dup1\n  revert\ntag_1:\n  pop\n  dataSize(sub_0)\n  dup1\n  dataOffset(sub_0)\n  0x00\n  codecopy\n  0x00\n  return\nstop\n\nsub_0: assembly {\n        /* \"contracts/BankTransaction.sol\":66:2368  contract BankTransaction{\r... */\n      mstore(0x40, 0x80)\n      callvalue\n      dup1\n      iszero\n      tag_1\n      jumpi\n      0x00\n      dup1\n      revert\n    tag_1:\n      pop\n      jumpi(tag_2, lt(calldatasize, 0x04))\n      shr(0xe0, calldataload(0x00))\n      dup1\n      0x0736e9fb\n      eq\n      tag_3\n      jumpi\n      dup1\n      0x2b08a98a\n      eq\n      tag_4\n      jumpi\n      dup1\n      0x7d1a8825\n      eq\n      tag_5\n      jumpi\n      dup1\n      0x92206f3f\n      eq\n      tag_6\n      jumpi\n      dup1\n      0xb69c9053\n      eq\n      tag_7\n      jumpi\n    tag_2:\n      0x00\n      dup1\n      revert\n        /* \"contracts/BankTransaction.sol\":442:486  mapping (address=>bytes20[]) public TXsarray */\n    tag_3:\n      tag_8\n      0x04\n      dup1\n      calldatasize\n      sub\n      dup2\n      add\n      swap1\n      tag_9\n      swap2\n      swap1\n      tag_10\n      jump\t// in\n    tag_9:\n      tag_11\n      jump\t// in\n    tag_8:\n      mload(0x40)\n      tag_12\n      swap2\n      swap1\n      tag_13\n      jump\t// in\n    tag_12:\n      mload(0x40)\n      dup1\n      swap2\n      sub\n      swap1\n      return\n        /* \"contracts/BankTransaction.sol\":372:435  mapping(bytes20 => ClientTransaction) public clienttransactions */\n    tag_4:\n      tag_14\n      0x04\n      dup1\n      calldatasize\n      sub\n      dup2\n      add\n      swap1\n      tag_15\n      swap2\n      swap1\n      tag_16\n      jump\t// in\n    tag_15:\n      tag_17\n      jump\t// in\n    tag_14:\n      mload(0x40)\n      tag_18\n      swap8\n      swap7\n      swap6\n      swap5\n      swap4\n      swap3\n      swap2\n      swap1\n      tag_19\n      jump\t// in\n    tag_18:\n      mload(0x40)\n      dup1\n      swap2\n      sub\n      swap1\n      return\n        /* \"contracts/BankTransaction.sol\":497:1289  function addNewPayment(\r... */\n    tag_5:\n      tag_20\n      0x04\n      dup1\n      calldatasize\n      sub\n      dup2\n      add\n      swap1\n      tag_21\n      swap2\n      swap1\n      tag_22\n      jump\t// in\n    tag_21:\n      tag_23\n      jump\t// in\n    tag_20:\n      mload(0x40)\n      tag_24\n      swap2\n      swap1\n      tag_25\n      jump\t// in\n    tag_24:\n      mload(0x40)\n      dup1\n      swap2\n      sub\n      swap1\n      return\n        /* \"contracts/BankTransaction.sol\":1503:1685  function getAllTransactionsOfAClient(address  _client_ID) external view  returns (bytes20[] memory Array){\r... */\n    tag_6:\n      tag_26\n      0x04\n      dup1\n      calldatasize\n      sub\n      dup2\n      add\n      swap1\n      tag_27\n      swap2\n      swap1\n      tag_28\n      jump\t// in\n    tag_27:\n      tag_29\n      jump\t// in\n    tag_26:\n      mload(0x40)\n      tag_30\n      swap2\n      swap1\n      tag_31\n      jump\t// in\n    tag_30:\n      mload(0x40)\n      dup1\n      swap2\n      sub\n      swap1\n      return\n        /* \"contracts/BankTransaction.sol\":1297:1495  function getPaymentByID(bytes20 _payment_ID) public view returns (ClientTransaction memory ct){\r... */\n    tag_7:\n      tag_32\n      0x04\n      dup1\n      calldatasize\n      sub\n      dup2\n      add\n      swap1\n      tag_33\n      swap2\n      swap1\n      tag_16\n      jump\t// in\n    tag_33:\n      tag_34\n      jump\t// in\n    tag_32:\n      mload(0x40)\n      tag_35\n      swap2\n      swap1\n      tag_25\n      jump\t// in\n    tag_35:\n      mload(0x40)\n      dup1\n      swap2\n      sub\n      swap1\n      return\n        /* \"contracts/BankTransaction.sol\":442:486  mapping (address=>bytes20[]) public TXsarray */\n    tag_11:\n      mstore(0x20, 0x02)\n      dup2\n      0x00\n      mstore\n      keccak256(0x00, 0x40)\n      dup2\n      dup2\n      sload\n      dup2\n      lt\n      tag_36\n      jumpi\n      0x00\n      dup1\n      revert\n    tag_36:\n      swap1\n      0x00\n      mstore\n      keccak256(0x00, 0x20)\n      add\n      0x00\n      swap2\n      pop\n      swap2\n      pop\n      swap1\n      sload\n      swap1\n      0x0100\n      exp\n      swap1\n      div\n      0x60\n      shl\n      dup2\n      jump\t// out\n        /* \"contracts/BankTransaction.sol\":372:435  mapping(bytes20 => ClientTransaction) public clienttransactions */\n    tag_17:\n      mstore(0x20, 0x01)\n      dup1\n      0x00\n      mstore\n      keccak256(0x00, 0x40)\n      0x00\n      swap2\n      pop\n      swap1\n      pop\n      dup1\n      0x00\n      add\n      0x00\n      swap1\n      sload\n      swap1\n      0x0100\n      exp\n      swap1\n      div\n      0x60\n      shl\n      swap1\n      dup1\n      0x01\n      add\n      0x00\n      swap1\n      sload\n      swap1\n      0x0100\n      exp\n      swap1\n      div\n      0xffffffffffffffffffffffffffffffffffffffff\n      and\n      swap1\n      dup1\n      0x02\n      add\n      0x00\n      swap1\n      sload\n      swap1\n      0x0100\n      exp\n      swap1\n      div\n      0xffffffffffffffffffffffffffffffffffffffff\n      and\n      swap1\n      dup1\n      0x03\n      add\n      sload\n      swap1\n      dup1\n      0x04\n      add\n      sload\n      swap1\n      dup1\n      0x05\n      add\n      dup1\n      sload\n      tag_38\n      swap1\n      tag_39\n      jump\t// in\n    tag_38:\n      dup1\n      0x1f\n      add\n      0x20\n      dup1\n      swap2\n      div\n      mul\n      0x20\n      add\n      mload(0x40)\n      swap1\n      dup2\n      add\n      0x40\n      mstore\n      dup1\n      swap3\n      swap2\n      swap1\n      dup2\n      dup2\n      mstore\n      0x20\n      add\n      dup3\n      dup1\n      sload\n      tag_40\n      swap1\n      tag_39\n      jump\t// in\n    tag_40:\n      dup1\n      iszero\n      tag_41\n      jumpi\n      dup1\n      0x1f\n      lt\n      tag_42\n      jumpi\n      0x0100\n      dup1\n      dup4\n      sload\n      div\n      mul\n      dup4\n      mstore\n      swap2\n      0x20\n      add\n      swap2\n      jump(tag_41)\n    tag_42:\n      dup3\n      add\n      swap2\n      swap1\n      0x00\n      mstore\n      keccak256(0x00, 0x20)\n      swap1\n    tag_43:\n      dup2\n      sload\n      dup2\n      mstore\n      swap1\n      0x01\n      add\n      swap1\n      0x20\n      add\n      dup1\n      dup4\n      gt\n      tag_43\n      jumpi\n      dup3\n      swap1\n      sub\n      0x1f\n      and\n      dup3\n      add\n      swap2\n    tag_41:\n      pop\n      pop\n      pop\n      pop\n      pop\n      swap1\n      dup1\n      0x06\n      add\n      0x00\n      swap1\n      sload\n      swap1\n      0x0100\n      exp\n      swap1\n      div\n      0x60\n      shl\n      swap1\n      pop\n      dup8\n      jump\t// out\n        /* \"contracts/BankTransaction.sol\":497:1289  function addNewPayment(\r... */\n    tag_23:\n        /* \"contracts/BankTransaction.sol\":640:673  ClientTransaction memory clienttx */\n      tag_44\n      tag_45\n      jump\t// in\n    tag_44:\n        /* \"contracts/BankTransaction.sol\":685:703  address _client_ID */\n      0x00\n        /* \"contracts/BankTransaction.sol\":706:716  msg.sender */\n      caller\n        /* \"contracts/BankTransaction.sol\":685:716  address _client_ID = msg.sender */\n      swap1\n      pop\n        /* \"contracts/BankTransaction.sol\":727:741  uint timeStamp */\n      0x00\n        /* \"contracts/BankTransaction.sol\":744:759  block.timestamp */\n      timestamp\n        /* \"contracts/BankTransaction.sol\":727:759  uint timeStamp = block.timestamp */\n      swap1\n      pop\n        /* \"contracts/BankTransaction.sol\":770:789  bytes20 _payment_ID */\n      0x00\n        /* \"contracts/BankTransaction.sol\":792:883  ripemd160(abi.encodePacked(_client_ID, _recipient_ID, amountOfPayment, timeStamp, Remarks)) */\n      0x03\n        /* \"contracts/BankTransaction.sol\":819:829  _client_ID */\n      dup4\n        /* \"contracts/BankTransaction.sol\":831:844  _recipient_ID */\n      dup10\n        /* \"contracts/BankTransaction.sol\":846:861  amountOfPayment */\n      dup10\n        /* \"contracts/BankTransaction.sol\":863:872  timeStamp */\n      dup6\n        /* \"contracts/BankTransaction.sol\":874:881  Remarks */\n      dup11\n      dup11\n        /* \"contracts/BankTransaction.sol\":802:882  abi.encodePacked(_client_ID, _recipient_ID, amountOfPayment, timeStamp, Remarks) */\n      add(0x20, mload(0x40))\n      tag_47\n      swap7\n      swap6\n      swap5\n      swap4\n      swap3\n      swap2\n      swap1\n      tag_48\n      jump\t// in\n    tag_47:\n      mload(0x40)\n      0x20\n      dup2\n      dup4\n      sub\n      sub\n      dup2\n      mstore\n      swap1\n      0x40\n      mstore\n        /* \"contracts/BankTransaction.sol\":792:883  ripemd160(abi.encodePacked(_client_ID, _recipient_ID, amountOfPayment, timeStamp, Remarks)) */\n      mload(0x40)\n      tag_49\n      swap2\n      swap1\n      tag_50\n      jump\t// in\n    tag_49:\n      0x20\n      mload(0x40)\n      dup1\n      dup4\n      sub\n      dup2\n      dup6\n      gas\n      staticcall\n      iszero\n      dup1\n      iszero\n      tag_52\n      jumpi\n      returndatasize\n      0x00\n      dup1\n      returndatacopy\n      revert(0x00, returndatasize)\n    tag_52:\n      pop\n      pop\n      pop\n      shl(0x60, mload(mload(0x40)))\n        /* \"contracts/BankTransaction.sol\":770:883  bytes20 _payment_ID = ripemd160(abi.encodePacked(_client_ID, _recipient_ID, amountOfPayment, timeStamp, Remarks)) */\n      swap1\n      pop\n        /* \"contracts/BankTransaction.sol\":894:914  bytes20 _paymentHash */\n      0x00\n        /* \"contracts/BankTransaction.sol\":917:1019  ripemd160(abi.encodePacked(_payment_ID, _client_ID, _recipient_ID, amountOfPayment,timeStamp,Remarks)) */\n      0x03\n        /* \"contracts/BankTransaction.sol\":944:955  _payment_ID */\n      dup3\n        /* \"contracts/BankTransaction.sol\":957:967  _client_ID */\n      dup6\n        /* \"contracts/BankTransaction.sol\":969:982  _recipient_ID */\n      dup12\n        /* \"contracts/BankTransaction.sol\":984:999  amountOfPayment */\n      dup12\n        /* \"contracts/BankTransaction.sol\":1000:1009  timeStamp */\n      dup8\n        /* \"contracts/BankTransaction.sol\":1010:1017  Remarks */\n      dup13\n      dup13\n        /* \"contracts/BankTransaction.sol\":927:1018  abi.encodePacked(_payment_ID, _client_ID, _recipient_ID, amountOfPayment,timeStamp,Remarks) */\n      add(0x20, mload(0x40))\n      tag_53\n      swap8\n      swap7\n      swap6\n      swap5\n      swap4\n      swap3\n      swap2\n      swap1\n      tag_54\n      jump\t// in\n    tag_53:\n      mload(0x40)\n      0x20\n      dup2\n      dup4\n      sub\n      sub\n      dup2\n      mstore\n      swap1\n      0x40\n      mstore\n        /* \"contracts/BankTransaction.sol\":917:1019  ripemd160(abi.encodePacked(_payment_ID, _client_ID, _recipient_ID, amountOfPayment,timeStamp,Remarks)) */\n      mload(0x40)\n      tag_55\n      swap2\n      swap1\n      tag_50\n      jump\t// in\n    tag_55:\n      0x20\n      mload(0x40)\n      dup1\n      dup4\n      sub\n      dup2\n      dup6\n      gas\n      staticcall\n      iszero\n      dup1\n      iszero\n      tag_57\n      jumpi\n      returndatasize\n      0x00\n      dup1\n      returndatacopy\n      revert(0x00, returndatasize)\n    tag_57:\n      pop\n      pop\n      pop\n      shl(0x60, mload(mload(0x40)))\n        /* \"contracts/BankTransaction.sol\":894:1019  bytes20 _paymentHash = ripemd160(abi.encodePacked(_payment_ID, _client_ID, _recipient_ID, amountOfPayment,timeStamp,Remarks)) */\n      swap1\n      pop\n        /* \"contracts/BankTransaction.sol\":1041:1149  ClientTransaction(_payment_ID, _client_ID, _recipient_ID, amountOfPayment, timeStamp, Remarks, _paymentHash) */\n      mload(0x40)\n      dup1\n      0xe0\n      add\n      0x40\n      mstore\n      dup1\n        /* \"contracts/BankTransaction.sol\":1059:1070  _payment_ID */\n      dup4\n        /* \"contracts/BankTransaction.sol\":1041:1149  ClientTransaction(_payment_ID, _client_ID, _recipient_ID, amountOfPayment, timeStamp, Remarks, _paymentHash) */\n      not(0xffffffffffffffffffffffff)\n      and\n      dup2\n      mstore\n      0x20\n      add\n        /* \"contracts/BankTransaction.sol\":1072:1082  _client_ID */\n      dup6\n        /* \"contracts/BankTransaction.sol\":1041:1149  ClientTransaction(_payment_ID, _client_ID, _recipient_ID, amountOfPayment, timeStamp, Remarks, _paymentHash) */\n      0xffffffffffffffffffffffffffffffffffffffff\n      and\n      dup2\n      mstore\n      0x20\n      add\n        /* \"contracts/BankTransaction.sol\":1084:1097  _recipient_ID */\n      dup11\n        /* \"contracts/BankTransaction.sol\":1041:1149  ClientTransaction(_payment_ID, _client_ID, _recipient_ID, amountOfPayment, timeStamp, Remarks, _paymentHash) */\n      0xffffffffffffffffffffffffffffffffffffffff\n      and\n      dup2\n      mstore\n      0x20\n      add\n        /* \"contracts/BankTransaction.sol\":1099:1114  amountOfPayment */\n      dup10\n        /* \"contracts/BankTransaction.sol\":1041:1149  ClientTransaction(_payment_ID, _client_ID, _recipient_ID, amountOfPayment, timeStamp, Remarks, _paymentHash) */\n      dup2\n      mstore\n      0x20\n      add\n        /* \"contracts/BankTransaction.sol\":1116:1125  timeStamp */\n      dup5\n        /* \"contracts/BankTransaction.sol\":1041:1149  ClientTransaction(_payment_ID, _client_ID, _recipient_ID, amountOfPayment, timeStamp, Remarks, _paymentHash) */\n      dup2\n      mstore\n      0x20\n      add\n        /* \"contracts/BankTransaction.sol\":1127:1134  Remarks */\n      dup9\n      dup9\n        /* \"contracts/BankTransaction.sol\":1041:1149  ClientTransaction(_payment_ID, _client_ID, _recipient_ID, amountOfPayment, timeStamp, Remarks, _paymentHash) */\n      dup1\n      dup1\n      0x1f\n      add\n      0x20\n      dup1\n      swap2\n      div\n      mul\n      0x20\n      add\n      mload(0x40)\n      swap1\n      dup2\n      add\n      0x40\n      mstore\n      dup1\n      swap4\n      swap3\n      swap2\n      swap1\n      dup2\n      dup2\n      mstore\n      0x20\n      add\n      dup4\n      dup4\n      dup1\n      dup3\n      dup5\n      calldatacopy\n      0x00\n      dup2\n      dup5\n      add\n      mstore\n      not(0x1f)\n      0x1f\n      dup3\n      add\n      and\n      swap1\n      pop\n      dup1\n      dup4\n      add\n      swap3\n      pop\n      pop\n      pop\n      pop\n      pop\n      pop\n      pop\n      dup2\n      mstore\n      0x20\n      add\n        /* \"contracts/BankTransaction.sol\":1136:1148  _paymentHash */\n      dup3\n        /* \"contracts/BankTransaction.sol\":1041:1149  ClientTransaction(_payment_ID, _client_ID, _recipient_ID, amountOfPayment, timeStamp, Remarks, _paymentHash) */\n      not(0xffffffffffffffffffffffff)\n      and\n      dup2\n      mstore\n      pop\n        /* \"contracts/BankTransaction.sol\":1030:1149  clienttx = ClientTransaction(_payment_ID, _client_ID, _recipient_ID, amountOfPayment, timeStamp, Remarks, _paymentHash) */\n      swap5\n      pop\n        /* \"contracts/BankTransaction.sol\":1162:1170  TXsarray */\n      0x02\n        /* \"contracts/BankTransaction.sol\":1162:1182  TXsarray[_client_ID] */\n      0x00\n        /* \"contracts/BankTransaction.sol\":1171:1181  _client_ID */\n      dup6\n        /* \"contracts/BankTransaction.sol\":1162:1182  TXsarray[_client_ID] */\n      0xffffffffffffffffffffffffffffffffffffffff\n      and\n      0xffffffffffffffffffffffffffffffffffffffff\n      and\n      dup2\n      mstore\n      0x20\n      add\n      swap1\n      dup2\n      mstore\n      0x20\n      add\n      0x00\n      keccak256\n      pop\n        /* \"contracts/BankTransaction.sol\":1230:1238  clienttx */\n      dup5\n        /* \"contracts/BankTransaction.sol\":1196:1214  clienttransactions */\n      0x01\n        /* \"contracts/BankTransaction.sol\":1196:1227  clienttransactions[_payment_ID] */\n      0x00\n        /* \"contracts/BankTransaction.sol\":1215:1226  _payment_ID */\n      dup5\n        /* \"contracts/BankTransaction.sol\":1196:1227  clienttransactions[_payment_ID] */\n      not(0xffffffffffffffffffffffff)\n      and\n      not(0xffffffffffffffffffffffff)\n      and\n      dup2\n      mstore\n      0x20\n      add\n      swap1\n      dup2\n      mstore\n      0x20\n      add\n      0x00\n      keccak256\n        /* \"contracts/BankTransaction.sol\":1196:1238  clienttransactions[_payment_ID] = clienttx */\n      0x00\n      dup3\n      add\n      mload\n      dup2\n      0x00\n      add\n      exp(0x0100, 0x00)\n      dup2\n      sload\n      dup2\n      0xffffffffffffffffffffffffffffffffffffffff\n      mul\n      not\n      and\n      swap1\n      dup4\n      0x60\n      shr\n      mul\n      or\n      swap1\n      sstore\n      pop\n      0x20\n      dup3\n      add\n      mload\n      dup2\n      0x01\n      add\n      exp(0x0100, 0x00)\n      dup2\n      sload\n      dup2\n      0xffffffffffffffffffffffffffffffffffffffff\n      mul\n      not\n      and\n      swap1\n      dup4\n      0xffffffffffffffffffffffffffffffffffffffff\n      and\n      mul\n      or\n      swap1\n      sstore\n      pop\n      0x40\n      dup3\n      add\n      mload\n      dup2\n      0x02\n      add\n      exp(0x0100, 0x00)\n      dup2\n      sload\n      dup2\n      0xffffffffffffffffffffffffffffffffffffffff\n      mul\n      not\n      and\n      swap1\n      dup4\n      0xffffffffffffffffffffffffffffffffffffffff\n      and\n      mul\n      or\n      swap1\n      sstore\n      pop\n      0x60\n      dup3\n      add\n      mload\n      dup2\n      0x03\n      add\n      sstore\n      0x80\n      dup3\n      add\n      mload\n      dup2\n      0x04\n      add\n      sstore\n      0xa0\n      dup3\n      add\n      mload\n      dup2\n      0x05\n      add\n      swap1\n      dup1\n      mload\n      swap1\n      0x20\n      add\n      swap1\n      tag_58\n      swap3\n      swap2\n      swap1\n      tag_59\n      jump\t// in\n    tag_58:\n      pop\n      0xc0\n      dup3\n      add\n      mload\n      dup2\n      0x06\n      add\n      exp(0x0100, 0x00)\n      dup2\n      sload\n      dup2\n      0xffffffffffffffffffffffffffffffffffffffff\n      mul\n      not\n      and\n      swap1\n      dup4\n      0x60\n      shr\n      mul\n      or\n      swap1\n      sstore\n      pop\n      swap1\n      pop\n      pop\n        /* \"contracts/BankTransaction.sol\":1249:1261  AllClientTXs */\n      0x00\n        /* \"contracts/BankTransaction.sol\":1267:1278  _payment_ID */\n      dup3\n        /* \"contracts/BankTransaction.sol\":1249:1279  AllClientTXs.push(_payment_ID) */\n      swap1\n      dup1\n      0x01\n      dup2\n      sload\n      add\n      dup1\n      dup3\n      sstore\n      dup1\n      swap2\n      pop\n      pop\n      0x01\n      swap1\n      sub\n      swap1\n      0x00\n      mstore\n      keccak256(0x00, 0x20)\n      add\n      0x00\n      swap1\n      swap2\n      swap1\n      swap2\n      swap1\n      swap2\n      0x0100\n      exp\n      dup2\n      sload\n      dup2\n      0xffffffffffffffffffffffffffffffffffffffff\n      mul\n      not\n      and\n      swap1\n      dup4\n      0x60\n      shr\n      mul\n      or\n      swap1\n      sstore\n      pop\n        /* \"contracts/BankTransaction.sol\":674:1289  {\r... */\n      pop\n      pop\n      pop\n      pop\n        /* \"contracts/BankTransaction.sol\":497:1289  function addNewPayment(\r... */\n      swap5\n      swap4\n      pop\n      pop\n      pop\n      pop\n      jump\t// out\n        /* \"contracts/BankTransaction.sol\":1503:1685  function getAllTransactionsOfAClient(address  _client_ID) external view  returns (bytes20[] memory Array){\r... */\n    tag_29:\n        /* \"contracts/BankTransaction.sol\":1585:1607  bytes20[] memory Array */\n      0x60\n        /* \"contracts/BankTransaction.sol\":1627:1639  AllClientTXs */\n      0x00\n        /* \"contracts/BankTransaction.sol\":1619:1639  Array = AllClientTXs */\n      dup1\n      sload\n      dup1\n      0x20\n      mul\n      0x20\n      add\n      mload(0x40)\n      swap1\n      dup2\n      add\n      0x40\n      mstore\n      dup1\n      swap3\n      swap2\n      swap1\n      dup2\n      dup2\n      mstore\n      0x20\n      add\n      dup3\n      dup1\n      sload\n      dup1\n      iszero\n      tag_62\n      jumpi\n      0x20\n      mul\n      dup3\n      add\n      swap2\n      swap1\n      0x00\n      mstore\n      keccak256(0x00, 0x20)\n      swap1\n    tag_63:\n      dup2\n      0x00\n      swap1\n      sload\n      swap1\n      0x0100\n      exp\n      swap1\n      div\n      0x60\n      shl\n      not(0xffffffffffffffffffffffff)\n      and\n      dup2\n      mstore\n      0x20\n      add\n      swap1\n      0x01\n      add\n      swap1\n      dup1\n      dup4\n      gt\n      tag_63\n      jumpi\n    tag_62:\n      pop\n      pop\n      pop\n      pop\n      pop\n      swap1\n      pop\n        /* \"contracts/BankTransaction.sol\":1657:1665  TXsarray */\n      0x02\n        /* \"contracts/BankTransaction.sol\":1657:1677  TXsarray[_client_ID] */\n      0x00\n        /* \"contracts/BankTransaction.sol\":1666:1676  _client_ID */\n      dup4\n        /* \"contracts/BankTransaction.sol\":1657:1677  TXsarray[_client_ID] */\n      0xffffffffffffffffffffffffffffffffffffffff\n      and\n      0xffffffffffffffffffffffffffffffffffffffff\n      and\n      dup2\n      mstore\n      0x20\n      add\n      swap1\n      dup2\n      mstore\n      0x20\n      add\n      0x00\n      keccak256\n        /* \"contracts/BankTransaction.sol\":1650:1677  return TXsarray[_client_ID] */\n      dup1\n      sload\n      dup1\n      0x20\n      mul\n      0x20\n      add\n      mload(0x40)\n      swap1\n      dup2\n      add\n      0x40\n      mstore\n      dup1\n      swap3\n      swap2\n      swap1\n      dup2\n      dup2\n      mstore\n      0x20\n      add\n      dup3\n      dup1\n      sload\n      dup1\n      iszero\n      tag_64\n      jumpi\n      0x20\n      mul\n      dup3\n      add\n      swap2\n      swap1\n      0x00\n      mstore\n      keccak256(0x00, 0x20)\n      swap1\n    tag_65:\n      dup2\n      0x00\n      swap1\n      sload\n      swap1\n      0x0100\n      exp\n      swap1\n      div\n      0x60\n      shl\n      not(0xffffffffffffffffffffffff)\n      and\n      dup2\n      mstore\n      0x20\n      add\n      swap1\n      0x01\n      add\n      swap1\n      dup1\n      dup4\n      gt\n      tag_65\n      jumpi\n    tag_64:\n      pop\n      pop\n      pop\n      pop\n      pop\n      swap1\n      pop\n        /* \"contracts/BankTransaction.sol\":1503:1685  function getAllTransactionsOfAClient(address  _client_ID) external view  returns (bytes20[] memory Array){\r... */\n      swap2\n      swap1\n      pop\n      jump\t// out\n        /* \"contracts/BankTransaction.sol\":1297:1495  function getPaymentByID(bytes20 _payment_ID) public view returns (ClientTransaction memory ct){\r... */\n    tag_34:\n        /* \"contracts/BankTransaction.sol\":1363:1390  ClientTransaction memory ct */\n      tag_66\n      tag_45\n      jump\t// in\n    tag_66:\n        /* \"contracts/BankTransaction.sol\":1407:1425  clienttransactions */\n      0x01\n        /* \"contracts/BankTransaction.sol\":1407:1438  clienttransactions[_payment_ID] */\n      0x00\n        /* \"contracts/BankTransaction.sol\":1426:1437  _payment_ID */\n      dup4\n        /* \"contracts/BankTransaction.sol\":1407:1438  clienttransactions[_payment_ID] */\n      not(0xffffffffffffffffffffffff)\n      and\n      not(0xffffffffffffffffffffffff)\n      and\n      dup2\n      mstore\n      0x20\n      add\n      swap1\n      dup2\n      mstore\n      0x20\n      add\n      0x00\n      keccak256\n        /* \"contracts/BankTransaction.sol\":1402:1438  ct = clienttransactions[_payment_ID] */\n      mload(0x40)\n      dup1\n      0xe0\n      add\n      0x40\n      mstore\n      swap1\n      dup2\n      0x00\n      dup3\n      add\n      0x00\n      swap1\n      sload\n      swap1\n      0x0100\n      exp\n      swap1\n      div\n      0x60\n      shl\n      not(0xffffffffffffffffffffffff)\n      and\n      not(0xffffffffffffffffffffffff)\n      and\n      dup2\n      mstore\n      0x20\n      add\n      0x01\n      dup3\n      add\n      0x00\n      swap1\n      sload\n      swap1\n      0x0100\n      exp\n      swap1\n      div\n      0xffffffffffffffffffffffffffffffffffffffff\n      and\n      0xffffffffffffffffffffffffffffffffffffffff\n      and\n      0xffffffffffffffffffffffffffffffffffffffff\n      and\n      dup2\n      mstore\n      0x20\n      add\n      0x02\n      dup3\n      add\n      0x00\n      swap1\n      sload\n      swap1\n      0x0100\n      exp\n      swap1\n      div\n      0xffffffffffffffffffffffffffffffffffffffff\n      and\n      0xffffffffffffffffffffffffffffffffffffffff\n      and\n      0xffffffffffffffffffffffffffffffffffffffff\n      and\n      dup2\n      mstore\n      0x20\n      add\n      0x03\n      dup3\n      add\n      sload\n      dup2\n      mstore\n      0x20\n      add\n      0x04\n      dup3\n      add\n      sload\n      dup2\n      mstore\n      0x20\n      add\n      0x05\n      dup3\n      add\n      dup1\n      sload\n      tag_68\n      swap1\n      tag_39\n      jump\t// in\n    tag_68:\n      dup1\n      0x1f\n      add\n      0x20\n      dup1\n      swap2\n      div\n      mul\n      0x20\n      add\n      mload(0x40)\n      swap1\n      dup2\n      add\n      0x40\n      mstore\n      dup1\n      swap3\n      swap2\n      swap1\n      dup2\n      dup2\n      mstore\n      0x20\n      add\n      dup3\n      dup1\n      sload\n      tag_69\n      swap1\n      tag_39\n      jump\t// in\n    tag_69:\n      dup1\n      iszero\n      tag_70\n      jumpi\n      dup1\n      0x1f\n      lt\n      tag_71\n      jumpi\n      0x0100\n      dup1\n      dup4\n      sload\n      div\n      mul\n      dup4\n      mstore\n      swap2\n      0x20\n      add\n      swap2\n      jump(tag_70)\n    tag_71:\n      dup3\n      add\n      swap2\n      swap1\n      0x00\n      mstore\n      keccak256(0x00, 0x20)\n      swap1\n    tag_72:\n      dup2\n      sload\n      dup2\n      mstore\n      swap1\n      0x01\n      add\n      swap1\n      0x20\n      add\n      dup1\n      dup4\n      gt\n      tag_72\n      jumpi\n      dup3\n      swap1\n      sub\n      0x1f\n      and\n      dup3\n      add\n      swap2\n    tag_70:\n      pop\n      pop\n      pop\n      pop\n      pop\n      dup2\n      mstore\n      0x20\n      add\n      0x06\n      dup3\n      add\n      0x00\n      swap1\n      sload\n      swap1\n      0x0100\n      exp\n      swap1\n      div\n      0x60\n      shl\n      not(0xffffffffffffffffffffffff)\n      and\n      not(0xffffffffffffffffffffffff)\n      and\n      dup2\n      mstore\n      pop\n      pop\n      swap1\n      pop\n        /* \"contracts/BankTransaction.sol\":1456:1474  clienttransactions */\n      0x01\n        /* \"contracts/BankTransaction.sol\":1456:1487  clienttransactions[_payment_ID] */\n      0x00\n        /* \"contracts/BankTransaction.sol\":1475:1486  _payment_ID */\n      dup4\n        /* \"contracts/BankTransaction.sol\":1456:1487  clienttransactions[_payment_ID] */\n      not(0xffffffffffffffffffffffff)\n      and\n      not(0xffffffffffffffffffffffff)\n      and\n      dup2\n      mstore\n      0x20\n      add\n      swap1\n      dup2\n      mstore\n      0x20\n      add\n      0x00\n      keccak256\n        /* \"contracts/BankTransaction.sol\":1449:1487  return clienttransactions[_payment_ID] */\n      mload(0x40)\n      dup1\n      0xe0\n      add\n      0x40\n      mstore\n      swap1\n      dup2\n      0x00\n      dup3\n      add\n      0x00\n      swap1\n      sload\n      swap1\n      0x0100\n      exp\n      swap1\n      div\n      0x60\n      shl\n      not(0xffffffffffffffffffffffff)\n      and\n      not(0xffffffffffffffffffffffff)\n      and\n      dup2\n      mstore\n      0x20\n      add\n      0x01\n      dup3\n      add\n      0x00\n      swap1\n      sload\n      swap1\n      0x0100\n      exp\n      swap1\n      div\n      0xffffffffffffffffffffffffffffffffffffffff\n      and\n      0xffffffffffffffffffffffffffffffffffffffff\n      and\n      0xffffffffffffffffffffffffffffffffffffffff\n      and\n      dup2\n      mstore\n      0x20\n      add\n      0x02\n      dup3\n      add\n      0x00\n      swap1\n      sload\n      swap1\n      0x0100\n      exp\n      swap1\n      div\n      0xffffffffffffffffffffffffffffffffffffffff\n      and\n      0xffffffffffffffffffffffffffffffffffffffff\n      and\n      0xffffffffffffffffffffffffffffffffffffffff\n      and\n      dup2\n      mstore\n      0x20\n      add\n      0x03\n      dup3\n      add\n      sload\n      dup2\n      mstore\n      0x20\n      add\n      0x04\n      dup3\n      add\n      sload\n      dup2\n      mstore\n      0x20\n      add\n      0x05\n      dup3\n      add\n      dup1\n      sload\n      tag_73\n      swap1\n      tag_39\n      jump\t// in\n    tag_73:\n      dup1\n      0x1f\n      add\n      0x20\n      dup1\n      swap2\n      div\n      mul\n      0x20\n      add\n      mload(0x40)\n      swap1\n      dup2\n      add\n      0x40\n      mstore\n      dup1\n      swap3\n      swap2\n      swap1\n      dup2\n      dup2\n      mstore\n      0x20\n      add\n      dup3\n      dup1\n      sload\n      tag_74\n      swap1\n      tag_39\n      jump\t// in\n    tag_74:\n      dup1\n      iszero\n      tag_75\n      jumpi\n      dup1\n      0x1f\n      lt\n      tag_76\n      jumpi\n      0x0100\n      dup1\n      dup4\n      sload\n      div\n      mul\n      dup4\n      mstore\n      swap2\n      0x20\n      add\n      swap2\n      jump(tag_75)\n    tag_76:\n      dup3\n      add\n      swap2\n      swap1\n      0x00\n      mstore\n      keccak256(0x00, 0x20)\n      swap1\n    tag_77:\n      dup2\n      sload\n      dup2\n      mstore\n      swap1\n      0x01\n      add\n      swap1\n      0x20\n      add\n      dup1\n      dup4\n      gt\n      tag_77\n      jumpi\n      dup3\n      swap1\n      sub\n      0x1f\n      and\n      dup3\n      add\n      swap2\n    tag_75:\n      pop\n      pop\n      pop\n      pop\n      pop\n      dup2\n      mstore\n      0x20\n      add\n      0x06\n      dup3\n      add\n      0x00\n      swap1\n      sload\n      swap1\n      0x0100\n      exp\n      swap1\n      div\n      0x60\n      shl\n      not(0xffffffffffffffffffffffff)\n      and\n      not(0xffffffffffffffffffffffff)\n      and\n      dup2\n      mstore\n      pop\n      pop\n      swap1\n      pop\n        /* \"contracts/BankTransaction.sol\":1297:1495  function getPaymentByID(bytes20 _payment_ID) public view returns (ClientTransaction memory ct){\r... */\n      swap2\n      swap1\n      pop\n      jump\t// out\n    tag_45:\n      mload(0x40)\n      dup1\n      0xe0\n      add\n      0x40\n      mstore\n      dup1\n      and(not(0xffffffffffffffffffffffff), 0x00)\n      dup2\n      mstore\n      0x20\n      add\n      and(0xffffffffffffffffffffffffffffffffffffffff, 0x00)\n      dup2\n      mstore\n      0x20\n      add\n      and(0xffffffffffffffffffffffffffffffffffffffff, 0x00)\n      dup2\n      mstore\n      0x20\n      add\n      0x00\n      dup2\n      mstore\n      0x20\n      add\n      0x00\n      dup2\n      mstore\n      0x20\n      add\n      0x60\n      dup2\n      mstore\n      0x20\n      add\n      and(not(0xffffffffffffffffffffffff), 0x00)\n      dup2\n      mstore\n      pop\n      swap1\n      jump\t// out\n    tag_59:\n      dup3\n      dup1\n      sload\n      tag_78\n      swap1\n      tag_39\n      jump\t// in\n    tag_78:\n      swap1\n      0x00\n      mstore\n      keccak256(0x00, 0x20)\n      swap1\n      0x1f\n      add\n      0x20\n      swap1\n      div\n      dup2\n      add\n      swap3\n      dup3\n      tag_80\n      jumpi\n      0x00\n      dup6\n      sstore\n      jump(tag_79)\n    tag_80:\n      dup3\n      0x1f\n      lt\n      tag_81\n      jumpi\n      dup1\n      mload\n      not(0xff)\n      and\n      dup4\n      dup1\n      add\n      or\n      dup6\n      sstore\n      jump(tag_79)\n    tag_81:\n      dup3\n      dup1\n      add\n      0x01\n      add\n      dup6\n      sstore\n      dup3\n      iszero\n      tag_79\n      jumpi\n      swap2\n      dup3\n      add\n    tag_82:\n      dup3\n      dup2\n      gt\n      iszero\n      tag_83\n      jumpi\n      dup3\n      mload\n      dup3\n      sstore\n      swap2\n      0x20\n      add\n      swap2\n      swap1\n      0x01\n      add\n      swap1\n      jump(tag_82)\n    tag_83:\n    tag_79:\n      pop\n      swap1\n      pop\n      tag_84\n      swap2\n      swap1\n      tag_85\n      jump\t// in\n    tag_84:\n      pop\n      swap1\n      jump\t// out\n    tag_85:\n    tag_86:\n      dup1\n      dup3\n      gt\n      iszero\n      tag_87\n      jumpi\n      0x00\n      dup2\n      0x00\n      swap1\n      sstore\n      pop\n      0x01\n      add\n      jump(tag_86)\n    tag_87:\n      pop\n      swap1\n      jump\t// out\n        /* \"#utility.yul\":7:146   */\n    tag_89:\n        /* \"#utility.yul\":53:58   */\n      0x00\n        /* \"#utility.yul\":91:97   */\n      dup2\n        /* \"#utility.yul\":78:98   */\n      calldataload\n        /* \"#utility.yul\":69:98   */\n      swap1\n      pop\n        /* \"#utility.yul\":107:140   */\n      tag_91\n        /* \"#utility.yul\":134:139   */\n      dup2\n        /* \"#utility.yul\":107:140   */\n      tag_92\n      jump\t// in\n    tag_91:\n        /* \"#utility.yul\":7:146   */\n      swap3\n      swap2\n      pop\n      pop\n      jump\t// out\n        /* \"#utility.yul\":152:291   */\n    tag_93:\n        /* \"#utility.yul\":198:203   */\n      0x00\n        /* \"#utility.yul\":236:242   */\n      dup2\n        /* \"#utility.yul\":223:243   */\n      calldataload\n        /* \"#utility.yul\":214:243   */\n      swap1\n      pop\n        /* \"#utility.yul\":252:285   */\n      tag_95\n        /* \"#utility.yul\":279:284   */\n      dup2\n        /* \"#utility.yul\":252:285   */\n      tag_96\n      jump\t// in\n    tag_95:\n        /* \"#utility.yul\":152:291   */\n      swap3\n      swap2\n      pop\n      pop\n      jump\t// out\n        /* \"#utility.yul\":311:864   */\n    tag_97:\n        /* \"#utility.yul\":369:377   */\n      0x00\n        /* \"#utility.yul\":379:385   */\n      dup1\n        /* \"#utility.yul\":429:432   */\n      dup4\n        /* \"#utility.yul\":422:426   */\n      0x1f\n        /* \"#utility.yul\":414:420   */\n      dup5\n        /* \"#utility.yul\":410:427   */\n      add\n        /* \"#utility.yul\":406:433   */\n      slt\n        /* \"#utility.yul\":396:518   */\n      tag_99\n      jumpi\n        /* \"#utility.yul\":437:516   */\n      tag_100\n      tag_101\n      jump\t// in\n    tag_100:\n        /* \"#utility.yul\":396:518   */\n    tag_99:\n        /* \"#utility.yul\":550:556   */\n      dup3\n        /* \"#utility.yul\":537:557   */\n      calldataload\n        /* \"#utility.yul\":527:557   */\n      swap1\n      pop\n        /* \"#utility.yul\":580:598   */\n      0xffffffffffffffff\n        /* \"#utility.yul\":572:578   */\n      dup2\n        /* \"#utility.yul\":569:599   */\n      gt\n        /* \"#utility.yul\":566:683   */\n      iszero\n      tag_102\n      jumpi\n        /* \"#utility.yul\":602:681   */\n      tag_103\n      tag_104\n      jump\t// in\n    tag_103:\n        /* \"#utility.yul\":566:683   */\n    tag_102:\n        /* \"#utility.yul\":716:720   */\n      0x20\n        /* \"#utility.yul\":708:714   */\n      dup4\n        /* \"#utility.yul\":704:721   */\n      add\n        /* \"#utility.yul\":692:721   */\n      swap2\n      pop\n        /* \"#utility.yul\":770:773   */\n      dup4\n        /* \"#utility.yul\":762:766   */\n      0x01\n        /* \"#utility.yul\":754:760   */\n      dup3\n        /* \"#utility.yul\":750:767   */\n      mul\n        /* \"#utility.yul\":740:748   */\n      dup4\n        /* \"#utility.yul\":736:768   */\n      add\n        /* \"#utility.yul\":733:774   */\n      gt\n        /* \"#utility.yul\":730:858   */\n      iszero\n      tag_105\n      jumpi\n        /* \"#utility.yul\":777:856   */\n      tag_106\n      tag_107\n      jump\t// in\n    tag_106:\n        /* \"#utility.yul\":730:858   */\n    tag_105:\n        /* \"#utility.yul\":311:864   */\n      swap3\n      pop\n      swap3\n      swap1\n      pop\n      jump\t// out\n        /* \"#utility.yul\":870:1009   */\n    tag_108:\n        /* \"#utility.yul\":916:921   */\n      0x00\n        /* \"#utility.yul\":954:960   */\n      dup2\n        /* \"#utility.yul\":941:961   */\n      calldataload\n        /* \"#utility.yul\":932:961   */\n      swap1\n      pop\n        /* \"#utility.yul\":970:1003   */\n      tag_110\n        /* \"#utility.yul\":997:1002   */\n      dup2\n        /* \"#utility.yul\":970:1003   */\n      tag_111\n      jump\t// in\n    tag_110:\n        /* \"#utility.yul\":870:1009   */\n      swap3\n      swap2\n      pop\n      pop\n      jump\t// out\n        /* \"#utility.yul\":1015:1344   */\n    tag_28:\n        /* \"#utility.yul\":1074:1080   */\n      0x00\n        /* \"#utility.yul\":1123:1125   */\n      0x20\n        /* \"#utility.yul\":1111:1120   */\n      dup3\n        /* \"#utility.yul\":1102:1109   */\n      dup5\n        /* \"#utility.yul\":1098:1121   */\n      sub\n        /* \"#utility.yul\":1094:1126   */\n      slt\n        /* \"#utility.yul\":1091:1210   */\n      iszero\n      tag_113\n      jumpi\n        /* \"#utility.yul\":1129:1208   */\n      tag_114\n      tag_115\n      jump\t// in\n    tag_114:\n        /* \"#utility.yul\":1091:1210   */\n    tag_113:\n        /* \"#utility.yul\":1249:1250   */\n      0x00\n        /* \"#utility.yul\":1274:1327   */\n      tag_116\n        /* \"#utility.yul\":1319:1326   */\n      dup5\n        /* \"#utility.yul\":1310:1316   */\n      dup3\n        /* \"#utility.yul\":1299:1308   */\n      dup6\n        /* \"#utility.yul\":1295:1317   */\n      add\n        /* \"#utility.yul\":1274:1327   */\n      tag_89\n      jump\t// in\n    tag_116:\n        /* \"#utility.yul\":1264:1327   */\n      swap2\n      pop\n        /* \"#utility.yul\":1220:1337   */\n      pop\n        /* \"#utility.yul\":1015:1344   */\n      swap3\n      swap2\n      pop\n      pop\n      jump\t// out\n        /* \"#utility.yul\":1350:1824   */\n    tag_10:\n        /* \"#utility.yul\":1418:1424   */\n      0x00\n        /* \"#utility.yul\":1426:1432   */\n      dup1\n        /* \"#utility.yul\":1475:1477   */\n      0x40\n        /* \"#utility.yul\":1463:1472   */\n      dup4\n        /* \"#utility.yul\":1454:1461   */\n      dup6\n        /* \"#utility.yul\":1450:1473   */\n      sub\n        /* \"#utility.yul\":1446:1478   */\n      slt\n        /* \"#utility.yul\":1443:1562   */\n      iszero\n      tag_118\n      jumpi\n        /* \"#utility.yul\":1481:1560   */\n      tag_119\n      tag_115\n      jump\t// in\n    tag_119:\n        /* \"#utility.yul\":1443:1562   */\n    tag_118:\n        /* \"#utility.yul\":1601:1602   */\n      0x00\n        /* \"#utility.yul\":1626:1679   */\n      tag_120\n        /* \"#utility.yul\":1671:1678   */\n      dup6\n        /* \"#utility.yul\":1662:1668   */\n      dup3\n        /* \"#utility.yul\":1651:1660   */\n      dup7\n        /* \"#utility.yul\":1647:1669   */\n      add\n        /* \"#utility.yul\":1626:1679   */\n      tag_89\n      jump\t// in\n    tag_120:\n        /* \"#utility.yul\":1616:1679   */\n      swap3\n      pop\n        /* \"#utility.yul\":1572:1689   */\n      pop\n        /* \"#utility.yul\":1728:1730   */\n      0x20\n        /* \"#utility.yul\":1754:1807   */\n      tag_121\n        /* \"#utility.yul\":1799:1806   */\n      dup6\n        /* \"#utility.yul\":1790:1796   */\n      dup3\n        /* \"#utility.yul\":1779:1788   */\n      dup7\n        /* \"#utility.yul\":1775:1797   */\n      add\n        /* \"#utility.yul\":1754:1807   */\n      tag_108\n      jump\t// in\n    tag_121:\n        /* \"#utility.yul\":1744:1807   */\n      swap2\n      pop\n        /* \"#utility.yul\":1699:1817   */\n      pop\n        /* \"#utility.yul\":1350:1824   */\n      swap3\n      pop\n      swap3\n      swap1\n      pop\n      jump\t// out\n        /* \"#utility.yul\":1830:2649   */\n    tag_22:\n        /* \"#utility.yul\":1919:1925   */\n      0x00\n        /* \"#utility.yul\":1927:1933   */\n      dup1\n        /* \"#utility.yul\":1935:1941   */\n      0x00\n        /* \"#utility.yul\":1943:1949   */\n      dup1\n        /* \"#utility.yul\":1992:1994   */\n      0x60\n        /* \"#utility.yul\":1980:1989   */\n      dup6\n        /* \"#utility.yul\":1971:1978   */\n      dup8\n        /* \"#utility.yul\":1967:1990   */\n      sub\n        /* \"#utility.yul\":1963:1995   */\n      slt\n        /* \"#utility.yul\":1960:2079   */\n      iszero\n      tag_123\n      jumpi\n        /* \"#utility.yul\":1998:2077   */\n      tag_124\n      tag_115\n      jump\t// in\n    tag_124:\n        /* \"#utility.yul\":1960:2079   */\n    tag_123:\n        /* \"#utility.yul\":2118:2119   */\n      0x00\n        /* \"#utility.yul\":2143:2196   */\n      tag_125\n        /* \"#utility.yul\":2188:2195   */\n      dup8\n        /* \"#utility.yul\":2179:2185   */\n      dup3\n        /* \"#utility.yul\":2168:2177   */\n      dup9\n        /* \"#utility.yul\":2164:2186   */\n      add\n        /* \"#utility.yul\":2143:2196   */\n      tag_89\n      jump\t// in\n    tag_125:\n        /* \"#utility.yul\":2133:2196   */\n      swap5\n      pop\n        /* \"#utility.yul\":2089:2206   */\n      pop\n        /* \"#utility.yul\":2245:2247   */\n      0x20\n        /* \"#utility.yul\":2271:2324   */\n      tag_126\n        /* \"#utility.yul\":2316:2323   */\n      dup8\n        /* \"#utility.yul\":2307:2313   */\n      dup3\n        /* \"#utility.yul\":2296:2305   */\n      dup9\n        /* \"#utility.yul\":2292:2314   */\n      add\n        /* \"#utility.yul\":2271:2324   */\n      tag_108\n      jump\t// in\n    tag_126:\n        /* \"#utility.yul\":2261:2324   */\n      swap4\n      pop\n        /* \"#utility.yul\":2216:2334   */\n      pop\n        /* \"#utility.yul\":2401:2403   */\n      0x40\n        /* \"#utility.yul\":2390:2399   */\n      dup6\n        /* \"#utility.yul\":2386:2404   */\n      add\n        /* \"#utility.yul\":2373:2405   */\n      calldataload\n        /* \"#utility.yul\":2432:2450   */\n      0xffffffffffffffff\n        /* \"#utility.yul\":2424:2430   */\n      dup2\n        /* \"#utility.yul\":2421:2451   */\n      gt\n        /* \"#utility.yul\":2418:2535   */\n      iszero\n      tag_127\n      jumpi\n        /* \"#utility.yul\":2454:2533   */\n      tag_128\n      tag_129\n      jump\t// in\n    tag_128:\n        /* \"#utility.yul\":2418:2535   */\n    tag_127:\n        /* \"#utility.yul\":2567:2632   */\n      tag_130\n        /* \"#utility.yul\":2624:2631   */\n      dup8\n        /* \"#utility.yul\":2615:2621   */\n      dup3\n        /* \"#utility.yul\":2604:2613   */\n      dup9\n        /* \"#utility.yul\":2600:2622   */\n      add\n        /* \"#utility.yul\":2567:2632   */\n      tag_97\n      jump\t// in\n    tag_130:\n        /* \"#utility.yul\":2549:2632   */\n      swap3\n      pop\n      swap3\n      pop\n        /* \"#utility.yul\":2344:2642   */\n      pop\n        /* \"#utility.yul\":1830:2649   */\n      swap3\n      swap6\n      swap2\n      swap5\n      pop\n      swap3\n      pop\n      jump\t// out\n        /* \"#utility.yul\":2655:2984   */\n    tag_16:\n        /* \"#utility.yul\":2714:2720   */\n      0x00\n        /* \"#utility.yul\":2763:2765   */\n      0x20\n        /* \"#utility.yul\":2751:2760   */\n      dup3\n        /* \"#utility.yul\":2742:2749   */\n      dup5\n        /* \"#utility.yul\":2738:2761   */\n      sub\n        /* \"#utility.yul\":2734:2766   */\n      slt\n        /* \"#utility.yul\":2731:2850   */\n      iszero\n      tag_132\n      jumpi\n        /* \"#utility.yul\":2769:2848   */\n      tag_133\n      tag_115\n      jump\t// in\n    tag_133:\n        /* \"#utility.yul\":2731:2850   */\n    tag_132:\n        /* \"#utility.yul\":2889:2890   */\n      0x00\n        /* \"#utility.yul\":2914:2967   */\n      tag_134\n        /* \"#utility.yul\":2959:2966   */\n      dup5\n        /* \"#utility.yul\":2950:2956   */\n      dup3\n        /* \"#utility.yul\":2939:2948   */\n      dup6\n        /* \"#utility.yul\":2935:2957   */\n      add\n        /* \"#utility.yul\":2914:2967   */\n      tag_93\n      jump\t// in\n    tag_134:\n        /* \"#utility.yul\":2904:2967   */\n      swap2\n      pop\n        /* \"#utility.yul\":2860:2977   */\n      pop\n        /* \"#utility.yul\":2655:2984   */\n      swap3\n      swap2\n      pop\n      pop\n      jump\t// out\n        /* \"#utility.yul\":2990:3169   */\n    tag_135:\n        /* \"#utility.yul\":3059:3069   */\n      0x00\n        /* \"#utility.yul\":3080:3126   */\n      tag_137\n        /* \"#utility.yul\":3122:3125   */\n      dup4\n        /* \"#utility.yul\":3114:3120   */\n      dup4\n        /* \"#utility.yul\":3080:3126   */\n      tag_138\n      jump\t// in\n    tag_137:\n        /* \"#utility.yul\":3158:3162   */\n      0x20\n        /* \"#utility.yul\":3153:3156   */\n      dup4\n        /* \"#utility.yul\":3149:3163   */\n      add\n        /* \"#utility.yul\":3135:3163   */\n      swap1\n      pop\n        /* \"#utility.yul\":2990:3169   */\n      swap3\n      swap2\n      pop\n      pop\n      jump\t// out\n        /* \"#utility.yul\":3175:3283   */\n    tag_139:\n        /* \"#utility.yul\":3252:3276   */\n      tag_141\n        /* \"#utility.yul\":3270:3275   */\n      dup2\n        /* \"#utility.yul\":3252:3276   */\n      tag_142\n      jump\t// in\n    tag_141:\n        /* \"#utility.yul\":3247:3250   */\n      dup3\n        /* \"#utility.yul\":3240:3277   */\n      mstore\n        /* \"#utility.yul\":3175:3283   */\n      pop\n      pop\n      jump\t// out\n        /* \"#utility.yul\":3289:3407   */\n    tag_143:\n        /* \"#utility.yul\":3376:3400   */\n      tag_145\n        /* \"#utility.yul\":3394:3399   */\n      dup2\n        /* \"#utility.yul\":3376:3400   */\n      tag_142\n      jump\t// in\n    tag_145:\n        /* \"#utility.yul\":3371:3374   */\n      dup3\n        /* \"#utility.yul\":3364:3401   */\n      mstore\n        /* \"#utility.yul\":3289:3407   */\n      pop\n      pop\n      jump\t// out\n        /* \"#utility.yul\":3413:3570   */\n    tag_146:\n        /* \"#utility.yul\":3518:3563   */\n      tag_148\n        /* \"#utility.yul\":3538:3562   */\n      tag_149\n        /* \"#utility.yul\":3556:3561   */\n      dup3\n        /* \"#utility.yul\":3538:3562   */\n      tag_142\n      jump\t// in\n    tag_149:\n        /* \"#utility.yul\":3518:3563   */\n      tag_150\n      jump\t// in\n    tag_148:\n        /* \"#utility.yul\":3513:3516   */\n      dup3\n        /* \"#utility.yul\":3506:3564   */\n      mstore\n        /* \"#utility.yul\":3413:3570   */\n      pop\n      pop\n      jump\t// out\n        /* \"#utility.yul\":3606:4338   */\n    tag_151:\n        /* \"#utility.yul\":3725:3728   */\n      0x00\n        /* \"#utility.yul\":3754:3808   */\n      tag_153\n        /* \"#utility.yul\":3802:3807   */\n      dup3\n        /* \"#utility.yul\":3754:3808   */\n      tag_154\n      jump\t// in\n    tag_153:\n        /* \"#utility.yul\":3824:3910   */\n      tag_155\n        /* \"#utility.yul\":3903:3909   */\n      dup2\n        /* \"#utility.yul\":3898:3901   */\n      dup6\n        /* \"#utility.yul\":3824:3910   */\n      tag_156\n      jump\t// in\n    tag_155:\n        /* \"#utility.yul\":3817:3910   */\n      swap4\n      pop\n        /* \"#utility.yul\":3934:3990   */\n      tag_157\n        /* \"#utility.yul\":3984:3989   */\n      dup4\n        /* \"#utility.yul\":3934:3990   */\n      tag_158\n      jump\t// in\n    tag_157:\n        /* \"#utility.yul\":4013:4020   */\n      dup1\n        /* \"#utility.yul\":4044:4045   */\n      0x00\n        /* \"#utility.yul\":4029:4313   */\n    tag_159:\n        /* \"#utility.yul\":4054:4060   */\n      dup4\n        /* \"#utility.yul\":4051:4052   */\n      dup2\n        /* \"#utility.yul\":4048:4061   */\n      lt\n        /* \"#utility.yul\":4029:4313   */\n      iszero\n      tag_161\n      jumpi\n        /* \"#utility.yul\":4130:4136   */\n      dup2\n        /* \"#utility.yul\":4124:4137   */\n      mload\n        /* \"#utility.yul\":4157:4220   */\n      tag_162\n        /* \"#utility.yul\":4216:4219   */\n      dup9\n        /* \"#utility.yul\":4201:4214   */\n      dup3\n        /* \"#utility.yul\":4157:4220   */\n      tag_135\n      jump\t// in\n    tag_162:\n        /* \"#utility.yul\":4150:4220   */\n      swap8\n      pop\n        /* \"#utility.yul\":4243:4303   */\n      tag_163\n        /* \"#utility.yul\":4296:4302   */\n      dup4\n        /* \"#utility.yul\":4243:4303   */\n      tag_164\n      jump\t// in\n    tag_163:\n        /* \"#utility.yul\":4233:4303   */\n      swap3\n      pop\n        /* \"#utility.yul\":4089:4313   */\n      pop\n        /* \"#utility.yul\":4076:4077   */\n      0x01\n        /* \"#utility.yul\":4073:4074   */\n      dup2\n        /* \"#utility.yul\":4069:4078   */\n      add\n        /* \"#utility.yul\":4064:4078   */\n      swap1\n      pop\n        /* \"#utility.yul\":4029:4313   */\n      jump(tag_159)\n    tag_161:\n        /* \"#utility.yul\":4033:4047   */\n      pop\n        /* \"#utility.yul\":4329:4332   */\n      dup6\n        /* \"#utility.yul\":4322:4332   */\n      swap4\n      pop\n        /* \"#utility.yul\":3730:4338   */\n      pop\n      pop\n      pop\n        /* \"#utility.yul\":3606:4338   */\n      swap3\n      swap2\n      pop\n      pop\n      jump\t// out\n        /* \"#utility.yul\":4344:4452   */\n    tag_138:\n        /* \"#utility.yul\":4421:4445   */\n      tag_166\n        /* \"#utility.yul\":4439:4444   */\n      dup2\n        /* \"#utility.yul\":4421:4445   */\n      tag_167\n      jump\t// in\n    tag_166:\n        /* \"#utility.yul\":4416:4419   */\n      dup3\n        /* \"#utility.yul\":4409:4446   */\n      mstore\n        /* \"#utility.yul\":4344:4452   */\n      pop\n      pop\n      jump\t// out\n        /* \"#utility.yul\":4458:4576   */\n    tag_168:\n        /* \"#utility.yul\":4545:4569   */\n      tag_170\n        /* \"#utility.yul\":4563:4568   */\n      dup2\n        /* \"#utility.yul\":4545:4569   */\n      tag_167\n      jump\t// in\n    tag_170:\n        /* \"#utility.yul\":4540:4543   */\n      dup3\n        /* \"#utility.yul\":4533:4570   */\n      mstore\n        /* \"#utility.yul\":4458:4576   */\n      pop\n      pop\n      jump\t// out\n        /* \"#utility.yul\":4582:4739   */\n    tag_171:\n        /* \"#utility.yul\":4687:4732   */\n      tag_173\n        /* \"#utility.yul\":4707:4731   */\n      tag_174\n        /* \"#utility.yul\":4725:4730   */\n      dup3\n        /* \"#utility.yul\":4707:4731   */\n      tag_167\n      jump\t// in\n    tag_174:\n        /* \"#utility.yul\":4687:4732   */\n      tag_175\n      jump\t// in\n    tag_173:\n        /* \"#utility.yul\":4682:4685   */\n      dup3\n        /* \"#utility.yul\":4675:4733   */\n      mstore\n        /* \"#utility.yul\":4582:4739   */\n      pop\n      pop\n      jump\t// out\n        /* \"#utility.yul\":4745:5118   */\n    tag_176:\n        /* \"#utility.yul\":4849:4852   */\n      0x00\n        /* \"#utility.yul\":4877:4915   */\n      tag_178\n        /* \"#utility.yul\":4909:4914   */\n      dup3\n        /* \"#utility.yul\":4877:4915   */\n      tag_179\n      jump\t// in\n    tag_178:\n        /* \"#utility.yul\":4931:5019   */\n      tag_180\n        /* \"#utility.yul\":5012:5018   */\n      dup2\n        /* \"#utility.yul\":5007:5010   */\n      dup6\n        /* \"#utility.yul\":4931:5019   */\n      tag_181\n      jump\t// in\n    tag_180:\n        /* \"#utility.yul\":4924:5019   */\n      swap4\n      pop\n        /* \"#utility.yul\":5028:5080   */\n      tag_182\n        /* \"#utility.yul\":5073:5079   */\n      dup2\n        /* \"#utility.yul\":5068:5071   */\n      dup6\n        /* \"#utility.yul\":5061:5065   */\n      0x20\n        /* \"#utility.yul\":5054:5059   */\n      dup7\n        /* \"#utility.yul\":5050:5066   */\n      add\n        /* \"#utility.yul\":5028:5080   */\n      tag_183\n      jump\t// in\n    tag_182:\n        /* \"#utility.yul\":5105:5111   */\n      dup1\n        /* \"#utility.yul\":5100:5103   */\n      dup5\n        /* \"#utility.yul\":5096:5112   */\n      add\n        /* \"#utility.yul\":5089:5112   */\n      swap2\n      pop\n        /* \"#utility.yul\":4853:5118   */\n      pop\n        /* \"#utility.yul\":4745:5118   */\n      swap3\n      swap2\n      pop\n      pop\n      jump\t// out\n        /* \"#utility.yul\":5148:5465   */\n    tag_184:\n        /* \"#utility.yul\":5264:5267   */\n      0x00\n        /* \"#utility.yul\":5285:5374   */\n      tag_186\n        /* \"#utility.yul\":5367:5373   */\n      dup4\n        /* \"#utility.yul\":5362:5365   */\n      dup6\n        /* \"#utility.yul\":5285:5374   */\n      tag_187\n      jump\t// in\n    tag_186:\n        /* \"#utility.yul\":5278:5374   */\n      swap4\n      pop\n        /* \"#utility.yul\":5384:5427   */\n      tag_188\n        /* \"#utility.yul\":5420:5426   */\n      dup4\n        /* \"#utility.yul\":5415:5418   */\n      dup6\n        /* \"#utility.yul\":5408:5413   */\n      dup5\n        /* \"#utility.yul\":5384:5427   */\n      tag_189\n      jump\t// in\n    tag_188:\n        /* \"#utility.yul\":5452:5458   */\n      dup3\n        /* \"#utility.yul\":5447:5450   */\n      dup5\n        /* \"#utility.yul\":5443:5459   */\n      add\n        /* \"#utility.yul\":5436:5459   */\n      swap1\n      pop\n        /* \"#utility.yul\":5148:5465   */\n      swap4\n      swap3\n      pop\n      pop\n      pop\n      jump\t// out\n        /* \"#utility.yul\":5471:5815   */\n    tag_190:\n        /* \"#utility.yul\":5549:5552   */\n      0x00\n        /* \"#utility.yul\":5577:5616   */\n      tag_192\n        /* \"#utility.yul\":5610:5615   */\n      dup3\n        /* \"#utility.yul\":5577:5616   */\n      tag_193\n      jump\t// in\n    tag_192:\n        /* \"#utility.yul\":5632:5693   */\n      tag_194\n        /* \"#utility.yul\":5686:5692   */\n      dup2\n        /* \"#utility.yul\":5681:5684   */\n      dup6\n        /* \"#utility.yul\":5632:5693   */\n      tag_195\n      jump\t// in\n    tag_194:\n        /* \"#utility.yul\":5625:5693   */\n      swap4\n      pop\n        /* \"#utility.yul\":5702:5754   */\n      tag_196\n        /* \"#utility.yul\":5747:5753   */\n      dup2\n        /* \"#utility.yul\":5742:5745   */\n      dup6\n        /* \"#utility.yul\":5735:5739   */\n      0x20\n        /* \"#utility.yul\":5728:5733   */\n      dup7\n        /* \"#utility.yul\":5724:5740   */\n      add\n        /* \"#utility.yul\":5702:5754   */\n      tag_183\n      jump\t// in\n    tag_196:\n        /* \"#utility.yul\":5779:5808   */\n      tag_197\n        /* \"#utility.yul\":5801:5807   */\n      dup2\n        /* \"#utility.yul\":5779:5808   */\n      tag_198\n      jump\t// in\n    tag_197:\n        /* \"#utility.yul\":5774:5777   */\n      dup5\n        /* \"#utility.yul\":5770:5809   */\n      add\n        /* \"#utility.yul\":5763:5809   */\n      swap2\n      pop\n        /* \"#utility.yul\":5553:5815   */\n      pop\n        /* \"#utility.yul\":5471:5815   */\n      swap3\n      swap2\n      pop\n      pop\n      jump\t// out\n        /* \"#utility.yul\":5821:6185   */\n    tag_199:\n        /* \"#utility.yul\":5909:5912   */\n      0x00\n        /* \"#utility.yul\":5937:5976   */\n      tag_201\n        /* \"#utility.yul\":5970:5975   */\n      dup3\n        /* \"#utility.yul\":5937:5976   */\n      tag_193\n      jump\t// in\n    tag_201:\n        /* \"#utility.yul\":5992:6063   */\n      tag_202\n        /* \"#utility.yul\":6056:6062   */\n      dup2\n        /* \"#utility.yul\":6051:6054   */\n      dup6\n        /* \"#utility.yul\":5992:6063   */\n      tag_203\n      jump\t// in\n    tag_202:\n        /* \"#utility.yul\":5985:6063   */\n      swap4\n      pop\n        /* \"#utility.yul\":6072:6124   */\n      tag_204\n        /* \"#utility.yul\":6117:6123   */\n      dup2\n        /* \"#utility.yul\":6112:6115   */\n      dup6\n        /* \"#utility.yul\":6105:6109   */\n      0x20\n        /* \"#utility.yul\":6098:6103   */\n      dup7\n        /* \"#utility.yul\":6094:6110   */\n      add\n        /* \"#utility.yul\":6072:6124   */\n      tag_183\n      jump\t// in\n    tag_204:\n        /* \"#utility.yul\":6149:6178   */\n      tag_205\n        /* \"#utility.yul\":6171:6177   */\n      dup2\n        /* \"#utility.yul\":6149:6178   */\n      tag_198\n      jump\t// in\n    tag_205:\n        /* \"#utility.yul\":6144:6147   */\n      dup5\n        /* \"#utility.yul\":6140:6179   */\n      add\n        /* \"#utility.yul\":6133:6179   */\n      swap2\n      pop\n        /* \"#utility.yul\":5913:6185   */\n      pop\n        /* \"#utility.yul\":5821:6185   */\n      swap3\n      swap2\n      pop\n      pop\n      jump\t// out\n        /* \"#utility.yul\":6283:7824   */\n    tag_206:\n        /* \"#utility.yul\":6418:6421   */\n      0x00\n        /* \"#utility.yul\":6454:6458   */\n      0xe0\n        /* \"#utility.yul\":6449:6452   */\n      dup4\n        /* \"#utility.yul\":6445:6459   */\n      add\n        /* \"#utility.yul\":6547:6551   */\n      0x00\n        /* \"#utility.yul\":6540:6545   */\n      dup4\n        /* \"#utility.yul\":6536:6552   */\n      add\n        /* \"#utility.yul\":6530:6553   */\n      mload\n        /* \"#utility.yul\":6566:6629   */\n      tag_208\n        /* \"#utility.yul\":6623:6627   */\n      0x00\n        /* \"#utility.yul\":6618:6621   */\n      dup7\n        /* \"#utility.yul\":6614:6628   */\n      add\n        /* \"#utility.yul\":6600:6612   */\n      dup3\n        /* \"#utility.yul\":6566:6629   */\n      tag_138\n      jump\t// in\n    tag_208:\n        /* \"#utility.yul\":6469:6639   */\n      pop\n        /* \"#utility.yul\":6726:6730   */\n      0x20\n        /* \"#utility.yul\":6719:6724   */\n      dup4\n        /* \"#utility.yul\":6715:6731   */\n      add\n        /* \"#utility.yul\":6709:6732   */\n      mload\n        /* \"#utility.yul\":6745:6808   */\n      tag_209\n        /* \"#utility.yul\":6802:6806   */\n      0x20\n        /* \"#utility.yul\":6797:6800   */\n      dup7\n        /* \"#utility.yul\":6793:6807   */\n      add\n        /* \"#utility.yul\":6779:6791   */\n      dup3\n        /* \"#utility.yul\":6745:6808   */\n      tag_139\n      jump\t// in\n    tag_209:\n        /* \"#utility.yul\":6649:6818   */\n      pop\n        /* \"#utility.yul\":6908:6912   */\n      0x40\n        /* \"#utility.yul\":6901:6906   */\n      dup4\n        /* \"#utility.yul\":6897:6913   */\n      add\n        /* \"#utility.yul\":6891:6914   */\n      mload\n        /* \"#utility.yul\":6927:6990   */\n      tag_210\n        /* \"#utility.yul\":6984:6988   */\n      0x40\n        /* \"#utility.yul\":6979:6982   */\n      dup7\n        /* \"#utility.yul\":6975:6989   */\n      add\n        /* \"#utility.yul\":6961:6973   */\n      dup3\n        /* \"#utility.yul\":6927:6990   */\n      tag_139\n      jump\t// in\n    tag_210:\n        /* \"#utility.yul\":6828:7000   */\n      pop\n        /* \"#utility.yul\":7093:7097   */\n      0x60\n        /* \"#utility.yul\":7086:7091   */\n      dup4\n        /* \"#utility.yul\":7082:7098   */\n      add\n        /* \"#utility.yul\":7076:7099   */\n      mload\n        /* \"#utility.yul\":7112:7175   */\n      tag_211\n        /* \"#utility.yul\":7169:7173   */\n      0x60\n        /* \"#utility.yul\":7164:7167   */\n      dup7\n        /* \"#utility.yul\":7160:7174   */\n      add\n        /* \"#utility.yul\":7146:7158   */\n      dup3\n        /* \"#utility.yul\":7112:7175   */\n      tag_212\n      jump\t// in\n    tag_211:\n        /* \"#utility.yul\":7010:7185   */\n      pop\n        /* \"#utility.yul\":7276:7280   */\n      0x80\n        /* \"#utility.yul\":7269:7274   */\n      dup4\n        /* \"#utility.yul\":7265:7281   */\n      add\n        /* \"#utility.yul\":7259:7282   */\n      mload\n        /* \"#utility.yul\":7295:7358   */\n      tag_213\n        /* \"#utility.yul\":7352:7356   */\n      0x80\n        /* \"#utility.yul\":7347:7350   */\n      dup7\n        /* \"#utility.yul\":7343:7357   */\n      add\n        /* \"#utility.yul\":7329:7341   */\n      dup3\n        /* \"#utility.yul\":7295:7358   */\n      tag_212\n      jump\t// in\n    tag_213:\n        /* \"#utility.yul\":7195:7368   */\n      pop\n        /* \"#utility.yul\":7453:7457   */\n      0xa0\n        /* \"#utility.yul\":7446:7451   */\n      dup4\n        /* \"#utility.yul\":7442:7458   */\n      add\n        /* \"#utility.yul\":7436:7459   */\n      mload\n        /* \"#utility.yul\":7506:7509   */\n      dup5\n        /* \"#utility.yul\":7500:7504   */\n      dup3\n        /* \"#utility.yul\":7496:7510   */\n      sub\n        /* \"#utility.yul\":7489:7493   */\n      0xa0\n        /* \"#utility.yul\":7484:7487   */\n      dup7\n        /* \"#utility.yul\":7480:7494   */\n      add\n        /* \"#utility.yul\":7473:7511   */\n      mstore\n        /* \"#utility.yul\":7532:7605   */\n      tag_214\n        /* \"#utility.yul\":7600:7604   */\n      dup3\n        /* \"#utility.yul\":7586:7598   */\n      dup3\n        /* \"#utility.yul\":7532:7605   */\n      tag_190\n      jump\t// in\n    tag_214:\n        /* \"#utility.yul\":7524:7605   */\n      swap2\n      pop\n        /* \"#utility.yul\":7378:7616   */\n      pop\n        /* \"#utility.yul\":7705:7709   */\n      0xc0\n        /* \"#utility.yul\":7698:7703   */\n      dup4\n        /* \"#utility.yul\":7694:7710   */\n      add\n        /* \"#utility.yul\":7688:7711   */\n      mload\n        /* \"#utility.yul\":7724:7787   */\n      tag_215\n        /* \"#utility.yul\":7781:7785   */\n      0xc0\n        /* \"#utility.yul\":7776:7779   */\n      dup7\n        /* \"#utility.yul\":7772:7786   */\n      add\n        /* \"#utility.yul\":7758:7770   */\n      dup3\n        /* \"#utility.yul\":7724:7787   */\n      tag_138\n      jump\t// in\n    tag_215:\n        /* \"#utility.yul\":7626:7797   */\n      pop\n        /* \"#utility.yul\":7814:7818   */\n      dup1\n        /* \"#utility.yul\":7807:7818   */\n      swap2\n      pop\n        /* \"#utility.yul\":6423:7824   */\n      pop\n        /* \"#utility.yul\":6283:7824   */\n      swap3\n      swap2\n      pop\n      pop\n      jump\t// out\n        /* \"#utility.yul\":7830:7938   */\n    tag_212:\n        /* \"#utility.yul\":7907:7931   */\n      tag_217\n        /* \"#utility.yul\":7925:7930   */\n      dup2\n        /* \"#utility.yul\":7907:7931   */\n      tag_218\n      jump\t// in\n    tag_217:\n        /* \"#utility.yul\":7902:7905   */\n      dup3\n        /* \"#utility.yul\":7895:7932   */\n      mstore\n        /* \"#utility.yul\":7830:7938   */\n      pop\n      pop\n      jump\t// out\n        /* \"#utility.yul\":7944:8062   */\n    tag_219:\n        /* \"#utility.yul\":8031:8055   */\n      tag_221\n        /* \"#utility.yul\":8049:8054   */\n      dup2\n        /* \"#utility.yul\":8031:8055   */\n      tag_218\n      jump\t// in\n    tag_221:\n        /* \"#utility.yul\":8026:8029   */\n      dup3\n        /* \"#utility.yul\":8019:8056   */\n      mstore\n        /* \"#utility.yul\":7944:8062   */\n      pop\n      pop\n      jump\t// out\n        /* \"#utility.yul\":8068:8225   */\n    tag_222:\n        /* \"#utility.yul\":8173:8218   */\n      tag_224\n        /* \"#utility.yul\":8193:8217   */\n      tag_225\n        /* \"#utility.yul\":8211:8216   */\n      dup3\n        /* \"#utility.yul\":8193:8217   */\n      tag_218\n      jump\t// in\n    tag_225:\n        /* \"#utility.yul\":8173:8218   */\n      tag_226\n      jump\t// in\n    tag_224:\n        /* \"#utility.yul\":8168:8171   */\n      dup3\n        /* \"#utility.yul\":8161:8219   */\n      mstore\n        /* \"#utility.yul\":8068:8225   */\n      pop\n      pop\n      jump\t// out\n        /* \"#utility.yul\":8231:9090   */\n    tag_48:\n        /* \"#utility.yul\":8485:8488   */\n      0x00\n        /* \"#utility.yul\":8500:8575   */\n      tag_228\n        /* \"#utility.yul\":8571:8574   */\n      dup3\n        /* \"#utility.yul\":8562:8568   */\n      dup10\n        /* \"#utility.yul\":8500:8575   */\n      tag_146\n      jump\t// in\n    tag_228:\n        /* \"#utility.yul\":8600:8602   */\n      0x14\n        /* \"#utility.yul\":8595:8598   */\n      dup3\n        /* \"#utility.yul\":8591:8603   */\n      add\n        /* \"#utility.yul\":8584:8603   */\n      swap2\n      pop\n        /* \"#utility.yul\":8613:8688   */\n      tag_229\n        /* \"#utility.yul\":8684:8687   */\n      dup3\n        /* \"#utility.yul\":8675:8681   */\n      dup9\n        /* \"#utility.yul\":8613:8688   */\n      tag_146\n      jump\t// in\n    tag_229:\n        /* \"#utility.yul\":8713:8715   */\n      0x14\n        /* \"#utility.yul\":8708:8711   */\n      dup3\n        /* \"#utility.yul\":8704:8716   */\n      add\n        /* \"#utility.yul\":8697:8716   */\n      swap2\n      pop\n        /* \"#utility.yul\":8726:8801   */\n      tag_230\n        /* \"#utility.yul\":8797:8800   */\n      dup3\n        /* \"#utility.yul\":8788:8794   */\n      dup8\n        /* \"#utility.yul\":8726:8801   */\n      tag_222\n      jump\t// in\n    tag_230:\n        /* \"#utility.yul\":8826:8828   */\n      0x20\n        /* \"#utility.yul\":8821:8824   */\n      dup3\n        /* \"#utility.yul\":8817:8829   */\n      add\n        /* \"#utility.yul\":8810:8829   */\n      swap2\n      pop\n        /* \"#utility.yul\":8839:8914   */\n      tag_231\n        /* \"#utility.yul\":8910:8913   */\n      dup3\n        /* \"#utility.yul\":8901:8907   */\n      dup7\n        /* \"#utility.yul\":8839:8914   */\n      tag_222\n      jump\t// in\n    tag_231:\n        /* \"#utility.yul\":8939:8941   */\n      0x20\n        /* \"#utility.yul\":8934:8937   */\n      dup3\n        /* \"#utility.yul\":8930:8942   */\n      add\n        /* \"#utility.yul\":8923:8942   */\n      swap2\n      pop\n        /* \"#utility.yul\":8959:9064   */\n      tag_232\n        /* \"#utility.yul\":9060:9063   */\n      dup3\n        /* \"#utility.yul\":9051:9057   */\n      dup5\n        /* \"#utility.yul\":9043:9049   */\n      dup7\n        /* \"#utility.yul\":8959:9064   */\n      tag_184\n      jump\t// in\n    tag_232:\n        /* \"#utility.yul\":8952:9064   */\n      swap2\n      pop\n        /* \"#utility.yul\":9081:9084   */\n      dup2\n        /* \"#utility.yul\":9074:9084   */\n      swap1\n      pop\n        /* \"#utility.yul\":8231:9090   */\n      swap8\n      swap7\n      pop\n      pop\n      pop\n      pop\n      pop\n      pop\n      pop\n      jump\t// out\n        /* \"#utility.yul\":9096:10096   */\n    tag_54:\n        /* \"#utility.yul\":9378:9381   */\n      0x00\n        /* \"#utility.yul\":9393:9468   */\n      tag_234\n        /* \"#utility.yul\":9464:9467   */\n      dup3\n        /* \"#utility.yul\":9455:9461   */\n      dup11\n        /* \"#utility.yul\":9393:9468   */\n      tag_171\n      jump\t// in\n    tag_234:\n        /* \"#utility.yul\":9493:9495   */\n      0x14\n        /* \"#utility.yul\":9488:9491   */\n      dup3\n        /* \"#utility.yul\":9484:9496   */\n      add\n        /* \"#utility.yul\":9477:9496   */\n      swap2\n      pop\n        /* \"#utility.yul\":9506:9581   */\n      tag_235\n        /* \"#utility.yul\":9577:9580   */\n      dup3\n        /* \"#utility.yul\":9568:9574   */\n      dup10\n        /* \"#utility.yul\":9506:9581   */\n      tag_146\n      jump\t// in\n    tag_235:\n        /* \"#utility.yul\":9606:9608   */\n      0x14\n        /* \"#utility.yul\":9601:9604   */\n      dup3\n        /* \"#utility.yul\":9597:9609   */\n      add\n        /* \"#utility.yul\":9590:9609   */\n      swap2\n      pop\n        /* \"#utility.yul\":9619:9694   */\n      tag_236\n        /* \"#utility.yul\":9690:9693   */\n      dup3\n        /* \"#utility.yul\":9681:9687   */\n      dup9\n        /* \"#utility.yul\":9619:9694   */\n      tag_146\n      jump\t// in\n    tag_236:\n        /* \"#utility.yul\":9719:9721   */\n      0x14\n        /* \"#utility.yul\":9714:9717   */\n      dup3\n        /* \"#utility.yul\":9710:9722   */\n      add\n        /* \"#utility.yul\":9703:9722   */\n      swap2\n      pop\n        /* \"#utility.yul\":9732:9807   */\n      tag_237\n        /* \"#utility.yul\":9803:9806   */\n      dup3\n        /* \"#utility.yul\":9794:9800   */\n      dup8\n        /* \"#utility.yul\":9732:9807   */\n      tag_222\n      jump\t// in\n    tag_237:\n        /* \"#utility.yul\":9832:9834   */\n      0x20\n        /* \"#utility.yul\":9827:9830   */\n      dup3\n        /* \"#utility.yul\":9823:9835   */\n      add\n        /* \"#utility.yul\":9816:9835   */\n      swap2\n      pop\n        /* \"#utility.yul\":9845:9920   */\n      tag_238\n        /* \"#utility.yul\":9916:9919   */\n      dup3\n        /* \"#utility.yul\":9907:9913   */\n      dup7\n        /* \"#utility.yul\":9845:9920   */\n      tag_222\n      jump\t// in\n    tag_238:\n        /* \"#utility.yul\":9945:9947   */\n      0x20\n        /* \"#utility.yul\":9940:9943   */\n      dup3\n        /* \"#utility.yul\":9936:9948   */\n      add\n        /* \"#utility.yul\":9929:9948   */\n      swap2\n      pop\n        /* \"#utility.yul\":9965:10070   */\n      tag_239\n        /* \"#utility.yul\":10066:10069   */\n      dup3\n        /* \"#utility.yul\":10057:10063   */\n      dup5\n        /* \"#utility.yul\":10049:10055   */\n      dup7\n        /* \"#utility.yul\":9965:10070   */\n      tag_184\n      jump\t// in\n    tag_239:\n        /* \"#utility.yul\":9958:10070   */\n      swap2\n      pop\n        /* \"#utility.yul\":10087:10090   */\n      dup2\n        /* \"#utility.yul\":10080:10090   */\n      swap1\n      pop\n        /* \"#utility.yul\":9096:10096   */\n      swap9\n      swap8\n      pop\n      pop\n      pop\n      pop\n      pop\n      pop\n      pop\n      pop\n      jump\t// out\n        /* \"#utility.yul\":10102:10373   */\n    tag_50:\n        /* \"#utility.yul\":10232:10235   */\n      0x00\n        /* \"#utility.yul\":10254:10347   */\n      tag_241\n        /* \"#utility.yul\":10343:10346   */\n      dup3\n        /* \"#utility.yul\":10334:10340   */\n      dup5\n        /* \"#utility.yul\":10254:10347   */\n      tag_176\n      jump\t// in\n    tag_241:\n        /* \"#utility.yul\":10247:10347   */\n      swap2\n      pop\n        /* \"#utility.yul\":10364:10367   */\n      dup2\n        /* \"#utility.yul\":10357:10367   */\n      swap1\n      pop\n        /* \"#utility.yul\":10102:10373   */\n      swap3\n      swap2\n      pop\n      pop\n      jump\t// out\n        /* \"#utility.yul\":10379:10752   */\n    tag_31:\n        /* \"#utility.yul\":10522:10526   */\n      0x00\n        /* \"#utility.yul\":10560:10562   */\n      0x20\n        /* \"#utility.yul\":10549:10558   */\n      dup3\n        /* \"#utility.yul\":10545:10563   */\n      add\n        /* \"#utility.yul\":10537:10563   */\n      swap1\n      pop\n        /* \"#utility.yul\":10609:10618   */\n      dup2\n        /* \"#utility.yul\":10603:10607   */\n      dup2\n        /* \"#utility.yul\":10599:10619   */\n      sub\n        /* \"#utility.yul\":10595:10596   */\n      0x00\n        /* \"#utility.yul\":10584:10593   */\n      dup4\n        /* \"#utility.yul\":10580:10597   */\n      add\n        /* \"#utility.yul\":10573:10620   */\n      mstore\n        /* \"#utility.yul\":10637:10745   */\n      tag_243\n        /* \"#utility.yul\":10740:10744   */\n      dup2\n        /* \"#utility.yul\":10731:10737   */\n      dup5\n        /* \"#utility.yul\":10637:10745   */\n      tag_151\n      jump\t// in\n    tag_243:\n        /* \"#utility.yul\":10629:10745   */\n      swap1\n      pop\n        /* \"#utility.yul\":10379:10752   */\n      swap3\n      swap2\n      pop\n      pop\n      jump\t// out\n        /* \"#utility.yul\":10758:10980   */\n    tag_13:\n        /* \"#utility.yul\":10851:10855   */\n      0x00\n        /* \"#utility.yul\":10889:10891   */\n      0x20\n        /* \"#utility.yul\":10878:10887   */\n      dup3\n        /* \"#utility.yul\":10874:10892   */\n      add\n        /* \"#utility.yul\":10866:10892   */\n      swap1\n      pop\n        /* \"#utility.yul\":10902:10973   */\n      tag_245\n        /* \"#utility.yul\":10970:10971   */\n      0x00\n        /* \"#utility.yul\":10959:10968   */\n      dup4\n        /* \"#utility.yul\":10955:10972   */\n      add\n        /* \"#utility.yul\":10946:10952   */\n      dup5\n        /* \"#utility.yul\":10902:10973   */\n      tag_168\n      jump\t// in\n    tag_245:\n        /* \"#utility.yul\":10758:10980   */\n      swap3\n      swap2\n      pop\n      pop\n      jump\t// out\n        /* \"#utility.yul\":10986:11963   */\n    tag_19:\n        /* \"#utility.yul\":11267:11271   */\n      0x00\n        /* \"#utility.yul\":11305:11308   */\n      0xe0\n        /* \"#utility.yul\":11294:11303   */\n      dup3\n        /* \"#utility.yul\":11290:11309   */\n      add\n        /* \"#utility.yul\":11282:11309   */\n      swap1\n      pop\n        /* \"#utility.yul\":11319:11390   */\n      tag_247\n        /* \"#utility.yul\":11387:11388   */\n      0x00\n        /* \"#utility.yul\":11376:11385   */\n      dup4\n        /* \"#utility.yul\":11372:11389   */\n      add\n        /* \"#utility.yul\":11363:11369   */\n      dup11\n        /* \"#utility.yul\":11319:11390   */\n      tag_168\n      jump\t// in\n    tag_247:\n        /* \"#utility.yul\":11400:11472   */\n      tag_248\n        /* \"#utility.yul\":11468:11470   */\n      0x20\n        /* \"#utility.yul\":11457:11466   */\n      dup4\n        /* \"#utility.yul\":11453:11471   */\n      add\n        /* \"#utility.yul\":11444:11450   */\n      dup10\n        /* \"#utility.yul\":11400:11472   */\n      tag_143\n      jump\t// in\n    tag_248:\n        /* \"#utility.yul\":11482:11554   */\n      tag_249\n        /* \"#utility.yul\":11550:11552   */\n      0x40\n        /* \"#utility.yul\":11539:11548   */\n      dup4\n        /* \"#utility.yul\":11535:11553   */\n      add\n        /* \"#utility.yul\":11526:11532   */\n      dup9\n        /* \"#utility.yul\":11482:11554   */\n      tag_143\n      jump\t// in\n    tag_249:\n        /* \"#utility.yul\":11564:11636   */\n      tag_250\n        /* \"#utility.yul\":11632:11634   */\n      0x60\n        /* \"#utility.yul\":11621:11630   */\n      dup4\n        /* \"#utility.yul\":11617:11635   */\n      add\n        /* \"#utility.yul\":11608:11614   */\n      dup8\n        /* \"#utility.yul\":11564:11636   */\n      tag_219\n      jump\t// in\n    tag_250:\n        /* \"#utility.yul\":11646:11719   */\n      tag_251\n        /* \"#utility.yul\":11714:11717   */\n      0x80\n        /* \"#utility.yul\":11703:11712   */\n      dup4\n        /* \"#utility.yul\":11699:11718   */\n      add\n        /* \"#utility.yul\":11690:11696   */\n      dup7\n        /* \"#utility.yul\":11646:11719   */\n      tag_219\n      jump\t// in\n    tag_251:\n        /* \"#utility.yul\":11767:11776   */\n      dup2\n        /* \"#utility.yul\":11761:11765   */\n      dup2\n        /* \"#utility.yul\":11757:11777   */\n      sub\n        /* \"#utility.yul\":11751:11754   */\n      0xa0\n        /* \"#utility.yul\":11740:11749   */\n      dup4\n        /* \"#utility.yul\":11736:11755   */\n      add\n        /* \"#utility.yul\":11729:11778   */\n      mstore\n        /* \"#utility.yul\":11795:11873   */\n      tag_252\n        /* \"#utility.yul\":11868:11872   */\n      dup2\n        /* \"#utility.yul\":11859:11865   */\n      dup6\n        /* \"#utility.yul\":11795:11873   */\n      tag_199\n      jump\t// in\n    tag_252:\n        /* \"#utility.yul\":11787:11873   */\n      swap1\n      pop\n        /* \"#utility.yul\":11883:11956   */\n      tag_253\n        /* \"#utility.yul\":11951:11954   */\n      0xc0\n        /* \"#utility.yul\":11940:11949   */\n      dup4\n        /* \"#utility.yul\":11936:11955   */\n      add\n        /* \"#utility.yul\":11927:11933   */\n      dup5\n        /* \"#utility.yul\":11883:11956   */\n      tag_168\n      jump\t// in\n    tag_253:\n        /* \"#utility.yul\":10986:11963   */\n      swap9\n      swap8\n      pop\n      pop\n      pop\n      pop\n      pop\n      pop\n      pop\n      pop\n      jump\t// out\n        /* \"#utility.yul\":11969:12374   */\n    tag_25:\n        /* \"#utility.yul\":12128:12132   */\n      0x00\n        /* \"#utility.yul\":12166:12168   */\n      0x20\n        /* \"#utility.yul\":12155:12164   */\n      dup3\n        /* \"#utility.yul\":12151:12169   */\n      add\n        /* \"#utility.yul\":12143:12169   */\n      swap1\n      pop\n        /* \"#utility.yul\":12215:12224   */\n      dup2\n        /* \"#utility.yul\":12209:12213   */\n      dup2\n        /* \"#utility.yul\":12205:12225   */\n      sub\n        /* \"#utility.yul\":12201:12202   */\n      0x00\n        /* \"#utility.yul\":12190:12199   */\n      dup4\n        /* \"#utility.yul\":12186:12203   */\n      add\n        /* \"#utility.yul\":12179:12226   */\n      mstore\n        /* \"#utility.yul\":12243:12367   */\n      tag_255\n        /* \"#utility.yul\":12362:12366   */\n      dup2\n        /* \"#utility.yul\":12353:12359   */\n      dup5\n        /* \"#utility.yul\":12243:12367   */\n      tag_206\n      jump\t// in\n    tag_255:\n        /* \"#utility.yul\":12235:12367   */\n      swap1\n      pop\n        /* \"#utility.yul\":11969:12374   */\n      swap3\n      swap2\n      pop\n      pop\n      jump\t// out\n        /* \"#utility.yul\":12461:12593   */\n    tag_158:\n        /* \"#utility.yul\":12528:12532   */\n      0x00\n        /* \"#utility.yul\":12551:12554   */\n      dup2\n        /* \"#utility.yul\":12543:12554   */\n      swap1\n      pop\n        /* \"#utility.yul\":12581:12585   */\n      0x20\n        /* \"#utility.yul\":12576:12579   */\n      dup3\n        /* \"#utility.yul\":12572:12586   */\n      add\n        /* \"#utility.yul\":12564:12586   */\n      swap1\n      pop\n        /* \"#utility.yul\":12461:12593   */\n      swap2\n      swap1\n      pop\n      jump\t// out\n        /* \"#utility.yul\":12599:12713   */\n    tag_154:\n        /* \"#utility.yul\":12666:12672   */\n      0x00\n        /* \"#utility.yul\":12700:12705   */\n      dup2\n        /* \"#utility.yul\":12694:12706   */\n      mload\n        /* \"#utility.yul\":12684:12706   */\n      swap1\n      pop\n        /* \"#utility.yul\":12599:12713   */\n      swap2\n      swap1\n      pop\n      jump\t// out\n        /* \"#utility.yul\":12719:12817   */\n    tag_179:\n        /* \"#utility.yul\":12770:12776   */\n      0x00\n        /* \"#utility.yul\":12804:12809   */\n      dup2\n        /* \"#utility.yul\":12798:12810   */\n      mload\n        /* \"#utility.yul\":12788:12810   */\n      swap1\n      pop\n        /* \"#utility.yul\":12719:12817   */\n      swap2\n      swap1\n      pop\n      jump\t// out\n        /* \"#utility.yul\":12823:12922   */\n    tag_193:\n        /* \"#utility.yul\":12875:12881   */\n      0x00\n        /* \"#utility.yul\":12909:12914   */\n      dup2\n        /* \"#utility.yul\":12903:12915   */\n      mload\n        /* \"#utility.yul\":12893:12915   */\n      swap1\n      pop\n        /* \"#utility.yul\":12823:12922   */\n      swap2\n      swap1\n      pop\n      jump\t// out\n        /* \"#utility.yul\":12928:13041   */\n    tag_164:\n        /* \"#utility.yul\":12998:13002   */\n      0x00\n        /* \"#utility.yul\":13030:13034   */\n      0x20\n        /* \"#utility.yul\":13025:13028   */\n      dup3\n        /* \"#utility.yul\":13021:13035   */\n      add\n        /* \"#utility.yul\":13013:13035   */\n      swap1\n      pop\n        /* \"#utility.yul\":12928:13041   */\n      swap2\n      swap1\n      pop\n      jump\t// out\n        /* \"#utility.yul\":13047:13231   */\n    tag_156:\n        /* \"#utility.yul\":13146:13157   */\n      0x00\n        /* \"#utility.yul\":13180:13186   */\n      dup3\n        /* \"#utility.yul\":13175:13178   */\n      dup3\n        /* \"#utility.yul\":13168:13187   */\n      mstore\n        /* \"#utility.yul\":13220:13224   */\n      0x20\n        /* \"#utility.yul\":13215:13218   */\n      dup3\n        /* \"#utility.yul\":13211:13225   */\n      add\n        /* \"#utility.yul\":13196:13225   */\n      swap1\n      pop\n        /* \"#utility.yul\":13047:13231   */\n      swap3\n      swap2\n      pop\n      pop\n      jump\t// out\n        /* \"#utility.yul\":13237:13384   */\n    tag_181:\n        /* \"#utility.yul\":13338:13349   */\n      0x00\n        /* \"#utility.yul\":13375:13378   */\n      dup2\n        /* \"#utility.yul\":13360:13378   */\n      swap1\n      pop\n        /* \"#utility.yul\":13237:13384   */\n      swap3\n      swap2\n      pop\n      pop\n      jump\t// out\n        /* \"#utility.yul\":13390:13549   */\n    tag_195:\n        /* \"#utility.yul\":13464:13475   */\n      0x00\n        /* \"#utility.yul\":13498:13504   */\n      dup3\n        /* \"#utility.yul\":13493:13496   */\n      dup3\n        /* \"#utility.yul\":13486:13505   */\n      mstore\n        /* \"#utility.yul\":13538:13542   */\n      0x20\n        /* \"#utility.yul\":13533:13536   */\n      dup3\n        /* \"#utility.yul\":13529:13543   */\n      add\n        /* \"#utility.yul\":13514:13543   */\n      swap1\n      pop\n        /* \"#utility.yul\":13390:13549   */\n      swap3\n      swap2\n      pop\n      pop\n      jump\t// out\n        /* \"#utility.yul\":13555:13724   */\n    tag_203:\n        /* \"#utility.yul\":13639:13650   */\n      0x00\n        /* \"#utility.yul\":13673:13679   */\n      dup3\n        /* \"#utility.yul\":13668:13671   */\n      dup3\n        /* \"#utility.yul\":13661:13680   */\n      mstore\n        /* \"#utility.yul\":13713:13717   */\n      0x20\n        /* \"#utility.yul\":13708:13711   */\n      dup3\n        /* \"#utility.yul\":13704:13718   */\n      add\n        /* \"#utility.yul\":13689:13718   */\n      swap1\n      pop\n        /* \"#utility.yul\":13555:13724   */\n      swap3\n      swap2\n      pop\n      pop\n      jump\t// out\n        /* \"#utility.yul\":13730:13878   */\n    tag_187:\n        /* \"#utility.yul\":13832:13843   */\n      0x00\n        /* \"#utility.yul\":13869:13872   */\n      dup2\n        /* \"#utility.yul\":13854:13872   */\n      swap1\n      pop\n        /* \"#utility.yul\":13730:13878   */\n      swap3\n      swap2\n      pop\n      pop\n      jump\t// out\n        /* \"#utility.yul\":13884:13980   */\n    tag_142:\n        /* \"#utility.yul\":13921:13928   */\n      0x00\n        /* \"#utility.yul\":13950:13974   */\n      tag_269\n        /* \"#utility.yul\":13968:13973   */\n      dup3\n        /* \"#utility.yul\":13950:13974   */\n      tag_270\n      jump\t// in\n    tag_269:\n        /* \"#utility.yul\":13939:13974   */\n      swap1\n      pop\n        /* \"#utility.yul\":13884:13980   */\n      swap2\n      swap1\n      pop\n      jump\t// out\n        /* \"#utility.yul\":13986:14136   */\n    tag_167:\n        /* \"#utility.yul\":14023:14030   */\n      0x00\n        /* \"#utility.yul\":14063:14129   */\n      0xffffffffffffffffffffffffffffffffffffffff000000000000000000000000\n        /* \"#utility.yul\":14056:14061   */\n      dup3\n        /* \"#utility.yul\":14052:14130   */\n      and\n        /* \"#utility.yul\":14041:14130   */\n      swap1\n      pop\n        /* \"#utility.yul\":13986:14136   */\n      swap2\n      swap1\n      pop\n      jump\t// out\n        /* \"#utility.yul\":14142:14268   */\n    tag_270:\n        /* \"#utility.yul\":14179:14186   */\n      0x00\n        /* \"#utility.yul\":14219:14261   */\n      0xffffffffffffffffffffffffffffffffffffffff\n        /* \"#utility.yul\":14212:14217   */\n      dup3\n        /* \"#utility.yul\":14208:14262   */\n      and\n        /* \"#utility.yul\":14197:14262   */\n      swap1\n      pop\n        /* \"#utility.yul\":14142:14268   */\n      swap2\n      swap1\n      pop\n      jump\t// out\n        /* \"#utility.yul\":14274:14351   */\n    tag_218:\n        /* \"#utility.yul\":14311:14318   */\n      0x00\n        /* \"#utility.yul\":14340:14345   */\n      dup2\n        /* \"#utility.yul\":14329:14345   */\n      swap1\n      pop\n        /* \"#utility.yul\":14274:14351   */\n      swap2\n      swap1\n      pop\n      jump\t// out\n        /* \"#utility.yul\":14357:14511   */\n    tag_189:\n        /* \"#utility.yul\":14441:14447   */\n      dup3\n        /* \"#utility.yul\":14436:14439   */\n      dup2\n        /* \"#utility.yul\":14431:14434   */\n      dup4\n        /* \"#utility.yul\":14418:14448   */\n      calldatacopy\n        /* \"#utility.yul\":14503:14504   */\n      0x00\n        /* \"#utility.yul\":14494:14500   */\n      dup4\n        /* \"#utility.yul\":14489:14492   */\n      dup4\n        /* \"#utility.yul\":14485:14501   */\n      add\n        /* \"#utility.yul\":14478:14505   */\n      mstore\n        /* \"#utility.yul\":14357:14511   */\n      pop\n      pop\n      pop\n      jump\t// out\n        /* \"#utility.yul\":14517:14824   */\n    tag_183:\n        /* \"#utility.yul\":14585:14586   */\n      0x00\n        /* \"#utility.yul\":14595:14708   */\n    tag_276:\n        /* \"#utility.yul\":14609:14615   */\n      dup4\n        /* \"#utility.yul\":14606:14607   */\n      dup2\n        /* \"#utility.yul\":14603:14616   */\n      lt\n        /* \"#utility.yul\":14595:14708   */\n      iszero\n      tag_278\n      jumpi\n        /* \"#utility.yul\":14694:14695   */\n      dup1\n        /* \"#utility.yul\":14689:14692   */\n      dup3\n        /* \"#utility.yul\":14685:14696   */\n      add\n        /* \"#utility.yul\":14679:14697   */\n      mload\n        /* \"#utility.yul\":14675:14676   */\n      dup2\n        /* \"#utility.yul\":14670:14673   */\n      dup5\n        /* \"#utility.yul\":14666:14677   */\n      add\n        /* \"#utility.yul\":14659:14698   */\n      mstore\n        /* \"#utility.yul\":14631:14633   */\n      0x20\n        /* \"#utility.yul\":14628:14629   */\n      dup2\n        /* \"#utility.yul\":14624:14634   */\n      add\n        /* \"#utility.yul\":14619:14634   */\n      swap1\n      pop\n        /* \"#utility.yul\":14595:14708   */\n      jump(tag_276)\n    tag_278:\n        /* \"#utility.yul\":14726:14732   */\n      dup4\n        /* \"#utility.yul\":14723:14724   */\n      dup2\n        /* \"#utility.yul\":14720:14733   */\n      gt\n        /* \"#utility.yul\":14717:14818   */\n      iszero\n      tag_279\n      jumpi\n        /* \"#utility.yul\":14806:14807   */\n      0x00\n        /* \"#utility.yul\":14797:14803   */\n      dup5\n        /* \"#utility.yul\":14792:14795   */\n      dup5\n        /* \"#utility.yul\":14788:14804   */\n      add\n        /* \"#utility.yul\":14781:14808   */\n      mstore\n        /* \"#utility.yul\":14717:14818   */\n    tag_279:\n        /* \"#utility.yul\":14566:14824   */\n      pop\n        /* \"#utility.yul\":14517:14824   */\n      pop\n      pop\n      pop\n      jump\t// out\n        /* \"#utility.yul\":14830:15150   */\n    tag_39:\n        /* \"#utility.yul\":14874:14880   */\n      0x00\n        /* \"#utility.yul\":14911:14912   */\n      0x02\n        /* \"#utility.yul\":14905:14909   */\n      dup3\n        /* \"#utility.yul\":14901:14913   */\n      div\n        /* \"#utility.yul\":14891:14913   */\n      swap1\n      pop\n        /* \"#utility.yul\":14958:14959   */\n      0x01\n        /* \"#utility.yul\":14952:14956   */\n      dup3\n        /* \"#utility.yul\":14948:14960   */\n      and\n        /* \"#utility.yul\":14979:14997   */\n      dup1\n        /* \"#utility.yul\":14969:15050   */\n      tag_281\n      jumpi\n        /* \"#utility.yul\":15035:15039   */\n      0x7f\n        /* \"#utility.yul\":15027:15033   */\n      dup3\n        /* \"#utility.yul\":15023:15040   */\n      and\n        /* \"#utility.yul\":15013:15040   */\n      swap2\n      pop\n        /* \"#utility.yul\":14969:15050   */\n    tag_281:\n        /* \"#utility.yul\":15097:15099   */\n      0x20\n        /* \"#utility.yul\":15089:15095   */\n      dup3\n        /* \"#utility.yul\":15086:15100   */\n      lt\n        /* \"#utility.yul\":15066:15084   */\n      dup2\n        /* \"#utility.yul\":15063:15101   */\n      eq\n        /* \"#utility.yul\":15060:15144   */\n      iszero\n      tag_282\n      jumpi\n        /* \"#utility.yul\":15116:15134   */\n      tag_283\n      tag_284\n      jump\t// in\n    tag_283:\n        /* \"#utility.yul\":15060:15144   */\n    tag_282:\n        /* \"#utility.yul\":14881:15150   */\n      pop\n        /* \"#utility.yul\":14830:15150   */\n      swap2\n      swap1\n      pop\n      jump\t// out\n        /* \"#utility.yul\":15156:15256   */\n    tag_150:\n        /* \"#utility.yul\":15195:15202   */\n      0x00\n        /* \"#utility.yul\":15224:15250   */\n      tag_286\n        /* \"#utility.yul\":15244:15249   */\n      dup3\n        /* \"#utility.yul\":15224:15250   */\n      tag_287\n      jump\t// in\n    tag_286:\n        /* \"#utility.yul\":15213:15250   */\n      swap1\n      pop\n        /* \"#utility.yul\":15156:15256   */\n      swap2\n      swap1\n      pop\n      jump\t// out\n        /* \"#utility.yul\":15262:15341   */\n    tag_175:\n        /* \"#utility.yul\":15301:15308   */\n      0x00\n        /* \"#utility.yul\":15330:15335   */\n      dup2\n        /* \"#utility.yul\":15319:15335   */\n      swap1\n      pop\n        /* \"#utility.yul\":15262:15341   */\n      swap2\n      swap1\n      pop\n      jump\t// out\n        /* \"#utility.yul\":15347:15441   */\n    tag_287:\n        /* \"#utility.yul\":15386:15393   */\n      0x00\n        /* \"#utility.yul\":15415:15435   */\n      tag_290\n        /* \"#utility.yul\":15429:15434   */\n      dup3\n        /* \"#utility.yul\":15415:15435   */\n      tag_291\n      jump\t// in\n    tag_290:\n        /* \"#utility.yul\":15404:15435   */\n      swap1\n      pop\n        /* \"#utility.yul\":15347:15441   */\n      swap2\n      swap1\n      pop\n      jump\t// out\n        /* \"#utility.yul\":15447:15526   */\n    tag_226:\n        /* \"#utility.yul\":15486:15493   */\n      0x00\n        /* \"#utility.yul\":15515:15520   */\n      dup2\n        /* \"#utility.yul\":15504:15520   */\n      swap1\n      pop\n        /* \"#utility.yul\":15447:15526   */\n      swap2\n      swap1\n      pop\n      jump\t// out\n        /* \"#utility.yul\":15532:15712   */\n    tag_284:\n        /* \"#utility.yul\":15580:15657   */\n      0x4e487b7100000000000000000000000000000000000000000000000000000000\n        /* \"#utility.yul\":15577:15578   */\n      0x00\n        /* \"#utility.yul\":15570:15658   */\n      mstore\n        /* \"#utility.yul\":15677:15681   */\n      0x22\n        /* \"#utility.yul\":15674:15675   */\n      0x04\n        /* \"#utility.yul\":15667:15682   */\n      mstore\n        /* \"#utility.yul\":15701:15705   */\n      0x24\n        /* \"#utility.yul\":15698:15699   */\n      0x00\n        /* \"#utility.yul\":15691:15706   */\n      revert\n        /* \"#utility.yul\":15718:15835   */\n    tag_104:\n        /* \"#utility.yul\":15827:15828   */\n      0x00\n        /* \"#utility.yul\":15824:15825   */\n      dup1\n        /* \"#utility.yul\":15817:15829   */\n      revert\n        /* \"#utility.yul\":15841:15958   */\n    tag_101:\n        /* \"#utility.yul\":15950:15951   */\n      0x00\n        /* \"#utility.yul\":15947:15948   */\n      dup1\n        /* \"#utility.yul\":15940:15952   */\n      revert\n        /* \"#utility.yul\":15964:16081   */\n    tag_107:\n        /* \"#utility.yul\":16073:16074   */\n      0x00\n        /* \"#utility.yul\":16070:16071   */\n      dup1\n        /* \"#utility.yul\":16063:16075   */\n      revert\n        /* \"#utility.yul\":16087:16204   */\n    tag_129:\n        /* \"#utility.yul\":16196:16197   */\n      0x00\n        /* \"#utility.yul\":16193:16194   */\n      dup1\n        /* \"#utility.yul\":16186:16198   */\n      revert\n        /* \"#utility.yul\":16210:16327   */\n    tag_115:\n        /* \"#utility.yul\":16319:16320   */\n      0x00\n        /* \"#utility.yul\":16316:16317   */\n      dup1\n        /* \"#utility.yul\":16309:16321   */\n      revert\n        /* \"#utility.yul\":16333:16435   */\n    tag_198:\n        /* \"#utility.yul\":16374:16380   */\n      0x00\n        /* \"#utility.yul\":16425:16427   */\n      0x1f\n        /* \"#utility.yul\":16421:16428   */\n      not\n        /* \"#utility.yul\":16416:16418   */\n      0x1f\n        /* \"#utility.yul\":16409:16414   */\n      dup4\n        /* \"#utility.yul\":16405:16419   */\n      add\n        /* \"#utility.yul\":16401:16429   */\n      and\n        /* \"#utility.yul\":16391:16429   */\n      swap1\n      pop\n        /* \"#utility.yul\":16333:16435   */\n      swap2\n      swap1\n      pop\n      jump\t// out\n        /* \"#utility.yul\":16441:16535   */\n    tag_291:\n        /* \"#utility.yul\":16474:16482   */\n      0x00\n        /* \"#utility.yul\":16522:16527   */\n      dup2\n        /* \"#utility.yul\":16518:16520   */\n      0x60\n        /* \"#utility.yul\":16514:16528   */\n      shl\n        /* \"#utility.yul\":16493:16528   */\n      swap1\n      pop\n        /* \"#utility.yul\":16441:16535   */\n      swap2\n      swap1\n      pop\n      jump\t// out\n        /* \"#utility.yul\":16541:16663   */\n    tag_92:\n        /* \"#utility.yul\":16614:16638   */\n      tag_302\n        /* \"#utility.yul\":16632:16637   */\n      dup2\n        /* \"#utility.yul\":16614:16638   */\n      tag_142\n      jump\t// in\n    tag_302:\n        /* \"#utility.yul\":16607:16612   */\n      dup2\n        /* \"#utility.yul\":16604:16639   */\n      eq\n        /* \"#utility.yul\":16594:16657   */\n      tag_303\n      jumpi\n        /* \"#utility.yul\":16653:16654   */\n      0x00\n        /* \"#utility.yul\":16650:16651   */\n      dup1\n        /* \"#utility.yul\":16643:16655   */\n      revert\n        /* \"#utility.yul\":16594:16657   */\n    tag_303:\n        /* \"#utility.yul\":16541:16663   */\n      pop\n      jump\t// out\n        /* \"#utility.yul\":16669:16791   */\n    tag_96:\n        /* \"#utility.yul\":16742:16766   */\n      tag_305\n        /* \"#utility.yul\":16760:16765   */\n      dup2\n        /* \"#utility.yul\":16742:16766   */\n      tag_167\n      jump\t// in\n    tag_305:\n        /* \"#utility.yul\":16735:16740   */\n      dup2\n        /* \"#utility.yul\":16732:16767   */\n      eq\n        /* \"#utility.yul\":16722:16785   */\n      tag_306\n      jumpi\n        /* \"#utility.yul\":16781:16782   */\n      0x00\n        /* \"#utility.yul\":16778:16779   */\n      dup1\n        /* \"#utility.yul\":16771:16783   */\n      revert\n        /* \"#utility.yul\":16722:16785   */\n    tag_306:\n        /* \"#utility.yul\":16669:16791   */\n      pop\n      jump\t// out\n        /* \"#utility.yul\":16797:16919   */\n    tag_111:\n        /* \"#utility.yul\":16870:16894   */\n      tag_308\n        /* \"#utility.yul\":16888:16893   */\n      dup2\n        /* \"#utility.yul\":16870:16894   */\n      tag_218\n      jump\t// in\n    tag_308:\n        /* \"#utility.yul\":16863:16868   */\n      dup2\n        /* \"#utility.yul\":16860:16895   */\n      eq\n        /* \"#utility.yul\":16850:16913   */\n      tag_309\n      jumpi\n        /* \"#utility.yul\":16909:16910   */\n      0x00\n        /* \"#utility.yul\":16906:16907   */\n      dup1\n        /* \"#utility.yul\":16899:16911   */\n      revert\n        /* \"#utility.yul\":16850:16913   */\n    tag_309:\n        /* \"#utility.yul\":16797:16919   */\n      pop\n      jump\t// out\n\n    auxdata: 0xa26469706673582212209b5e99830e810690ca2d88a2adf817a982a66ec0537a996712bdc1c25956106c64736f6c63430008070033\n}\n",
				"bytecode": {
					"linkReferences": {},
					"object": "608060405234801561001057600080fd5b506114e4806100206000396000f3fe608060405234801561001057600080fd5b50600436106100575760003560e01c80630736e9fb1461005c5780632b08a98a1461008c5780637d1a8825146100c257806392206f3f146100f2578063b69c905314610122575b600080fd5b61007660048036038101906100719190610d57565b610152565b60405161008391906111b5565b60405180910390f35b6100a660048036038101906100a19190610e0b565b61018d565b6040516100b997969594939291906111d0565b60405180910390f35b6100dc60048036038101906100d79190610d97565b6102b1565b6040516100e99190611246565b60405180910390f35b61010c60048036038101906101079190610d2a565b610648565b6040516101199190611193565b60405180910390f35b61013c60048036038101906101379190610e0b565b61076a565b6040516101499190611246565b60405180910390f35b6002602052816000526040600020818154811061016e57600080fd5b906000526020600020016000915091509054906101000a900460601b81565b60016020528060005260406000206000915090508060000160009054906101000a900460601b908060010160009054906101000a900473ffffffffffffffffffffffffffffffffffffffff16908060020160009054906101000a900473ffffffffffffffffffffffffffffffffffffffff169080600301549080600401549080600501805461021b90611399565b80601f016020809104026020016040519081016040528092919081815260200182805461024790611399565b80156102945780601f1061026957610100808354040283529160200191610294565b820191906000526020600020905b81548152906001019060200180831161027757829003601f168201915b5050505050908060060160009054906101000a900460601b905087565b6102b9610b6b565b6000339050600042905060006003838989858a8a6040516020016102e2969594939291906110b1565b6040516020818303038152906040526040516102fe919061117c565b602060405180830381855afa15801561031b573d6000803e3d6000fd5b5050506040515160601b90506000600382858b8b878c8c604051602001610348979695949392919061110e565b604051602081830303815290604052604051610364919061117c565b602060405180830381855afa158015610381573d6000803e3d6000fd5b5050506040515160601b90506040518060e00160405280836bffffffffffffffffffffffff191681526020018573ffffffffffffffffffffffffffffffffffffffff1681526020018a73ffffffffffffffffffffffffffffffffffffffff16815260200189815260200184815260200188888080601f016020809104026020016040519081016040528093929190818152602001838380828437600081840152601f19601f820116905080830192505050505050508152602001826bffffffffffffffffffffffff19168152509450600260008573ffffffffffffffffffffffffffffffffffffffff1673ffffffffffffffffffffffffffffffffffffffff168152602001908152602001600020508460016000846bffffffffffffffffffffffff19166bffffffffffffffffffffffff1916815260200190815260200160002060008201518160000160006101000a81548173ffffffffffffffffffffffffffffffffffffffff021916908360601c021790555060208201518160010160006101000a81548173ffffffffffffffffffffffffffffffffffffffff021916908373ffffffffffffffffffffffffffffffffffffffff16021790555060408201518160020160006101000a81548173ffffffffffffffffffffffffffffffffffffffff021916908373ffffffffffffffffffffffffffffffffffffffff160217905550606082015181600301556080820151816004015560a08201518160050190805190602001906105b4929190610bf2565b5060c08201518160060160006101000a81548173ffffffffffffffffffffffffffffffffffffffff021916908360601c02179055509050506000829080600181540180825580915050600190039060005260206000200160009091909190916101000a81548173ffffffffffffffffffffffffffffffffffffffff021916908360601c021790555050505050949350505050565b606060008054806020026020016040519081016040528092919081815260200182805480156106b257602002820191906000526020600020905b8160009054906101000a900460601b6bffffffffffffffffffffffff191681526020019060010190808311610682575b50505050509050600260008373ffffffffffffffffffffffffffffffffffffffff1673ffffffffffffffffffffffffffffffffffffffff16815260200190815260200160002080548060200260200160405190810160405280929190818152602001828054801561075e57602002820191906000526020600020905b8160009054906101000a900460601b6bffffffffffffffffffffffff19168152602001906001019080831161072e575b50505050509050919050565b610772610b6b565b60016000836bffffffffffffffffffffffff19166bffffffffffffffffffffffff191681526020019081526020016000206040518060e00160405290816000820160009054906101000a900460601b6bffffffffffffffffffffffff19166bffffffffffffffffffffffff191681526020016001820160009054906101000a900473ffffffffffffffffffffffffffffffffffffffff1673ffffffffffffffffffffffffffffffffffffffff1673ffffffffffffffffffffffffffffffffffffffff1681526020016002820160009054906101000a900473ffffffffffffffffffffffffffffffffffffffff1673ffffffffffffffffffffffffffffffffffffffff1673ffffffffffffffffffffffffffffffffffffffff16815260200160038201548152602001600482015481526020016005820180546108b390611399565b80601f01602080910402602001604051908101604052809291908181526020018280546108df90611399565b801561092c5780601f106109015761010080835404028352916020019161092c565b820191906000526020600020905b81548152906001019060200180831161090f57829003601f168201915b505050505081526020016006820160009054906101000a900460601b6bffffffffffffffffffffffff19166bffffffffffffffffffffffff191681525050905060016000836bffffffffffffffffffffffff19166bffffffffffffffffffffffff191681526020019081526020016000206040518060e00160405290816000820160009054906101000a900460601b6bffffffffffffffffffffffff19166bffffffffffffffffffffffff191681526020016001820160009054906101000a900473ffffffffffffffffffffffffffffffffffffffff1673ffffffffffffffffffffffffffffffffffffffff1673ffffffffffffffffffffffffffffffffffffffff1681526020016002820160009054906101000a900473ffffffffffffffffffffffffffffffffffffffff1673ffffffffffffffffffffffffffffffffffffffff1673ffffffffffffffffffffffffffffffffffffffff1681526020016003820154815260200160048201548152602001600582018054610aad90611399565b80601f0160208091040260200160405190810160405280929190818152602001828054610ad990611399565b8015610b265780601f10610afb57610100808354040283529160200191610b26565b820191906000526020600020905b815481529060010190602001808311610b0957829003601f168201915b505050505081526020016006820160009054906101000a900460601b6bffffffffffffffffffffffff19166bffffffffffffffffffffffff1916815250509050919050565b6040518060e0016040528060006bffffffffffffffffffffffff19168152602001600073ffffffffffffffffffffffffffffffffffffffff168152602001600073ffffffffffffffffffffffffffffffffffffffff16815260200160008152602001600081526020016060815260200160006bffffffffffffffffffffffff191681525090565b828054610bfe90611399565b90600052602060002090601f016020900481019282610c205760008555610c67565b82601f10610c3957805160ff1916838001178555610c67565b82800160010185558215610c67579182015b82811115610c66578251825591602001919060010190610c4b565b5b509050610c749190610c78565b5090565b5b80821115610c91576000816000905550600101610c79565b5090565b600081359050610ca481611469565b92915050565b600081359050610cb981611480565b92915050565b60008083601f840112610cd557610cd4611437565b5b8235905067ffffffffffffffff811115610cf257610cf1611432565b5b602083019150836001820283011115610d0e57610d0d61143c565b5b9250929050565b600081359050610d2481611497565b92915050565b600060208284031215610d4057610d3f611446565b5b6000610d4e84828501610c95565b91505092915050565b60008060408385031215610d6e57610d6d611446565b5b6000610d7c85828601610c95565b9250506020610d8d85828601610d15565b9150509250929050565b60008060008060608587031215610db157610db0611446565b5b6000610dbf87828801610c95565b9450506020610dd087828801610d15565b935050604085013567ffffffffffffffff811115610df157610df0611441565b5b610dfd87828801610cbf565b925092505092959194509250565b600060208284031215610e2157610e20611446565b5b6000610e2f84828501610caa565b91505092915050565b6000610e448383610ee3565b60208301905092915050565b610e59816112ef565b82525050565b610e68816112ef565b82525050565b610e7f610e7a826112ef565b6113cb565b82525050565b6000610e9082611278565b610e9a81856112a6565b9350610ea583611268565b8060005b83811015610ed6578151610ebd8882610e38565b9750610ec883611299565b925050600181019050610ea9565b5085935050505092915050565b610eec81611301565b82525050565b610efb81611301565b82525050565b610f12610f0d82611301565b6113dd565b82525050565b6000610f2382611283565b610f2d81856112b7565b9350610f3d818560208601611366565b80840191505092915050565b6000610f5583856112e4565b9350610f62838584611357565b82840190509392505050565b6000610f798261128e565b610f8381856112c2565b9350610f93818560208601611366565b610f9c8161144b565b840191505092915050565b6000610fb28261128e565b610fbc81856112d3565b9350610fcc818560208601611366565b610fd58161144b565b840191505092915050565b600060e083016000830151610ff86000860182610ee3565b50602083015161100b6020860182610e50565b50604083015161101e6040860182610e50565b506060830151611031606086018261107c565b506080830151611044608086018261107c565b5060a083015184820360a086015261105c8282610f6e565b91505060c083015161107160c0860182610ee3565b508091505092915050565b6110858161134d565b82525050565b6110948161134d565b82525050565b6110ab6110a68261134d565b6113f9565b82525050565b60006110bd8289610e6e565b6014820191506110cd8288610e6e565b6014820191506110dd828761109a565b6020820191506110ed828661109a565b6020820191506110fe828486610f49565b9150819050979650505050505050565b600061111a828a610f01565b60148201915061112a8289610e6e565b60148201915061113a8288610e6e565b60148201915061114a828761109a565b60208201915061115a828661109a565b60208201915061116b828486610f49565b915081905098975050505050505050565b60006111888284610f18565b915081905092915050565b600060208201905081810360008301526111ad8184610e85565b905092915050565b60006020820190506111ca6000830184610ef2565b92915050565b600060e0820190506111e5600083018a610ef2565b6111f26020830189610e5f565b6111ff6040830188610e5f565b61120c606083018761108b565b611219608083018661108b565b81810360a083015261122b8185610fa7565b905061123a60c0830184610ef2565b98975050505050505050565b600060208201905081810360008301526112608184610fe0565b905092915050565b6000819050602082019050919050565b600081519050919050565b600081519050919050565b600081519050919050565b6000602082019050919050565b600082825260208201905092915050565b600081905092915050565b600082825260208201905092915050565b600082825260208201905092915050565b600081905092915050565b60006112fa8261132d565b9050919050565b60007fffffffffffffffffffffffffffffffffffffffff00000000000000000000000082169050919050565b600073ffffffffffffffffffffffffffffffffffffffff82169050919050565b6000819050919050565b82818337600083830152505050565b60005b83811015611384578082015181840152602081019050611369565b83811115611393576000848401525b50505050565b600060028204905060018216806113b157607f821691505b602082108114156113c5576113c4611403565b5b50919050565b60006113d6826113e7565b9050919050565b6000819050919050565b60006113f28261145c565b9050919050565b6000819050919050565b7f4e487b7100000000000000000000000000000000000000000000000000000000600052602260045260246000fd5b600080fd5b600080fd5b600080fd5b600080fd5b600080fd5b6000601f19601f8301169050919050565b60008160601b9050919050565b611472816112ef565b811461147d57600080fd5b50565b61148981611301565b811461149457600080fd5b50565b6114a08161134d565b81146114ab57600080fd5b5056fea26469706673582212209b5e99830e810690ca2d88a2adf817a982a66ec0537a996712bdc1c25956106c64736f6c63430008070033",
					"opcodes": "PUSH1 0x80 PUSH1 0x40 MSTORE CALLVALUE DUP1 ISZERO PUSH2 0x10 JUMPI PUSH1 0x0 DUP1 REVERT JUMPDEST POP PUSH2 0x14E4 DUP1 PUSH2 0x20 PUSH1 0x0 CODECOPY PUSH1 0x0 RETURN INVALID PUSH1 0x80 PUSH1 0x40 MSTORE CALLVALUE DUP1 ISZERO PUSH2 0x10 JUMPI PUSH1 0x0 DUP1 REVERT JUMPDEST POP PUSH1 0x4 CALLDATASIZE LT PUSH2 0x57 JUMPI PUSH1 0x0 CALLDATALOAD PUSH1 0xE0 SHR DUP1 PUSH4 0x736E9FB EQ PUSH2 0x5C JUMPI DUP1 PUSH4 0x2B08A98A EQ PUSH2 0x8C JUMPI DUP1 PUSH4 0x7D1A8825 EQ PUSH2 0xC2 JUMPI DUP1 PUSH4 0x92206F3F EQ PUSH2 0xF2 JUMPI DUP1 PUSH4 0xB69C9053 EQ PUSH2 0x122 JUMPI JUMPDEST PUSH1 0x0 DUP1 REVERT JUMPDEST PUSH2 0x76 PUSH1 0x4 DUP1 CALLDATASIZE SUB DUP2 ADD SWAP1 PUSH2 0x71 SWAP2 SWAP1 PUSH2 0xD57 JUMP JUMPDEST PUSH2 0x152 JUMP JUMPDEST PUSH1 0x40 MLOAD PUSH2 0x83 SWAP2 SWAP1 PUSH2 0x11B5 JUMP JUMPDEST PUSH1 0x40 MLOAD DUP1 SWAP2 SUB SWAP1 RETURN JUMPDEST PUSH2 0xA6 PUSH1 0x4 DUP1 CALLDATASIZE SUB DUP2 ADD SWAP1 PUSH2 0xA1 SWAP2 SWAP1 PUSH2 0xE0B JUMP JUMPDEST PUSH2 0x18D JUMP JUMPDEST PUSH1 0x40 MLOAD PUSH2 0xB9 SWAP8 SWAP7 SWAP6 SWAP5 SWAP4 SWAP3 SWAP2 SWAP1 PUSH2 0x11D0 JUMP JUMPDEST PUSH1 0x40 MLOAD DUP1 SWAP2 SUB SWAP1 RETURN JUMPDEST PUSH2 0xDC PUSH1 0x4 DUP1 CALLDATASIZE SUB DUP2 ADD SWAP1 PUSH2 0xD7 SWAP2 SWAP1 PUSH2 0xD97 JUMP JUMPDEST PUSH2 0x2B1 JUMP JUMPDEST PUSH1 0x40 MLOAD PUSH2 0xE9 SWAP2 SWAP1 PUSH2 0x1246 JUMP JUMPDEST PUSH1 0x40 MLOAD DUP1 SWAP2 SUB SWAP1 RETURN JUMPDEST PUSH2 0x10C PUSH1 0x4 DUP1 CALLDATASIZE SUB DUP2 ADD SWAP1 PUSH2 0x107 SWAP2 SWAP1 PUSH2 0xD2A JUMP JUMPDEST PUSH2 0x648 JUMP JUMPDEST PUSH1 0x40 MLOAD PUSH2 0x119 SWAP2 SWAP1 PUSH2 0x1193 JUMP JUMPDEST PUSH1 0x40 MLOAD DUP1 SWAP2 SUB SWAP1 RETURN JUMPDEST PUSH2 0x13C PUSH1 0x4 DUP1 CALLDATASIZE SUB DUP2 ADD SWAP1 PUSH2 0x137 SWAP2 SWAP1 PUSH2 0xE0B JUMP JUMPDEST PUSH2 0x76A JUMP JUMPDEST PUSH1 0x40 MLOAD PUSH2 0x149 SWAP2 SWAP1 PUSH2 0x1246 JUMP JUMPDEST PUSH1 0x40 MLOAD DUP1 SWAP2 SUB SWAP1 RETURN JUMPDEST PUSH1 0x2 PUSH1 0x20 MSTORE DUP2 PUSH1 0x0 MSTORE PUSH1 0x40 PUSH1 0x0 KECCAK256 DUP2 DUP2 SLOAD DUP2 LT PUSH2 0x16E JUMPI PUSH1 0x0 DUP1 REVERT JUMPDEST SWAP1 PUSH1 0x0 MSTORE PUSH1 0x20 PUSH1 0x0 KECCAK256 ADD PUSH1 0x0 SWAP2 POP SWAP2 POP SWAP1 SLOAD SWAP1 PUSH2 0x100 EXP SWAP1 DIV PUSH1 0x60 SHL DUP2 JUMP JUMPDEST PUSH1 0x1 PUSH1 0x20 MSTORE DUP1 PUSH1 0x0 MSTORE PUSH1 0x40 PUSH1 0x0 KECCAK256 PUSH1 0x0 SWAP2 POP SWAP1 POP DUP1 PUSH1 0x0 ADD PUSH1 0x0 SWAP1 SLOAD SWAP1 PUSH2 0x100 EXP SWAP1 DIV PUSH1 0x60 SHL SWAP1 DUP1 PUSH1 0x1 ADD PUSH1 0x0 SWAP1 SLOAD SWAP1 PUSH2 0x100 EXP SWAP1 DIV PUSH20 0xFFFFFFFFFFFFFFFFFFFFFFFFFFFFFFFFFFFFFFFF AND SWAP1 DUP1 PUSH1 0x2 ADD PUSH1 0x0 SWAP1 SLOAD SWAP1 PUSH2 0x100 EXP SWAP1 DIV PUSH20 0xFFFFFFFFFFFFFFFFFFFFFFFFFFFFFFFFFFFFFFFF AND SWAP1 DUP1 PUSH1 0x3 ADD SLOAD SWAP1 DUP1 PUSH1 0x4 ADD SLOAD SWAP1 DUP1 PUSH1 0x5 ADD DUP1 SLOAD PUSH2 0x21B SWAP1 PUSH2 0x1399 JUMP JUMPDEST DUP1 PUSH1 0x1F ADD PUSH1 0x20 DUP1 SWAP2 DIV MUL PUSH1 0x20 ADD PUSH1 0x40 MLOAD SWAP1 DUP2 ADD PUSH1 0x40 MSTORE DUP1 SWAP3 SWAP2 SWAP1 DUP2 DUP2 MSTORE PUSH1 0x20 ADD DUP3 DUP1 SLOAD PUSH2 0x247 SWAP1 PUSH2 0x1399 JUMP JUMPDEST DUP1 ISZERO PUSH2 0x294 JUMPI DUP1 PUSH1 0x1F LT PUSH2 0x269 JUMPI PUSH2 0x100 DUP1 DUP4 SLOAD DIV MUL DUP4 MSTORE SWAP2 PUSH1 0x20 ADD SWAP2 PUSH2 0x294 JUMP JUMPDEST DUP3 ADD SWAP2 SWAP1 PUSH1 0x0 MSTORE PUSH1 0x20 PUSH1 0x0 KECCAK256 SWAP1 JUMPDEST DUP2 SLOAD DUP2 MSTORE SWAP1 PUSH1 0x1 ADD SWAP1 PUSH1 0x20 ADD DUP1 DUP4 GT PUSH2 0x277 JUMPI DUP3 SWAP1 SUB PUSH1 0x1F AND DUP3 ADD SWAP2 JUMPDEST POP POP POP POP POP SWAP1 DUP1 PUSH1 0x6 ADD PUSH1 0x0 SWAP1 SLOAD SWAP1 PUSH2 0x100 EXP SWAP1 DIV PUSH1 0x60 SHL SWAP1 POP DUP8 JUMP JUMPDEST PUSH2 0x2B9 PUSH2 0xB6B JUMP JUMPDEST PUSH1 0x0 CALLER SWAP1 POP PUSH1 0x0 TIMESTAMP SWAP1 POP PUSH1 0x0 PUSH1 0x3 DUP4 DUP10 DUP10 DUP6 DUP11 DUP11 PUSH1 0x40 MLOAD PUSH1 0x20 ADD PUSH2 0x2E2 SWAP7 SWAP6 SWAP5 SWAP4 SWAP3 SWAP2 SWAP1 PUSH2 0x10B1 JUMP JUMPDEST PUSH1 0x40 MLOAD PUSH1 0x20 DUP2 DUP4 SUB SUB DUP2 MSTORE SWAP1 PUSH1 0x40 MSTORE PUSH1 0x40 MLOAD PUSH2 0x2FE SWAP2 SWAP1 PUSH2 0x117C JUMP JUMPDEST PUSH1 0x20 PUSH1 0x40 MLOAD DUP1 DUP4 SUB DUP2 DUP6 GAS STATICCALL ISZERO DUP1 ISZERO PUSH2 0x31B JUMPI RETURNDATASIZE PUSH1 0x0 DUP1 RETURNDATACOPY RETURNDATASIZE PUSH1 0x0 REVERT JUMPDEST POP POP POP PUSH1 0x40 MLOAD MLOAD PUSH1 0x60 SHL SWAP1 POP PUSH1 0x0 PUSH1 0x3 DUP3 DUP6 DUP12 DUP12 DUP8 DUP13 DUP13 PUSH1 0x40 MLOAD PUSH1 0x20 ADD PUSH2 0x348 SWAP8 SWAP7 SWAP6 SWAP5 SWAP4 SWAP3 SWAP2 SWAP1 PUSH2 0x110E JUMP JUMPDEST PUSH1 0x40 MLOAD PUSH1 0x20 DUP2 DUP4 SUB SUB DUP2 MSTORE SWAP1 PUSH1 0x40 MSTORE PUSH1 0x40 MLOAD PUSH2 0x364 SWAP2 SWAP1 PUSH2 0x117C JUMP JUMPDEST PUSH1 0x20 PUSH1 0x40 MLOAD DUP1 DUP4 SUB DUP2 DUP6 GAS STATICCALL ISZERO DUP1 ISZERO PUSH2 0x381 JUMPI RETURNDATASIZE PUSH1 0x0 DUP1 RETURNDATACOPY RETURNDATASIZE PUSH1 0x0 REVERT JUMPDEST POP POP POP PUSH1 0x40 MLOAD MLOAD PUSH1 0x60 SHL SWAP1 POP PUSH1 0x40 MLOAD DUP1 PUSH1 0xE0 ADD PUSH1 0x40 MSTORE DUP1 DUP4 PUSH12 0xFFFFFFFFFFFFFFFFFFFFFFFF NOT AND DUP2 MSTORE PUSH1 0x20 ADD DUP6 PUSH20 0xFFFFFFFFFFFFFFFFFFFFFFFFFFFFFFFFFFFFFFFF AND DUP2 MSTORE PUSH1 0x20 ADD DUP11 PUSH20 0xFFFFFFFFFFFFFFFFFFFFFFFFFFFFFFFFFFFFFFFF AND DUP2 MSTORE PUSH1 0x20 ADD DUP10 DUP2 MSTORE PUSH1 0x20 ADD DUP5 DUP2 MSTORE PUSH1 0x20 ADD DUP9 DUP9 DUP1 DUP1 PUSH1 0x1F ADD PUSH1 0x20 DUP1 SWAP2 DIV MUL PUSH1 0x20 ADD PUSH1 0x40 MLOAD SWAP1 DUP2 ADD PUSH1 0x40 MSTORE DUP1 SWAP4 SWAP3 SWAP2 SWAP1 DUP2 DUP2 MSTORE PUSH1 0x20 ADD DUP4 DUP4 DUP1 DUP3 DUP5 CALLDATACOPY PUSH1 0x0 DUP2 DUP5 ADD MSTORE PUSH1 0x1F NOT PUSH1 0x1F DUP3 ADD AND SWAP1 POP DUP1 DUP4 ADD SWAP3 POP POP POP POP POP POP POP DUP2 MSTORE PUSH1 0x20 ADD DUP3 PUSH12 0xFFFFFFFFFFFFFFFFFFFFFFFF NOT AND DUP2 MSTORE POP SWAP5 POP PUSH1 0x2 PUSH1 0x0 DUP6 PUSH20 0xFFFFFFFFFFFFFFFFFFFFFFFFFFFFFFFFFFFFFFFF AND PUSH20 0xFFFFFFFFFFFFFFFFFFFFFFFFFFFFFFFFFFFFFFFF AND DUP2 MSTORE PUSH1 0x20 ADD SWAP1 DUP2 MSTORE PUSH1 0x20 ADD PUSH1 0x0 KECCAK256 POP DUP5 PUSH1 0x1 PUSH1 0x0 DUP5 PUSH12 0xFFFFFFFFFFFFFFFFFFFFFFFF NOT AND PUSH12 0xFFFFFFFFFFFFFFFFFFFFFFFF NOT AND DUP2 MSTORE PUSH1 0x20 ADD SWAP1 DUP2 MSTORE PUSH1 0x20 ADD PUSH1 0x0 KECCAK256 PUSH1 0x0 DUP3 ADD MLOAD DUP2 PUSH1 0x0 ADD PUSH1 0x0 PUSH2 0x100 EXP DUP2 SLOAD DUP2 PUSH20 0xFFFFFFFFFFFFFFFFFFFFFFFFFFFFFFFFFFFFFFFF MUL NOT AND SWAP1 DUP4 PUSH1 0x60 SHR MUL OR SWAP1 SSTORE POP PUSH1 0x20 DUP3 ADD MLOAD DUP2 PUSH1 0x1 ADD PUSH1 0x0 PUSH2 0x100 EXP DUP2 SLOAD DUP2 PUSH20 0xFFFFFFFFFFFFFFFFFFFFFFFFFFFFFFFFFFFFFFFF MUL NOT AND SWAP1 DUP4 PUSH20 0xFFFFFFFFFFFFFFFFFFFFFFFFFFFFFFFFFFFFFFFF AND MUL OR SWAP1 SSTORE POP PUSH1 0x40 DUP3 ADD MLOAD DUP2 PUSH1 0x2 ADD PUSH1 0x0 PUSH2 0x100 EXP DUP2 SLOAD DUP2 PUSH20 0xFFFFFFFFFFFFFFFFFFFFFFFFFFFFFFFFFFFFFFFF MUL NOT AND SWAP1 DUP4 PUSH20 0xFFFFFFFFFFFFFFFFFFFFFFFFFFFFFFFFFFFFFFFF AND MUL OR SWAP1 SSTORE POP PUSH1 0x60 DUP3 ADD MLOAD DUP2 PUSH1 0x3 ADD SSTORE PUSH1 0x80 DUP3 ADD MLOAD DUP2 PUSH1 0x4 ADD SSTORE PUSH1 0xA0 DUP3 ADD MLOAD DUP2 PUSH1 0x5 ADD SWAP1 DUP1 MLOAD SWAP1 PUSH1 0x20 ADD SWAP1 PUSH2 0x5B4 SWAP3 SWAP2 SWAP1 PUSH2 0xBF2 JUMP JUMPDEST POP PUSH1 0xC0 DUP3 ADD MLOAD DUP2 PUSH1 0x6 ADD PUSH1 0x0 PUSH2 0x100 EXP DUP2 SLOAD DUP2 PUSH20 0xFFFFFFFFFFFFFFFFFFFFFFFFFFFFFFFFFFFFFFFF MUL NOT AND SWAP1 DUP4 PUSH1 0x60 SHR MUL OR SWAP1 SSTORE POP SWAP1 POP POP PUSH1 0x0 DUP3 SWAP1 DUP1 PUSH1 0x1 DUP2 SLOAD ADD DUP1 DUP3 SSTORE DUP1 SWAP2 POP POP PUSH1 0x1 SWAP1 SUB SWAP1 PUSH1 0x0 MSTORE PUSH1 0x20 PUSH1 0x0 KECCAK256 ADD PUSH1 0x0 SWAP1 SWAP2 SWAP1 SWAP2 SWAP1 SWAP2 PUSH2 0x100 EXP DUP2 SLOAD DUP2 PUSH20 0xFFFFFFFFFFFFFFFFFFFFFFFFFFFFFFFFFFFFFFFF MUL NOT AND SWAP1 DUP4 PUSH1 0x60 SHR MUL OR SWAP1 SSTORE POP POP POP POP POP SWAP5 SWAP4 POP POP POP POP JUMP JUMPDEST PUSH1 0x60 PUSH1 0x0 DUP1 SLOAD DUP1 PUSH1 0x20 MUL PUSH1 0x20 ADD PUSH1 0x40 MLOAD SWAP1 DUP2 ADD PUSH1 0x40 MSTORE DUP1 SWAP3 SWAP2 SWAP1 DUP2 DUP2 MSTORE PUSH1 0x20 ADD DUP3 DUP1 SLOAD DUP1 ISZERO PUSH2 0x6B2 JUMPI PUSH1 0x20 MUL DUP3 ADD SWAP2 SWAP1 PUSH1 0x0 MSTORE PUSH1 0x20 PUSH1 0x0 KECCAK256 SWAP1 JUMPDEST DUP2 PUSH1 0x0 SWAP1 SLOAD SWAP1 PUSH2 0x100 EXP SWAP1 DIV PUSH1 0x60 SHL PUSH12 0xFFFFFFFFFFFFFFFFFFFFFFFF NOT AND DUP2 MSTORE PUSH1 0x20 ADD SWAP1 PUSH1 0x1 ADD SWAP1 DUP1 DUP4 GT PUSH2 0x682 JUMPI JUMPDEST POP POP POP POP POP SWAP1 POP PUSH1 0x2 PUSH1 0x0 DUP4 PUSH20 0xFFFFFFFFFFFFFFFFFFFFFFFFFFFFFFFFFFFFFFFF AND PUSH20 0xFFFFFFFFFFFFFFFFFFFFFFFFFFFFFFFFFFFFFFFF AND DUP2 MSTORE PUSH1 0x20 ADD SWAP1 DUP2 MSTORE PUSH1 0x20 ADD PUSH1 0x0 KECCAK256 DUP1 SLOAD DUP1 PUSH1 0x20 MUL PUSH1 0x20 ADD PUSH1 0x40 MLOAD SWAP1 DUP2 ADD PUSH1 0x40 MSTORE DUP1 SWAP3 SWAP2 SWAP1 DUP2 DUP2 MSTORE PUSH1 0x20 ADD DUP3 DUP1 SLOAD DUP1 ISZERO PUSH2 0x75E JUMPI PUSH1 0x20 MUL DUP3 ADD SWAP2 SWAP1 PUSH1 0x0 MSTORE PUSH1 0x20 PUSH1 0x0 KECCAK256 SWAP1 JUMPDEST DUP2 PUSH1 0x0 SWAP1 SLOAD SWAP1 PUSH2 0x100 EXP SWAP1 DIV PUSH1 0x60 SHL PUSH12 0xFFFFFFFFFFFFFFFFFFFFFFFF NOT AND DUP2 MSTORE PUSH1 0x20 ADD SWAP1 PUSH1 0x1 ADD SWAP1 DUP1 DUP4 GT PUSH2 0x72E JUMPI JUMPDEST POP POP POP POP POP SWAP1 POP SWAP2 SWAP1 POP JUMP JUMPDEST PUSH2 0x772 PUSH2 0xB6B JUMP JUMPDEST PUSH1 0x1 PUSH1 0x0 DUP4 PUSH12 0xFFFFFFFFFFFFFFFFFFFFFFFF NOT AND PUSH12 0xFFFFFFFFFFFFFFFFFFFFFFFF NOT AND DUP2 MSTORE PUSH1 0x20 ADD SWAP1 DUP2 MSTORE PUSH1 0x20 ADD PUSH1 0x0 KECCAK256 PUSH1 0x40 MLOAD DUP1 PUSH1 0xE0 ADD PUSH1 0x40 MSTORE SWAP1 DUP2 PUSH1 0x0 DUP3 ADD PUSH1 0x0 SWAP1 SLOAD SWAP1 PUSH2 0x100 EXP SWAP1 DIV PUSH1 0x60 SHL PUSH12 0xFFFFFFFFFFFFFFFFFFFFFFFF NOT AND PUSH12 0xFFFFFFFFFFFFFFFFFFFFFFFF NOT AND DUP2 MSTORE PUSH1 0x20 ADD PUSH1 0x1 DUP3 ADD PUSH1 0x0 SWAP1 SLOAD SWAP1 PUSH2 0x100 EXP SWAP1 DIV PUSH20 0xFFFFFFFFFFFFFFFFFFFFFFFFFFFFFFFFFFFFFFFF AND PUSH20 0xFFFFFFFFFFFFFFFFFFFFFFFFFFFFFFFFFFFFFFFF AND PUSH20 0xFFFFFFFFFFFFFFFFFFFFFFFFFFFFFFFFFFFFFFFF AND DUP2 MSTORE PUSH1 0x20 ADD PUSH1 0x2 DUP3 ADD PUSH1 0x0 SWAP1 SLOAD SWAP1 PUSH2 0x100 EXP SWAP1 DIV PUSH20 0xFFFFFFFFFFFFFFFFFFFFFFFFFFFFFFFFFFFFFFFF AND PUSH20 0xFFFFFFFFFFFFFFFFFFFFFFFFFFFFFFFFFFFFFFFF AND PUSH20 0xFFFFFFFFFFFFFFFFFFFFFFFFFFFFFFFFFFFFFFFF AND DUP2 MSTORE PUSH1 0x20 ADD PUSH1 0x3 DUP3 ADD SLOAD DUP2 MSTORE PUSH1 0x20 ADD PUSH1 0x4 DUP3 ADD SLOAD DUP2 MSTORE PUSH1 0x20 ADD PUSH1 0x5 DUP3 ADD DUP1 SLOAD PUSH2 0x8B3 SWAP1 PUSH2 0x1399 JUMP JUMPDEST DUP1 PUSH1 0x1F ADD PUSH1 0x20 DUP1 SWAP2 DIV MUL PUSH1 0x20 ADD PUSH1 0x40 MLOAD SWAP1 DUP2 ADD PUSH1 0x40 MSTORE DUP1 SWAP3 SWAP2 SWAP1 DUP2 DUP2 MSTORE PUSH1 0x20 ADD DUP3 DUP1 SLOAD PUSH2 0x8DF SWAP1 PUSH2 0x1399 JUMP JUMPDEST DUP1 ISZERO PUSH2 0x92C JUMPI DUP1 PUSH1 0x1F LT PUSH2 0x901 JUMPI PUSH2 0x100 DUP1 DUP4 SLOAD DIV MUL DUP4 MSTORE SWAP2 PUSH1 0x20 ADD SWAP2 PUSH2 0x92C JUMP JUMPDEST DUP3 ADD SWAP2 SWAP1 PUSH1 0x0 MSTORE PUSH1 0x20 PUSH1 0x0 KECCAK256 SWAP1 JUMPDEST DUP2 SLOAD DUP2 MSTORE SWAP1 PUSH1 0x1 ADD SWAP1 PUSH1 0x20 ADD DUP1 DUP4 GT PUSH2 0x90F JUMPI DUP3 SWAP1 SUB PUSH1 0x1F AND DUP3 ADD SWAP2 JUMPDEST POP POP POP POP POP DUP2 MSTORE PUSH1 0x20 ADD PUSH1 0x6 DUP3 ADD PUSH1 0x0 SWAP1 SLOAD SWAP1 PUSH2 0x100 EXP SWAP1 DIV PUSH1 0x60 SHL PUSH12 0xFFFFFFFFFFFFFFFFFFFFFFFF NOT AND PUSH12 0xFFFFFFFFFFFFFFFFFFFFFFFF NOT AND DUP2 MSTORE POP POP SWAP1 POP PUSH1 0x1 PUSH1 0x0 DUP4 PUSH12 0xFFFFFFFFFFFFFFFFFFFFFFFF NOT AND PUSH12 0xFFFFFFFFFFFFFFFFFFFFFFFF NOT AND DUP2 MSTORE PUSH1 0x20 ADD SWAP1 DUP2 MSTORE PUSH1 0x20 ADD PUSH1 0x0 KECCAK256 PUSH1 0x40 MLOAD DUP1 PUSH1 0xE0 ADD PUSH1 0x40 MSTORE SWAP1 DUP2 PUSH1 0x0 DUP3 ADD PUSH1 0x0 SWAP1 SLOAD SWAP1 PUSH2 0x100 EXP SWAP1 DIV PUSH1 0x60 SHL PUSH12 0xFFFFFFFFFFFFFFFFFFFFFFFF NOT AND PUSH12 0xFFFFFFFFFFFFFFFFFFFFFFFF NOT AND DUP2 MSTORE PUSH1 0x20 ADD PUSH1 0x1 DUP3 ADD PUSH1 0x0 SWAP1 SLOAD SWAP1 PUSH2 0x100 EXP SWAP1 DIV PUSH20 0xFFFFFFFFFFFFFFFFFFFFFFFFFFFFFFFFFFFFFFFF AND PUSH20 0xFFFFFFFFFFFFFFFFFFFFFFFFFFFFFFFFFFFFFFFF AND PUSH20 0xFFFFFFFFFFFFFFFFFFFFFFFFFFFFFFFFFFFFFFFF AND DUP2 MSTORE PUSH1 0x20 ADD PUSH1 0x2 DUP3 ADD PUSH1 0x0 SWAP1 SLOAD SWAP1 PUSH2 0x100 EXP SWAP1 DIV PUSH20 0xFFFFFFFFFFFFFFFFFFFFFFFFFFFFFFFFFFFFFFFF AND PUSH20 0xFFFFFFFFFFFFFFFFFFFFFFFFFFFFFFFFFFFFFFFF AND PUSH20 0xFFFFFFFFFFFFFFFFFFFFFFFFFFFFFFFFFFFFFFFF AND DUP2 MSTORE PUSH1 0x20 ADD PUSH1 0x3 DUP3 ADD SLOAD DUP2 MSTORE PUSH1 0x20 ADD PUSH1 0x4 DUP3 ADD SLOAD DUP2 MSTORE PUSH1 0x20 ADD PUSH1 0x5 DUP3 ADD DUP1 SLOAD PUSH2 0xAAD SWAP1 PUSH2 0x1399 JUMP JUMPDEST DUP1 PUSH1 0x1F ADD PUSH1 0x20 DUP1 SWAP2 DIV MUL PUSH1 0x20 ADD PUSH1 0x40 MLOAD SWAP1 DUP2 ADD PUSH1 0x40 MSTORE DUP1 SWAP3 SWAP2 SWAP1 DUP2 DUP2 MSTORE PUSH1 0x20 ADD DUP3 DUP1 SLOAD PUSH2 0xAD9 SWAP1 PUSH2 0x1399 JUMP JUMPDEST DUP1 ISZERO PUSH2 0xB26 JUMPI DUP1 PUSH1 0x1F LT PUSH2 0xAFB JUMPI PUSH2 0x100 DUP1 DUP4 SLOAD DIV MUL DUP4 MSTORE SWAP2 PUSH1 0x20 ADD SWAP2 PUSH2 0xB26 JUMP JUMPDEST DUP3 ADD SWAP2 SWAP1 PUSH1 0x0 MSTORE PUSH1 0x20 PUSH1 0x0 KECCAK256 SWAP1 JUMPDEST DUP2 SLOAD DUP2 MSTORE SWAP1 PUSH1 0x1 ADD SWAP1 PUSH1 0x20 ADD DUP1 DUP4 GT PUSH2 0xB09 JUMPI DUP3 SWAP1 SUB PUSH1 0x1F AND DUP3 ADD SWAP2 JUMPDEST POP POP POP POP POP DUP2 MSTORE PUSH1 0x20 ADD PUSH1 0x6 DUP3 ADD PUSH1 0x0 SWAP1 SLOAD SWAP1 PUSH2 0x100 EXP SWAP1 DIV PUSH1 0x60 SHL PUSH12 0xFFFFFFFFFFFFFFFFFFFFFFFF NOT AND PUSH12 0xFFFFFFFFFFFFFFFFFFFFFFFF NOT AND DUP2 MSTORE POP POP SWAP1 POP SWAP2 SWAP1 POP JUMP JUMPDEST PUSH1 0x40 MLOAD DUP1 PUSH1 0xE0 ADD PUSH1 0x40 MSTORE DUP1 PUSH1 0x0 PUSH12 0xFFFFFFFFFFFFFFFFFFFFFFFF NOT AND DUP2 MSTORE PUSH1 0x20 ADD PUSH1 0x0 PUSH20 0xFFFFFFFFFFFFFFFFFFFFFFFFFFFFFFFFFFFFFFFF AND DUP2 MSTORE PUSH1 0x20 ADD PUSH1 0x0 PUSH20 0xFFFFFFFFFFFFFFFFFFFFFFFFFFFFFFFFFFFFFFFF AND DUP2 MSTORE PUSH1 0x20 ADD PUSH1 0x0 DUP2 MSTORE PUSH1 0x20 ADD PUSH1 0x0 DUP2 MSTORE PUSH1 0x20 ADD PUSH1 0x60 DUP2 MSTORE PUSH1 0x20 ADD PUSH1 0x0 PUSH12 0xFFFFFFFFFFFFFFFFFFFFFFFF NOT AND DUP2 MSTORE POP SWAP1 JUMP JUMPDEST DUP3 DUP1 SLOAD PUSH2 0xBFE SWAP1 PUSH2 0x1399 JUMP JUMPDEST SWAP1 PUSH1 0x0 MSTORE PUSH1 0x20 PUSH1 0x0 KECCAK256 SWAP1 PUSH1 0x1F ADD PUSH1 0x20 SWAP1 DIV DUP2 ADD SWAP3 DUP3 PUSH2 0xC20 JUMPI PUSH1 0x0 DUP6 SSTORE PUSH2 0xC67 JUMP JUMPDEST DUP3 PUSH1 0x1F LT PUSH2 0xC39 JUMPI DUP1 MLOAD PUSH1 0xFF NOT AND DUP4 DUP1 ADD OR DUP6 SSTORE PUSH2 0xC67 JUMP JUMPDEST DUP3 DUP1 ADD PUSH1 0x1 ADD DUP6 SSTORE DUP3 ISZERO PUSH2 0xC67 JUMPI SWAP2 DUP3 ADD JUMPDEST DUP3 DUP2 GT ISZERO PUSH2 0xC66 JUMPI DUP3 MLOAD DUP3 SSTORE SWAP2 PUSH1 0x20 ADD SWAP2 SWAP1 PUSH1 0x1 ADD SWAP1 PUSH2 0xC4B JUMP JUMPDEST JUMPDEST POP SWAP1 POP PUSH2 0xC74 SWAP2 SWAP1 PUSH2 0xC78 JUMP JUMPDEST POP SWAP1 JUMP JUMPDEST JUMPDEST DUP1 DUP3 GT ISZERO PUSH2 0xC91 JUMPI PUSH1 0x0 DUP2 PUSH1 0x0 SWAP1 SSTORE POP PUSH1 0x1 ADD PUSH2 0xC79 JUMP JUMPDEST POP SWAP1 JUMP JUMPDEST PUSH1 0x0 DUP2 CALLDATALOAD SWAP1 POP PUSH2 0xCA4 DUP2 PUSH2 0x1469 JUMP JUMPDEST SWAP3 SWAP2 POP POP JUMP JUMPDEST PUSH1 0x0 DUP2 CALLDATALOAD SWAP1 POP PUSH2 0xCB9 DUP2 PUSH2 0x1480 JUMP JUMPDEST SWAP3 SWAP2 POP POP JUMP JUMPDEST PUSH1 0x0 DUP1 DUP4 PUSH1 0x1F DUP5 ADD SLT PUSH2 0xCD5 JUMPI PUSH2 0xCD4 PUSH2 0x1437 JUMP JUMPDEST JUMPDEST DUP3 CALLDATALOAD SWAP1 POP PUSH8 0xFFFFFFFFFFFFFFFF DUP2 GT ISZERO PUSH2 0xCF2 JUMPI PUSH2 0xCF1 PUSH2 0x1432 JUMP JUMPDEST JUMPDEST PUSH1 0x20 DUP4 ADD SWAP2 POP DUP4 PUSH1 0x1 DUP3 MUL DUP4 ADD GT ISZERO PUSH2 0xD0E JUMPI PUSH2 0xD0D PUSH2 0x143C JUMP JUMPDEST JUMPDEST SWAP3 POP SWAP3 SWAP1 POP JUMP JUMPDEST PUSH1 0x0 DUP2 CALLDATALOAD SWAP1 POP PUSH2 0xD24 DUP2 PUSH2 0x1497 JUMP JUMPDEST SWAP3 SWAP2 POP POP JUMP JUMPDEST PUSH1 0x0 PUSH1 0x20 DUP3 DUP5 SUB SLT ISZERO PUSH2 0xD40 JUMPI PUSH2 0xD3F PUSH2 0x1446 JUMP JUMPDEST JUMPDEST PUSH1 0x0 PUSH2 0xD4E DUP5 DUP3 DUP6 ADD PUSH2 0xC95 JUMP JUMPDEST SWAP2 POP POP SWAP3 SWAP2 POP POP JUMP JUMPDEST PUSH1 0x0 DUP1 PUSH1 0x40 DUP4 DUP6 SUB SLT ISZERO PUSH2 0xD6E JUMPI PUSH2 0xD6D PUSH2 0x1446 JUMP JUMPDEST JUMPDEST PUSH1 0x0 PUSH2 0xD7C DUP6 DUP3 DUP7 ADD PUSH2 0xC95 JUMP JUMPDEST SWAP3 POP POP PUSH1 0x20 PUSH2 0xD8D DUP6 DUP3 DUP7 ADD PUSH2 0xD15 JUMP JUMPDEST SWAP2 POP POP SWAP3 POP SWAP3 SWAP1 POP JUMP JUMPDEST PUSH1 0x0 DUP1 PUSH1 0x0 DUP1 PUSH1 0x60 DUP6 DUP8 SUB SLT ISZERO PUSH2 0xDB1 JUMPI PUSH2 0xDB0 PUSH2 0x1446 JUMP JUMPDEST JUMPDEST PUSH1 0x0 PUSH2 0xDBF DUP8 DUP3 DUP9 ADD PUSH2 0xC95 JUMP JUMPDEST SWAP5 POP POP PUSH1 0x20 PUSH2 0xDD0 DUP8 DUP3 DUP9 ADD PUSH2 0xD15 JUMP JUMPDEST SWAP4 POP POP PUSH1 0x40 DUP6 ADD CALLDATALOAD PUSH8 0xFFFFFFFFFFFFFFFF DUP2 GT ISZERO PUSH2 0xDF1 JUMPI PUSH2 0xDF0 PUSH2 0x1441 JUMP JUMPDEST JUMPDEST PUSH2 0xDFD DUP8 DUP3 DUP9 ADD PUSH2 0xCBF JUMP JUMPDEST SWAP3 POP SWAP3 POP POP SWAP3 SWAP6 SWAP2 SWAP5 POP SWAP3 POP JUMP JUMPDEST PUSH1 0x0 PUSH1 0x20 DUP3 DUP5 SUB SLT ISZERO PUSH2 0xE21 JUMPI PUSH2 0xE20 PUSH2 0x1446 JUMP JUMPDEST JUMPDEST PUSH1 0x0 PUSH2 0xE2F DUP5 DUP3 DUP6 ADD PUSH2 0xCAA JUMP JUMPDEST SWAP2 POP POP SWAP3 SWAP2 POP POP JUMP JUMPDEST PUSH1 0x0 PUSH2 0xE44 DUP4 DUP4 PUSH2 0xEE3 JUMP JUMPDEST PUSH1 0x20 DUP4 ADD SWAP1 POP SWAP3 SWAP2 POP POP JUMP JUMPDEST PUSH2 0xE59 DUP2 PUSH2 0x12EF JUMP JUMPDEST DUP3 MSTORE POP POP JUMP JUMPDEST PUSH2 0xE68 DUP2 PUSH2 0x12EF JUMP JUMPDEST DUP3 MSTORE POP POP JUMP JUMPDEST PUSH2 0xE7F PUSH2 0xE7A DUP3 PUSH2 0x12EF JUMP JUMPDEST PUSH2 0x13CB JUMP JUMPDEST DUP3 MSTORE POP POP JUMP JUMPDEST PUSH1 0x0 PUSH2 0xE90 DUP3 PUSH2 0x1278 JUMP JUMPDEST PUSH2 0xE9A DUP2 DUP6 PUSH2 0x12A6 JUMP JUMPDEST SWAP4 POP PUSH2 0xEA5 DUP4 PUSH2 0x1268 JUMP JUMPDEST DUP1 PUSH1 0x0 JUMPDEST DUP4 DUP2 LT ISZERO PUSH2 0xED6 JUMPI DUP2 MLOAD PUSH2 0xEBD DUP9 DUP3 PUSH2 0xE38 JUMP JUMPDEST SWAP8 POP PUSH2 0xEC8 DUP4 PUSH2 0x1299 JUMP JUMPDEST SWAP3 POP POP PUSH1 0x1 DUP2 ADD SWAP1 POP PUSH2 0xEA9 JUMP JUMPDEST POP DUP6 SWAP4 POP POP POP POP SWAP3 SWAP2 POP POP JUMP JUMPDEST PUSH2 0xEEC DUP2 PUSH2 0x1301 JUMP JUMPDEST DUP3 MSTORE POP POP JUMP JUMPDEST PUSH2 0xEFB DUP2 PUSH2 0x1301 JUMP JUMPDEST DUP3 MSTORE POP POP JUMP JUMPDEST PUSH2 0xF12 PUSH2 0xF0D DUP3 PUSH2 0x1301 JUMP JUMPDEST PUSH2 0x13DD JUMP JUMPDEST DUP3 MSTORE POP POP JUMP JUMPDEST PUSH1 0x0 PUSH2 0xF23 DUP3 PUSH2 0x1283 JUMP JUMPDEST PUSH2 0xF2D DUP2 DUP6 PUSH2 0x12B7 JUMP JUMPDEST SWAP4 POP PUSH2 0xF3D DUP2 DUP6 PUSH1 0x20 DUP7 ADD PUSH2 0x1366 JUMP JUMPDEST DUP1 DUP5 ADD SWAP2 POP POP SWAP3 SWAP2 POP POP JUMP JUMPDEST PUSH1 0x0 PUSH2 0xF55 DUP4 DUP6 PUSH2 0x12E4 JUMP JUMPDEST SWAP4 POP PUSH2 0xF62 DUP4 DUP6 DUP5 PUSH2 0x1357 JUMP JUMPDEST DUP3 DUP5 ADD SWAP1 POP SWAP4 SWAP3 POP POP POP JUMP JUMPDEST PUSH1 0x0 PUSH2 0xF79 DUP3 PUSH2 0x128E JUMP JUMPDEST PUSH2 0xF83 DUP2 DUP6 PUSH2 0x12C2 JUMP JUMPDEST SWAP4 POP PUSH2 0xF93 DUP2 DUP6 PUSH1 0x20 DUP7 ADD PUSH2 0x1366 JUMP JUMPDEST PUSH2 0xF9C DUP2 PUSH2 0x144B JUMP JUMPDEST DUP5 ADD SWAP2 POP POP SWAP3 SWAP2 POP POP JUMP JUMPDEST PUSH1 0x0 PUSH2 0xFB2 DUP3 PUSH2 0x128E JUMP JUMPDEST PUSH2 0xFBC DUP2 DUP6 PUSH2 0x12D3 JUMP JUMPDEST SWAP4 POP PUSH2 0xFCC DUP2 DUP6 PUSH1 0x20 DUP7 ADD PUSH2 0x1366 JUMP JUMPDEST PUSH2 0xFD5 DUP2 PUSH2 0x144B JUMP JUMPDEST DUP5 ADD SWAP2 POP POP SWAP3 SWAP2 POP POP JUMP JUMPDEST PUSH1 0x0 PUSH1 0xE0 DUP4 ADD PUSH1 0x0 DUP4 ADD MLOAD PUSH2 0xFF8 PUSH1 0x0 DUP7 ADD DUP3 PUSH2 0xEE3 JUMP JUMPDEST POP PUSH1 0x20 DUP4 ADD MLOAD PUSH2 0x100B PUSH1 0x20 DUP7 ADD DUP3 PUSH2 0xE50 JUMP JUMPDEST POP PUSH1 0x40 DUP4 ADD MLOAD PUSH2 0x101E PUSH1 0x40 DUP7 ADD DUP3 PUSH2 0xE50 JUMP JUMPDEST POP PUSH1 0x60 DUP4 ADD MLOAD PUSH2 0x1031 PUSH1 0x60 DUP7 ADD DUP3 PUSH2 0x107C JUMP JUMPDEST POP PUSH1 0x80 DUP4 ADD MLOAD PUSH2 0x1044 PUSH1 0x80 DUP7 ADD DUP3 PUSH2 0x107C JUMP JUMPDEST POP PUSH1 0xA0 DUP4 ADD MLOAD DUP5 DUP3 SUB PUSH1 0xA0 DUP7 ADD MSTORE PUSH2 0x105C DUP3 DUP3 PUSH2 0xF6E JUMP JUMPDEST SWAP2 POP POP PUSH1 0xC0 DUP4 ADD MLOAD PUSH2 0x1071 PUSH1 0xC0 DUP7 ADD DUP3 PUSH2 0xEE3 JUMP JUMPDEST POP DUP1 SWAP2 POP POP SWAP3 SWAP2 POP POP JUMP JUMPDEST PUSH2 0x1085 DUP2 PUSH2 0x134D JUMP JUMPDEST DUP3 MSTORE POP POP JUMP JUMPDEST PUSH2 0x1094 DUP2 PUSH2 0x134D JUMP JUMPDEST DUP3 MSTORE POP POP JUMP JUMPDEST PUSH2 0x10AB PUSH2 0x10A6 DUP3 PUSH2 0x134D JUMP JUMPDEST PUSH2 0x13F9 JUMP JUMPDEST DUP3 MSTORE POP POP JUMP JUMPDEST PUSH1 0x0 PUSH2 0x10BD DUP3 DUP10 PUSH2 0xE6E JUMP JUMPDEST PUSH1 0x14 DUP3 ADD SWAP2 POP PUSH2 0x10CD DUP3 DUP9 PUSH2 0xE6E JUMP JUMPDEST PUSH1 0x14 DUP3 ADD SWAP2 POP PUSH2 0x10DD DUP3 DUP8 PUSH2 0x109A JUMP JUMPDEST PUSH1 0x20 DUP3 ADD SWAP2 POP PUSH2 0x10ED DUP3 DUP7 PUSH2 0x109A JUMP JUMPDEST PUSH1 0x20 DUP3 ADD SWAP2 POP PUSH2 0x10FE DUP3 DUP5 DUP7 PUSH2 0xF49 JUMP JUMPDEST SWAP2 POP DUP2 SWAP1 POP SWAP8 SWAP7 POP POP POP POP POP POP POP JUMP JUMPDEST PUSH1 0x0 PUSH2 0x111A DUP3 DUP11 PUSH2 0xF01 JUMP JUMPDEST PUSH1 0x14 DUP3 ADD SWAP2 POP PUSH2 0x112A DUP3 DUP10 PUSH2 0xE6E JUMP JUMPDEST PUSH1 0x14 DUP3 ADD SWAP2 POP PUSH2 0x113A DUP3 DUP9 PUSH2 0xE6E JUMP JUMPDEST PUSH1 0x14 DUP3 ADD SWAP2 POP PUSH2 0x114A DUP3 DUP8 PUSH2 0x109A JUMP JUMPDEST PUSH1 0x20 DUP3 ADD SWAP2 POP PUSH2 0x115A DUP3 DUP7 PUSH2 0x109A JUMP JUMPDEST PUSH1 0x20 DUP3 ADD SWAP2 POP PUSH2 0x116B DUP3 DUP5 DUP7 PUSH2 0xF49 JUMP JUMPDEST SWAP2 POP DUP2 SWAP1 POP SWAP9 SWAP8 POP POP POP POP POP POP POP POP JUMP JUMPDEST PUSH1 0x0 PUSH2 0x1188 DUP3 DUP5 PUSH2 0xF18 JUMP JUMPDEST SWAP2 POP DUP2 SWAP1 POP SWAP3 SWAP2 POP POP JUMP JUMPDEST PUSH1 0x0 PUSH1 0x20 DUP3 ADD SWAP1 POP DUP2 DUP2 SUB PUSH1 0x0 DUP4 ADD MSTORE PUSH2 0x11AD DUP2 DUP5 PUSH2 0xE85 JUMP JUMPDEST SWAP1 POP SWAP3 SWAP2 POP POP JUMP JUMPDEST PUSH1 0x0 PUSH1 0x20 DUP3 ADD SWAP1 POP PUSH2 0x11CA PUSH1 0x0 DUP4 ADD DUP5 PUSH2 0xEF2 JUMP JUMPDEST SWAP3 SWAP2 POP POP JUMP JUMPDEST PUSH1 0x0 PUSH1 0xE0 DUP3 ADD SWAP1 POP PUSH2 0x11E5 PUSH1 0x0 DUP4 ADD DUP11 PUSH2 0xEF2 JUMP JUMPDEST PUSH2 0x11F2 PUSH1 0x20 DUP4 ADD DUP10 PUSH2 0xE5F JUMP JUMPDEST PUSH2 0x11FF PUSH1 0x40 DUP4 ADD DUP9 PUSH2 0xE5F JUMP JUMPDEST PUSH2 0x120C PUSH1 0x60 DUP4 ADD DUP8 PUSH2 0x108B JUMP JUMPDEST PUSH2 0x1219 PUSH1 0x80 DUP4 ADD DUP7 PUSH2 0x108B JUMP JUMPDEST DUP2 DUP2 SUB PUSH1 0xA0 DUP4 ADD MSTORE PUSH2 0x122B DUP2 DUP6 PUSH2 0xFA7 JUMP JUMPDEST SWAP1 POP PUSH2 0x123A PUSH1 0xC0 DUP4 ADD DUP5 PUSH2 0xEF2 JUMP JUMPDEST SWAP9 SWAP8 POP POP POP POP POP POP POP POP JUMP JUMPDEST PUSH1 0x0 PUSH1 0x20 DUP3 ADD SWAP1 POP DUP2 DUP2 SUB PUSH1 0x0 DUP4 ADD MSTORE PUSH2 0x1260 DUP2 DUP5 PUSH2 0xFE0 JUMP JUMPDEST SWAP1 POP SWAP3 SWAP2 POP POP JUMP JUMPDEST PUSH1 0x0 DUP2 SWAP1 POP PUSH1 0x20 DUP3 ADD SWAP1 POP SWAP2 SWAP1 POP JUMP JUMPDEST PUSH1 0x0 DUP2 MLOAD SWAP1 POP SWAP2 SWAP1 POP JUMP JUMPDEST PUSH1 0x0 DUP2 MLOAD SWAP1 POP SWAP2 SWAP1 POP JUMP JUMPDEST PUSH1 0x0 DUP2 MLOAD SWAP1 POP SWAP2 SWAP1 POP JUMP JUMPDEST PUSH1 0x0 PUSH1 0x20 DUP3 ADD SWAP1 POP SWAP2 SWAP1 POP JUMP JUMPDEST PUSH1 0x0 DUP3 DUP3 MSTORE PUSH1 0x20 DUP3 ADD SWAP1 POP SWAP3 SWAP2 POP POP JUMP JUMPDEST PUSH1 0x0 DUP2 SWAP1 POP SWAP3 SWAP2 POP POP JUMP JUMPDEST PUSH1 0x0 DUP3 DUP3 MSTORE PUSH1 0x20 DUP3 ADD SWAP1 POP SWAP3 SWAP2 POP POP JUMP JUMPDEST PUSH1 0x0 DUP3 DUP3 MSTORE PUSH1 0x20 DUP3 ADD SWAP1 POP SWAP3 SWAP2 POP POP JUMP JUMPDEST PUSH1 0x0 DUP2 SWAP1 POP SWAP3 SWAP2 POP POP JUMP JUMPDEST PUSH1 0x0 PUSH2 0x12FA DUP3 PUSH2 0x132D JUMP JUMPDEST SWAP1 POP SWAP2 SWAP1 POP JUMP JUMPDEST PUSH1 0x0 PUSH32 0xFFFFFFFFFFFFFFFFFFFFFFFFFFFFFFFFFFFFFFFF000000000000000000000000 DUP3 AND SWAP1 POP SWAP2 SWAP1 POP JUMP JUMPDEST PUSH1 0x0 PUSH20 0xFFFFFFFFFFFFFFFFFFFFFFFFFFFFFFFFFFFFFFFF DUP3 AND SWAP1 POP SWAP2 SWAP1 POP JUMP JUMPDEST PUSH1 0x0 DUP2 SWAP1 POP SWAP2 SWAP1 POP JUMP JUMPDEST DUP3 DUP2 DUP4 CALLDATACOPY PUSH1 0x0 DUP4 DUP4 ADD MSTORE POP POP POP JUMP JUMPDEST PUSH1 0x0 JUMPDEST DUP4 DUP2 LT ISZERO PUSH2 0x1384 JUMPI DUP1 DUP3 ADD MLOAD DUP2 DUP5 ADD MSTORE PUSH1 0x20 DUP2 ADD SWAP1 POP PUSH2 0x1369 JUMP JUMPDEST DUP4 DUP2 GT ISZERO PUSH2 0x1393 JUMPI PUSH1 0x0 DUP5 DUP5 ADD MSTORE JUMPDEST POP POP POP POP JUMP JUMPDEST PUSH1 0x0 PUSH1 0x2 DUP3 DIV SWAP1 POP PUSH1 0x1 DUP3 AND DUP1 PUSH2 0x13B1 JUMPI PUSH1 0x7F DUP3 AND SWAP2 POP JUMPDEST PUSH1 0x20 DUP3 LT DUP2 EQ ISZERO PUSH2 0x13C5 JUMPI PUSH2 0x13C4 PUSH2 0x1403 JUMP JUMPDEST JUMPDEST POP SWAP2 SWAP1 POP JUMP JUMPDEST PUSH1 0x0 PUSH2 0x13D6 DUP3 PUSH2 0x13E7 JUMP JUMPDEST SWAP1 POP SWAP2 SWAP1 POP JUMP JUMPDEST PUSH1 0x0 DUP2 SWAP1 POP SWAP2 SWAP1 POP JUMP JUMPDEST PUSH1 0x0 PUSH2 0x13F2 DUP3 PUSH2 0x145C JUMP JUMPDEST SWAP1 POP SWAP2 SWAP1 POP JUMP JUMPDEST PUSH1 0x0 DUP2 SWAP1 POP SWAP2 SWAP1 POP JUMP JUMPDEST PUSH32 0x4E487B7100000000000000000000000000000000000000000000000000000000 PUSH1 0x0 MSTORE PUSH1 0x22 PUSH1 0x4 MSTORE PUSH1 0x24 PUSH1 0x0 REVERT JUMPDEST PUSH1 0x0 DUP1 REVERT JUMPDEST PUSH1 0x0 DUP1 REVERT JUMPDEST PUSH1 0x0 DUP1 REVERT JUMPDEST PUSH1 0x0 DUP1 REVERT JUMPDEST PUSH1 0x0 DUP1 REVERT JUMPDEST PUSH1 0x0 PUSH1 0x1F NOT PUSH1 0x1F DUP4 ADD AND SWAP1 POP SWAP2 SWAP1 POP JUMP JUMPDEST PUSH1 0x0 DUP2 PUSH1 0x60 SHL SWAP1 POP SWAP2 SWAP1 POP JUMP JUMPDEST PUSH2 0x1472 DUP2 PUSH2 0x12EF JUMP JUMPDEST DUP2 EQ PUSH2 0x147D JUMPI PUSH1 0x0 DUP1 REVERT JUMPDEST POP JUMP JUMPDEST PUSH2 0x1489 DUP2 PUSH2 0x1301 JUMP JUMPDEST DUP2 EQ PUSH2 0x1494 JUMPI PUSH1 0x0 DUP1 REVERT JUMPDEST POP JUMP JUMPDEST PUSH2 0x14A0 DUP2 PUSH2 0x134D JUMP JUMPDEST DUP2 EQ PUSH2 0x14AB JUMPI PUSH1 0x0 DUP1 REVERT JUMPDEST POP JUMP INVALID LOG2 PUSH5 0x6970667358 0x22 SLT KECCAK256 SWAP12 0x5E SWAP10 DUP4 0xE DUP2 MOD SWAP1 0xCA 0x2D DUP9 LOG2 0xAD 0xF8 OR 0xA9 DUP3 0xA6 PUSH15 0xC0537A996712BDC1C25956106C6473 PUSH16 0x6C634300080700330000000000000000 "
				},
				"gasEstimates": {
					"creation": {
						"codeDepositCost": "1069600",
						"executionCost": "1114",
						"totalCost": "1070714"
					},
					"external": {
						"TXsarray(address,uint256)": "5182",
						"addNewPayment(address,uint256,string)": "infinite",
						"clienttransactions(bytes20)": "infinite",
						"getAllTransactionsOfAClient(address)": "infinite",
						"getPaymentByID(bytes20)": "infinite"
					}
				},
				"methodIdentifiers": {
					"TXsarray(address,uint256)": "0736e9fb",
					"addNewPayment(address,uint256,string)": "7d1a8825",
					"clienttransactions(bytes20)": "2b08a98a",
					"getAllTransactionsOfAClient(address)": "92206f3f",
					"getPaymentByID(bytes20)": "b69c9053"
				}
			},
			"storageLayout": {
				"storage": [
					{
						"astId": 19,
						"contract": "contracts/BankTransaction.sol:BankTransaction",
						"label": "AllClientTXs",
						"offset": 0,
						"slot": "0",
						"type": "t_array(t_bytes20)dyn_storage"
					},
					{
						"astId": 24,
						"contract": "contracts/BankTransaction.sol:BankTransaction",
						"label": "clienttransactions",
						"offset": 0,
						"slot": "1",
						"type": "t_mapping(t_bytes20,t_struct(ClientTransaction)16_storage)"
					},
					{
						"astId": 29,
						"contract": "contracts/BankTransaction.sol:BankTransaction",
						"label": "TXsarray",
						"offset": 0,
						"slot": "2",
						"type": "t_mapping(t_address,t_array(t_bytes20)dyn_storage)"
					}
				],
				"types": {
					"t_address": {
						"encoding": "inplace",
						"label": "address",
						"numberOfBytes": "20"
					},
					"t_array(t_bytes20)dyn_storage": {
						"base": "t_bytes20",
						"encoding": "dynamic_array",
						"label": "bytes20[]",
						"numberOfBytes": "32"
					},
					"t_bytes20": {
						"encoding": "inplace",
						"label": "bytes20",
						"numberOfBytes": "20"
					},
					"t_mapping(t_address,t_array(t_bytes20)dyn_storage)": {
						"encoding": "mapping",
						"key": "t_address",
						"label": "mapping(address => bytes20[])",
						"numberOfBytes": "32",
						"value": "t_array(t_bytes20)dyn_storage"
					},
					"t_mapping(t_bytes20,t_struct(ClientTransaction)16_storage)": {
						"encoding": "mapping",
						"key": "t_bytes20",
						"label": "mapping(bytes20 => struct BankTransaction.ClientTransaction)",
						"numberOfBytes": "32",
						"value": "t_struct(ClientTransaction)16_storage"
					},
					"t_string_storage": {
						"encoding": "bytes",
						"label": "string",
						"numberOfBytes": "32"
					},
					"t_struct(ClientTransaction)16_storage": {
						"encoding": "inplace",
						"label": "struct BankTransaction.ClientTransaction",
						"members": [
							{
								"astId": 3,
								"contract": "contracts/BankTransaction.sol:BankTransaction",
								"label": "payment_ID",
								"offset": 0,
								"slot": "0",
								"type": "t_bytes20"
							},
							{
								"astId": 5,
								"contract": "contracts/BankTransaction.sol:BankTransaction",
								"label": "client_ID",
								"offset": 0,
								"slot": "1",
								"type": "t_address"
							},
							{
								"astId": 7,
								"contract": "contracts/BankTransaction.sol:BankTransaction",
								"label": "recipient_ID",
								"offset": 0,
								"slot": "2",
								"type": "t_address"
							},
							{
								"astId": 9,
								"contract": "contracts/BankTransaction.sol:BankTransaction",
								"label": "amountOfPayment",
								"offset": 0,
								"slot": "3",
								"type": "t_uint256"
							},
							{
								"astId": 11,
								"contract": "contracts/BankTransaction.sol:BankTransaction",
								"label": "timeOfPayment",
								"offset": 0,
								"slot": "4",
								"type": "t_uint256"
							},
							{
								"astId": 13,
								"contract": "contracts/BankTransaction.sol:BankTransaction",
								"label": "Remarks",
								"offset": 0,
								"slot": "5",
								"type": "t_string_storage"
							},
							{
								"astId": 15,
								"contract": "contracts/BankTransaction.sol:BankTransaction",
								"label": "paymentHash",
								"offset": 0,
								"slot": "6",
								"type": "t_bytes20"
							}
						],
						"numberOfBytes": "224"
					},
					"t_uint256": {
						"encoding": "inplace",
						"label": "uint256",
						"numberOfBytes": "32"
					}
				}
			},
			"userdoc": {
				"kind": "user",
				"methods": {},
				"version": 1
			}
		}
	}
}