{
	"contracts/Additional task.sol": {
		"AdditionalTask": {
			"abi": [
				{
					"inputs": [],
					"name": "divVariables",
					"outputs": [
						{
							"internalType": "uint256",
							"name": "",
							"type": "uint256"
						}
					],
					"stateMutability": "view",
					"type": "function"
				}
			],
			"devdoc": {
				"kind": "dev",
				"methods": {},
				"version": 1
			},
			"evm": {
				"assembly": "    /* \"contracts/Additional task.sol\":65:268  contract AdditionalTask {\r... */\n  mstore(0x40, 0x80)\n    /* \"contracts/Additional task.sol\":117:118  3 */\n  0x03\n    /* \"contracts/Additional task.sol\":108:118  uint a = 3 */\n  0x00\n  sstore\n    /* \"contracts/Additional task.sol\":138:139  2 */\n  0x02\n    /* \"contracts/Additional task.sol\":129:139  uint b = 2 */\n  0x01\n  sstore\n    /* \"contracts/Additional task.sol\":65:268  contract AdditionalTask {\r... */\n  callvalue\n  dup1\n  iszero\n  tag_1\n  jumpi\n  0x00\n  dup1\n  revert\ntag_1:\n  pop\n  dataSize(sub_0)\n  dup1\n  dataOffset(sub_0)\n  0x00\n  codecopy\n  0x00\n  return\nstop\n\nsub_0: assembly {\n        /* \"contracts/Additional task.sol\":65:268  contract AdditionalTask {\r... */\n      mstore(0x40, 0x80)\n      callvalue\n      dup1\n      iszero\n      tag_1\n      jumpi\n      0x00\n      dup1\n      revert\n    tag_1:\n      pop\n      jumpi(tag_2, lt(calldatasize, 0x04))\n      shr(0xe0, calldataload(0x00))\n      dup1\n      0x23d55acc\n      eq\n      tag_3\n      jumpi\n    tag_2:\n      0x00\n      dup1\n      revert\n        /* \"contracts/Additional task.sol\":152:265  function divVariables() external view returns (uint){\r... */\n    tag_3:\n      tag_4\n      tag_5\n      jump\t// in\n    tag_4:\n      mload(0x40)\n      tag_6\n      swap2\n      swap1\n      tag_7\n      jump\t// in\n    tag_6:\n      mload(0x40)\n      dup1\n      swap2\n      sub\n      swap1\n      return\n    tag_5:\n        /* \"contracts/Additional task.sol\":199:203  uint */\n      0x00\n        /* \"contracts/Additional task.sol\":216:222  uint c */\n      dup1\n        /* \"contracts/Additional task.sol\":234:235  b */\n      sload(0x01)\n        /* \"contracts/Additional task.sol\":229:231  10 */\n      0x0a\n        /* \"contracts/Additional task.sol\":225:226  a */\n      sload(0x00)\n        /* \"contracts/Additional task.sol\":225:231  a * 10 */\n      tag_9\n      swap2\n      swap1\n      tag_10\n      jump\t// in\n    tag_9:\n        /* \"contracts/Additional task.sol\":225:235  a * 10 / b */\n      tag_11\n      swap2\n      swap1\n      tag_12\n      jump\t// in\n    tag_11:\n        /* \"contracts/Additional task.sol\":216:235  uint c = a * 10 / b */\n      swap1\n      pop\n        /* \"contracts/Additional task.sol\":256:257  c */\n      dup1\n        /* \"contracts/Additional task.sol\":248:257  return  c */\n      swap2\n      pop\n      pop\n        /* \"contracts/Additional task.sol\":152:265  function divVariables() external view returns (uint){\r... */\n      swap1\n      jump\t// out\n        /* \"#utility.yul\":7:125   */\n    tag_14:\n        /* \"#utility.yul\":94:118   */\n      tag_16\n        /* \"#utility.yul\":112:117   */\n      dup2\n        /* \"#utility.yul\":94:118   */\n      tag_17\n      jump\t// in\n    tag_16:\n        /* \"#utility.yul\":89:92   */\n      dup3\n        /* \"#utility.yul\":82:119   */\n      mstore\n        /* \"#utility.yul\":7:125   */\n      pop\n      pop\n      jump\t// out\n        /* \"#utility.yul\":131:353   */\n    tag_7:\n        /* \"#utility.yul\":224:228   */\n      0x00\n        /* \"#utility.yul\":262:264   */\n      0x20\n        /* \"#utility.yul\":251:260   */\n      dup3\n        /* \"#utility.yul\":247:265   */\n      add\n        /* \"#utility.yul\":239:265   */\n      swap1\n      pop\n        /* \"#utility.yul\":275:346   */\n      tag_19\n        /* \"#utility.yul\":343:344   */\n      0x00\n        /* \"#utility.yul\":332:341   */\n      dup4\n        /* \"#utility.yul\":328:345   */\n      add\n        /* \"#utility.yul\":319:325   */\n      dup5\n        /* \"#utility.yul\":275:346   */\n      tag_14\n      jump\t// in\n    tag_19:\n        /* \"#utility.yul\":131:353   */\n      swap3\n      swap2\n      pop\n      pop\n      jump\t// out\n        /* \"#utility.yul\":359:544   */\n    tag_12:\n        /* \"#utility.yul\":399:400   */\n      0x00\n        /* \"#utility.yul\":416:436   */\n      tag_21\n        /* \"#utility.yul\":434:435   */\n      dup3\n        /* \"#utility.yul\":416:436   */\n      tag_17\n      jump\t// in\n    tag_21:\n        /* \"#utility.yul\":411:436   */\n      swap2\n      pop\n        /* \"#utility.yul\":450:470   */\n      tag_22\n        /* \"#utility.yul\":468:469   */\n      dup4\n        /* \"#utility.yul\":450:470   */\n      tag_17\n      jump\t// in\n    tag_22:\n        /* \"#utility.yul\":445:470   */\n      swap3\n      pop\n        /* \"#utility.yul\":489:490   */\n      dup3\n        /* \"#utility.yul\":479:514   */\n      tag_23\n      jumpi\n        /* \"#utility.yul\":494:512   */\n      tag_24\n      tag_25\n      jump\t// in\n    tag_24:\n        /* \"#utility.yul\":479:514   */\n    tag_23:\n        /* \"#utility.yul\":536:537   */\n      dup3\n        /* \"#utility.yul\":533:534   */\n      dup3\n        /* \"#utility.yul\":529:538   */\n      div\n        /* \"#utility.yul\":524:538   */\n      swap1\n      pop\n        /* \"#utility.yul\":359:544   */\n      swap3\n      swap2\n      pop\n      pop\n      jump\t// out\n        /* \"#utility.yul\":550:898   */\n    tag_10:\n        /* \"#utility.yul\":590:597   */\n      0x00\n        /* \"#utility.yul\":613:633   */\n      tag_27\n        /* \"#utility.yul\":631:632   */\n      dup3\n        /* \"#utility.yul\":613:633   */\n      tag_17\n      jump\t// in\n    tag_27:\n        /* \"#utility.yul\":608:633   */\n      swap2\n      pop\n        /* \"#utility.yul\":647:667   */\n      tag_28\n        /* \"#utility.yul\":665:666   */\n      dup4\n        /* \"#utility.yul\":647:667   */\n      tag_17\n      jump\t// in\n    tag_28:\n        /* \"#utility.yul\":642:667   */\n      swap3\n      pop\n        /* \"#utility.yul\":835:836   */\n      dup2\n        /* \"#utility.yul\":767:833   */\n      0xffffffffffffffffffffffffffffffffffffffffffffffffffffffffffffffff\n        /* \"#utility.yul\":763:837   */\n      div\n        /* \"#utility.yul\":760:761   */\n      dup4\n        /* \"#utility.yul\":757:838   */\n      gt\n        /* \"#utility.yul\":752:753   */\n      dup3\n        /* \"#utility.yul\":745:754   */\n      iszero\n        /* \"#utility.yul\":738:755   */\n      iszero\n        /* \"#utility.yul\":734:839   */\n      and\n        /* \"#utility.yul\":731:862   */\n      iszero\n      tag_29\n      jumpi\n        /* \"#utility.yul\":842:860   */\n      tag_30\n      tag_31\n      jump\t// in\n    tag_30:\n        /* \"#utility.yul\":731:862   */\n    tag_29:\n        /* \"#utility.yul\":890:891   */\n      dup3\n        /* \"#utility.yul\":887:888   */\n      dup3\n        /* \"#utility.yul\":883:892   */\n      mul\n        /* \"#utility.yul\":872:892   */\n      swap1\n      pop\n        /* \"#utility.yul\":550:898   */\n      swap3\n      swap2\n      pop\n      pop\n      jump\t// out\n        /* \"#utility.yul\":904:981   */\n    tag_17:\n        /* \"#utility.yul\":941:948   */\n      0x00\n        /* \"#utility.yul\":970:975   */\n      dup2\n        /* \"#utility.yul\":959:975   */\n      swap1\n      pop\n        /* \"#utility.yul\":904:981   */\n      swap2\n      swap1\n      pop\n      jump\t// out\n        /* \"#utility.yul\":987:1167   */\n    tag_31:\n        /* \"#utility.yul\":1035:1112   */\n      0x4e487b7100000000000000000000000000000000000000000000000000000000\n        /* \"#utility.yul\":1032:1033   */\n      0x00\n        /* \"#utility.yul\":1025:1113   */\n      mstore\n        /* \"#utility.yul\":1132:1136   */\n      0x11\n        /* \"#utility.yul\":1129:1130   */\n      0x04\n        /* \"#utility.yul\":1122:1137   */\n      mstore\n        /* \"#utility.yul\":1156:1160   */\n      0x24\n        /* \"#utility.yul\":1153:1154   */\n      0x00\n        /* \"#utility.yul\":1146:1161   */\n      revert\n        /* \"#utility.yul\":1173:1353   */\n    tag_25:\n        /* \"#utility.yul\":1221:1298   */\n      0x4e487b7100000000000000000000000000000000000000000000000000000000\n        /* \"#utility.yul\":1218:1219   */\n      0x00\n        /* \"#utility.yul\":1211:1299   */\n      mstore\n        /* \"#utility.yul\":1318:1322   */\n      0x12\n        /* \"#utility.yul\":1315:1316   */\n      0x04\n        /* \"#utility.yul\":1308:1323   */\n      mstore\n        /* \"#utility.yul\":1342:1346   */\n      0x24\n        /* \"#utility.yul\":1339:1340   */\n      0x00\n        /* \"#utility.yul\":1332:1347   */\n      revert\n\n    auxdata: 0xa26469706673582212208a47f8dff65f4b93d94f969ff324cc7415d163b381e61e90f19c48da884c0c4464736f6c63430008070033\n}\n",
				"bytecode": {
					"linkReferences": {},
					"object": "60806040526003600055600260015534801561001a57600080fd5b506101c98061002a6000396000f3fe608060405234801561001057600080fd5b506004361061002b5760003560e01c806323d55acc14610030575b600080fd5b61003861004e565b6040516100459190610085565b60405180910390f35b600080600154600a60005461006391906100d1565b61006d91906100a0565b90508091505090565b61007f8161012b565b82525050565b600060208201905061009a6000830184610076565b92915050565b60006100ab8261012b565b91506100b68361012b565b9250826100c6576100c5610164565b5b828204905092915050565b60006100dc8261012b565b91506100e78361012b565b9250817fffffffffffffffffffffffffffffffffffffffffffffffffffffffffffffffff04831182151516156101205761011f610135565b5b828202905092915050565b6000819050919050565b7f4e487b7100000000000000000000000000000000000000000000000000000000600052601160045260246000fd5b7f4e487b7100000000000000000000000000000000000000000000000000000000600052601260045260246000fdfea26469706673582212208a47f8dff65f4b93d94f969ff324cc7415d163b381e61e90f19c48da884c0c4464736f6c63430008070033",
					"opcodes": "PUSH1 0x80 PUSH1 0x40 MSTORE PUSH1 0x3 PUSH1 0x0 SSTORE PUSH1 0x2 PUSH1 0x1 SSTORE CALLVALUE DUP1 ISZERO PUSH2 0x1A JUMPI PUSH1 0x0 DUP1 REVERT JUMPDEST POP PUSH2 0x1C9 DUP1 PUSH2 0x2A PUSH1 0x0 CODECOPY PUSH1 0x0 RETURN INVALID PUSH1 0x80 PUSH1 0x40 MSTORE CALLVALUE DUP1 ISZERO PUSH2 0x10 JUMPI PUSH1 0x0 DUP1 REVERT JUMPDEST POP PUSH1 0x4 CALLDATASIZE LT PUSH2 0x2B JUMPI PUSH1 0x0 CALLDATALOAD PUSH1 0xE0 SHR DUP1 PUSH4 0x23D55ACC EQ PUSH2 0x30 JUMPI JUMPDEST PUSH1 0x0 DUP1 REVERT JUMPDEST PUSH2 0x38 PUSH2 0x4E JUMP JUMPDEST PUSH1 0x40 MLOAD PUSH2 0x45 SWAP2 SWAP1 PUSH2 0x85 JUMP JUMPDEST PUSH1 0x40 MLOAD DUP1 SWAP2 SUB SWAP1 RETURN JUMPDEST PUSH1 0x0 DUP1 PUSH1 0x1 SLOAD PUSH1 0xA PUSH1 0x0 SLOAD PUSH2 0x63 SWAP2 SWAP1 PUSH2 0xD1 JUMP JUMPDEST PUSH2 0x6D SWAP2 SWAP1 PUSH2 0xA0 JUMP JUMPDEST SWAP1 POP DUP1 SWAP2 POP POP SWAP1 JUMP JUMPDEST PUSH2 0x7F DUP2 PUSH2 0x12B JUMP JUMPDEST DUP3 MSTORE POP POP JUMP JUMPDEST PUSH1 0x0 PUSH1 0x20 DUP3 ADD SWAP1 POP PUSH2 0x9A PUSH1 0x0 DUP4 ADD DUP5 PUSH2 0x76 JUMP JUMPDEST SWAP3 SWAP2 POP POP JUMP JUMPDEST PUSH1 0x0 PUSH2 0xAB DUP3 PUSH2 0x12B JUMP JUMPDEST SWAP2 POP PUSH2 0xB6 DUP4 PUSH2 0x12B JUMP JUMPDEST SWAP3 POP DUP3 PUSH2 0xC6 JUMPI PUSH2 0xC5 PUSH2 0x164 JUMP JUMPDEST JUMPDEST DUP3 DUP3 DIV SWAP1 POP SWAP3 SWAP2 POP POP JUMP JUMPDEST PUSH1 0x0 PUSH2 0xDC DUP3 PUSH2 0x12B JUMP JUMPDEST SWAP2 POP PUSH2 0xE7 DUP4 PUSH2 0x12B JUMP JUMPDEST SWAP3 POP DUP2 PUSH32 0xFFFFFFFFFFFFFFFFFFFFFFFFFFFFFFFFFFFFFFFFFFFFFFFFFFFFFFFFFFFFFFFF DIV DUP4 GT DUP3 ISZERO ISZERO AND ISZERO PUSH2 0x120 JUMPI PUSH2 0x11F PUSH2 0x135 JUMP JUMPDEST JUMPDEST DUP3 DUP3 MUL SWAP1 POP SWAP3 SWAP2 POP POP JUMP JUMPDEST PUSH1 0x0 DUP2 SWAP1 POP SWAP2 SWAP1 POP JUMP JUMPDEST PUSH32 0x4E487B7100000000000000000000000000000000000000000000000000000000 PUSH1 0x0 MSTORE PUSH1 0x11 PUSH1 0x4 MSTORE PUSH1 0x24 PUSH1 0x0 REVERT JUMPDEST PUSH32 0x4E487B7100000000000000000000000000000000000000000000000000000000 PUSH1 0x0 MSTORE PUSH1 0x12 PUSH1 0x4 MSTORE PUSH1 0x24 PUSH1 0x0 REVERT INVALID LOG2 PUSH5 0x6970667358 0x22 SLT KECCAK256 DUP11 SELFBALANCE 0xF8 0xDF 0xF6 0x5F 0x4B SWAP4 0xD9 0x4F SWAP7 SWAP16 RETURN 0x24 0xCC PUSH21 0x15D163B381E61E90F19C48DA884C0C4464736F6C63 NUMBER STOP ADDMOD SMOD STOP CALLER "
				},
				"gasEstimates": {
					"creation": {
						"codeDepositCost": "91400",
						"executionCost": "44353",
						"totalCost": "135753"
					},
					"external": {
						"divVariables()": "infinite"
					}
				},
				"methodIdentifiers": {
					"divVariables()": "23d55acc"
				}
			},
			"storageLayout": {
				"storage": [
					{
						"astId": 4,
						"contract": "contracts/Additional task.sol:AdditionalTask",
						"label": "a",
						"offset": 0,
						"slot": "0",
						"type": "t_uint256"
					},
					{
						"astId": 7,
						"contract": "contracts/Additional task.sol:AdditionalTask",
						"label": "b",
						"offset": 0,
						"slot": "1",
						"type": "t_uint256"
					}
				],
				"types": {
					"t_uint256": {
						"encoding": "inplace",
						"label": "uint256",
						"numberOfBytes": "32"
					}
				}
			},
			"userdoc": {
				"kind": "user",
				"methods": {},
				"version": 1
			}
		}
	}
}