{
	"contracts/BankTransaction.sol": {
		"BankTransaction": {
			"abi": [
				{
					"inputs": [
						{
							"internalType": "address",
							"name": "_recipient_ID",
							"type": "address"
						},
						{
							"internalType": "uint256",
							"name": "_amountOfPayment",
							"type": "uint256"
						},
						{
							"internalType": "string",
							"name": "Remarks",
							"type": "string"
						}
					],
					"name": "addNewPayment",
					"outputs": [],
					"stateMutability": "nonpayable",
					"type": "function"
				},
				{
					"inputs": [
						{
							"internalType": "address",
							"name": "",
							"type": "address"
						},
						{
							"internalType": "uint256",
							"name": "",
							"type": "uint256"
						}
					],
					"name": "allTXsarray",
					"outputs": [
						{
							"internalType": "bytes20",
							"name": "payment_ID",
							"type": "bytes20"
						},
						{
							"internalType": "address",
							"name": "client_ID",
							"type": "address"
						},
						{
							"internalType": "address",
							"name": "recipient_ID",
							"type": "address"
						},
						{
							"internalType": "uint256",
							"name": "amountOfPayment",
							"type": "uint256"
						},
						{
							"internalType": "uint256",
							"name": "timeOfPayment",
							"type": "uint256"
						},
						{
							"internalType": "string",
							"name": "Remarks",
							"type": "string"
						},
						{
							"internalType": "bytes20",
							"name": "paymentHash",
							"type": "bytes20"
						}
					],
					"stateMutability": "view",
					"type": "function"
				},
				{
					"inputs": [
						{
							"internalType": "bytes20",
							"name": "",
							"type": "bytes20"
						}
					],
					"name": "clienttransactions",
					"outputs": [
						{
							"internalType": "bytes20",
							"name": "payment_ID",
							"type": "bytes20"
						},
						{
							"internalType": "address",
							"name": "client_ID",
							"type": "address"
						},
						{
							"internalType": "address",
							"name": "recipient_ID",
							"type": "address"
						},
						{
							"internalType": "uint256",
							"name": "amountOfPayment",
							"type": "uint256"
						},
						{
							"internalType": "uint256",
							"name": "timeOfPayment",
							"type": "uint256"
						},
						{
							"internalType": "string",
							"name": "Remarks",
							"type": "string"
						},
						{
							"internalType": "bytes20",
							"name": "paymentHash",
							"type": "bytes20"
						}
					],
					"stateMutability": "view",
					"type": "function"
				},
				{
					"inputs": [
						{
							"internalType": "uint256",
							"name": "",
							"type": "uint256"
						}
					],
					"name": "ctarray",
					"outputs": [
						{
							"internalType": "bytes20",
							"name": "payment_ID",
							"type": "bytes20"
						},
						{
							"internalType": "address",
							"name": "client_ID",
							"type": "address"
						},
						{
							"internalType": "address",
							"name": "recipient_ID",
							"type": "address"
						},
						{
							"internalType": "uint256",
							"name": "amountOfPayment",
							"type": "uint256"
						},
						{
							"internalType": "uint256",
							"name": "timeOfPayment",
							"type": "uint256"
						},
						{
							"internalType": "string",
							"name": "Remarks",
							"type": "string"
						},
						{
							"internalType": "bytes20",
							"name": "paymentHash",
							"type": "bytes20"
						}
					],
					"stateMutability": "view",
					"type": "function"
				},
				{
					"inputs": [
						{
							"internalType": "address",
							"name": "_client_ID",
							"type": "address"
						}
					],
					"name": "getAllTransactionsOfAClient",
					"outputs": [
						{
							"components": [
								{
									"internalType": "bytes20",
									"name": "payment_ID",
									"type": "bytes20"
								},
								{
									"internalType": "address",
									"name": "client_ID",
									"type": "address"
								},
								{
									"internalType": "address",
									"name": "recipient_ID",
									"type": "address"
								},
								{
									"internalType": "uint256",
									"name": "amountOfPayment",
									"type": "uint256"
								},
								{
									"internalType": "uint256",
									"name": "timeOfPayment",
									"type": "uint256"
								},
								{
									"internalType": "string",
									"name": "Remarks",
									"type": "string"
								},
								{
									"internalType": "bytes20",
									"name": "paymentHash",
									"type": "bytes20"
								}
							],
							"internalType": "struct BankTransaction.ClientTransaction[]",
							"name": "",
							"type": "tuple[]"
						}
					],
					"stateMutability": "view",
					"type": "function"
				},
				{
					"inputs": [
						{
							"internalType": "bytes20",
							"name": "_payment_ID",
							"type": "bytes20"
						}
					],
					"name": "getPaymentByID",
					"outputs": [
						{
							"components": [
								{
									"internalType": "bytes20",
									"name": "payment_ID",
									"type": "bytes20"
								},
								{
									"internalType": "address",
									"name": "client_ID",
									"type": "address"
								},
								{
									"internalType": "address",
									"name": "recipient_ID",
									"type": "address"
								},
								{
									"internalType": "uint256",
									"name": "amountOfPayment",
									"type": "uint256"
								},
								{
									"internalType": "uint256",
									"name": "timeOfPayment",
									"type": "uint256"
								},
								{
									"internalType": "string",
									"name": "Remarks",
									"type": "string"
								},
								{
									"internalType": "bytes20",
									"name": "paymentHash",
									"type": "bytes20"
								}
							],
							"internalType": "struct BankTransaction.ClientTransaction",
							"name": "ct",
							"type": "tuple"
						}
					],
					"stateMutability": "view",
					"type": "function"
				}
			],
			"devdoc": {
				"kind": "dev",
				"methods": {},
				"version": 1
			},
			"evm": {
				"assembly": "    /* \"contracts/BankTransaction.sol\":71:2739  contract BankTransaction{\r... */\n  mstore(0x40, 0x80)\n  callvalue\n  dup1\n  iszero\n  tag_1\n  jumpi\n  0x00\n  dup1\n  revert\ntag_1:\n  pop\n  dataSize(sub_0)\n  dup1\n  dataOffset(sub_0)\n  0x00\n  codecopy\n  0x00\n  return\nstop\n\nsub_0: assembly {\n        /* \"contracts/BankTransaction.sol\":71:2739  contract BankTransaction{\r... */\n      mstore(0x40, 0x80)\n      callvalue\n      dup1\n      iszero\n      tag_1\n      jumpi\n      0x00\n      dup1\n      revert\n    tag_1:\n      pop\n      jumpi(tag_2, lt(calldatasize, 0x04))\n      shr(0xe0, calldataload(0x00))\n      dup1\n      0x2b08a98a\n      eq\n      tag_3\n      jumpi\n      dup1\n      0x6f1d3e53\n      eq\n      tag_4\n      jumpi\n      dup1\n      0x7d1a8825\n      eq\n      tag_5\n      jumpi\n      dup1\n      0x92206f3f\n      eq\n      tag_6\n      jumpi\n      dup1\n      0xb69c9053\n      eq\n      tag_7\n      jumpi\n      dup1\n      0xc08724c1\n      eq\n      tag_8\n      jumpi\n    tag_2:\n      0x00\n      dup1\n      revert\n        /* \"contracts/BankTransaction.sol\":431:494  mapping(bytes20 => ClientTransaction) public clienttransactions */\n    tag_3:\n      tag_9\n      0x04\n      dup1\n      calldatasize\n      sub\n      dup2\n      add\n      swap1\n      tag_10\n      swap2\n      swap1\n      tag_11\n      jump\t// in\n    tag_10:\n      tag_12\n      jump\t// in\n    tag_9:\n      mload(0x40)\n      tag_13\n      swap8\n      swap7\n      swap6\n      swap5\n      swap4\n      swap3\n      swap2\n      swap1\n      tag_14\n      jump\t// in\n    tag_13:\n      mload(0x40)\n      dup1\n      swap2\n      sub\n      swap1\n      return\n        /* \"contracts/BankTransaction.sol\":502:559  mapping (address=>ClientTransaction[]) public allTXsarray */\n    tag_4:\n      tag_15\n      0x04\n      dup1\n      calldatasize\n      sub\n      dup2\n      add\n      swap1\n      tag_16\n      swap2\n      swap1\n      tag_17\n      jump\t// in\n    tag_16:\n      tag_18\n      jump\t// in\n    tag_15:\n      mload(0x40)\n      tag_19\n      swap8\n      swap7\n      swap6\n      swap5\n      swap4\n      swap3\n      swap2\n      swap1\n      tag_14\n      jump\t// in\n    tag_19:\n      mload(0x40)\n      dup1\n      swap2\n      sub\n      swap1\n      return\n        /* \"contracts/BankTransaction.sol\":575:1636  function addNewPayment(      \r... */\n    tag_5:\n      tag_20\n      0x04\n      dup1\n      calldatasize\n      sub\n      dup2\n      add\n      swap1\n      tag_21\n      swap2\n      swap1\n      tag_22\n      jump\t// in\n    tag_21:\n      tag_23\n      jump\t// in\n    tag_20:\n      stop\n        /* \"contracts/BankTransaction.sol\":1866:2031  function getAllTransactionsOfAClient(address  _client_ID) public  view  returns (ClientTransaction[] memory ){\r... */\n    tag_6:\n      tag_24\n      0x04\n      dup1\n      calldatasize\n      sub\n      dup2\n      add\n      swap1\n      tag_25\n      swap2\n      swap1\n      tag_26\n      jump\t// in\n    tag_25:\n      tag_27\n      jump\t// in\n    tag_24:\n      mload(0x40)\n      tag_28\n      swap2\n      swap1\n      tag_29\n      jump\t// in\n    tag_28:\n      mload(0x40)\n      dup1\n      swap2\n      sub\n      swap1\n      return\n        /* \"contracts/BankTransaction.sol\":1645:1856  function getPaymentByID(bytes20 _payment_ID) public view returns (ClientTransaction memory ct){\r... */\n    tag_7:\n      tag_30\n      0x04\n      dup1\n      calldatasize\n      sub\n      dup2\n      add\n      swap1\n      tag_31\n      swap2\n      swap1\n      tag_11\n      jump\t// in\n    tag_31:\n      tag_32\n      jump\t// in\n    tag_30:\n      mload(0x40)\n      tag_33\n      swap2\n      swap1\n      tag_34\n      jump\t// in\n    tag_33:\n      mload(0x40)\n      dup1\n      swap2\n      sub\n      swap1\n      return\n        /* \"contracts/BankTransaction.sol\":389:423  ClientTransaction[] public ctarray */\n    tag_8:\n      tag_35\n      0x04\n      dup1\n      calldatasize\n      sub\n      dup2\n      add\n      swap1\n      tag_36\n      swap2\n      swap1\n      tag_37\n      jump\t// in\n    tag_36:\n      tag_38\n      jump\t// in\n    tag_35:\n      mload(0x40)\n      tag_39\n      swap8\n      swap7\n      swap6\n      swap5\n      swap4\n      swap3\n      swap2\n      swap1\n      tag_14\n      jump\t// in\n    tag_39:\n      mload(0x40)\n      dup1\n      swap2\n      sub\n      swap1\n      return\n        /* \"contracts/BankTransaction.sol\":431:494  mapping(bytes20 => ClientTransaction) public clienttransactions */\n    tag_12:\n      mstore(0x20, 0x01)\n      dup1\n      0x00\n      mstore\n      keccak256(0x00, 0x40)\n      0x00\n      swap2\n      pop\n      swap1\n      pop\n      dup1\n      0x00\n      add\n      0x00\n      swap1\n      sload\n      swap1\n      0x0100\n      exp\n      swap1\n      div\n      0x60\n      shl\n      swap1\n      dup1\n      0x01\n      add\n      0x00\n      swap1\n      sload\n      swap1\n      0x0100\n      exp\n      swap1\n      div\n      0xffffffffffffffffffffffffffffffffffffffff\n      and\n      swap1\n      dup1\n      0x02\n      add\n      0x00\n      swap1\n      sload\n      swap1\n      0x0100\n      exp\n      swap1\n      div\n      0xffffffffffffffffffffffffffffffffffffffff\n      and\n      swap1\n      dup1\n      0x03\n      add\n      sload\n      swap1\n      dup1\n      0x04\n      add\n      sload\n      swap1\n      dup1\n      0x05\n      add\n      dup1\n      sload\n      tag_40\n      swap1\n      tag_41\n      jump\t// in\n    tag_40:\n      dup1\n      0x1f\n      add\n      0x20\n      dup1\n      swap2\n      div\n      mul\n      0x20\n      add\n      mload(0x40)\n      swap1\n      dup2\n      add\n      0x40\n      mstore\n      dup1\n      swap3\n      swap2\n      swap1\n      dup2\n      dup2\n      mstore\n      0x20\n      add\n      dup3\n      dup1\n      sload\n      tag_42\n      swap1\n      tag_41\n      jump\t// in\n    tag_42:\n      dup1\n      iszero\n      tag_43\n      jumpi\n      dup1\n      0x1f\n      lt\n      tag_44\n      jumpi\n      0x0100\n      dup1\n      dup4\n      sload\n      div\n      mul\n      dup4\n      mstore\n      swap2\n      0x20\n      add\n      swap2\n      jump(tag_43)\n    tag_44:\n      dup3\n      add\n      swap2\n      swap1\n      0x00\n      mstore\n      keccak256(0x00, 0x20)\n      swap1\n    tag_45:\n      dup2\n      sload\n      dup2\n      mstore\n      swap1\n      0x01\n      add\n      swap1\n      0x20\n      add\n      dup1\n      dup4\n      gt\n      tag_45\n      jumpi\n      dup3\n      swap1\n      sub\n      0x1f\n      and\n      dup3\n      add\n      swap2\n    tag_43:\n      pop\n      pop\n      pop\n      pop\n      pop\n      swap1\n      dup1\n      0x06\n      add\n      0x00\n      swap1\n      sload\n      swap1\n      0x0100\n      exp\n      swap1\n      div\n      0x60\n      shl\n      swap1\n      pop\n      dup8\n      jump\t// out\n        /* \"contracts/BankTransaction.sol\":502:559  mapping (address=>ClientTransaction[]) public allTXsarray */\n    tag_18:\n      mstore(0x20, 0x02)\n      dup2\n      0x00\n      mstore\n      keccak256(0x00, 0x40)\n      dup2\n      dup2\n      sload\n      dup2\n      lt\n      tag_46\n      jumpi\n      0x00\n      dup1\n      revert\n    tag_46:\n      swap1\n      0x00\n      mstore\n      keccak256(0x00, 0x20)\n      swap1\n      0x07\n      mul\n      add\n      0x00\n      swap2\n      pop\n      swap2\n      pop\n      pop\n      dup1\n      0x00\n      add\n      0x00\n      swap1\n      sload\n      swap1\n      0x0100\n      exp\n      swap1\n      div\n      0x60\n      shl\n      swap1\n      dup1\n      0x01\n      add\n      0x00\n      swap1\n      sload\n      swap1\n      0x0100\n      exp\n      swap1\n      div\n      0xffffffffffffffffffffffffffffffffffffffff\n      and\n      swap1\n      dup1\n      0x02\n      add\n      0x00\n      swap1\n      sload\n      swap1\n      0x0100\n      exp\n      swap1\n      div\n      0xffffffffffffffffffffffffffffffffffffffff\n      and\n      swap1\n      dup1\n      0x03\n      add\n      sload\n      swap1\n      dup1\n      0x04\n      add\n      sload\n      swap1\n      dup1\n      0x05\n      add\n      dup1\n      sload\n      tag_48\n      swap1\n      tag_41\n      jump\t// in\n    tag_48:\n      dup1\n      0x1f\n      add\n      0x20\n      dup1\n      swap2\n      div\n      mul\n      0x20\n      add\n      mload(0x40)\n      swap1\n      dup2\n      add\n      0x40\n      mstore\n      dup1\n      swap3\n      swap2\n      swap1\n      dup2\n      dup2\n      mstore\n      0x20\n      add\n      dup3\n      dup1\n      sload\n      tag_49\n      swap1\n      tag_41\n      jump\t// in\n    tag_49:\n      dup1\n      iszero\n      tag_50\n      jumpi\n      dup1\n      0x1f\n      lt\n      tag_51\n      jumpi\n      0x0100\n      dup1\n      dup4\n      sload\n      div\n      mul\n      dup4\n      mstore\n      swap2\n      0x20\n      add\n      swap2\n      jump(tag_50)\n    tag_51:\n      dup3\n      add\n      swap2\n      swap1\n      0x00\n      mstore\n      keccak256(0x00, 0x20)\n      swap1\n    tag_52:\n      dup2\n      sload\n      dup2\n      mstore\n      swap1\n      0x01\n      add\n      swap1\n      0x20\n      add\n      dup1\n      dup4\n      gt\n      tag_52\n      jumpi\n      dup3\n      swap1\n      sub\n      0x1f\n      and\n      dup3\n      add\n      swap2\n    tag_50:\n      pop\n      pop\n      pop\n      pop\n      pop\n      swap1\n      dup1\n      0x06\n      add\n      0x00\n      swap1\n      sload\n      swap1\n      0x0100\n      exp\n      swap1\n      div\n      0x60\n      shl\n      swap1\n      pop\n      dup8\n      jump\t// out\n        /* \"contracts/BankTransaction.sol\":575:1636  function addNewPayment(      \r... */\n    tag_23:\n        /* \"contracts/BankTransaction.sol\":818:836  address _client_ID */\n      0x00\n        /* \"contracts/BankTransaction.sol\":839:849  msg.sender */\n      caller\n        /* \"contracts/BankTransaction.sol\":818:849  address _client_ID = msg.sender */\n      swap1\n      pop\n        /* \"contracts/BankTransaction.sol\":882:896  uint timeStamp */\n      0x00\n        /* \"contracts/BankTransaction.sol\":899:914  block.timestamp */\n      timestamp\n        /* \"contracts/BankTransaction.sol\":882:914  uint timeStamp = block.timestamp */\n      swap1\n      pop\n        /* \"contracts/BankTransaction.sol\":933:952  bytes20 _payment_ID */\n      0x00\n        /* \"contracts/BankTransaction.sol\":955:1047  ripemd160(abi.encodePacked(_client_ID, _recipient_ID, _amountOfPayment, timeStamp, Remarks)) */\n      0x03\n        /* \"contracts/BankTransaction.sol\":982:992  _client_ID */\n      dup4\n        /* \"contracts/BankTransaction.sol\":994:1007  _recipient_ID */\n      dup9\n        /* \"contracts/BankTransaction.sol\":1009:1025  _amountOfPayment */\n      dup9\n        /* \"contracts/BankTransaction.sol\":1027:1036  timeStamp */\n      dup6\n        /* \"contracts/BankTransaction.sol\":1038:1045  Remarks */\n      dup10\n      dup10\n        /* \"contracts/BankTransaction.sol\":965:1046  abi.encodePacked(_client_ID, _recipient_ID, _amountOfPayment, timeStamp, Remarks) */\n      add(0x20, mload(0x40))\n      tag_54\n      swap7\n      swap6\n      swap5\n      swap4\n      swap3\n      swap2\n      swap1\n      tag_55\n      jump\t// in\n    tag_54:\n      mload(0x40)\n      0x20\n      dup2\n      dup4\n      sub\n      sub\n      dup2\n      mstore\n      swap1\n      0x40\n      mstore\n        /* \"contracts/BankTransaction.sol\":955:1047  ripemd160(abi.encodePacked(_client_ID, _recipient_ID, _amountOfPayment, timeStamp, Remarks)) */\n      mload(0x40)\n      tag_56\n      swap2\n      swap1\n      tag_57\n      jump\t// in\n    tag_56:\n      0x20\n      mload(0x40)\n      dup1\n      dup4\n      sub\n      dup2\n      dup6\n      gas\n      staticcall\n      iszero\n      dup1\n      iszero\n      tag_59\n      jumpi\n      returndatasize\n      0x00\n      dup1\n      returndatacopy\n      revert(0x00, returndatasize)\n    tag_59:\n      pop\n      pop\n      pop\n      shl(0x60, mload(mload(0x40)))\n        /* \"contracts/BankTransaction.sol\":933:1047  bytes20 _payment_ID = ripemd160(abi.encodePacked(_client_ID, _recipient_ID, _amountOfPayment, timeStamp, Remarks)) */\n      swap1\n      pop\n        /* \"contracts/BankTransaction.sol\":1066:1086  bytes20 _paymentHash */\n      0x00\n        /* \"contracts/BankTransaction.sol\":1089:1192  ripemd160(abi.encodePacked(_payment_ID, _client_ID, _recipient_ID, _amountOfPayment,timeStamp,Remarks)) */\n      0x03\n        /* \"contracts/BankTransaction.sol\":1116:1127  _payment_ID */\n      dup3\n        /* \"contracts/BankTransaction.sol\":1129:1139  _client_ID */\n      dup6\n        /* \"contracts/BankTransaction.sol\":1141:1154  _recipient_ID */\n      dup11\n        /* \"contracts/BankTransaction.sol\":1156:1172  _amountOfPayment */\n      dup11\n        /* \"contracts/BankTransaction.sol\":1173:1182  timeStamp */\n      dup8\n        /* \"contracts/BankTransaction.sol\":1183:1190  Remarks */\n      dup12\n      dup12\n        /* \"contracts/BankTransaction.sol\":1099:1191  abi.encodePacked(_payment_ID, _client_ID, _recipient_ID, _amountOfPayment,timeStamp,Remarks) */\n      add(0x20, mload(0x40))\n      tag_60\n      swap8\n      swap7\n      swap6\n      swap5\n      swap4\n      swap3\n      swap2\n      swap1\n      tag_61\n      jump\t// in\n    tag_60:\n      mload(0x40)\n      0x20\n      dup2\n      dup4\n      sub\n      sub\n      dup2\n      mstore\n      swap1\n      0x40\n      mstore\n        /* \"contracts/BankTransaction.sol\":1089:1192  ripemd160(abi.encodePacked(_payment_ID, _client_ID, _recipient_ID, _amountOfPayment,timeStamp,Remarks)) */\n      mload(0x40)\n      tag_62\n      swap2\n      swap1\n      tag_57\n      jump\t// in\n    tag_62:\n      0x20\n      mload(0x40)\n      dup1\n      dup4\n      sub\n      dup2\n      dup6\n      gas\n      staticcall\n      iszero\n      dup1\n      iszero\n      tag_64\n      jumpi\n      returndatasize\n      0x00\n      dup1\n      returndatacopy\n      revert(0x00, returndatasize)\n    tag_64:\n      pop\n      pop\n      pop\n      shl(0x60, mload(mload(0x40)))\n        /* \"contracts/BankTransaction.sol\":1066:1192  bytes20 _paymentHash = ripemd160(abi.encodePacked(_payment_ID, _client_ID, _recipient_ID, _amountOfPayment,timeStamp,Remarks)) */\n      swap1\n      pop\n        /* \"contracts/BankTransaction.sol\":1246:1355  ClientTransaction(_payment_ID, _client_ID, _recipient_ID, _amountOfPayment, timeStamp, Remarks, _paymentHash) */\n      mload(0x40)\n      dup1\n      0xe0\n      add\n      0x40\n      mstore\n      dup1\n        /* \"contracts/BankTransaction.sol\":1264:1275  _payment_ID */\n      dup4\n        /* \"contracts/BankTransaction.sol\":1246:1355  ClientTransaction(_payment_ID, _client_ID, _recipient_ID, _amountOfPayment, timeStamp, Remarks, _paymentHash) */\n      not(0xffffffffffffffffffffffff)\n      and\n      dup2\n      mstore\n      0x20\n      add\n        /* \"contracts/BankTransaction.sol\":1277:1287  _client_ID */\n      dup6\n        /* \"contracts/BankTransaction.sol\":1246:1355  ClientTransaction(_payment_ID, _client_ID, _recipient_ID, _amountOfPayment, timeStamp, Remarks, _paymentHash) */\n      0xffffffffffffffffffffffffffffffffffffffff\n      and\n      dup2\n      mstore\n      0x20\n      add\n        /* \"contracts/BankTransaction.sol\":1289:1302  _recipient_ID */\n      dup10\n        /* \"contracts/BankTransaction.sol\":1246:1355  ClientTransaction(_payment_ID, _client_ID, _recipient_ID, _amountOfPayment, timeStamp, Remarks, _paymentHash) */\n      0xffffffffffffffffffffffffffffffffffffffff\n      and\n      dup2\n      mstore\n      0x20\n      add\n        /* \"contracts/BankTransaction.sol\":1304:1320  _amountOfPayment */\n      dup9\n        /* \"contracts/BankTransaction.sol\":1246:1355  ClientTransaction(_payment_ID, _client_ID, _recipient_ID, _amountOfPayment, timeStamp, Remarks, _paymentHash) */\n      dup2\n      mstore\n      0x20\n      add\n        /* \"contracts/BankTransaction.sol\":1322:1331  timeStamp */\n      dup5\n        /* \"contracts/BankTransaction.sol\":1246:1355  ClientTransaction(_payment_ID, _client_ID, _recipient_ID, _amountOfPayment, timeStamp, Remarks, _paymentHash) */\n      dup2\n      mstore\n      0x20\n      add\n        /* \"contracts/BankTransaction.sol\":1333:1340  Remarks */\n      dup8\n      dup8\n        /* \"contracts/BankTransaction.sol\":1246:1355  ClientTransaction(_payment_ID, _client_ID, _recipient_ID, _amountOfPayment, timeStamp, Remarks, _paymentHash) */\n      dup1\n      dup1\n      0x1f\n      add\n      0x20\n      dup1\n      swap2\n      div\n      mul\n      0x20\n      add\n      mload(0x40)\n      swap1\n      dup2\n      add\n      0x40\n      mstore\n      dup1\n      swap4\n      swap3\n      swap2\n      swap1\n      dup2\n      dup2\n      mstore\n      0x20\n      add\n      dup4\n      dup4\n      dup1\n      dup3\n      dup5\n      calldatacopy\n      0x00\n      dup2\n      dup5\n      add\n      mstore\n      not(0x1f)\n      0x1f\n      dup3\n      add\n      and\n      swap1\n      pop\n      dup1\n      dup4\n      add\n      swap3\n      pop\n      pop\n      pop\n      pop\n      pop\n      pop\n      pop\n      dup2\n      mstore\n      0x20\n      add\n        /* \"contracts/BankTransaction.sol\":1342:1354  _paymentHash */\n      dup3\n        /* \"contracts/BankTransaction.sol\":1246:1355  ClientTransaction(_payment_ID, _client_ID, _recipient_ID, _amountOfPayment, timeStamp, Remarks, _paymentHash) */\n      not(0xffffffffffffffffffffffff)\n      and\n      dup2\n      mstore\n      pop\n        /* \"contracts/BankTransaction.sol\":1211:1229  clienttransactions */\n      0x01\n        /* \"contracts/BankTransaction.sol\":1211:1242  clienttransactions[_payment_ID] */\n      0x00\n        /* \"contracts/BankTransaction.sol\":1230:1241  _payment_ID */\n      dup5\n        /* \"contracts/BankTransaction.sol\":1211:1242  clienttransactions[_payment_ID] */\n      not(0xffffffffffffffffffffffff)\n      and\n      not(0xffffffffffffffffffffffff)\n      and\n      dup2\n      mstore\n      0x20\n      add\n      swap1\n      dup2\n      mstore\n      0x20\n      add\n      0x00\n      keccak256\n        /* \"contracts/BankTransaction.sol\":1211:1355  clienttransactions[_payment_ID] =  ClientTransaction(_payment_ID, _client_ID, _recipient_ID, _amountOfPayment, timeStamp, Remarks, _paymentHash) */\n      0x00\n      dup3\n      add\n      mload\n      dup2\n      0x00\n      add\n      exp(0x0100, 0x00)\n      dup2\n      sload\n      dup2\n      0xffffffffffffffffffffffffffffffffffffffff\n      mul\n      not\n      and\n      swap1\n      dup4\n      0x60\n      shr\n      mul\n      or\n      swap1\n      sstore\n      pop\n      0x20\n      dup3\n      add\n      mload\n      dup2\n      0x01\n      add\n      exp(0x0100, 0x00)\n      dup2\n      sload\n      dup2\n      0xffffffffffffffffffffffffffffffffffffffff\n      mul\n      not\n      and\n      swap1\n      dup4\n      0xffffffffffffffffffffffffffffffffffffffff\n      and\n      mul\n      or\n      swap1\n      sstore\n      pop\n      0x40\n      dup3\n      add\n      mload\n      dup2\n      0x02\n      add\n      exp(0x0100, 0x00)\n      dup2\n      sload\n      dup2\n      0xffffffffffffffffffffffffffffffffffffffff\n      mul\n      not\n      and\n      swap1\n      dup4\n      0xffffffffffffffffffffffffffffffffffffffff\n      and\n      mul\n      or\n      swap1\n      sstore\n      pop\n      0x60\n      dup3\n      add\n      mload\n      dup2\n      0x03\n      add\n      sstore\n      0x80\n      dup3\n      add\n      mload\n      dup2\n      0x04\n      add\n      sstore\n      0xa0\n      dup3\n      add\n      mload\n      dup2\n      0x05\n      add\n      swap1\n      dup1\n      mload\n      swap1\n      0x20\n      add\n      swap1\n      tag_65\n      swap3\n      swap2\n      swap1\n      tag_66\n      jump\t// in\n    tag_65:\n      pop\n      0xc0\n      dup3\n      add\n      mload\n      dup2\n      0x06\n      add\n      exp(0x0100, 0x00)\n      dup2\n      sload\n      dup2\n      0xffffffffffffffffffffffffffffffffffffffff\n      mul\n      not\n      and\n      swap1\n      dup4\n      0x60\n      shr\n      mul\n      or\n      swap1\n      sstore\n      pop\n      swap1\n      pop\n      pop\n        /* \"contracts/BankTransaction.sol\":1376:1387  allTXsarray */\n      0x02\n        /* \"contracts/BankTransaction.sol\":1376:1399  allTXsarray[_client_ID] */\n      0x00\n        /* \"contracts/BankTransaction.sol\":1388:1398  _client_ID */\n      dup6\n        /* \"contracts/BankTransaction.sol\":1376:1399  allTXsarray[_client_ID] */\n      0xffffffffffffffffffffffffffffffffffffffff\n      and\n      0xffffffffffffffffffffffffffffffffffffffff\n      and\n      dup2\n      mstore\n      0x20\n      add\n      swap1\n      dup2\n      mstore\n      0x20\n      add\n      0x00\n      keccak256\n      pop\n        /* \"contracts/BankTransaction.sol\":1419:1430  allTXsarray */\n      0x02\n        /* \"contracts/BankTransaction.sol\":1419:1445  allTXsarray[_recipient_ID] */\n      0x00\n        /* \"contracts/BankTransaction.sol\":1431:1444  _recipient_ID */\n      dup10\n        /* \"contracts/BankTransaction.sol\":1419:1445  allTXsarray[_recipient_ID] */\n      0xffffffffffffffffffffffffffffffffffffffff\n      and\n      0xffffffffffffffffffffffffffffffffffffffff\n      and\n      dup2\n      mstore\n      0x20\n      add\n      swap1\n      dup2\n      mstore\n      0x20\n      add\n      0x00\n      keccak256\n      pop\n        /* \"contracts/BankTransaction.sol\":1465:1476  allTXsarray */\n      0x02\n        /* \"contracts/BankTransaction.sol\":1465:1488  allTXsarray[_client_ID] */\n      0x00\n        /* \"contracts/BankTransaction.sol\":1477:1487  _client_ID */\n      dup6\n        /* \"contracts/BankTransaction.sol\":1465:1488  allTXsarray[_client_ID] */\n      0xffffffffffffffffffffffffffffffffffffffff\n      and\n      0xffffffffffffffffffffffffffffffffffffffff\n      and\n      dup2\n      mstore\n      0x20\n      add\n      swap1\n      dup2\n      mstore\n      0x20\n      add\n      0x00\n      keccak256\n        /* \"contracts/BankTransaction.sol\":1494:1512  clienttransactions */\n      0x01\n        /* \"contracts/BankTransaction.sol\":1494:1525  clienttransactions[_payment_ID] */\n      0x00\n        /* \"contracts/BankTransaction.sol\":1513:1524  _payment_ID */\n      dup5\n        /* \"contracts/BankTransaction.sol\":1494:1525  clienttransactions[_payment_ID] */\n      not(0xffffffffffffffffffffffff)\n      and\n      not(0xffffffffffffffffffffffff)\n      and\n      dup2\n      mstore\n      0x20\n      add\n      swap1\n      dup2\n      mstore\n      0x20\n      add\n      0x00\n      keccak256\n        /* \"contracts/BankTransaction.sol\":1465:1526  allTXsarray[_client_ID].push(clienttransactions[_payment_ID]) */\n      swap1\n      dup1\n      0x01\n      dup2\n      sload\n      add\n      dup1\n      dup3\n      sstore\n      dup1\n      swap2\n      pop\n      pop\n      0x01\n      swap1\n      sub\n      swap1\n      0x00\n      mstore\n      keccak256(0x00, 0x20)\n      swap1\n      0x07\n      mul\n      add\n      0x00\n      swap1\n      swap2\n      swap1\n      swap2\n      swap1\n      swap2\n      pop\n      0x00\n      dup3\n      add\n      0x00\n      swap1\n      sload\n      swap1\n      0x0100\n      exp\n      swap1\n      div\n      0x60\n      shl\n      dup2\n      0x00\n      add\n      exp(0x0100, 0x00)\n      dup2\n      sload\n      dup2\n      0xffffffffffffffffffffffffffffffffffffffff\n      mul\n      not\n      and\n      swap1\n      dup4\n      0x60\n      shr\n      mul\n      or\n      swap1\n      sstore\n      pop\n      0x01\n      dup3\n      add\n      0x00\n      swap1\n      sload\n      swap1\n      0x0100\n      exp\n      swap1\n      div\n      0xffffffffffffffffffffffffffffffffffffffff\n      and\n      dup2\n      0x01\n      add\n      exp(0x0100, 0x00)\n      dup2\n      sload\n      dup2\n      0xffffffffffffffffffffffffffffffffffffffff\n      mul\n      not\n      and\n      swap1\n      dup4\n      0xffffffffffffffffffffffffffffffffffffffff\n      and\n      mul\n      or\n      swap1\n      sstore\n      pop\n      0x02\n      dup3\n      add\n      0x00\n      swap1\n      sload\n      swap1\n      0x0100\n      exp\n      swap1\n      div\n      0xffffffffffffffffffffffffffffffffffffffff\n      and\n      dup2\n      0x02\n      add\n      exp(0x0100, 0x00)\n      dup2\n      sload\n      dup2\n      0xffffffffffffffffffffffffffffffffffffffff\n      mul\n      not\n      and\n      swap1\n      dup4\n      0xffffffffffffffffffffffffffffffffffffffff\n      and\n      mul\n      or\n      swap1\n      sstore\n      pop\n      0x03\n      dup3\n      add\n      sload\n      dup2\n      0x03\n      add\n      sstore\n      0x04\n      dup3\n      add\n      sload\n      dup2\n      0x04\n      add\n      sstore\n      0x05\n      dup3\n      add\n      dup2\n      0x05\n      add\n      swap1\n      dup1\n      sload\n      tag_68\n      swap1\n      tag_41\n      jump\t// in\n    tag_68:\n      tag_69\n      swap3\n      swap2\n      swap1\n      tag_70\n      jump\t// in\n    tag_69:\n      pop\n      0x06\n      dup3\n      add\n      0x00\n      swap1\n      sload\n      swap1\n      0x0100\n      exp\n      swap1\n      div\n      0x60\n      shl\n      dup2\n      0x06\n      add\n      exp(0x0100, 0x00)\n      dup2\n      sload\n      dup2\n      0xffffffffffffffffffffffffffffffffffffffff\n      mul\n      not\n      and\n      swap1\n      dup4\n      0x60\n      shr\n      mul\n      or\n      swap1\n      sstore\n      pop\n      pop\n      pop\n        /* \"contracts/BankTransaction.sol\":1545:1556  allTXsarray */\n      0x02\n        /* \"contracts/BankTransaction.sol\":1545:1571  allTXsarray[_recipient_ID] */\n      0x00\n        /* \"contracts/BankTransaction.sol\":1557:1570  _recipient_ID */\n      dup10\n        /* \"contracts/BankTransaction.sol\":1545:1571  allTXsarray[_recipient_ID] */\n      0xffffffffffffffffffffffffffffffffffffffff\n      and\n      0xffffffffffffffffffffffffffffffffffffffff\n      and\n      dup2\n      mstore\n      0x20\n      add\n      swap1\n      dup2\n      mstore\n      0x20\n      add\n      0x00\n      keccak256\n        /* \"contracts/BankTransaction.sol\":1577:1595  clienttransactions */\n      0x01\n        /* \"contracts/BankTransaction.sol\":1577:1608  clienttransactions[_payment_ID] */\n      0x00\n        /* \"contracts/BankTransaction.sol\":1596:1607  _payment_ID */\n      dup5\n        /* \"contracts/BankTransaction.sol\":1577:1608  clienttransactions[_payment_ID] */\n      not(0xffffffffffffffffffffffff)\n      and\n      not(0xffffffffffffffffffffffff)\n      and\n      dup2\n      mstore\n      0x20\n      add\n      swap1\n      dup2\n      mstore\n      0x20\n      add\n      0x00\n      keccak256\n        /* \"contracts/BankTransaction.sol\":1545:1609  allTXsarray[_recipient_ID].push(clienttransactions[_payment_ID]) */\n      swap1\n      dup1\n      0x01\n      dup2\n      sload\n      add\n      dup1\n      dup3\n      sstore\n      dup1\n      swap2\n      pop\n      pop\n      0x01\n      swap1\n      sub\n      swap1\n      0x00\n      mstore\n      keccak256(0x00, 0x20)\n      swap1\n      0x07\n      mul\n      add\n      0x00\n      swap1\n      swap2\n      swap1\n      swap2\n      swap1\n      swap2\n      pop\n      0x00\n      dup3\n      add\n      0x00\n      swap1\n      sload\n      swap1\n      0x0100\n      exp\n      swap1\n      div\n      0x60\n      shl\n      dup2\n      0x00\n      add\n      exp(0x0100, 0x00)\n      dup2\n      sload\n      dup2\n      0xffffffffffffffffffffffffffffffffffffffff\n      mul\n      not\n      and\n      swap1\n      dup4\n      0x60\n      shr\n      mul\n      or\n      swap1\n      sstore\n      pop\n      0x01\n      dup3\n      add\n      0x00\n      swap1\n      sload\n      swap1\n      0x0100\n      exp\n      swap1\n      div\n      0xffffffffffffffffffffffffffffffffffffffff\n      and\n      dup2\n      0x01\n      add\n      exp(0x0100, 0x00)\n      dup2\n      sload\n      dup2\n      0xffffffffffffffffffffffffffffffffffffffff\n      mul\n      not\n      and\n      swap1\n      dup4\n      0xffffffffffffffffffffffffffffffffffffffff\n      and\n      mul\n      or\n      swap1\n      sstore\n      pop\n      0x02\n      dup3\n      add\n      0x00\n      swap1\n      sload\n      swap1\n      0x0100\n      exp\n      swap1\n      div\n      0xffffffffffffffffffffffffffffffffffffffff\n      and\n      dup2\n      0x02\n      add\n      exp(0x0100, 0x00)\n      dup2\n      sload\n      dup2\n      0xffffffffffffffffffffffffffffffffffffffff\n      mul\n      not\n      and\n      swap1\n      dup4\n      0xffffffffffffffffffffffffffffffffffffffff\n      and\n      mul\n      or\n      swap1\n      sstore\n      pop\n      0x03\n      dup3\n      add\n      sload\n      dup2\n      0x03\n      add\n      sstore\n      0x04\n      dup3\n      add\n      sload\n      dup2\n      0x04\n      add\n      sstore\n      0x05\n      dup3\n      add\n      dup2\n      0x05\n      add\n      swap1\n      dup1\n      sload\n      tag_72\n      swap1\n      tag_41\n      jump\t// in\n    tag_72:\n      tag_73\n      swap3\n      swap2\n      swap1\n      tag_70\n      jump\t// in\n    tag_73:\n      pop\n      0x06\n      dup3\n      add\n      0x00\n      swap1\n      sload\n      swap1\n      0x0100\n      exp\n      swap1\n      div\n      0x60\n      shl\n      dup2\n      0x06\n      add\n      exp(0x0100, 0x00)\n      dup2\n      sload\n      dup2\n      0xffffffffffffffffffffffffffffffffffffffff\n      mul\n      not\n      and\n      swap1\n      dup4\n      0x60\n      shr\n      mul\n      or\n      swap1\n      sstore\n      pop\n      pop\n      pop\n        /* \"contracts/BankTransaction.sol\":799:1636  {\r... */\n      pop\n      pop\n      pop\n      pop\n        /* \"contracts/BankTransaction.sol\":575:1636  function addNewPayment(      \r... */\n      pop\n      pop\n      pop\n      pop\n      jump\t// out\n        /* \"contracts/BankTransaction.sol\":1866:2031  function getAllTransactionsOfAClient(address  _client_ID) public  view  returns (ClientTransaction[] memory ){\r... */\n    tag_27:\n        /* \"contracts/BankTransaction.sol\":1947:1973  ClientTransaction[] memory */\n      0x60\n        /* \"contracts/BankTransaction.sol\":1999:2010  allTXsarray */\n      0x02\n        /* \"contracts/BankTransaction.sol\":1999:2022  allTXsarray[_client_ID] */\n      0x00\n        /* \"contracts/BankTransaction.sol\":2011:2021  _client_ID */\n      dup4\n        /* \"contracts/BankTransaction.sol\":1999:2022  allTXsarray[_client_ID] */\n      0xffffffffffffffffffffffffffffffffffffffff\n      and\n      0xffffffffffffffffffffffffffffffffffffffff\n      and\n      dup2\n      mstore\n      0x20\n      add\n      swap1\n      dup2\n      mstore\n      0x20\n      add\n      0x00\n      keccak256\n        /* \"contracts/BankTransaction.sol\":1992:2022  return allTXsarray[_client_ID] */\n      dup1\n      sload\n      dup1\n      0x20\n      mul\n      0x20\n      add\n      mload(0x40)\n      swap1\n      dup2\n      add\n      0x40\n      mstore\n      dup1\n      swap3\n      swap2\n      swap1\n      dup2\n      dup2\n      mstore\n      0x20\n      add\n      0x00\n      swap1\n    tag_75:\n      dup3\n      dup3\n      lt\n      iszero\n      tag_76\n      jumpi\n      dup4\n      dup3\n      swap1\n      0x00\n      mstore\n      keccak256(0x00, 0x20)\n      swap1\n      0x07\n      mul\n      add\n      mload(0x40)\n      dup1\n      0xe0\n      add\n      0x40\n      mstore\n      swap1\n      dup2\n      0x00\n      dup3\n      add\n      0x00\n      swap1\n      sload\n      swap1\n      0x0100\n      exp\n      swap1\n      div\n      0x60\n      shl\n      not(0xffffffffffffffffffffffff)\n      and\n      not(0xffffffffffffffffffffffff)\n      and\n      dup2\n      mstore\n      0x20\n      add\n      0x01\n      dup3\n      add\n      0x00\n      swap1\n      sload\n      swap1\n      0x0100\n      exp\n      swap1\n      div\n      0xffffffffffffffffffffffffffffffffffffffff\n      and\n      0xffffffffffffffffffffffffffffffffffffffff\n      and\n      0xffffffffffffffffffffffffffffffffffffffff\n      and\n      dup2\n      mstore\n      0x20\n      add\n      0x02\n      dup3\n      add\n      0x00\n      swap1\n      sload\n      swap1\n      0x0100\n      exp\n      swap1\n      div\n      0xffffffffffffffffffffffffffffffffffffffff\n      and\n      0xffffffffffffffffffffffffffffffffffffffff\n      and\n      0xffffffffffffffffffffffffffffffffffffffff\n      and\n      dup2\n      mstore\n      0x20\n      add\n      0x03\n      dup3\n      add\n      sload\n      dup2\n      mstore\n      0x20\n      add\n      0x04\n      dup3\n      add\n      sload\n      dup2\n      mstore\n      0x20\n      add\n      0x05\n      dup3\n      add\n      dup1\n      sload\n      tag_78\n      swap1\n      tag_41\n      jump\t// in\n    tag_78:\n      dup1\n      0x1f\n      add\n      0x20\n      dup1\n      swap2\n      div\n      mul\n      0x20\n      add\n      mload(0x40)\n      swap1\n      dup2\n      add\n      0x40\n      mstore\n      dup1\n      swap3\n      swap2\n      swap1\n      dup2\n      dup2\n      mstore\n      0x20\n      add\n      dup3\n      dup1\n      sload\n      tag_79\n      swap1\n      tag_41\n      jump\t// in\n    tag_79:\n      dup1\n      iszero\n      tag_80\n      jumpi\n      dup1\n      0x1f\n      lt\n      tag_81\n      jumpi\n      0x0100\n      dup1\n      dup4\n      sload\n      div\n      mul\n      dup4\n      mstore\n      swap2\n      0x20\n      add\n      swap2\n      jump(tag_80)\n    tag_81:\n      dup3\n      add\n      swap2\n      swap1\n      0x00\n      mstore\n      keccak256(0x00, 0x20)\n      swap1\n    tag_82:\n      dup2\n      sload\n      dup2\n      mstore\n      swap1\n      0x01\n      add\n      swap1\n      0x20\n      add\n      dup1\n      dup4\n      gt\n      tag_82\n      jumpi\n      dup3\n      swap1\n      sub\n      0x1f\n      and\n      dup3\n      add\n      swap2\n    tag_80:\n      pop\n      pop\n      pop\n      pop\n      pop\n      dup2\n      mstore\n      0x20\n      add\n      0x06\n      dup3\n      add\n      0x00\n      swap1\n      sload\n      swap1\n      0x0100\n      exp\n      swap1\n      div\n      0x60\n      shl\n      not(0xffffffffffffffffffffffff)\n      and\n      not(0xffffffffffffffffffffffff)\n      and\n      dup2\n      mstore\n      pop\n      pop\n      dup2\n      mstore\n      0x20\n      add\n      swap1\n      0x01\n      add\n      swap1\n      jump(tag_75)\n    tag_76:\n      pop\n      pop\n      pop\n      pop\n      swap1\n      pop\n        /* \"contracts/BankTransaction.sol\":1866:2031  function getAllTransactionsOfAClient(address  _client_ID) public  view  returns (ClientTransaction[] memory ){\r... */\n      swap2\n      swap1\n      pop\n      jump\t// out\n        /* \"contracts/BankTransaction.sol\":1645:1856  function getPaymentByID(bytes20 _payment_ID) public view returns (ClientTransaction memory ct){\r... */\n    tag_32:\n        /* \"contracts/BankTransaction.sol\":1711:1738  ClientTransaction memory ct */\n      tag_83\n      tag_84\n      jump\t// in\n    tag_83:\n        /* \"contracts/BankTransaction.sol\":1761:1779  clienttransactions */\n      0x01\n        /* \"contracts/BankTransaction.sol\":1761:1792  clienttransactions[_payment_ID] */\n      0x00\n        /* \"contracts/BankTransaction.sol\":1780:1791  _payment_ID */\n      dup4\n        /* \"contracts/BankTransaction.sol\":1761:1792  clienttransactions[_payment_ID] */\n      not(0xffffffffffffffffffffffff)\n      and\n      not(0xffffffffffffffffffffffff)\n      and\n      dup2\n      mstore\n      0x20\n      add\n      swap1\n      dup2\n      mstore\n      0x20\n      add\n      0x00\n      keccak256\n        /* \"contracts/BankTransaction.sol\":1756:1792  ct = clienttransactions[_payment_ID] */\n      mload(0x40)\n      dup1\n      0xe0\n      add\n      0x40\n      mstore\n      swap1\n      dup2\n      0x00\n      dup3\n      add\n      0x00\n      swap1\n      sload\n      swap1\n      0x0100\n      exp\n      swap1\n      div\n      0x60\n      shl\n      not(0xffffffffffffffffffffffff)\n      and\n      not(0xffffffffffffffffffffffff)\n      and\n      dup2\n      mstore\n      0x20\n      add\n      0x01\n      dup3\n      add\n      0x00\n      swap1\n      sload\n      swap1\n      0x0100\n      exp\n      swap1\n      div\n      0xffffffffffffffffffffffffffffffffffffffff\n      and\n      0xffffffffffffffffffffffffffffffffffffffff\n      and\n      0xffffffffffffffffffffffffffffffffffffffff\n      and\n      dup2\n      mstore\n      0x20\n      add\n      0x02\n      dup3\n      add\n      0x00\n      swap1\n      sload\n      swap1\n      0x0100\n      exp\n      swap1\n      div\n      0xffffffffffffffffffffffffffffffffffffffff\n      and\n      0xffffffffffffffffffffffffffffffffffffffff\n      and\n      0xffffffffffffffffffffffffffffffffffffffff\n      and\n      dup2\n      mstore\n      0x20\n      add\n      0x03\n      dup3\n      add\n      sload\n      dup2\n      mstore\n      0x20\n      add\n      0x04\n      dup3\n      add\n      sload\n      dup2\n      mstore\n      0x20\n      add\n      0x05\n      dup3\n      add\n      dup1\n      sload\n      tag_86\n      swap1\n      tag_41\n      jump\t// in\n    tag_86:\n      dup1\n      0x1f\n      add\n      0x20\n      dup1\n      swap2\n      div\n      mul\n      0x20\n      add\n      mload(0x40)\n      swap1\n      dup2\n      add\n      0x40\n      mstore\n      dup1\n      swap3\n      swap2\n      swap1\n      dup2\n      dup2\n      mstore\n      0x20\n      add\n      dup3\n      dup1\n      sload\n      tag_87\n      swap1\n      tag_41\n      jump\t// in\n    tag_87:\n      dup1\n      iszero\n      tag_88\n      jumpi\n      dup1\n      0x1f\n      lt\n      tag_89\n      jumpi\n      0x0100\n      dup1\n      dup4\n      sload\n      div\n      mul\n      dup4\n      mstore\n      swap2\n      0x20\n      add\n      swap2\n      jump(tag_88)\n    tag_89:\n      dup3\n      add\n      swap2\n      swap1\n      0x00\n      mstore\n      keccak256(0x00, 0x20)\n      swap1\n    tag_90:\n      dup2\n      sload\n      dup2\n      mstore\n      swap1\n      0x01\n      add\n      swap1\n      0x20\n      add\n      dup1\n      dup4\n      gt\n      tag_90\n      jumpi\n      dup3\n      swap1\n      sub\n      0x1f\n      and\n      dup3\n      add\n      swap2\n    tag_88:\n      pop\n      pop\n      pop\n      pop\n      pop\n      dup2\n      mstore\n      0x20\n      add\n      0x06\n      dup3\n      add\n      0x00\n      swap1\n      sload\n      swap1\n      0x0100\n      exp\n      swap1\n      div\n      0x60\n      shl\n      not(0xffffffffffffffffffffffff)\n      and\n      not(0xffffffffffffffffffffffff)\n      and\n      dup2\n      mstore\n      pop\n      pop\n      swap1\n      pop\n        /* \"contracts/BankTransaction.sol\":1816:1834  clienttransactions */\n      0x01\n        /* \"contracts/BankTransaction.sol\":1816:1847  clienttransactions[_payment_ID] */\n      0x00\n        /* \"contracts/BankTransaction.sol\":1835:1846  _payment_ID */\n      dup4\n        /* \"contracts/BankTransaction.sol\":1816:1847  clienttransactions[_payment_ID] */\n      not(0xffffffffffffffffffffffff)\n      and\n      not(0xffffffffffffffffffffffff)\n      and\n      dup2\n      mstore\n      0x20\n      add\n      swap1\n      dup2\n      mstore\n      0x20\n      add\n      0x00\n      keccak256\n        /* \"contracts/BankTransaction.sol\":1809:1847  return clienttransactions[_payment_ID] */\n      mload(0x40)\n      dup1\n      0xe0\n      add\n      0x40\n      mstore\n      swap1\n      dup2\n      0x00\n      dup3\n      add\n      0x00\n      swap1\n      sload\n      swap1\n      0x0100\n      exp\n      swap1\n      div\n      0x60\n      shl\n      not(0xffffffffffffffffffffffff)\n      and\n      not(0xffffffffffffffffffffffff)\n      and\n      dup2\n      mstore\n      0x20\n      add\n      0x01\n      dup3\n      add\n      0x00\n      swap1\n      sload\n      swap1\n      0x0100\n      exp\n      swap1\n      div\n      0xffffffffffffffffffffffffffffffffffffffff\n      and\n      0xffffffffffffffffffffffffffffffffffffffff\n      and\n      0xffffffffffffffffffffffffffffffffffffffff\n      and\n      dup2\n      mstore\n      0x20\n      add\n      0x02\n      dup3\n      add\n      0x00\n      swap1\n      sload\n      swap1\n      0x0100\n      exp\n      swap1\n      div\n      0xffffffffffffffffffffffffffffffffffffffff\n      and\n      0xffffffffffffffffffffffffffffffffffffffff\n      and\n      0xffffffffffffffffffffffffffffffffffffffff\n      and\n      dup2\n      mstore\n      0x20\n      add\n      0x03\n      dup3\n      add\n      sload\n      dup2\n      mstore\n      0x20\n      add\n      0x04\n      dup3\n      add\n      sload\n      dup2\n      mstore\n      0x20\n      add\n      0x05\n      dup3\n      add\n      dup1\n      sload\n      tag_91\n      swap1\n      tag_41\n      jump\t// in\n    tag_91:\n      dup1\n      0x1f\n      add\n      0x20\n      dup1\n      swap2\n      div\n      mul\n      0x20\n      add\n      mload(0x40)\n      swap1\n      dup2\n      add\n      0x40\n      mstore\n      dup1\n      swap3\n      swap2\n      swap1\n      dup2\n      dup2\n      mstore\n      0x20\n      add\n      dup3\n      dup1\n      sload\n      tag_92\n      swap1\n      tag_41\n      jump\t// in\n    tag_92:\n      dup1\n      iszero\n      tag_93\n      jumpi\n      dup1\n      0x1f\n      lt\n      tag_94\n      jumpi\n      0x0100\n      dup1\n      dup4\n      sload\n      div\n      mul\n      dup4\n      mstore\n      swap2\n      0x20\n      add\n      swap2\n      jump(tag_93)\n    tag_94:\n      dup3\n      add\n      swap2\n      swap1\n      0x00\n      mstore\n      keccak256(0x00, 0x20)\n      swap1\n    tag_95:\n      dup2\n      sload\n      dup2\n      mstore\n      swap1\n      0x01\n      add\n      swap1\n      0x20\n      add\n      dup1\n      dup4\n      gt\n      tag_95\n      jumpi\n      dup3\n      swap1\n      sub\n      0x1f\n      and\n      dup3\n      add\n      swap2\n    tag_93:\n      pop\n      pop\n      pop\n      pop\n      pop\n      dup2\n      mstore\n      0x20\n      add\n      0x06\n      dup3\n      add\n      0x00\n      swap1\n      sload\n      swap1\n      0x0100\n      exp\n      swap1\n      div\n      0x60\n      shl\n      not(0xffffffffffffffffffffffff)\n      and\n      not(0xffffffffffffffffffffffff)\n      and\n      dup2\n      mstore\n      pop\n      pop\n      swap1\n      pop\n        /* \"contracts/BankTransaction.sol\":1645:1856  function getPaymentByID(bytes20 _payment_ID) public view returns (ClientTransaction memory ct){\r... */\n      swap2\n      swap1\n      pop\n      jump\t// out\n        /* \"contracts/BankTransaction.sol\":389:423  ClientTransaction[] public ctarray */\n    tag_38:\n      0x00\n      dup2\n      dup2\n      sload\n      dup2\n      lt\n      tag_96\n      jumpi\n      0x00\n      dup1\n      revert\n    tag_96:\n      swap1\n      0x00\n      mstore\n      keccak256(0x00, 0x20)\n      swap1\n      0x07\n      mul\n      add\n      0x00\n      swap2\n      pop\n      swap1\n      pop\n      dup1\n      0x00\n      add\n      0x00\n      swap1\n      sload\n      swap1\n      0x0100\n      exp\n      swap1\n      div\n      0x60\n      shl\n      swap1\n      dup1\n      0x01\n      add\n      0x00\n      swap1\n      sload\n      swap1\n      0x0100\n      exp\n      swap1\n      div\n      0xffffffffffffffffffffffffffffffffffffffff\n      and\n      swap1\n      dup1\n      0x02\n      add\n      0x00\n      swap1\n      sload\n      swap1\n      0x0100\n      exp\n      swap1\n      div\n      0xffffffffffffffffffffffffffffffffffffffff\n      and\n      swap1\n      dup1\n      0x03\n      add\n      sload\n      swap1\n      dup1\n      0x04\n      add\n      sload\n      swap1\n      dup1\n      0x05\n      add\n      dup1\n      sload\n      tag_98\n      swap1\n      tag_41\n      jump\t// in\n    tag_98:\n      dup1\n      0x1f\n      add\n      0x20\n      dup1\n      swap2\n      div\n      mul\n      0x20\n      add\n      mload(0x40)\n      swap1\n      dup2\n      add\n      0x40\n      mstore\n      dup1\n      swap3\n      swap2\n      swap1\n      dup2\n      dup2\n      mstore\n      0x20\n      add\n      dup3\n      dup1\n      sload\n      tag_99\n      swap1\n      tag_41\n      jump\t// in\n    tag_99:\n      dup1\n      iszero\n      tag_100\n      jumpi\n      dup1\n      0x1f\n      lt\n      tag_101\n      jumpi\n      0x0100\n      dup1\n      dup4\n      sload\n      div\n      mul\n      dup4\n      mstore\n      swap2\n      0x20\n      add\n      swap2\n      jump(tag_100)\n    tag_101:\n      dup3\n      add\n      swap2\n      swap1\n      0x00\n      mstore\n      keccak256(0x00, 0x20)\n      swap1\n    tag_102:\n      dup2\n      sload\n      dup2\n      mstore\n      swap1\n      0x01\n      add\n      swap1\n      0x20\n      add\n      dup1\n      dup4\n      gt\n      tag_102\n      jumpi\n      dup3\n      swap1\n      sub\n      0x1f\n      and\n      dup3\n      add\n      swap2\n    tag_100:\n      pop\n      pop\n      pop\n      pop\n      pop\n      swap1\n      dup1\n      0x06\n      add\n      0x00\n      swap1\n      sload\n      swap1\n      0x0100\n      exp\n      swap1\n      div\n      0x60\n      shl\n      swap1\n      pop\n      dup8\n      jump\t// out\n    tag_66:\n      dup3\n      dup1\n      sload\n      tag_103\n      swap1\n      tag_41\n      jump\t// in\n    tag_103:\n      swap1\n      0x00\n      mstore\n      keccak256(0x00, 0x20)\n      swap1\n      0x1f\n      add\n      0x20\n      swap1\n      div\n      dup2\n      add\n      swap3\n      dup3\n      tag_105\n      jumpi\n      0x00\n      dup6\n      sstore\n      jump(tag_104)\n    tag_105:\n      dup3\n      0x1f\n      lt\n      tag_106\n      jumpi\n      dup1\n      mload\n      not(0xff)\n      and\n      dup4\n      dup1\n      add\n      or\n      dup6\n      sstore\n      jump(tag_104)\n    tag_106:\n      dup3\n      dup1\n      add\n      0x01\n      add\n      dup6\n      sstore\n      dup3\n      iszero\n      tag_104\n      jumpi\n      swap2\n      dup3\n      add\n    tag_107:\n      dup3\n      dup2\n      gt\n      iszero\n      tag_108\n      jumpi\n      dup3\n      mload\n      dup3\n      sstore\n      swap2\n      0x20\n      add\n      swap2\n      swap1\n      0x01\n      add\n      swap1\n      jump(tag_107)\n    tag_108:\n    tag_104:\n      pop\n      swap1\n      pop\n      tag_109\n      swap2\n      swap1\n      tag_110\n      jump\t// in\n    tag_109:\n      pop\n      swap1\n      jump\t// out\n    tag_70:\n      dup3\n      dup1\n      sload\n      tag_111\n      swap1\n      tag_41\n      jump\t// in\n    tag_111:\n      swap1\n      0x00\n      mstore\n      keccak256(0x00, 0x20)\n      swap1\n      0x1f\n      add\n      0x20\n      swap1\n      div\n      dup2\n      add\n      swap3\n      dup3\n      tag_113\n      jumpi\n      0x00\n      dup6\n      sstore\n      jump(tag_112)\n    tag_113:\n      dup3\n      0x1f\n      lt\n      tag_114\n      jumpi\n      dup1\n      sload\n      dup6\n      sstore\n      jump(tag_112)\n    tag_114:\n      dup3\n      dup1\n      add\n      0x01\n      add\n      dup6\n      sstore\n      dup3\n      iszero\n      tag_112\n      jumpi\n      0x00\n      mstore\n      keccak256(0x00, 0x20)\n      swap2\n      0x1f\n      add\n      0x20\n      swap1\n      div\n      dup3\n      add\n    tag_115:\n      dup3\n      dup2\n      gt\n      iszero\n      tag_116\n      jumpi\n      dup3\n      sload\n      dup3\n      sstore\n      swap2\n      0x01\n      add\n      swap2\n      swap1\n      0x01\n      add\n      swap1\n      jump(tag_115)\n    tag_116:\n    tag_112:\n      pop\n      swap1\n      pop\n      tag_117\n      swap2\n      swap1\n      tag_110\n      jump\t// in\n    tag_117:\n      pop\n      swap1\n      jump\t// out\n    tag_84:\n      mload(0x40)\n      dup1\n      0xe0\n      add\n      0x40\n      mstore\n      dup1\n      and(not(0xffffffffffffffffffffffff), 0x00)\n      dup2\n      mstore\n      0x20\n      add\n      and(0xffffffffffffffffffffffffffffffffffffffff, 0x00)\n      dup2\n      mstore\n      0x20\n      add\n      and(0xffffffffffffffffffffffffffffffffffffffff, 0x00)\n      dup2\n      mstore\n      0x20\n      add\n      0x00\n      dup2\n      mstore\n      0x20\n      add\n      0x00\n      dup2\n      mstore\n      0x20\n      add\n      0x60\n      dup2\n      mstore\n      0x20\n      add\n      and(not(0xffffffffffffffffffffffff), 0x00)\n      dup2\n      mstore\n      pop\n      swap1\n      jump\t// out\n    tag_110:\n    tag_118:\n      dup1\n      dup3\n      gt\n      iszero\n      tag_119\n      jumpi\n      0x00\n      dup2\n      0x00\n      swap1\n      sstore\n      pop\n      0x01\n      add\n      jump(tag_118)\n    tag_119:\n      pop\n      swap1\n      jump\t// out\n        /* \"#utility.yul\":7:146   */\n    tag_121:\n        /* \"#utility.yul\":53:58   */\n      0x00\n        /* \"#utility.yul\":91:97   */\n      dup2\n        /* \"#utility.yul\":78:98   */\n      calldataload\n        /* \"#utility.yul\":69:98   */\n      swap1\n      pop\n        /* \"#utility.yul\":107:140   */\n      tag_123\n        /* \"#utility.yul\":134:139   */\n      dup2\n        /* \"#utility.yul\":107:140   */\n      tag_124\n      jump\t// in\n    tag_123:\n        /* \"#utility.yul\":7:146   */\n      swap3\n      swap2\n      pop\n      pop\n      jump\t// out\n        /* \"#utility.yul\":152:291   */\n    tag_125:\n        /* \"#utility.yul\":198:203   */\n      0x00\n        /* \"#utility.yul\":236:242   */\n      dup2\n        /* \"#utility.yul\":223:243   */\n      calldataload\n        /* \"#utility.yul\":214:243   */\n      swap1\n      pop\n        /* \"#utility.yul\":252:285   */\n      tag_127\n        /* \"#utility.yul\":279:284   */\n      dup2\n        /* \"#utility.yul\":252:285   */\n      tag_128\n      jump\t// in\n    tag_127:\n        /* \"#utility.yul\":152:291   */\n      swap3\n      swap2\n      pop\n      pop\n      jump\t// out\n        /* \"#utility.yul\":311:864   */\n    tag_129:\n        /* \"#utility.yul\":369:377   */\n      0x00\n        /* \"#utility.yul\":379:385   */\n      dup1\n        /* \"#utility.yul\":429:432   */\n      dup4\n        /* \"#utility.yul\":422:426   */\n      0x1f\n        /* \"#utility.yul\":414:420   */\n      dup5\n        /* \"#utility.yul\":410:427   */\n      add\n        /* \"#utility.yul\":406:433   */\n      slt\n        /* \"#utility.yul\":396:518   */\n      tag_131\n      jumpi\n        /* \"#utility.yul\":437:516   */\n      tag_132\n      tag_133\n      jump\t// in\n    tag_132:\n        /* \"#utility.yul\":396:518   */\n    tag_131:\n        /* \"#utility.yul\":550:556   */\n      dup3\n        /* \"#utility.yul\":537:557   */\n      calldataload\n        /* \"#utility.yul\":527:557   */\n      swap1\n      pop\n        /* \"#utility.yul\":580:598   */\n      0xffffffffffffffff\n        /* \"#utility.yul\":572:578   */\n      dup2\n        /* \"#utility.yul\":569:599   */\n      gt\n        /* \"#utility.yul\":566:683   */\n      iszero\n      tag_134\n      jumpi\n        /* \"#utility.yul\":602:681   */\n      tag_135\n      tag_136\n      jump\t// in\n    tag_135:\n        /* \"#utility.yul\":566:683   */\n    tag_134:\n        /* \"#utility.yul\":716:720   */\n      0x20\n        /* \"#utility.yul\":708:714   */\n      dup4\n        /* \"#utility.yul\":704:721   */\n      add\n        /* \"#utility.yul\":692:721   */\n      swap2\n      pop\n        /* \"#utility.yul\":770:773   */\n      dup4\n        /* \"#utility.yul\":762:766   */\n      0x01\n        /* \"#utility.yul\":754:760   */\n      dup3\n        /* \"#utility.yul\":750:767   */\n      mul\n        /* \"#utility.yul\":740:748   */\n      dup4\n        /* \"#utility.yul\":736:768   */\n      add\n        /* \"#utility.yul\":733:774   */\n      gt\n        /* \"#utility.yul\":730:858   */\n      iszero\n      tag_137\n      jumpi\n        /* \"#utility.yul\":777:856   */\n      tag_138\n      tag_139\n      jump\t// in\n    tag_138:\n        /* \"#utility.yul\":730:858   */\n    tag_137:\n        /* \"#utility.yul\":311:864   */\n      swap3\n      pop\n      swap3\n      swap1\n      pop\n      jump\t// out\n        /* \"#utility.yul\":870:1009   */\n    tag_140:\n        /* \"#utility.yul\":916:921   */\n      0x00\n        /* \"#utility.yul\":954:960   */\n      dup2\n        /* \"#utility.yul\":941:961   */\n      calldataload\n        /* \"#utility.yul\":932:961   */\n      swap1\n      pop\n        /* \"#utility.yul\":970:1003   */\n      tag_142\n        /* \"#utility.yul\":997:1002   */\n      dup2\n        /* \"#utility.yul\":970:1003   */\n      tag_143\n      jump\t// in\n    tag_142:\n        /* \"#utility.yul\":870:1009   */\n      swap3\n      swap2\n      pop\n      pop\n      jump\t// out\n        /* \"#utility.yul\":1015:1344   */\n    tag_26:\n        /* \"#utility.yul\":1074:1080   */\n      0x00\n        /* \"#utility.yul\":1123:1125   */\n      0x20\n        /* \"#utility.yul\":1111:1120   */\n      dup3\n        /* \"#utility.yul\":1102:1109   */\n      dup5\n        /* \"#utility.yul\":1098:1121   */\n      sub\n        /* \"#utility.yul\":1094:1126   */\n      slt\n        /* \"#utility.yul\":1091:1210   */\n      iszero\n      tag_145\n      jumpi\n        /* \"#utility.yul\":1129:1208   */\n      tag_146\n      tag_147\n      jump\t// in\n    tag_146:\n        /* \"#utility.yul\":1091:1210   */\n    tag_145:\n        /* \"#utility.yul\":1249:1250   */\n      0x00\n        /* \"#utility.yul\":1274:1327   */\n      tag_148\n        /* \"#utility.yul\":1319:1326   */\n      dup5\n        /* \"#utility.yul\":1310:1316   */\n      dup3\n        /* \"#utility.yul\":1299:1308   */\n      dup6\n        /* \"#utility.yul\":1295:1317   */\n      add\n        /* \"#utility.yul\":1274:1327   */\n      tag_121\n      jump\t// in\n    tag_148:\n        /* \"#utility.yul\":1264:1327   */\n      swap2\n      pop\n        /* \"#utility.yul\":1220:1337   */\n      pop\n        /* \"#utility.yul\":1015:1344   */\n      swap3\n      swap2\n      pop\n      pop\n      jump\t// out\n        /* \"#utility.yul\":1350:1824   */\n    tag_17:\n        /* \"#utility.yul\":1418:1424   */\n      0x00\n        /* \"#utility.yul\":1426:1432   */\n      dup1\n        /* \"#utility.yul\":1475:1477   */\n      0x40\n        /* \"#utility.yul\":1463:1472   */\n      dup4\n        /* \"#utility.yul\":1454:1461   */\n      dup6\n        /* \"#utility.yul\":1450:1473   */\n      sub\n        /* \"#utility.yul\":1446:1478   */\n      slt\n        /* \"#utility.yul\":1443:1562   */\n      iszero\n      tag_150\n      jumpi\n        /* \"#utility.yul\":1481:1560   */\n      tag_151\n      tag_147\n      jump\t// in\n    tag_151:\n        /* \"#utility.yul\":1443:1562   */\n    tag_150:\n        /* \"#utility.yul\":1601:1602   */\n      0x00\n        /* \"#utility.yul\":1626:1679   */\n      tag_152\n        /* \"#utility.yul\":1671:1678   */\n      dup6\n        /* \"#utility.yul\":1662:1668   */\n      dup3\n        /* \"#utility.yul\":1651:1660   */\n      dup7\n        /* \"#utility.yul\":1647:1669   */\n      add\n        /* \"#utility.yul\":1626:1679   */\n      tag_121\n      jump\t// in\n    tag_152:\n        /* \"#utility.yul\":1616:1679   */\n      swap3\n      pop\n        /* \"#utility.yul\":1572:1689   */\n      pop\n        /* \"#utility.yul\":1728:1730   */\n      0x20\n        /* \"#utility.yul\":1754:1807   */\n      tag_153\n        /* \"#utility.yul\":1799:1806   */\n      dup6\n        /* \"#utility.yul\":1790:1796   */\n      dup3\n        /* \"#utility.yul\":1779:1788   */\n      dup7\n        /* \"#utility.yul\":1775:1797   */\n      add\n        /* \"#utility.yul\":1754:1807   */\n      tag_140\n      jump\t// in\n    tag_153:\n        /* \"#utility.yul\":1744:1807   */\n      swap2\n      pop\n        /* \"#utility.yul\":1699:1817   */\n      pop\n        /* \"#utility.yul\":1350:1824   */\n      swap3\n      pop\n      swap3\n      swap1\n      pop\n      jump\t// out\n        /* \"#utility.yul\":1830:2649   */\n    tag_22:\n        /* \"#utility.yul\":1919:1925   */\n      0x00\n        /* \"#utility.yul\":1927:1933   */\n      dup1\n        /* \"#utility.yul\":1935:1941   */\n      0x00\n        /* \"#utility.yul\":1943:1949   */\n      dup1\n        /* \"#utility.yul\":1992:1994   */\n      0x60\n        /* \"#utility.yul\":1980:1989   */\n      dup6\n        /* \"#utility.yul\":1971:1978   */\n      dup8\n        /* \"#utility.yul\":1967:1990   */\n      sub\n        /* \"#utility.yul\":1963:1995   */\n      slt\n        /* \"#utility.yul\":1960:2079   */\n      iszero\n      tag_155\n      jumpi\n        /* \"#utility.yul\":1998:2077   */\n      tag_156\n      tag_147\n      jump\t// in\n    tag_156:\n        /* \"#utility.yul\":1960:2079   */\n    tag_155:\n        /* \"#utility.yul\":2118:2119   */\n      0x00\n        /* \"#utility.yul\":2143:2196   */\n      tag_157\n        /* \"#utility.yul\":2188:2195   */\n      dup8\n        /* \"#utility.yul\":2179:2185   */\n      dup3\n        /* \"#utility.yul\":2168:2177   */\n      dup9\n        /* \"#utility.yul\":2164:2186   */\n      add\n        /* \"#utility.yul\":2143:2196   */\n      tag_121\n      jump\t// in\n    tag_157:\n        /* \"#utility.yul\":2133:2196   */\n      swap5\n      pop\n        /* \"#utility.yul\":2089:2206   */\n      pop\n        /* \"#utility.yul\":2245:2247   */\n      0x20\n        /* \"#utility.yul\":2271:2324   */\n      tag_158\n        /* \"#utility.yul\":2316:2323   */\n      dup8\n        /* \"#utility.yul\":2307:2313   */\n      dup3\n        /* \"#utility.yul\":2296:2305   */\n      dup9\n        /* \"#utility.yul\":2292:2314   */\n      add\n        /* \"#utility.yul\":2271:2324   */\n      tag_140\n      jump\t// in\n    tag_158:\n        /* \"#utility.yul\":2261:2324   */\n      swap4\n      pop\n        /* \"#utility.yul\":2216:2334   */\n      pop\n        /* \"#utility.yul\":2401:2403   */\n      0x40\n        /* \"#utility.yul\":2390:2399   */\n      dup6\n        /* \"#utility.yul\":2386:2404   */\n      add\n        /* \"#utility.yul\":2373:2405   */\n      calldataload\n        /* \"#utility.yul\":2432:2450   */\n      0xffffffffffffffff\n        /* \"#utility.yul\":2424:2430   */\n      dup2\n        /* \"#utility.yul\":2421:2451   */\n      gt\n        /* \"#utility.yul\":2418:2535   */\n      iszero\n      tag_159\n      jumpi\n        /* \"#utility.yul\":2454:2533   */\n      tag_160\n      tag_161\n      jump\t// in\n    tag_160:\n        /* \"#utility.yul\":2418:2535   */\n    tag_159:\n        /* \"#utility.yul\":2567:2632   */\n      tag_162\n        /* \"#utility.yul\":2624:2631   */\n      dup8\n        /* \"#utility.yul\":2615:2621   */\n      dup3\n        /* \"#utility.yul\":2604:2613   */\n      dup9\n        /* \"#utility.yul\":2600:2622   */\n      add\n        /* \"#utility.yul\":2567:2632   */\n      tag_129\n      jump\t// in\n    tag_162:\n        /* \"#utility.yul\":2549:2632   */\n      swap3\n      pop\n      swap3\n      pop\n        /* \"#utility.yul\":2344:2642   */\n      pop\n        /* \"#utility.yul\":1830:2649   */\n      swap3\n      swap6\n      swap2\n      swap5\n      pop\n      swap3\n      pop\n      jump\t// out\n        /* \"#utility.yul\":2655:2984   */\n    tag_11:\n        /* \"#utility.yul\":2714:2720   */\n      0x00\n        /* \"#utility.yul\":2763:2765   */\n      0x20\n        /* \"#utility.yul\":2751:2760   */\n      dup3\n        /* \"#utility.yul\":2742:2749   */\n      dup5\n        /* \"#utility.yul\":2738:2761   */\n      sub\n        /* \"#utility.yul\":2734:2766   */\n      slt\n        /* \"#utility.yul\":2731:2850   */\n      iszero\n      tag_164\n      jumpi\n        /* \"#utility.yul\":2769:2848   */\n      tag_165\n      tag_147\n      jump\t// in\n    tag_165:\n        /* \"#utility.yul\":2731:2850   */\n    tag_164:\n        /* \"#utility.yul\":2889:2890   */\n      0x00\n        /* \"#utility.yul\":2914:2967   */\n      tag_166\n        /* \"#utility.yul\":2959:2966   */\n      dup5\n        /* \"#utility.yul\":2950:2956   */\n      dup3\n        /* \"#utility.yul\":2939:2948   */\n      dup6\n        /* \"#utility.yul\":2935:2957   */\n      add\n        /* \"#utility.yul\":2914:2967   */\n      tag_125\n      jump\t// in\n    tag_166:\n        /* \"#utility.yul\":2904:2967   */\n      swap2\n      pop\n        /* \"#utility.yul\":2860:2977   */\n      pop\n        /* \"#utility.yul\":2655:2984   */\n      swap3\n      swap2\n      pop\n      pop\n      jump\t// out\n        /* \"#utility.yul\":2990:3319   */\n    tag_37:\n        /* \"#utility.yul\":3049:3055   */\n      0x00\n        /* \"#utility.yul\":3098:3100   */\n      0x20\n        /* \"#utility.yul\":3086:3095   */\n      dup3\n        /* \"#utility.yul\":3077:3084   */\n      dup5\n        /* \"#utility.yul\":3073:3096   */\n      sub\n        /* \"#utility.yul\":3069:3101   */\n      slt\n        /* \"#utility.yul\":3066:3185   */\n      iszero\n      tag_168\n      jumpi\n        /* \"#utility.yul\":3104:3183   */\n      tag_169\n      tag_147\n      jump\t// in\n    tag_169:\n        /* \"#utility.yul\":3066:3185   */\n    tag_168:\n        /* \"#utility.yul\":3224:3225   */\n      0x00\n        /* \"#utility.yul\":3249:3302   */\n      tag_170\n        /* \"#utility.yul\":3294:3301   */\n      dup5\n        /* \"#utility.yul\":3285:3291   */\n      dup3\n        /* \"#utility.yul\":3274:3283   */\n      dup6\n        /* \"#utility.yul\":3270:3292   */\n      add\n        /* \"#utility.yul\":3249:3302   */\n      tag_140\n      jump\t// in\n    tag_170:\n        /* \"#utility.yul\":3239:3302   */\n      swap2\n      pop\n        /* \"#utility.yul\":3195:3312   */\n      pop\n        /* \"#utility.yul\":2990:3319   */\n      swap3\n      swap2\n      pop\n      pop\n      jump\t// out\n        /* \"#utility.yul\":3325:3613   */\n    tag_171:\n        /* \"#utility.yul\":3460:3470   */\n      0x00\n        /* \"#utility.yul\":3495:3607   */\n      tag_173\n        /* \"#utility.yul\":3603:3606   */\n      dup4\n        /* \"#utility.yul\":3595:3601   */\n      dup4\n        /* \"#utility.yul\":3495:3607   */\n      tag_174\n      jump\t// in\n    tag_173:\n        /* \"#utility.yul\":3481:3607   */\n      swap1\n      pop\n        /* \"#utility.yul\":3325:3613   */\n      swap3\n      swap2\n      pop\n      pop\n      jump\t// out\n        /* \"#utility.yul\":3619:3727   */\n    tag_175:\n        /* \"#utility.yul\":3696:3720   */\n      tag_177\n        /* \"#utility.yul\":3714:3719   */\n      dup2\n        /* \"#utility.yul\":3696:3720   */\n      tag_178\n      jump\t// in\n    tag_177:\n        /* \"#utility.yul\":3691:3694   */\n      dup3\n        /* \"#utility.yul\":3684:3721   */\n      mstore\n        /* \"#utility.yul\":3619:3727   */\n      pop\n      pop\n      jump\t// out\n        /* \"#utility.yul\":3733:3851   */\n    tag_179:\n        /* \"#utility.yul\":3820:3844   */\n      tag_181\n        /* \"#utility.yul\":3838:3843   */\n      dup2\n        /* \"#utility.yul\":3820:3844   */\n      tag_178\n      jump\t// in\n    tag_181:\n        /* \"#utility.yul\":3815:3818   */\n      dup3\n        /* \"#utility.yul\":3808:3845   */\n      mstore\n        /* \"#utility.yul\":3733:3851   */\n      pop\n      pop\n      jump\t// out\n        /* \"#utility.yul\":3857:4014   */\n    tag_182:\n        /* \"#utility.yul\":3962:4007   */\n      tag_184\n        /* \"#utility.yul\":3982:4006   */\n      tag_185\n        /* \"#utility.yul\":4000:4005   */\n      dup3\n        /* \"#utility.yul\":3982:4006   */\n      tag_178\n      jump\t// in\n    tag_185:\n        /* \"#utility.yul\":3962:4007   */\n      tag_186\n      jump\t// in\n    tag_184:\n        /* \"#utility.yul\":3957:3960   */\n      dup3\n        /* \"#utility.yul\":3950:4008   */\n      mstore\n        /* \"#utility.yul\":3857:4014   */\n      pop\n      pop\n      jump\t// out\n        /* \"#utility.yul\":4116:5291   */\n    tag_187:\n        /* \"#utility.yul\":4301:4304   */\n      0x00\n        /* \"#utility.yul\":4330:4417   */\n      tag_189\n        /* \"#utility.yul\":4411:4416   */\n      dup3\n        /* \"#utility.yul\":4330:4417   */\n      tag_190\n      jump\t// in\n    tag_189:\n        /* \"#utility.yul\":4433:4552   */\n      tag_191\n        /* \"#utility.yul\":4545:4551   */\n      dup2\n        /* \"#utility.yul\":4540:4543   */\n      dup6\n        /* \"#utility.yul\":4433:4552   */\n      tag_192\n      jump\t// in\n    tag_191:\n        /* \"#utility.yul\":4426:4552   */\n      swap4\n      pop\n        /* \"#utility.yul\":4578:4581   */\n      dup4\n        /* \"#utility.yul\":4623:4627   */\n      0x20\n        /* \"#utility.yul\":4615:4621   */\n      dup3\n        /* \"#utility.yul\":4611:4628   */\n      mul\n        /* \"#utility.yul\":4606:4609   */\n      dup6\n        /* \"#utility.yul\":4602:4629   */\n      add\n        /* \"#utility.yul\":4653:4742   */\n      tag_193\n        /* \"#utility.yul\":4736:4741   */\n      dup6\n        /* \"#utility.yul\":4653:4742   */\n      tag_194\n      jump\t// in\n    tag_193:\n        /* \"#utility.yul\":4765:4772   */\n      dup1\n        /* \"#utility.yul\":4796:4797   */\n      0x00\n        /* \"#utility.yul\":4781:5246   */\n    tag_195:\n        /* \"#utility.yul\":4806:4812   */\n      dup6\n        /* \"#utility.yul\":4803:4804   */\n      dup2\n        /* \"#utility.yul\":4800:4813   */\n      lt\n        /* \"#utility.yul\":4781:5246   */\n      iszero\n      tag_197\n      jumpi\n        /* \"#utility.yul\":4877:4886   */\n      dup5\n        /* \"#utility.yul\":4871:4875   */\n      dup5\n        /* \"#utility.yul\":4867:4887   */\n      sub\n        /* \"#utility.yul\":4862:4865   */\n      dup10\n        /* \"#utility.yul\":4855:4888   */\n      mstore\n        /* \"#utility.yul\":4928:4934   */\n      dup2\n        /* \"#utility.yul\":4922:4935   */\n      mload\n        /* \"#utility.yul\":4956:5086   */\n      tag_198\n        /* \"#utility.yul\":5081:5085   */\n      dup6\n        /* \"#utility.yul\":5066:5079   */\n      dup3\n        /* \"#utility.yul\":4956:5086   */\n      tag_171\n      jump\t// in\n    tag_198:\n        /* \"#utility.yul\":4948:5086   */\n      swap5\n      pop\n        /* \"#utility.yul\":5109:5202   */\n      tag_199\n        /* \"#utility.yul\":5195:5201   */\n      dup4\n        /* \"#utility.yul\":5109:5202   */\n      tag_200\n      jump\t// in\n    tag_199:\n        /* \"#utility.yul\":5099:5202   */\n      swap3\n      pop\n        /* \"#utility.yul\":5231:5235   */\n      0x20\n        /* \"#utility.yul\":5226:5229   */\n      dup11\n        /* \"#utility.yul\":5222:5236   */\n      add\n        /* \"#utility.yul\":5215:5236   */\n      swap10\n      pop\n        /* \"#utility.yul\":4841:5246   */\n      pop\n        /* \"#utility.yul\":4828:4829   */\n      0x01\n        /* \"#utility.yul\":4825:4826   */\n      dup2\n        /* \"#utility.yul\":4821:4830   */\n      add\n        /* \"#utility.yul\":4816:4830   */\n      swap1\n      pop\n        /* \"#utility.yul\":4781:5246   */\n      jump(tag_195)\n    tag_197:\n        /* \"#utility.yul\":4785:4799   */\n      pop\n        /* \"#utility.yul\":5262:5266   */\n      dup3\n        /* \"#utility.yul\":5255:5266   */\n      swap8\n      pop\n        /* \"#utility.yul\":5282:5285   */\n      dup8\n        /* \"#utility.yul\":5275:5285   */\n      swap6\n      pop\n        /* \"#utility.yul\":4306:5291   */\n      pop\n      pop\n      pop\n      pop\n      pop\n        /* \"#utility.yul\":4116:5291   */\n      swap3\n      swap2\n      pop\n      pop\n      jump\t// out\n        /* \"#utility.yul\":5297:5405   */\n    tag_201:\n        /* \"#utility.yul\":5374:5398   */\n      tag_203\n        /* \"#utility.yul\":5392:5397   */\n      dup2\n        /* \"#utility.yul\":5374:5398   */\n      tag_204\n      jump\t// in\n    tag_203:\n        /* \"#utility.yul\":5369:5372   */\n      dup3\n        /* \"#utility.yul\":5362:5399   */\n      mstore\n        /* \"#utility.yul\":5297:5405   */\n      pop\n      pop\n      jump\t// out\n        /* \"#utility.yul\":5411:5529   */\n    tag_205:\n        /* \"#utility.yul\":5498:5522   */\n      tag_207\n        /* \"#utility.yul\":5516:5521   */\n      dup2\n        /* \"#utility.yul\":5498:5522   */\n      tag_204\n      jump\t// in\n    tag_207:\n        /* \"#utility.yul\":5493:5496   */\n      dup3\n        /* \"#utility.yul\":5486:5523   */\n      mstore\n        /* \"#utility.yul\":5411:5529   */\n      pop\n      pop\n      jump\t// out\n        /* \"#utility.yul\":5535:5692   */\n    tag_208:\n        /* \"#utility.yul\":5640:5685   */\n      tag_210\n        /* \"#utility.yul\":5660:5684   */\n      tag_211\n        /* \"#utility.yul\":5678:5683   */\n      dup3\n        /* \"#utility.yul\":5660:5684   */\n      tag_204\n      jump\t// in\n    tag_211:\n        /* \"#utility.yul\":5640:5685   */\n      tag_212\n      jump\t// in\n    tag_210:\n        /* \"#utility.yul\":5635:5638   */\n      dup3\n        /* \"#utility.yul\":5628:5686   */\n      mstore\n        /* \"#utility.yul\":5535:5692   */\n      pop\n      pop\n      jump\t// out\n        /* \"#utility.yul\":5698:6071   */\n    tag_213:\n        /* \"#utility.yul\":5802:5805   */\n      0x00\n        /* \"#utility.yul\":5830:5868   */\n      tag_215\n        /* \"#utility.yul\":5862:5867   */\n      dup3\n        /* \"#utility.yul\":5830:5868   */\n      tag_216\n      jump\t// in\n    tag_215:\n        /* \"#utility.yul\":5884:5972   */\n      tag_217\n        /* \"#utility.yul\":5965:5971   */\n      dup2\n        /* \"#utility.yul\":5960:5963   */\n      dup6\n        /* \"#utility.yul\":5884:5972   */\n      tag_218\n      jump\t// in\n    tag_217:\n        /* \"#utility.yul\":5877:5972   */\n      swap4\n      pop\n        /* \"#utility.yul\":5981:6033   */\n      tag_219\n        /* \"#utility.yul\":6026:6032   */\n      dup2\n        /* \"#utility.yul\":6021:6024   */\n      dup6\n        /* \"#utility.yul\":6014:6018   */\n      0x20\n        /* \"#utility.yul\":6007:6012   */\n      dup7\n        /* \"#utility.yul\":6003:6019   */\n      add\n        /* \"#utility.yul\":5981:6033   */\n      tag_220\n      jump\t// in\n    tag_219:\n        /* \"#utility.yul\":6058:6064   */\n      dup1\n        /* \"#utility.yul\":6053:6056   */\n      dup5\n        /* \"#utility.yul\":6049:6065   */\n      add\n        /* \"#utility.yul\":6042:6065   */\n      swap2\n      pop\n        /* \"#utility.yul\":5806:6071   */\n      pop\n        /* \"#utility.yul\":5698:6071   */\n      swap3\n      swap2\n      pop\n      pop\n      jump\t// out\n        /* \"#utility.yul\":6101:6418   */\n    tag_221:\n        /* \"#utility.yul\":6217:6220   */\n      0x00\n        /* \"#utility.yul\":6238:6327   */\n      tag_223\n        /* \"#utility.yul\":6320:6326   */\n      dup4\n        /* \"#utility.yul\":6315:6318   */\n      dup6\n        /* \"#utility.yul\":6238:6327   */\n      tag_224\n      jump\t// in\n    tag_223:\n        /* \"#utility.yul\":6231:6327   */\n      swap4\n      pop\n        /* \"#utility.yul\":6337:6380   */\n      tag_225\n        /* \"#utility.yul\":6373:6379   */\n      dup4\n        /* \"#utility.yul\":6368:6371   */\n      dup6\n        /* \"#utility.yul\":6361:6366   */\n      dup5\n        /* \"#utility.yul\":6337:6380   */\n      tag_226\n      jump\t// in\n    tag_225:\n        /* \"#utility.yul\":6405:6411   */\n      dup3\n        /* \"#utility.yul\":6400:6403   */\n      dup5\n        /* \"#utility.yul\":6396:6412   */\n      add\n        /* \"#utility.yul\":6389:6412   */\n      swap1\n      pop\n        /* \"#utility.yul\":6101:6418   */\n      swap4\n      swap3\n      pop\n      pop\n      pop\n      jump\t// out\n        /* \"#utility.yul\":6424:6768   */\n    tag_227:\n        /* \"#utility.yul\":6502:6505   */\n      0x00\n        /* \"#utility.yul\":6530:6569   */\n      tag_229\n        /* \"#utility.yul\":6563:6568   */\n      dup3\n        /* \"#utility.yul\":6530:6569   */\n      tag_230\n      jump\t// in\n    tag_229:\n        /* \"#utility.yul\":6585:6646   */\n      tag_231\n        /* \"#utility.yul\":6639:6645   */\n      dup2\n        /* \"#utility.yul\":6634:6637   */\n      dup6\n        /* \"#utility.yul\":6585:6646   */\n      tag_232\n      jump\t// in\n    tag_231:\n        /* \"#utility.yul\":6578:6646   */\n      swap4\n      pop\n        /* \"#utility.yul\":6655:6707   */\n      tag_233\n        /* \"#utility.yul\":6700:6706   */\n      dup2\n        /* \"#utility.yul\":6695:6698   */\n      dup6\n        /* \"#utility.yul\":6688:6692   */\n      0x20\n        /* \"#utility.yul\":6681:6686   */\n      dup7\n        /* \"#utility.yul\":6677:6693   */\n      add\n        /* \"#utility.yul\":6655:6707   */\n      tag_220\n      jump\t// in\n    tag_233:\n        /* \"#utility.yul\":6732:6761   */\n      tag_234\n        /* \"#utility.yul\":6754:6760   */\n      dup2\n        /* \"#utility.yul\":6732:6761   */\n      tag_235\n      jump\t// in\n    tag_234:\n        /* \"#utility.yul\":6727:6730   */\n      dup5\n        /* \"#utility.yul\":6723:6762   */\n      add\n        /* \"#utility.yul\":6716:6762   */\n      swap2\n      pop\n        /* \"#utility.yul\":6506:6768   */\n      pop\n        /* \"#utility.yul\":6424:6768   */\n      swap3\n      swap2\n      pop\n      pop\n      jump\t// out\n        /* \"#utility.yul\":6774:7138   */\n    tag_236:\n        /* \"#utility.yul\":6862:6865   */\n      0x00\n        /* \"#utility.yul\":6890:6929   */\n      tag_238\n        /* \"#utility.yul\":6923:6928   */\n      dup3\n        /* \"#utility.yul\":6890:6929   */\n      tag_230\n      jump\t// in\n    tag_238:\n        /* \"#utility.yul\":6945:7016   */\n      tag_239\n        /* \"#utility.yul\":7009:7015   */\n      dup2\n        /* \"#utility.yul\":7004:7007   */\n      dup6\n        /* \"#utility.yul\":6945:7016   */\n      tag_240\n      jump\t// in\n    tag_239:\n        /* \"#utility.yul\":6938:7016   */\n      swap4\n      pop\n        /* \"#utility.yul\":7025:7077   */\n      tag_241\n        /* \"#utility.yul\":7070:7076   */\n      dup2\n        /* \"#utility.yul\":7065:7068   */\n      dup6\n        /* \"#utility.yul\":7058:7062   */\n      0x20\n        /* \"#utility.yul\":7051:7056   */\n      dup7\n        /* \"#utility.yul\":7047:7063   */\n      add\n        /* \"#utility.yul\":7025:7077   */\n      tag_220\n      jump\t// in\n    tag_241:\n        /* \"#utility.yul\":7102:7131   */\n      tag_242\n        /* \"#utility.yul\":7124:7130   */\n      dup2\n        /* \"#utility.yul\":7102:7131   */\n      tag_235\n      jump\t// in\n    tag_242:\n        /* \"#utility.yul\":7097:7100   */\n      dup5\n        /* \"#utility.yul\":7093:7132   */\n      add\n        /* \"#utility.yul\":7086:7132   */\n      swap2\n      pop\n        /* \"#utility.yul\":6866:7138   */\n      pop\n        /* \"#utility.yul\":6774:7138   */\n      swap3\n      swap2\n      pop\n      pop\n      jump\t// out\n        /* \"#utility.yul\":7236:8767   */\n    tag_174:\n        /* \"#utility.yul\":7361:7364   */\n      0x00\n        /* \"#utility.yul\":7397:7401   */\n      0xe0\n        /* \"#utility.yul\":7392:7395   */\n      dup4\n        /* \"#utility.yul\":7388:7402   */\n      add\n        /* \"#utility.yul\":7490:7494   */\n      0x00\n        /* \"#utility.yul\":7483:7488   */\n      dup4\n        /* \"#utility.yul\":7479:7495   */\n      add\n        /* \"#utility.yul\":7473:7496   */\n      mload\n        /* \"#utility.yul\":7509:7572   */\n      tag_244\n        /* \"#utility.yul\":7566:7570   */\n      0x00\n        /* \"#utility.yul\":7561:7564   */\n      dup7\n        /* \"#utility.yul\":7557:7571   */\n      add\n        /* \"#utility.yul\":7543:7555   */\n      dup3\n        /* \"#utility.yul\":7509:7572   */\n      tag_201\n      jump\t// in\n    tag_244:\n        /* \"#utility.yul\":7412:7582   */\n      pop\n        /* \"#utility.yul\":7669:7673   */\n      0x20\n        /* \"#utility.yul\":7662:7667   */\n      dup4\n        /* \"#utility.yul\":7658:7674   */\n      add\n        /* \"#utility.yul\":7652:7675   */\n      mload\n        /* \"#utility.yul\":7688:7751   */\n      tag_245\n        /* \"#utility.yul\":7745:7749   */\n      0x20\n        /* \"#utility.yul\":7740:7743   */\n      dup7\n        /* \"#utility.yul\":7736:7750   */\n      add\n        /* \"#utility.yul\":7722:7734   */\n      dup3\n        /* \"#utility.yul\":7688:7751   */\n      tag_175\n      jump\t// in\n    tag_245:\n        /* \"#utility.yul\":7592:7761   */\n      pop\n        /* \"#utility.yul\":7851:7855   */\n      0x40\n        /* \"#utility.yul\":7844:7849   */\n      dup4\n        /* \"#utility.yul\":7840:7856   */\n      add\n        /* \"#utility.yul\":7834:7857   */\n      mload\n        /* \"#utility.yul\":7870:7933   */\n      tag_246\n        /* \"#utility.yul\":7927:7931   */\n      0x40\n        /* \"#utility.yul\":7922:7925   */\n      dup7\n        /* \"#utility.yul\":7918:7932   */\n      add\n        /* \"#utility.yul\":7904:7916   */\n      dup3\n        /* \"#utility.yul\":7870:7933   */\n      tag_175\n      jump\t// in\n    tag_246:\n        /* \"#utility.yul\":7771:7943   */\n      pop\n        /* \"#utility.yul\":8036:8040   */\n      0x60\n        /* \"#utility.yul\":8029:8034   */\n      dup4\n        /* \"#utility.yul\":8025:8041   */\n      add\n        /* \"#utility.yul\":8019:8042   */\n      mload\n        /* \"#utility.yul\":8055:8118   */\n      tag_247\n        /* \"#utility.yul\":8112:8116   */\n      0x60\n        /* \"#utility.yul\":8107:8110   */\n      dup7\n        /* \"#utility.yul\":8103:8117   */\n      add\n        /* \"#utility.yul\":8089:8101   */\n      dup3\n        /* \"#utility.yul\":8055:8118   */\n      tag_248\n      jump\t// in\n    tag_247:\n        /* \"#utility.yul\":7953:8128   */\n      pop\n        /* \"#utility.yul\":8219:8223   */\n      0x80\n        /* \"#utility.yul\":8212:8217   */\n      dup4\n        /* \"#utility.yul\":8208:8224   */\n      add\n        /* \"#utility.yul\":8202:8225   */\n      mload\n        /* \"#utility.yul\":8238:8301   */\n      tag_249\n        /* \"#utility.yul\":8295:8299   */\n      0x80\n        /* \"#utility.yul\":8290:8293   */\n      dup7\n        /* \"#utility.yul\":8286:8300   */\n      add\n        /* \"#utility.yul\":8272:8284   */\n      dup3\n        /* \"#utility.yul\":8238:8301   */\n      tag_248\n      jump\t// in\n    tag_249:\n        /* \"#utility.yul\":8138:8311   */\n      pop\n        /* \"#utility.yul\":8396:8400   */\n      0xa0\n        /* \"#utility.yul\":8389:8394   */\n      dup4\n        /* \"#utility.yul\":8385:8401   */\n      add\n        /* \"#utility.yul\":8379:8402   */\n      mload\n        /* \"#utility.yul\":8449:8452   */\n      dup5\n        /* \"#utility.yul\":8443:8447   */\n      dup3\n        /* \"#utility.yul\":8439:8453   */\n      sub\n        /* \"#utility.yul\":8432:8436   */\n      0xa0\n        /* \"#utility.yul\":8427:8430   */\n      dup7\n        /* \"#utility.yul\":8423:8437   */\n      add\n        /* \"#utility.yul\":8416:8454   */\n      mstore\n        /* \"#utility.yul\":8475:8548   */\n      tag_250\n        /* \"#utility.yul\":8543:8547   */\n      dup3\n        /* \"#utility.yul\":8529:8541   */\n      dup3\n        /* \"#utility.yul\":8475:8548   */\n      tag_227\n      jump\t// in\n    tag_250:\n        /* \"#utility.yul\":8467:8548   */\n      swap2\n      pop\n        /* \"#utility.yul\":8321:8559   */\n      pop\n        /* \"#utility.yul\":8648:8652   */\n      0xc0\n        /* \"#utility.yul\":8641:8646   */\n      dup4\n        /* \"#utility.yul\":8637:8653   */\n      add\n        /* \"#utility.yul\":8631:8654   */\n      mload\n        /* \"#utility.yul\":8667:8730   */\n      tag_251\n        /* \"#utility.yul\":8724:8728   */\n      0xc0\n        /* \"#utility.yul\":8719:8722   */\n      dup7\n        /* \"#utility.yul\":8715:8729   */\n      add\n        /* \"#utility.yul\":8701:8713   */\n      dup3\n        /* \"#utility.yul\":8667:8730   */\n      tag_201\n      jump\t// in\n    tag_251:\n        /* \"#utility.yul\":8569:8740   */\n      pop\n        /* \"#utility.yul\":8757:8761   */\n      dup1\n        /* \"#utility.yul\":8750:8761   */\n      swap2\n      pop\n        /* \"#utility.yul\":7366:8767   */\n      pop\n        /* \"#utility.yul\":7236:8767   */\n      swap3\n      swap2\n      pop\n      pop\n      jump\t// out\n        /* \"#utility.yul\":8865:10406   */\n    tag_252:\n        /* \"#utility.yul\":9000:9003   */\n      0x00\n        /* \"#utility.yul\":9036:9040   */\n      0xe0\n        /* \"#utility.yul\":9031:9034   */\n      dup4\n        /* \"#utility.yul\":9027:9041   */\n      add\n        /* \"#utility.yul\":9129:9133   */\n      0x00\n        /* \"#utility.yul\":9122:9127   */\n      dup4\n        /* \"#utility.yul\":9118:9134   */\n      add\n        /* \"#utility.yul\":9112:9135   */\n      mload\n        /* \"#utility.yul\":9148:9211   */\n      tag_254\n        /* \"#utility.yul\":9205:9209   */\n      0x00\n        /* \"#utility.yul\":9200:9203   */\n      dup7\n        /* \"#utility.yul\":9196:9210   */\n      add\n        /* \"#utility.yul\":9182:9194   */\n      dup3\n        /* \"#utility.yul\":9148:9211   */\n      tag_201\n      jump\t// in\n    tag_254:\n        /* \"#utility.yul\":9051:9221   */\n      pop\n        /* \"#utility.yul\":9308:9312   */\n      0x20\n        /* \"#utility.yul\":9301:9306   */\n      dup4\n        /* \"#utility.yul\":9297:9313   */\n      add\n        /* \"#utility.yul\":9291:9314   */\n      mload\n        /* \"#utility.yul\":9327:9390   */\n      tag_255\n        /* \"#utility.yul\":9384:9388   */\n      0x20\n        /* \"#utility.yul\":9379:9382   */\n      dup7\n        /* \"#utility.yul\":9375:9389   */\n      add\n        /* \"#utility.yul\":9361:9373   */\n      dup3\n        /* \"#utility.yul\":9327:9390   */\n      tag_175\n      jump\t// in\n    tag_255:\n        /* \"#utility.yul\":9231:9400   */\n      pop\n        /* \"#utility.yul\":9490:9494   */\n      0x40\n        /* \"#utility.yul\":9483:9488   */\n      dup4\n        /* \"#utility.yul\":9479:9495   */\n      add\n        /* \"#utility.yul\":9473:9496   */\n      mload\n        /* \"#utility.yul\":9509:9572   */\n      tag_256\n        /* \"#utility.yul\":9566:9570   */\n      0x40\n        /* \"#utility.yul\":9561:9564   */\n      dup7\n        /* \"#utility.yul\":9557:9571   */\n      add\n        /* \"#utility.yul\":9543:9555   */\n      dup3\n        /* \"#utility.yul\":9509:9572   */\n      tag_175\n      jump\t// in\n    tag_256:\n        /* \"#utility.yul\":9410:9582   */\n      pop\n        /* \"#utility.yul\":9675:9679   */\n      0x60\n        /* \"#utility.yul\":9668:9673   */\n      dup4\n        /* \"#utility.yul\":9664:9680   */\n      add\n        /* \"#utility.yul\":9658:9681   */\n      mload\n        /* \"#utility.yul\":9694:9757   */\n      tag_257\n        /* \"#utility.yul\":9751:9755   */\n      0x60\n        /* \"#utility.yul\":9746:9749   */\n      dup7\n        /* \"#utility.yul\":9742:9756   */\n      add\n        /* \"#utility.yul\":9728:9740   */\n      dup3\n        /* \"#utility.yul\":9694:9757   */\n      tag_248\n      jump\t// in\n    tag_257:\n        /* \"#utility.yul\":9592:9767   */\n      pop\n        /* \"#utility.yul\":9858:9862   */\n      0x80\n        /* \"#utility.yul\":9851:9856   */\n      dup4\n        /* \"#utility.yul\":9847:9863   */\n      add\n        /* \"#utility.yul\":9841:9864   */\n      mload\n        /* \"#utility.yul\":9877:9940   */\n      tag_258\n        /* \"#utility.yul\":9934:9938   */\n      0x80\n        /* \"#utility.yul\":9929:9932   */\n      dup7\n        /* \"#utility.yul\":9925:9939   */\n      add\n        /* \"#utility.yul\":9911:9923   */\n      dup3\n        /* \"#utility.yul\":9877:9940   */\n      tag_248\n      jump\t// in\n    tag_258:\n        /* \"#utility.yul\":9777:9950   */\n      pop\n        /* \"#utility.yul\":10035:10039   */\n      0xa0\n        /* \"#utility.yul\":10028:10033   */\n      dup4\n        /* \"#utility.yul\":10024:10040   */\n      add\n        /* \"#utility.yul\":10018:10041   */\n      mload\n        /* \"#utility.yul\":10088:10091   */\n      dup5\n        /* \"#utility.yul\":10082:10086   */\n      dup3\n        /* \"#utility.yul\":10078:10092   */\n      sub\n        /* \"#utility.yul\":10071:10075   */\n      0xa0\n        /* \"#utility.yul\":10066:10069   */\n      dup7\n        /* \"#utility.yul\":10062:10076   */\n      add\n        /* \"#utility.yul\":10055:10093   */\n      mstore\n        /* \"#utility.yul\":10114:10187   */\n      tag_259\n        /* \"#utility.yul\":10182:10186   */\n      dup3\n        /* \"#utility.yul\":10168:10180   */\n      dup3\n        /* \"#utility.yul\":10114:10187   */\n      tag_227\n      jump\t// in\n    tag_259:\n        /* \"#utility.yul\":10106:10187   */\n      swap2\n      pop\n        /* \"#utility.yul\":9960:10198   */\n      pop\n        /* \"#utility.yul\":10287:10291   */\n      0xc0\n        /* \"#utility.yul\":10280:10285   */\n      dup4\n        /* \"#utility.yul\":10276:10292   */\n      add\n        /* \"#utility.yul\":10270:10293   */\n      mload\n        /* \"#utility.yul\":10306:10369   */\n      tag_260\n        /* \"#utility.yul\":10363:10367   */\n      0xc0\n        /* \"#utility.yul\":10358:10361   */\n      dup7\n        /* \"#utility.yul\":10354:10368   */\n      add\n        /* \"#utility.yul\":10340:10352   */\n      dup3\n        /* \"#utility.yul\":10306:10369   */\n      tag_201\n      jump\t// in\n    tag_260:\n        /* \"#utility.yul\":10208:10379   */\n      pop\n        /* \"#utility.yul\":10396:10400   */\n      dup1\n        /* \"#utility.yul\":10389:10400   */\n      swap2\n      pop\n        /* \"#utility.yul\":9005:10406   */\n      pop\n        /* \"#utility.yul\":8865:10406   */\n      swap3\n      swap2\n      pop\n      pop\n      jump\t// out\n        /* \"#utility.yul\":10412:10520   */\n    tag_248:\n        /* \"#utility.yul\":10489:10513   */\n      tag_262\n        /* \"#utility.yul\":10507:10512   */\n      dup2\n        /* \"#utility.yul\":10489:10513   */\n      tag_263\n      jump\t// in\n    tag_262:\n        /* \"#utility.yul\":10484:10487   */\n      dup3\n        /* \"#utility.yul\":10477:10514   */\n      mstore\n        /* \"#utility.yul\":10412:10520   */\n      pop\n      pop\n      jump\t// out\n        /* \"#utility.yul\":10526:10644   */\n    tag_264:\n        /* \"#utility.yul\":10613:10637   */\n      tag_266\n        /* \"#utility.yul\":10631:10636   */\n      dup2\n        /* \"#utility.yul\":10613:10637   */\n      tag_263\n      jump\t// in\n    tag_266:\n        /* \"#utility.yul\":10608:10611   */\n      dup3\n        /* \"#utility.yul\":10601:10638   */\n      mstore\n        /* \"#utility.yul\":10526:10644   */\n      pop\n      pop\n      jump\t// out\n        /* \"#utility.yul\":10650:10807   */\n    tag_267:\n        /* \"#utility.yul\":10755:10800   */\n      tag_269\n        /* \"#utility.yul\":10775:10799   */\n      tag_270\n        /* \"#utility.yul\":10793:10798   */\n      dup3\n        /* \"#utility.yul\":10775:10799   */\n      tag_263\n      jump\t// in\n    tag_270:\n        /* \"#utility.yul\":10755:10800   */\n      tag_271\n      jump\t// in\n    tag_269:\n        /* \"#utility.yul\":10750:10753   */\n      dup3\n        /* \"#utility.yul\":10743:10801   */\n      mstore\n        /* \"#utility.yul\":10650:10807   */\n      pop\n      pop\n      jump\t// out\n        /* \"#utility.yul\":10813:11672   */\n    tag_55:\n        /* \"#utility.yul\":11067:11070   */\n      0x00\n        /* \"#utility.yul\":11082:11157   */\n      tag_273\n        /* \"#utility.yul\":11153:11156   */\n      dup3\n        /* \"#utility.yul\":11144:11150   */\n      dup10\n        /* \"#utility.yul\":11082:11157   */\n      tag_182\n      jump\t// in\n    tag_273:\n        /* \"#utility.yul\":11182:11184   */\n      0x14\n        /* \"#utility.yul\":11177:11180   */\n      dup3\n        /* \"#utility.yul\":11173:11185   */\n      add\n        /* \"#utility.yul\":11166:11185   */\n      swap2\n      pop\n        /* \"#utility.yul\":11195:11270   */\n      tag_274\n        /* \"#utility.yul\":11266:11269   */\n      dup3\n        /* \"#utility.yul\":11257:11263   */\n      dup9\n        /* \"#utility.yul\":11195:11270   */\n      tag_182\n      jump\t// in\n    tag_274:\n        /* \"#utility.yul\":11295:11297   */\n      0x14\n        /* \"#utility.yul\":11290:11293   */\n      dup3\n        /* \"#utility.yul\":11286:11298   */\n      add\n        /* \"#utility.yul\":11279:11298   */\n      swap2\n      pop\n        /* \"#utility.yul\":11308:11383   */\n      tag_275\n        /* \"#utility.yul\":11379:11382   */\n      dup3\n        /* \"#utility.yul\":11370:11376   */\n      dup8\n        /* \"#utility.yul\":11308:11383   */\n      tag_267\n      jump\t// in\n    tag_275:\n        /* \"#utility.yul\":11408:11410   */\n      0x20\n        /* \"#utility.yul\":11403:11406   */\n      dup3\n        /* \"#utility.yul\":11399:11411   */\n      add\n        /* \"#utility.yul\":11392:11411   */\n      swap2\n      pop\n        /* \"#utility.yul\":11421:11496   */\n      tag_276\n        /* \"#utility.yul\":11492:11495   */\n      dup3\n        /* \"#utility.yul\":11483:11489   */\n      dup7\n        /* \"#utility.yul\":11421:11496   */\n      tag_267\n      jump\t// in\n    tag_276:\n        /* \"#utility.yul\":11521:11523   */\n      0x20\n        /* \"#utility.yul\":11516:11519   */\n      dup3\n        /* \"#utility.yul\":11512:11524   */\n      add\n        /* \"#utility.yul\":11505:11524   */\n      swap2\n      pop\n        /* \"#utility.yul\":11541:11646   */\n      tag_277\n        /* \"#utility.yul\":11642:11645   */\n      dup3\n        /* \"#utility.yul\":11633:11639   */\n      dup5\n        /* \"#utility.yul\":11625:11631   */\n      dup7\n        /* \"#utility.yul\":11541:11646   */\n      tag_221\n      jump\t// in\n    tag_277:\n        /* \"#utility.yul\":11534:11646   */\n      swap2\n      pop\n        /* \"#utility.yul\":11663:11666   */\n      dup2\n        /* \"#utility.yul\":11656:11666   */\n      swap1\n      pop\n        /* \"#utility.yul\":10813:11672   */\n      swap8\n      swap7\n      pop\n      pop\n      pop\n      pop\n      pop\n      pop\n      pop\n      jump\t// out\n        /* \"#utility.yul\":11678:12678   */\n    tag_61:\n        /* \"#utility.yul\":11960:11963   */\n      0x00\n        /* \"#utility.yul\":11975:12050   */\n      tag_279\n        /* \"#utility.yul\":12046:12049   */\n      dup3\n        /* \"#utility.yul\":12037:12043   */\n      dup11\n        /* \"#utility.yul\":11975:12050   */\n      tag_208\n      jump\t// in\n    tag_279:\n        /* \"#utility.yul\":12075:12077   */\n      0x14\n        /* \"#utility.yul\":12070:12073   */\n      dup3\n        /* \"#utility.yul\":12066:12078   */\n      add\n        /* \"#utility.yul\":12059:12078   */\n      swap2\n      pop\n        /* \"#utility.yul\":12088:12163   */\n      tag_280\n        /* \"#utility.yul\":12159:12162   */\n      dup3\n        /* \"#utility.yul\":12150:12156   */\n      dup10\n        /* \"#utility.yul\":12088:12163   */\n      tag_182\n      jump\t// in\n    tag_280:\n        /* \"#utility.yul\":12188:12190   */\n      0x14\n        /* \"#utility.yul\":12183:12186   */\n      dup3\n        /* \"#utility.yul\":12179:12191   */\n      add\n        /* \"#utility.yul\":12172:12191   */\n      swap2\n      pop\n        /* \"#utility.yul\":12201:12276   */\n      tag_281\n        /* \"#utility.yul\":12272:12275   */\n      dup3\n        /* \"#utility.yul\":12263:12269   */\n      dup9\n        /* \"#utility.yul\":12201:12276   */\n      tag_182\n      jump\t// in\n    tag_281:\n        /* \"#utility.yul\":12301:12303   */\n      0x14\n        /* \"#utility.yul\":12296:12299   */\n      dup3\n        /* \"#utility.yul\":12292:12304   */\n      add\n        /* \"#utility.yul\":12285:12304   */\n      swap2\n      pop\n        /* \"#utility.yul\":12314:12389   */\n      tag_282\n        /* \"#utility.yul\":12385:12388   */\n      dup3\n        /* \"#utility.yul\":12376:12382   */\n      dup8\n        /* \"#utility.yul\":12314:12389   */\n      tag_267\n      jump\t// in\n    tag_282:\n        /* \"#utility.yul\":12414:12416   */\n      0x20\n        /* \"#utility.yul\":12409:12412   */\n      dup3\n        /* \"#utility.yul\":12405:12417   */\n      add\n        /* \"#utility.yul\":12398:12417   */\n      swap2\n      pop\n        /* \"#utility.yul\":12427:12502   */\n      tag_283\n        /* \"#utility.yul\":12498:12501   */\n      dup3\n        /* \"#utility.yul\":12489:12495   */\n      dup7\n        /* \"#utility.yul\":12427:12502   */\n      tag_267\n      jump\t// in\n    tag_283:\n        /* \"#utility.yul\":12527:12529   */\n      0x20\n        /* \"#utility.yul\":12522:12525   */\n      dup3\n        /* \"#utility.yul\":12518:12530   */\n      add\n        /* \"#utility.yul\":12511:12530   */\n      swap2\n      pop\n        /* \"#utility.yul\":12547:12652   */\n      tag_284\n        /* \"#utility.yul\":12648:12651   */\n      dup3\n        /* \"#utility.yul\":12639:12645   */\n      dup5\n        /* \"#utility.yul\":12631:12637   */\n      dup7\n        /* \"#utility.yul\":12547:12652   */\n      tag_221\n      jump\t// in\n    tag_284:\n        /* \"#utility.yul\":12540:12652   */\n      swap2\n      pop\n        /* \"#utility.yul\":12669:12672   */\n      dup2\n        /* \"#utility.yul\":12662:12672   */\n      swap1\n      pop\n        /* \"#utility.yul\":11678:12678   */\n      swap9\n      swap8\n      pop\n      pop\n      pop\n      pop\n      pop\n      pop\n      pop\n      pop\n      jump\t// out\n        /* \"#utility.yul\":12684:12955   */\n    tag_57:\n        /* \"#utility.yul\":12814:12817   */\n      0x00\n        /* \"#utility.yul\":12836:12929   */\n      tag_286\n        /* \"#utility.yul\":12925:12928   */\n      dup3\n        /* \"#utility.yul\":12916:12922   */\n      dup5\n        /* \"#utility.yul\":12836:12929   */\n      tag_213\n      jump\t// in\n    tag_286:\n        /* \"#utility.yul\":12829:12929   */\n      swap2\n      pop\n        /* \"#utility.yul\":12946:12949   */\n      dup2\n        /* \"#utility.yul\":12939:12949   */\n      swap1\n      pop\n        /* \"#utility.yul\":12684:12955   */\n      swap3\n      swap2\n      pop\n      pop\n      jump\t// out\n        /* \"#utility.yul\":12961:13466   */\n    tag_29:\n        /* \"#utility.yul\":13170:13174   */\n      0x00\n        /* \"#utility.yul\":13208:13210   */\n      0x20\n        /* \"#utility.yul\":13197:13206   */\n      dup3\n        /* \"#utility.yul\":13193:13211   */\n      add\n        /* \"#utility.yul\":13185:13211   */\n      swap1\n      pop\n        /* \"#utility.yul\":13257:13266   */\n      dup2\n        /* \"#utility.yul\":13251:13255   */\n      dup2\n        /* \"#utility.yul\":13247:13267   */\n      sub\n        /* \"#utility.yul\":13243:13244   */\n      0x00\n        /* \"#utility.yul\":13232:13241   */\n      dup4\n        /* \"#utility.yul\":13228:13245   */\n      add\n        /* \"#utility.yul\":13221:13268   */\n      mstore\n        /* \"#utility.yul\":13285:13459   */\n      tag_288\n        /* \"#utility.yul\":13454:13458   */\n      dup2\n        /* \"#utility.yul\":13445:13451   */\n      dup5\n        /* \"#utility.yul\":13285:13459   */\n      tag_187\n      jump\t// in\n    tag_288:\n        /* \"#utility.yul\":13277:13459   */\n      swap1\n      pop\n        /* \"#utility.yul\":12961:13466   */\n      swap3\n      swap2\n      pop\n      pop\n      jump\t// out\n        /* \"#utility.yul\":13472:14449   */\n    tag_14:\n        /* \"#utility.yul\":13753:13757   */\n      0x00\n        /* \"#utility.yul\":13791:13794   */\n      0xe0\n        /* \"#utility.yul\":13780:13789   */\n      dup3\n        /* \"#utility.yul\":13776:13795   */\n      add\n        /* \"#utility.yul\":13768:13795   */\n      swap1\n      pop\n        /* \"#utility.yul\":13805:13876   */\n      tag_290\n        /* \"#utility.yul\":13873:13874   */\n      0x00\n        /* \"#utility.yul\":13862:13871   */\n      dup4\n        /* \"#utility.yul\":13858:13875   */\n      add\n        /* \"#utility.yul\":13849:13855   */\n      dup11\n        /* \"#utility.yul\":13805:13876   */\n      tag_205\n      jump\t// in\n    tag_290:\n        /* \"#utility.yul\":13886:13958   */\n      tag_291\n        /* \"#utility.yul\":13954:13956   */\n      0x20\n        /* \"#utility.yul\":13943:13952   */\n      dup4\n        /* \"#utility.yul\":13939:13957   */\n      add\n        /* \"#utility.yul\":13930:13936   */\n      dup10\n        /* \"#utility.yul\":13886:13958   */\n      tag_179\n      jump\t// in\n    tag_291:\n        /* \"#utility.yul\":13968:14040   */\n      tag_292\n        /* \"#utility.yul\":14036:14038   */\n      0x40\n        /* \"#utility.yul\":14025:14034   */\n      dup4\n        /* \"#utility.yul\":14021:14039   */\n      add\n        /* \"#utility.yul\":14012:14018   */\n      dup9\n        /* \"#utility.yul\":13968:14040   */\n      tag_179\n      jump\t// in\n    tag_292:\n        /* \"#utility.yul\":14050:14122   */\n      tag_293\n        /* \"#utility.yul\":14118:14120   */\n      0x60\n        /* \"#utility.yul\":14107:14116   */\n      dup4\n        /* \"#utility.yul\":14103:14121   */\n      add\n        /* \"#utility.yul\":14094:14100   */\n      dup8\n        /* \"#utility.yul\":14050:14122   */\n      tag_264\n      jump\t// in\n    tag_293:\n        /* \"#utility.yul\":14132:14205   */\n      tag_294\n        /* \"#utility.yul\":14200:14203   */\n      0x80\n        /* \"#utility.yul\":14189:14198   */\n      dup4\n        /* \"#utility.yul\":14185:14204   */\n      add\n        /* \"#utility.yul\":14176:14182   */\n      dup7\n        /* \"#utility.yul\":14132:14205   */\n      tag_264\n      jump\t// in\n    tag_294:\n        /* \"#utility.yul\":14253:14262   */\n      dup2\n        /* \"#utility.yul\":14247:14251   */\n      dup2\n        /* \"#utility.yul\":14243:14263   */\n      sub\n        /* \"#utility.yul\":14237:14240   */\n      0xa0\n        /* \"#utility.yul\":14226:14235   */\n      dup4\n        /* \"#utility.yul\":14222:14241   */\n      add\n        /* \"#utility.yul\":14215:14264   */\n      mstore\n        /* \"#utility.yul\":14281:14359   */\n      tag_295\n        /* \"#utility.yul\":14354:14358   */\n      dup2\n        /* \"#utility.yul\":14345:14351   */\n      dup6\n        /* \"#utility.yul\":14281:14359   */\n      tag_236\n      jump\t// in\n    tag_295:\n        /* \"#utility.yul\":14273:14359   */\n      swap1\n      pop\n        /* \"#utility.yul\":14369:14442   */\n      tag_296\n        /* \"#utility.yul\":14437:14440   */\n      0xc0\n        /* \"#utility.yul\":14426:14435   */\n      dup4\n        /* \"#utility.yul\":14422:14441   */\n      add\n        /* \"#utility.yul\":14413:14419   */\n      dup5\n        /* \"#utility.yul\":14369:14442   */\n      tag_205\n      jump\t// in\n    tag_296:\n        /* \"#utility.yul\":13472:14449   */\n      swap9\n      swap8\n      pop\n      pop\n      pop\n      pop\n      pop\n      pop\n      pop\n      pop\n      jump\t// out\n        /* \"#utility.yul\":14455:14860   */\n    tag_34:\n        /* \"#utility.yul\":14614:14618   */\n      0x00\n        /* \"#utility.yul\":14652:14654   */\n      0x20\n        /* \"#utility.yul\":14641:14650   */\n      dup3\n        /* \"#utility.yul\":14637:14655   */\n      add\n        /* \"#utility.yul\":14629:14655   */\n      swap1\n      pop\n        /* \"#utility.yul\":14701:14710   */\n      dup2\n        /* \"#utility.yul\":14695:14699   */\n      dup2\n        /* \"#utility.yul\":14691:14711   */\n      sub\n        /* \"#utility.yul\":14687:14688   */\n      0x00\n        /* \"#utility.yul\":14676:14685   */\n      dup4\n        /* \"#utility.yul\":14672:14689   */\n      add\n        /* \"#utility.yul\":14665:14712   */\n      mstore\n        /* \"#utility.yul\":14729:14853   */\n      tag_298\n        /* \"#utility.yul\":14848:14852   */\n      dup2\n        /* \"#utility.yul\":14839:14845   */\n      dup5\n        /* \"#utility.yul\":14729:14853   */\n      tag_252\n      jump\t// in\n    tag_298:\n        /* \"#utility.yul\":14721:14853   */\n      swap1\n      pop\n        /* \"#utility.yul\":14455:14860   */\n      swap3\n      swap2\n      pop\n      pop\n      jump\t// out\n        /* \"#utility.yul\":14947:15112   */\n    tag_194:\n        /* \"#utility.yul\":15047:15051   */\n      0x00\n        /* \"#utility.yul\":15070:15073   */\n      dup2\n        /* \"#utility.yul\":15062:15073   */\n      swap1\n      pop\n        /* \"#utility.yul\":15100:15104   */\n      0x20\n        /* \"#utility.yul\":15095:15098   */\n      dup3\n        /* \"#utility.yul\":15091:15105   */\n      add\n        /* \"#utility.yul\":15083:15105   */\n      swap1\n      pop\n        /* \"#utility.yul\":14947:15112   */\n      swap2\n      swap1\n      pop\n      jump\t// out\n        /* \"#utility.yul\":15118:15265   */\n    tag_190:\n        /* \"#utility.yul\":15218:15224   */\n      0x00\n        /* \"#utility.yul\":15252:15257   */\n      dup2\n        /* \"#utility.yul\":15246:15258   */\n      mload\n        /* \"#utility.yul\":15236:15258   */\n      swap1\n      pop\n        /* \"#utility.yul\":15118:15265   */\n      swap2\n      swap1\n      pop\n      jump\t// out\n        /* \"#utility.yul\":15271:15369   */\n    tag_216:\n        /* \"#utility.yul\":15322:15328   */\n      0x00\n        /* \"#utility.yul\":15356:15361   */\n      dup2\n        /* \"#utility.yul\":15350:15362   */\n      mload\n        /* \"#utility.yul\":15340:15362   */\n      swap1\n      pop\n        /* \"#utility.yul\":15271:15369   */\n      swap2\n      swap1\n      pop\n      jump\t// out\n        /* \"#utility.yul\":15375:15474   */\n    tag_230:\n        /* \"#utility.yul\":15427:15433   */\n      0x00\n        /* \"#utility.yul\":15461:15466   */\n      dup2\n        /* \"#utility.yul\":15455:15467   */\n      mload\n        /* \"#utility.yul\":15445:15467   */\n      swap1\n      pop\n        /* \"#utility.yul\":15375:15474   */\n      swap2\n      swap1\n      pop\n      jump\t// out\n        /* \"#utility.yul\":15480:15626   */\n    tag_200:\n        /* \"#utility.yul\":15583:15587   */\n      0x00\n        /* \"#utility.yul\":15615:15619   */\n      0x20\n        /* \"#utility.yul\":15610:15613   */\n      dup3\n        /* \"#utility.yul\":15606:15620   */\n      add\n        /* \"#utility.yul\":15598:15620   */\n      swap1\n      pop\n        /* \"#utility.yul\":15480:15626   */\n      swap2\n      swap1\n      pop\n      jump\t// out\n        /* \"#utility.yul\":15632:15849   */\n    tag_192:\n        /* \"#utility.yul\":15764:15775   */\n      0x00\n        /* \"#utility.yul\":15798:15804   */\n      dup3\n        /* \"#utility.yul\":15793:15796   */\n      dup3\n        /* \"#utility.yul\":15786:15805   */\n      mstore\n        /* \"#utility.yul\":15838:15842   */\n      0x20\n        /* \"#utility.yul\":15833:15836   */\n      dup3\n        /* \"#utility.yul\":15829:15843   */\n      add\n        /* \"#utility.yul\":15814:15843   */\n      swap1\n      pop\n        /* \"#utility.yul\":15632:15849   */\n      swap3\n      swap2\n      pop\n      pop\n      jump\t// out\n        /* \"#utility.yul\":15855:16002   */\n    tag_218:\n        /* \"#utility.yul\":15956:15967   */\n      0x00\n        /* \"#utility.yul\":15993:15996   */\n      dup2\n        /* \"#utility.yul\":15978:15996   */\n      swap1\n      pop\n        /* \"#utility.yul\":15855:16002   */\n      swap3\n      swap2\n      pop\n      pop\n      jump\t// out\n        /* \"#utility.yul\":16008:16167   */\n    tag_232:\n        /* \"#utility.yul\":16082:16093   */\n      0x00\n        /* \"#utility.yul\":16116:16122   */\n      dup3\n        /* \"#utility.yul\":16111:16114   */\n      dup3\n        /* \"#utility.yul\":16104:16123   */\n      mstore\n        /* \"#utility.yul\":16156:16160   */\n      0x20\n        /* \"#utility.yul\":16151:16154   */\n      dup3\n        /* \"#utility.yul\":16147:16161   */\n      add\n        /* \"#utility.yul\":16132:16161   */\n      swap1\n      pop\n        /* \"#utility.yul\":16008:16167   */\n      swap3\n      swap2\n      pop\n      pop\n      jump\t// out\n        /* \"#utility.yul\":16173:16342   */\n    tag_240:\n        /* \"#utility.yul\":16257:16268   */\n      0x00\n        /* \"#utility.yul\":16291:16297   */\n      dup3\n        /* \"#utility.yul\":16286:16289   */\n      dup3\n        /* \"#utility.yul\":16279:16298   */\n      mstore\n        /* \"#utility.yul\":16331:16335   */\n      0x20\n        /* \"#utility.yul\":16326:16329   */\n      dup3\n        /* \"#utility.yul\":16322:16336   */\n      add\n        /* \"#utility.yul\":16307:16336   */\n      swap1\n      pop\n        /* \"#utility.yul\":16173:16342   */\n      swap3\n      swap2\n      pop\n      pop\n      jump\t// out\n        /* \"#utility.yul\":16348:16496   */\n    tag_224:\n        /* \"#utility.yul\":16450:16461   */\n      0x00\n        /* \"#utility.yul\":16487:16490   */\n      dup2\n        /* \"#utility.yul\":16472:16490   */\n      swap1\n      pop\n        /* \"#utility.yul\":16348:16496   */\n      swap3\n      swap2\n      pop\n      pop\n      jump\t// out\n        /* \"#utility.yul\":16502:16598   */\n    tag_178:\n        /* \"#utility.yul\":16539:16546   */\n      0x00\n        /* \"#utility.yul\":16568:16592   */\n      tag_312\n        /* \"#utility.yul\":16586:16591   */\n      dup3\n        /* \"#utility.yul\":16568:16592   */\n      tag_313\n      jump\t// in\n    tag_312:\n        /* \"#utility.yul\":16557:16592   */\n      swap1\n      pop\n        /* \"#utility.yul\":16502:16598   */\n      swap2\n      swap1\n      pop\n      jump\t// out\n        /* \"#utility.yul\":16604:16754   */\n    tag_204:\n        /* \"#utility.yul\":16641:16648   */\n      0x00\n        /* \"#utility.yul\":16681:16747   */\n      0xffffffffffffffffffffffffffffffffffffffff000000000000000000000000\n        /* \"#utility.yul\":16674:16679   */\n      dup3\n        /* \"#utility.yul\":16670:16748   */\n      and\n        /* \"#utility.yul\":16659:16748   */\n      swap1\n      pop\n        /* \"#utility.yul\":16604:16754   */\n      swap2\n      swap1\n      pop\n      jump\t// out\n        /* \"#utility.yul\":16760:16886   */\n    tag_313:\n        /* \"#utility.yul\":16797:16804   */\n      0x00\n        /* \"#utility.yul\":16837:16879   */\n      0xffffffffffffffffffffffffffffffffffffffff\n        /* \"#utility.yul\":16830:16835   */\n      dup3\n        /* \"#utility.yul\":16826:16880   */\n      and\n        /* \"#utility.yul\":16815:16880   */\n      swap1\n      pop\n        /* \"#utility.yul\":16760:16886   */\n      swap2\n      swap1\n      pop\n      jump\t// out\n        /* \"#utility.yul\":16892:16969   */\n    tag_263:\n        /* \"#utility.yul\":16929:16936   */\n      0x00\n        /* \"#utility.yul\":16958:16963   */\n      dup2\n        /* \"#utility.yul\":16947:16963   */\n      swap1\n      pop\n        /* \"#utility.yul\":16892:16969   */\n      swap2\n      swap1\n      pop\n      jump\t// out\n        /* \"#utility.yul\":16975:17129   */\n    tag_226:\n        /* \"#utility.yul\":17059:17065   */\n      dup3\n        /* \"#utility.yul\":17054:17057   */\n      dup2\n        /* \"#utility.yul\":17049:17052   */\n      dup4\n        /* \"#utility.yul\":17036:17066   */\n      calldatacopy\n        /* \"#utility.yul\":17121:17122   */\n      0x00\n        /* \"#utility.yul\":17112:17118   */\n      dup4\n        /* \"#utility.yul\":17107:17110   */\n      dup4\n        /* \"#utility.yul\":17103:17119   */\n      add\n        /* \"#utility.yul\":17096:17123   */\n      mstore\n        /* \"#utility.yul\":16975:17129   */\n      pop\n      pop\n      pop\n      jump\t// out\n        /* \"#utility.yul\":17135:17442   */\n    tag_220:\n        /* \"#utility.yul\":17203:17204   */\n      0x00\n        /* \"#utility.yul\":17213:17326   */\n    tag_319:\n        /* \"#utility.yul\":17227:17233   */\n      dup4\n        /* \"#utility.yul\":17224:17225   */\n      dup2\n        /* \"#utility.yul\":17221:17234   */\n      lt\n        /* \"#utility.yul\":17213:17326   */\n      iszero\n      tag_321\n      jumpi\n        /* \"#utility.yul\":17312:17313   */\n      dup1\n        /* \"#utility.yul\":17307:17310   */\n      dup3\n        /* \"#utility.yul\":17303:17314   */\n      add\n        /* \"#utility.yul\":17297:17315   */\n      mload\n        /* \"#utility.yul\":17293:17294   */\n      dup2\n        /* \"#utility.yul\":17288:17291   */\n      dup5\n        /* \"#utility.yul\":17284:17295   */\n      add\n        /* \"#utility.yul\":17277:17316   */\n      mstore\n        /* \"#utility.yul\":17249:17251   */\n      0x20\n        /* \"#utility.yul\":17246:17247   */\n      dup2\n        /* \"#utility.yul\":17242:17252   */\n      add\n        /* \"#utility.yul\":17237:17252   */\n      swap1\n      pop\n        /* \"#utility.yul\":17213:17326   */\n      jump(tag_319)\n    tag_321:\n        /* \"#utility.yul\":17344:17350   */\n      dup4\n        /* \"#utility.yul\":17341:17342   */\n      dup2\n        /* \"#utility.yul\":17338:17351   */\n      gt\n        /* \"#utility.yul\":17335:17436   */\n      iszero\n      tag_322\n      jumpi\n        /* \"#utility.yul\":17424:17425   */\n      0x00\n        /* \"#utility.yul\":17415:17421   */\n      dup5\n        /* \"#utility.yul\":17410:17413   */\n      dup5\n        /* \"#utility.yul\":17406:17422   */\n      add\n        /* \"#utility.yul\":17399:17426   */\n      mstore\n        /* \"#utility.yul\":17335:17436   */\n    tag_322:\n        /* \"#utility.yul\":17184:17442   */\n      pop\n        /* \"#utility.yul\":17135:17442   */\n      pop\n      pop\n      pop\n      jump\t// out\n        /* \"#utility.yul\":17448:17768   */\n    tag_41:\n        /* \"#utility.yul\":17492:17498   */\n      0x00\n        /* \"#utility.yul\":17529:17530   */\n      0x02\n        /* \"#utility.yul\":17523:17527   */\n      dup3\n        /* \"#utility.yul\":17519:17531   */\n      div\n        /* \"#utility.yul\":17509:17531   */\n      swap1\n      pop\n        /* \"#utility.yul\":17576:17577   */\n      0x01\n        /* \"#utility.yul\":17570:17574   */\n      dup3\n        /* \"#utility.yul\":17566:17578   */\n      and\n        /* \"#utility.yul\":17597:17615   */\n      dup1\n        /* \"#utility.yul\":17587:17668   */\n      tag_324\n      jumpi\n        /* \"#utility.yul\":17653:17657   */\n      0x7f\n        /* \"#utility.yul\":17645:17651   */\n      dup3\n        /* \"#utility.yul\":17641:17658   */\n      and\n        /* \"#utility.yul\":17631:17658   */\n      swap2\n      pop\n        /* \"#utility.yul\":17587:17668   */\n    tag_324:\n        /* \"#utility.yul\":17715:17717   */\n      0x20\n        /* \"#utility.yul\":17707:17713   */\n      dup3\n        /* \"#utility.yul\":17704:17718   */\n      lt\n        /* \"#utility.yul\":17684:17702   */\n      dup2\n        /* \"#utility.yul\":17681:17719   */\n      eq\n        /* \"#utility.yul\":17678:17762   */\n      iszero\n      tag_325\n      jumpi\n        /* \"#utility.yul\":17734:17752   */\n      tag_326\n      tag_327\n      jump\t// in\n    tag_326:\n        /* \"#utility.yul\":17678:17762   */\n    tag_325:\n        /* \"#utility.yul\":17499:17768   */\n      pop\n        /* \"#utility.yul\":17448:17768   */\n      swap2\n      swap1\n      pop\n      jump\t// out\n        /* \"#utility.yul\":17774:17874   */\n    tag_186:\n        /* \"#utility.yul\":17813:17820   */\n      0x00\n        /* \"#utility.yul\":17842:17868   */\n      tag_329\n        /* \"#utility.yul\":17862:17867   */\n      dup3\n        /* \"#utility.yul\":17842:17868   */\n      tag_330\n      jump\t// in\n    tag_329:\n        /* \"#utility.yul\":17831:17868   */\n      swap1\n      pop\n        /* \"#utility.yul\":17774:17874   */\n      swap2\n      swap1\n      pop\n      jump\t// out\n        /* \"#utility.yul\":17880:17959   */\n    tag_212:\n        /* \"#utility.yul\":17919:17926   */\n      0x00\n        /* \"#utility.yul\":17948:17953   */\n      dup2\n        /* \"#utility.yul\":17937:17953   */\n      swap1\n      pop\n        /* \"#utility.yul\":17880:17959   */\n      swap2\n      swap1\n      pop\n      jump\t// out\n        /* \"#utility.yul\":17965:18059   */\n    tag_330:\n        /* \"#utility.yul\":18004:18011   */\n      0x00\n        /* \"#utility.yul\":18033:18053   */\n      tag_333\n        /* \"#utility.yul\":18047:18052   */\n      dup3\n        /* \"#utility.yul\":18033:18053   */\n      tag_334\n      jump\t// in\n    tag_333:\n        /* \"#utility.yul\":18022:18053   */\n      swap1\n      pop\n        /* \"#utility.yul\":17965:18059   */\n      swap2\n      swap1\n      pop\n      jump\t// out\n        /* \"#utility.yul\":18065:18144   */\n    tag_271:\n        /* \"#utility.yul\":18104:18111   */\n      0x00\n        /* \"#utility.yul\":18133:18138   */\n      dup2\n        /* \"#utility.yul\":18122:18138   */\n      swap1\n      pop\n        /* \"#utility.yul\":18065:18144   */\n      swap2\n      swap1\n      pop\n      jump\t// out\n        /* \"#utility.yul\":18150:18330   */\n    tag_327:\n        /* \"#utility.yul\":18198:18275   */\n      0x4e487b7100000000000000000000000000000000000000000000000000000000\n        /* \"#utility.yul\":18195:18196   */\n      0x00\n        /* \"#utility.yul\":18188:18276   */\n      mstore\n        /* \"#utility.yul\":18295:18299   */\n      0x22\n        /* \"#utility.yul\":18292:18293   */\n      0x04\n        /* \"#utility.yul\":18285:18300   */\n      mstore\n        /* \"#utility.yul\":18319:18323   */\n      0x24\n        /* \"#utility.yul\":18316:18317   */\n      0x00\n        /* \"#utility.yul\":18309:18324   */\n      revert\n        /* \"#utility.yul\":18336:18453   */\n    tag_136:\n        /* \"#utility.yul\":18445:18446   */\n      0x00\n        /* \"#utility.yul\":18442:18443   */\n      dup1\n        /* \"#utility.yul\":18435:18447   */\n      revert\n        /* \"#utility.yul\":18459:18576   */\n    tag_133:\n        /* \"#utility.yul\":18568:18569   */\n      0x00\n        /* \"#utility.yul\":18565:18566   */\n      dup1\n        /* \"#utility.yul\":18558:18570   */\n      revert\n        /* \"#utility.yul\":18582:18699   */\n    tag_139:\n        /* \"#utility.yul\":18691:18692   */\n      0x00\n        /* \"#utility.yul\":18688:18689   */\n      dup1\n        /* \"#utility.yul\":18681:18693   */\n      revert\n        /* \"#utility.yul\":18705:18822   */\n    tag_161:\n        /* \"#utility.yul\":18814:18815   */\n      0x00\n        /* \"#utility.yul\":18811:18812   */\n      dup1\n        /* \"#utility.yul\":18804:18816   */\n      revert\n        /* \"#utility.yul\":18828:18945   */\n    tag_147:\n        /* \"#utility.yul\":18937:18938   */\n      0x00\n        /* \"#utility.yul\":18934:18935   */\n      dup1\n        /* \"#utility.yul\":18927:18939   */\n      revert\n        /* \"#utility.yul\":18951:19053   */\n    tag_235:\n        /* \"#utility.yul\":18992:18998   */\n      0x00\n        /* \"#utility.yul\":19043:19045   */\n      0x1f\n        /* \"#utility.yul\":19039:19046   */\n      not\n        /* \"#utility.yul\":19034:19036   */\n      0x1f\n        /* \"#utility.yul\":19027:19032   */\n      dup4\n        /* \"#utility.yul\":19023:19037   */\n      add\n        /* \"#utility.yul\":19019:19047   */\n      and\n        /* \"#utility.yul\":19009:19047   */\n      swap1\n      pop\n        /* \"#utility.yul\":18951:19053   */\n      swap2\n      swap1\n      pop\n      jump\t// out\n        /* \"#utility.yul\":19059:19153   */\n    tag_334:\n        /* \"#utility.yul\":19092:19100   */\n      0x00\n        /* \"#utility.yul\":19140:19145   */\n      dup2\n        /* \"#utility.yul\":19136:19138   */\n      0x60\n        /* \"#utility.yul\":19132:19146   */\n      shl\n        /* \"#utility.yul\":19111:19146   */\n      swap1\n      pop\n        /* \"#utility.yul\":19059:19153   */\n      swap2\n      swap1\n      pop\n      jump\t// out\n        /* \"#utility.yul\":19159:19281   */\n    tag_124:\n        /* \"#utility.yul\":19232:19256   */\n      tag_345\n        /* \"#utility.yul\":19250:19255   */\n      dup2\n        /* \"#utility.yul\":19232:19256   */\n      tag_178\n      jump\t// in\n    tag_345:\n        /* \"#utility.yul\":19225:19230   */\n      dup2\n        /* \"#utility.yul\":19222:19257   */\n      eq\n        /* \"#utility.yul\":19212:19275   */\n      tag_346\n      jumpi\n        /* \"#utility.yul\":19271:19272   */\n      0x00\n        /* \"#utility.yul\":19268:19269   */\n      dup1\n        /* \"#utility.yul\":19261:19273   */\n      revert\n        /* \"#utility.yul\":19212:19275   */\n    tag_346:\n        /* \"#utility.yul\":19159:19281   */\n      pop\n      jump\t// out\n        /* \"#utility.yul\":19287:19409   */\n    tag_128:\n        /* \"#utility.yul\":19360:19384   */\n      tag_348\n        /* \"#utility.yul\":19378:19383   */\n      dup2\n        /* \"#utility.yul\":19360:19384   */\n      tag_204\n      jump\t// in\n    tag_348:\n        /* \"#utility.yul\":19353:19358   */\n      dup2\n        /* \"#utility.yul\":19350:19385   */\n      eq\n        /* \"#utility.yul\":19340:19403   */\n      tag_349\n      jumpi\n        /* \"#utility.yul\":19399:19400   */\n      0x00\n        /* \"#utility.yul\":19396:19397   */\n      dup1\n        /* \"#utility.yul\":19389:19401   */\n      revert\n        /* \"#utility.yul\":19340:19403   */\n    tag_349:\n        /* \"#utility.yul\":19287:19409   */\n      pop\n      jump\t// out\n        /* \"#utility.yul\":19415:19537   */\n    tag_143:\n        /* \"#utility.yul\":19488:19512   */\n      tag_351\n        /* \"#utility.yul\":19506:19511   */\n      dup2\n        /* \"#utility.yul\":19488:19512   */\n      tag_263\n      jump\t// in\n    tag_351:\n        /* \"#utility.yul\":19481:19486   */\n      dup2\n        /* \"#utility.yul\":19478:19513   */\n      eq\n        /* \"#utility.yul\":19468:19531   */\n      tag_352\n      jumpi\n        /* \"#utility.yul\":19527:19528   */\n      0x00\n        /* \"#utility.yul\":19524:19525   */\n      dup1\n        /* \"#utility.yul\":19517:19529   */\n      revert\n        /* \"#utility.yul\":19468:19531   */\n    tag_352:\n        /* \"#utility.yul\":19415:19537   */\n      pop\n      jump\t// out\n\n    auxdata: 0xa26469706673582212206ddd9fedb58ed451316b004b9468f73e558baba041a4c38ab1febf6f84fd080f64736f6c63430008070033\n}\n",
				"bytecode": {
					"linkReferences": {},
					"object": "608060405234801561001057600080fd5b50611df8806100206000396000f3fe608060405234801561001057600080fd5b50600436106100625760003560e01c80632b08a98a146100675780636f1d3e531461009d5780637d1a8825146100d357806392206f3f146100ef578063b69c90531461011f578063c08724c11461014f575b600080fd5b610081600480360381019061007c919061165e565b610185565b6040516100949796959493929190611ae4565b60405180910390f35b6100b760048036038101906100b291906115aa565b6102a9565b6040516100ca9796959493929190611ae4565b60405180910390f35b6100ed60048036038101906100e891906115ea565b6103ea565b005b6101096004803603810190610104919061157d565b610ba2565b6040516101169190611ac2565b60405180910390f35b6101396004803603810190610134919061165e565b610dfc565b6040516101469190611b5a565b60405180910390f35b6101696004803603810190610164919061168b565b6111fd565b60405161017c9796959493929190611ae4565b60405180910390f35b60016020528060005260406000206000915090508060000160009054906101000a900460601b908060010160009054906101000a900473ffffffffffffffffffffffffffffffffffffffff16908060020160009054906101000a900473ffffffffffffffffffffffffffffffffffffffff169080600301549080600401549080600501805461021390611cad565b80601f016020809104026020016040519081016040528092919081815260200182805461023f90611cad565b801561028c5780601f106102615761010080835404028352916020019161028c565b820191906000526020600020905b81548152906001019060200180831161026f57829003601f168201915b5050505050908060060160009054906101000a900460601b905087565b600260205281600052604060002081815481106102c557600080fd5b9060005260206000209060070201600091509150508060000160009054906101000a900460601b908060010160009054906101000a900473ffffffffffffffffffffffffffffffffffffffff16908060020160009054906101000a900473ffffffffffffffffffffffffffffffffffffffff169080600301549080600401549080600501805461035490611cad565b80601f016020809104026020016040519081016040528092919081815260200182805461038090611cad565b80156103cd5780601f106103a2576101008083540402835291602001916103cd565b820191906000526020600020905b8154815290600101906020018083116103b057829003601f168201915b5050505050908060060160009054906101000a900460601b905087565b6000339050600042905060006003838888858989604051602001610413969594939291906119e0565b60405160208183030381529060405260405161042f9190611aab565b602060405180830381855afa15801561044c573d6000803e3d6000fd5b5050506040515160601b90506000600382858a8a878b8b6040516020016104799796959493929190611a3d565b6040516020818303038152906040526040516104959190611aab565b602060405180830381855afa1580156104b2573d6000803e3d6000fd5b5050506040515160601b90506040518060e00160405280836bffffffffffffffffffffffff191681526020018573ffffffffffffffffffffffffffffffffffffffff1681526020018973ffffffffffffffffffffffffffffffffffffffff16815260200188815260200184815260200187878080601f016020809104026020016040519081016040528093929190818152602001838380828437600081840152601f19601f820116905080830192505050505050508152602001826bffffffffffffffffffffffff191681525060016000846bffffffffffffffffffffffff19166bffffffffffffffffffffffff1916815260200190815260200160002060008201518160000160006101000a81548173ffffffffffffffffffffffffffffffffffffffff021916908360601c021790555060208201518160010160006101000a81548173ffffffffffffffffffffffffffffffffffffffff021916908373ffffffffffffffffffffffffffffffffffffffff16021790555060408201518160020160006101000a81548173ffffffffffffffffffffffffffffffffffffffff021916908373ffffffffffffffffffffffffffffffffffffffff160217905550606082015181600301556080820151816004015560a08201518160050190805190602001906106a2929190611331565b5060c08201518160060160006101000a81548173ffffffffffffffffffffffffffffffffffffffff021916908360601c0217905550905050600260008573ffffffffffffffffffffffffffffffffffffffff1673ffffffffffffffffffffffffffffffffffffffff16815260200190815260200160002050600260008973ffffffffffffffffffffffffffffffffffffffff1673ffffffffffffffffffffffffffffffffffffffff16815260200190815260200160002050600260008573ffffffffffffffffffffffffffffffffffffffff1673ffffffffffffffffffffffffffffffffffffffff16815260200190815260200160002060016000846bffffffffffffffffffffffff19166bffffffffffffffffffffffff1916815260200190815260200160002090806001815401808255809150506001900390600052602060002090600702016000909190919091506000820160009054906101000a900460601b8160000160006101000a81548173ffffffffffffffffffffffffffffffffffffffff021916908360601c02179055506001820160009054906101000a900473ffffffffffffffffffffffffffffffffffffffff168160010160006101000a81548173ffffffffffffffffffffffffffffffffffffffff021916908373ffffffffffffffffffffffffffffffffffffffff1602179055506002820160009054906101000a900473ffffffffffffffffffffffffffffffffffffffff168160020160006101000a81548173ffffffffffffffffffffffffffffffffffffffff021916908373ffffffffffffffffffffffffffffffffffffffff1602179055506003820154816003015560048201548160040155600582018160050190805461092a90611cad565b6109359291906113b7565b506006820160009054906101000a900460601b8160060160006101000a81548173ffffffffffffffffffffffffffffffffffffffff021916908360601c02179055505050600260008973ffffffffffffffffffffffffffffffffffffffff1673ffffffffffffffffffffffffffffffffffffffff16815260200190815260200160002060016000846bffffffffffffffffffffffff19166bffffffffffffffffffffffff1916815260200190815260200160002090806001815401808255809150506001900390600052602060002090600702016000909190919091506000820160009054906101000a900460601b8160000160006101000a81548173ffffffffffffffffffffffffffffffffffffffff021916908360601c02179055506001820160009054906101000a900473ffffffffffffffffffffffffffffffffffffffff168160010160006101000a81548173ffffffffffffffffffffffffffffffffffffffff021916908373ffffffffffffffffffffffffffffffffffffffff1602179055506002820160009054906101000a900473ffffffffffffffffffffffffffffffffffffffff168160020160006101000a81548173ffffffffffffffffffffffffffffffffffffffff021916908373ffffffffffffffffffffffffffffffffffffffff16021790555060038201548160030155600482015481600401556005820181600501908054610b4990611cad565b610b549291906113b7565b506006820160009054906101000a900460601b8160060160006101000a81548173ffffffffffffffffffffffffffffffffffffffff021916908360601c021790555050505050505050505050565b6060600260008373ffffffffffffffffffffffffffffffffffffffff1673ffffffffffffffffffffffffffffffffffffffff168152602001908152602001600020805480602002602001604051908101604052809291908181526020016000905b82821015610df157838290600052602060002090600702016040518060e00160405290816000820160009054906101000a900460601b6bffffffffffffffffffffffff19166bffffffffffffffffffffffff191681526020016001820160009054906101000a900473ffffffffffffffffffffffffffffffffffffffff1673ffffffffffffffffffffffffffffffffffffffff1673ffffffffffffffffffffffffffffffffffffffff1681526020016002820160009054906101000a900473ffffffffffffffffffffffffffffffffffffffff1673ffffffffffffffffffffffffffffffffffffffff1673ffffffffffffffffffffffffffffffffffffffff1681526020016003820154815260200160048201548152602001600582018054610d2b90611cad565b80601f0160208091040260200160405190810160405280929190818152602001828054610d5790611cad565b8015610da45780601f10610d7957610100808354040283529160200191610da4565b820191906000526020600020905b815481529060010190602001808311610d8757829003601f168201915b505050505081526020016006820160009054906101000a900460601b6bffffffffffffffffffffffff19166bffffffffffffffffffffffff19168152505081526020019060010190610c03565b505050509050919050565b610e04611444565b60016000836bffffffffffffffffffffffff19166bffffffffffffffffffffffff191681526020019081526020016000206040518060e00160405290816000820160009054906101000a900460601b6bffffffffffffffffffffffff19166bffffffffffffffffffffffff191681526020016001820160009054906101000a900473ffffffffffffffffffffffffffffffffffffffff1673ffffffffffffffffffffffffffffffffffffffff1673ffffffffffffffffffffffffffffffffffffffff1681526020016002820160009054906101000a900473ffffffffffffffffffffffffffffffffffffffff1673ffffffffffffffffffffffffffffffffffffffff1673ffffffffffffffffffffffffffffffffffffffff1681526020016003820154815260200160048201548152602001600582018054610f4590611cad565b80601f0160208091040260200160405190810160405280929190818152602001828054610f7190611cad565b8015610fbe5780601f10610f9357610100808354040283529160200191610fbe565b820191906000526020600020905b815481529060010190602001808311610fa157829003601f168201915b505050505081526020016006820160009054906101000a900460601b6bffffffffffffffffffffffff19166bffffffffffffffffffffffff191681525050905060016000836bffffffffffffffffffffffff19166bffffffffffffffffffffffff191681526020019081526020016000206040518060e00160405290816000820160009054906101000a900460601b6bffffffffffffffffffffffff19166bffffffffffffffffffffffff191681526020016001820160009054906101000a900473ffffffffffffffffffffffffffffffffffffffff1673ffffffffffffffffffffffffffffffffffffffff1673ffffffffffffffffffffffffffffffffffffffff1681526020016002820160009054906101000a900473ffffffffffffffffffffffffffffffffffffffff1673ffffffffffffffffffffffffffffffffffffffff1673ffffffffffffffffffffffffffffffffffffffff168152602001600382015481526020016004820154815260200160058201805461113f90611cad565b80601f016020809104026020016040519081016040528092919081815260200182805461116b90611cad565b80156111b85780601f1061118d576101008083540402835291602001916111b8565b820191906000526020600020905b81548152906001019060200180831161119b57829003601f168201915b505050505081526020016006820160009054906101000a900460601b6bffffffffffffffffffffffff19166bffffffffffffffffffffffff1916815250509050919050565b6000818154811061120d57600080fd5b90600052602060002090600702016000915090508060000160009054906101000a900460601b908060010160009054906101000a900473ffffffffffffffffffffffffffffffffffffffff16908060020160009054906101000a900473ffffffffffffffffffffffffffffffffffffffff169080600301549080600401549080600501805461129b90611cad565b80601f01602080910402602001604051908101604052809291908181526020018280546112c790611cad565b80156113145780601f106112e957610100808354040283529160200191611314565b820191906000526020600020905b8154815290600101906020018083116112f757829003601f168201915b5050505050908060060160009054906101000a900460601b905087565b82805461133d90611cad565b90600052602060002090601f01602090048101928261135f57600085556113a6565b82601f1061137857805160ff19168380011785556113a6565b828001600101855582156113a6579182015b828111156113a557825182559160200191906001019061138a565b5b5090506113b391906114cb565b5090565b8280546113c390611cad565b90600052602060002090601f0160209004810192826113e55760008555611433565b82601f106113f65780548555611433565b8280016001018555821561143357600052602060002091601f016020900482015b82811115611432578254825591600101919060010190611417565b5b50905061144091906114cb565b5090565b6040518060e0016040528060006bffffffffffffffffffffffff19168152602001600073ffffffffffffffffffffffffffffffffffffffff168152602001600073ffffffffffffffffffffffffffffffffffffffff16815260200160008152602001600081526020016060815260200160006bffffffffffffffffffffffff191681525090565b5b808211156114e45760008160009055506001016114cc565b5090565b6000813590506114f781611d7d565b92915050565b60008135905061150c81611d94565b92915050565b60008083601f84011261152857611527611d4b565b5b8235905067ffffffffffffffff81111561154557611544611d46565b5b60208301915083600182028301111561156157611560611d50565b5b9250929050565b60008135905061157781611dab565b92915050565b60006020828403121561159357611592611d5a565b5b60006115a1848285016114e8565b91505092915050565b600080604083850312156115c1576115c0611d5a565b5b60006115cf858286016114e8565b92505060206115e085828601611568565b9150509250929050565b6000806000806060858703121561160457611603611d5a565b5b6000611612878288016114e8565b945050602061162387828801611568565b935050604085013567ffffffffffffffff81111561164457611643611d55565b5b61165087828801611512565b925092505092959194509250565b60006020828403121561167457611673611d5a565b5b6000611682848285016114fd565b91505092915050565b6000602082840312156116a1576116a0611d5a565b5b60006116af84828501611568565b91505092915050565b60006116c48383611873565b905092915050565b6116d581611c03565b82525050565b6116e481611c03565b82525050565b6116fb6116f682611c03565b611cdf565b82525050565b600061170c82611b8c565b6117168185611bba565b93508360208202850161172885611b7c565b8060005b85811015611764578484038952815161174585826116b8565b945061175083611bad565b925060208a0199505060018101905061172c565b50829750879550505050505092915050565b61177f81611c15565b82525050565b61178e81611c15565b82525050565b6117a56117a082611c15565b611cf1565b82525050565b60006117b682611b97565b6117c08185611bcb565b93506117d0818560208601611c7a565b80840191505092915050565b60006117e88385611bf8565b93506117f5838584611c6b565b82840190509392505050565b600061180c82611ba2565b6118168185611bd6565b9350611826818560208601611c7a565b61182f81611d5f565b840191505092915050565b600061184582611ba2565b61184f8185611be7565b935061185f818560208601611c7a565b61186881611d5f565b840191505092915050565b600060e08301600083015161188b6000860182611776565b50602083015161189e60208601826116cc565b5060408301516118b160408601826116cc565b5060608301516118c460608601826119ab565b5060808301516118d760808601826119ab565b5060a083015184820360a08601526118ef8282611801565b91505060c083015161190460c0860182611776565b508091505092915050565b600060e0830160008301516119276000860182611776565b50602083015161193a60208601826116cc565b50604083015161194d60408601826116cc565b50606083015161196060608601826119ab565b50608083015161197360808601826119ab565b5060a083015184820360a086015261198b8282611801565b91505060c08301516119a060c0860182611776565b508091505092915050565b6119b481611c61565b82525050565b6119c381611c61565b82525050565b6119da6119d582611c61565b611d0d565b82525050565b60006119ec82896116ea565b6014820191506119fc82886116ea565b601482019150611a0c82876119c9565b602082019150611a1c82866119c9565b602082019150611a2d8284866117dc565b9150819050979650505050505050565b6000611a49828a611794565b601482019150611a5982896116ea565b601482019150611a6982886116ea565b601482019150611a7982876119c9565b602082019150611a8982866119c9565b602082019150611a9a8284866117dc565b915081905098975050505050505050565b6000611ab782846117ab565b915081905092915050565b60006020820190508181036000830152611adc8184611701565b905092915050565b600060e082019050611af9600083018a611785565b611b0660208301896116db565b611b1360408301886116db565b611b2060608301876119ba565b611b2d60808301866119ba565b81810360a0830152611b3f818561183a565b9050611b4e60c0830184611785565b98975050505050505050565b60006020820190508181036000830152611b74818461190f565b905092915050565b6000819050602082019050919050565b600081519050919050565b600081519050919050565b600081519050919050565b6000602082019050919050565b600082825260208201905092915050565b600081905092915050565b600082825260208201905092915050565b600082825260208201905092915050565b600081905092915050565b6000611c0e82611c41565b9050919050565b60007fffffffffffffffffffffffffffffffffffffffff00000000000000000000000082169050919050565b600073ffffffffffffffffffffffffffffffffffffffff82169050919050565b6000819050919050565b82818337600083830152505050565b60005b83811015611c98578082015181840152602081019050611c7d565b83811115611ca7576000848401525b50505050565b60006002820490506001821680611cc557607f821691505b60208210811415611cd957611cd8611d17565b5b50919050565b6000611cea82611cfb565b9050919050565b6000819050919050565b6000611d0682611d70565b9050919050565b6000819050919050565b7f4e487b7100000000000000000000000000000000000000000000000000000000600052602260045260246000fd5b600080fd5b600080fd5b600080fd5b600080fd5b600080fd5b6000601f19601f8301169050919050565b60008160601b9050919050565b611d8681611c03565b8114611d9157600080fd5b50565b611d9d81611c15565b8114611da857600080fd5b50565b611db481611c61565b8114611dbf57600080fd5b5056fea26469706673582212206ddd9fedb58ed451316b004b9468f73e558baba041a4c38ab1febf6f84fd080f64736f6c63430008070033",
					"opcodes": "PUSH1 0x80 PUSH1 0x40 MSTORE CALLVALUE DUP1 ISZERO PUSH2 0x10 JUMPI PUSH1 0x0 DUP1 REVERT JUMPDEST POP PUSH2 0x1DF8 DUP1 PUSH2 0x20 PUSH1 0x0 CODECOPY PUSH1 0x0 RETURN INVALID PUSH1 0x80 PUSH1 0x40 MSTORE CALLVALUE DUP1 ISZERO PUSH2 0x10 JUMPI PUSH1 0x0 DUP1 REVERT JUMPDEST POP PUSH1 0x4 CALLDATASIZE LT PUSH2 0x62 JUMPI PUSH1 0x0 CALLDATALOAD PUSH1 0xE0 SHR DUP1 PUSH4 0x2B08A98A EQ PUSH2 0x67 JUMPI DUP1 PUSH4 0x6F1D3E53 EQ PUSH2 0x9D JUMPI DUP1 PUSH4 0x7D1A8825 EQ PUSH2 0xD3 JUMPI DUP1 PUSH4 0x92206F3F EQ PUSH2 0xEF JUMPI DUP1 PUSH4 0xB69C9053 EQ PUSH2 0x11F JUMPI DUP1 PUSH4 0xC08724C1 EQ PUSH2 0x14F JUMPI JUMPDEST PUSH1 0x0 DUP1 REVERT JUMPDEST PUSH2 0x81 PUSH1 0x4 DUP1 CALLDATASIZE SUB DUP2 ADD SWAP1 PUSH2 0x7C SWAP2 SWAP1 PUSH2 0x165E JUMP JUMPDEST PUSH2 0x185 JUMP JUMPDEST PUSH1 0x40 MLOAD PUSH2 0x94 SWAP8 SWAP7 SWAP6 SWAP5 SWAP4 SWAP3 SWAP2 SWAP1 PUSH2 0x1AE4 JUMP JUMPDEST PUSH1 0x40 MLOAD DUP1 SWAP2 SUB SWAP1 RETURN JUMPDEST PUSH2 0xB7 PUSH1 0x4 DUP1 CALLDATASIZE SUB DUP2 ADD SWAP1 PUSH2 0xB2 SWAP2 SWAP1 PUSH2 0x15AA JUMP JUMPDEST PUSH2 0x2A9 JUMP JUMPDEST PUSH1 0x40 MLOAD PUSH2 0xCA SWAP8 SWAP7 SWAP6 SWAP5 SWAP4 SWAP3 SWAP2 SWAP1 PUSH2 0x1AE4 JUMP JUMPDEST PUSH1 0x40 MLOAD DUP1 SWAP2 SUB SWAP1 RETURN JUMPDEST PUSH2 0xED PUSH1 0x4 DUP1 CALLDATASIZE SUB DUP2 ADD SWAP1 PUSH2 0xE8 SWAP2 SWAP1 PUSH2 0x15EA JUMP JUMPDEST PUSH2 0x3EA JUMP JUMPDEST STOP JUMPDEST PUSH2 0x109 PUSH1 0x4 DUP1 CALLDATASIZE SUB DUP2 ADD SWAP1 PUSH2 0x104 SWAP2 SWAP1 PUSH2 0x157D JUMP JUMPDEST PUSH2 0xBA2 JUMP JUMPDEST PUSH1 0x40 MLOAD PUSH2 0x116 SWAP2 SWAP1 PUSH2 0x1AC2 JUMP JUMPDEST PUSH1 0x40 MLOAD DUP1 SWAP2 SUB SWAP1 RETURN JUMPDEST PUSH2 0x139 PUSH1 0x4 DUP1 CALLDATASIZE SUB DUP2 ADD SWAP1 PUSH2 0x134 SWAP2 SWAP1 PUSH2 0x165E JUMP JUMPDEST PUSH2 0xDFC JUMP JUMPDEST PUSH1 0x40 MLOAD PUSH2 0x146 SWAP2 SWAP1 PUSH2 0x1B5A JUMP JUMPDEST PUSH1 0x40 MLOAD DUP1 SWAP2 SUB SWAP1 RETURN JUMPDEST PUSH2 0x169 PUSH1 0x4 DUP1 CALLDATASIZE SUB DUP2 ADD SWAP1 PUSH2 0x164 SWAP2 SWAP1 PUSH2 0x168B JUMP JUMPDEST PUSH2 0x11FD JUMP JUMPDEST PUSH1 0x40 MLOAD PUSH2 0x17C SWAP8 SWAP7 SWAP6 SWAP5 SWAP4 SWAP3 SWAP2 SWAP1 PUSH2 0x1AE4 JUMP JUMPDEST PUSH1 0x40 MLOAD DUP1 SWAP2 SUB SWAP1 RETURN JUMPDEST PUSH1 0x1 PUSH1 0x20 MSTORE DUP1 PUSH1 0x0 MSTORE PUSH1 0x40 PUSH1 0x0 KECCAK256 PUSH1 0x0 SWAP2 POP SWAP1 POP DUP1 PUSH1 0x0 ADD PUSH1 0x0 SWAP1 SLOAD SWAP1 PUSH2 0x100 EXP SWAP1 DIV PUSH1 0x60 SHL SWAP1 DUP1 PUSH1 0x1 ADD PUSH1 0x0 SWAP1 SLOAD SWAP1 PUSH2 0x100 EXP SWAP1 DIV PUSH20 0xFFFFFFFFFFFFFFFFFFFFFFFFFFFFFFFFFFFFFFFF AND SWAP1 DUP1 PUSH1 0x2 ADD PUSH1 0x0 SWAP1 SLOAD SWAP1 PUSH2 0x100 EXP SWAP1 DIV PUSH20 0xFFFFFFFFFFFFFFFFFFFFFFFFFFFFFFFFFFFFFFFF AND SWAP1 DUP1 PUSH1 0x3 ADD SLOAD SWAP1 DUP1 PUSH1 0x4 ADD SLOAD SWAP1 DUP1 PUSH1 0x5 ADD DUP1 SLOAD PUSH2 0x213 SWAP1 PUSH2 0x1CAD JUMP JUMPDEST DUP1 PUSH1 0x1F ADD PUSH1 0x20 DUP1 SWAP2 DIV MUL PUSH1 0x20 ADD PUSH1 0x40 MLOAD SWAP1 DUP2 ADD PUSH1 0x40 MSTORE DUP1 SWAP3 SWAP2 SWAP1 DUP2 DUP2 MSTORE PUSH1 0x20 ADD DUP3 DUP1 SLOAD PUSH2 0x23F SWAP1 PUSH2 0x1CAD JUMP JUMPDEST DUP1 ISZERO PUSH2 0x28C JUMPI DUP1 PUSH1 0x1F LT PUSH2 0x261 JUMPI PUSH2 0x100 DUP1 DUP4 SLOAD DIV MUL DUP4 MSTORE SWAP2 PUSH1 0x20 ADD SWAP2 PUSH2 0x28C JUMP JUMPDEST DUP3 ADD SWAP2 SWAP1 PUSH1 0x0 MSTORE PUSH1 0x20 PUSH1 0x0 KECCAK256 SWAP1 JUMPDEST DUP2 SLOAD DUP2 MSTORE SWAP1 PUSH1 0x1 ADD SWAP1 PUSH1 0x20 ADD DUP1 DUP4 GT PUSH2 0x26F JUMPI DUP3 SWAP1 SUB PUSH1 0x1F AND DUP3 ADD SWAP2 JUMPDEST POP POP POP POP POP SWAP1 DUP1 PUSH1 0x6 ADD PUSH1 0x0 SWAP1 SLOAD SWAP1 PUSH2 0x100 EXP SWAP1 DIV PUSH1 0x60 SHL SWAP1 POP DUP8 JUMP JUMPDEST PUSH1 0x2 PUSH1 0x20 MSTORE DUP2 PUSH1 0x0 MSTORE PUSH1 0x40 PUSH1 0x0 KECCAK256 DUP2 DUP2 SLOAD DUP2 LT PUSH2 0x2C5 JUMPI PUSH1 0x0 DUP1 REVERT JUMPDEST SWAP1 PUSH1 0x0 MSTORE PUSH1 0x20 PUSH1 0x0 KECCAK256 SWAP1 PUSH1 0x7 MUL ADD PUSH1 0x0 SWAP2 POP SWAP2 POP POP DUP1 PUSH1 0x0 ADD PUSH1 0x0 SWAP1 SLOAD SWAP1 PUSH2 0x100 EXP SWAP1 DIV PUSH1 0x60 SHL SWAP1 DUP1 PUSH1 0x1 ADD PUSH1 0x0 SWAP1 SLOAD SWAP1 PUSH2 0x100 EXP SWAP1 DIV PUSH20 0xFFFFFFFFFFFFFFFFFFFFFFFFFFFFFFFFFFFFFFFF AND SWAP1 DUP1 PUSH1 0x2 ADD PUSH1 0x0 SWAP1 SLOAD SWAP1 PUSH2 0x100 EXP SWAP1 DIV PUSH20 0xFFFFFFFFFFFFFFFFFFFFFFFFFFFFFFFFFFFFFFFF AND SWAP1 DUP1 PUSH1 0x3 ADD SLOAD SWAP1 DUP1 PUSH1 0x4 ADD SLOAD SWAP1 DUP1 PUSH1 0x5 ADD DUP1 SLOAD PUSH2 0x354 SWAP1 PUSH2 0x1CAD JUMP JUMPDEST DUP1 PUSH1 0x1F ADD PUSH1 0x20 DUP1 SWAP2 DIV MUL PUSH1 0x20 ADD PUSH1 0x40 MLOAD SWAP1 DUP2 ADD PUSH1 0x40 MSTORE DUP1 SWAP3 SWAP2 SWAP1 DUP2 DUP2 MSTORE PUSH1 0x20 ADD DUP3 DUP1 SLOAD PUSH2 0x380 SWAP1 PUSH2 0x1CAD JUMP JUMPDEST DUP1 ISZERO PUSH2 0x3CD JUMPI DUP1 PUSH1 0x1F LT PUSH2 0x3A2 JUMPI PUSH2 0x100 DUP1 DUP4 SLOAD DIV MUL DUP4 MSTORE SWAP2 PUSH1 0x20 ADD SWAP2 PUSH2 0x3CD JUMP JUMPDEST DUP3 ADD SWAP2 SWAP1 PUSH1 0x0 MSTORE PUSH1 0x20 PUSH1 0x0 KECCAK256 SWAP1 JUMPDEST DUP2 SLOAD DUP2 MSTORE SWAP1 PUSH1 0x1 ADD SWAP1 PUSH1 0x20 ADD DUP1 DUP4 GT PUSH2 0x3B0 JUMPI DUP3 SWAP1 SUB PUSH1 0x1F AND DUP3 ADD SWAP2 JUMPDEST POP POP POP POP POP SWAP1 DUP1 PUSH1 0x6 ADD PUSH1 0x0 SWAP1 SLOAD SWAP1 PUSH2 0x100 EXP SWAP1 DIV PUSH1 0x60 SHL SWAP1 POP DUP8 JUMP JUMPDEST PUSH1 0x0 CALLER SWAP1 POP PUSH1 0x0 TIMESTAMP SWAP1 POP PUSH1 0x0 PUSH1 0x3 DUP4 DUP9 DUP9 DUP6 DUP10 DUP10 PUSH1 0x40 MLOAD PUSH1 0x20 ADD PUSH2 0x413 SWAP7 SWAP6 SWAP5 SWAP4 SWAP3 SWAP2 SWAP1 PUSH2 0x19E0 JUMP JUMPDEST PUSH1 0x40 MLOAD PUSH1 0x20 DUP2 DUP4 SUB SUB DUP2 MSTORE SWAP1 PUSH1 0x40 MSTORE PUSH1 0x40 MLOAD PUSH2 0x42F SWAP2 SWAP1 PUSH2 0x1AAB JUMP JUMPDEST PUSH1 0x20 PUSH1 0x40 MLOAD DUP1 DUP4 SUB DUP2 DUP6 GAS STATICCALL ISZERO DUP1 ISZERO PUSH2 0x44C JUMPI RETURNDATASIZE PUSH1 0x0 DUP1 RETURNDATACOPY RETURNDATASIZE PUSH1 0x0 REVERT JUMPDEST POP POP POP PUSH1 0x40 MLOAD MLOAD PUSH1 0x60 SHL SWAP1 POP PUSH1 0x0 PUSH1 0x3 DUP3 DUP6 DUP11 DUP11 DUP8 DUP12 DUP12 PUSH1 0x40 MLOAD PUSH1 0x20 ADD PUSH2 0x479 SWAP8 SWAP7 SWAP6 SWAP5 SWAP4 SWAP3 SWAP2 SWAP1 PUSH2 0x1A3D JUMP JUMPDEST PUSH1 0x40 MLOAD PUSH1 0x20 DUP2 DUP4 SUB SUB DUP2 MSTORE SWAP1 PUSH1 0x40 MSTORE PUSH1 0x40 MLOAD PUSH2 0x495 SWAP2 SWAP1 PUSH2 0x1AAB JUMP JUMPDEST PUSH1 0x20 PUSH1 0x40 MLOAD DUP1 DUP4 SUB DUP2 DUP6 GAS STATICCALL ISZERO DUP1 ISZERO PUSH2 0x4B2 JUMPI RETURNDATASIZE PUSH1 0x0 DUP1 RETURNDATACOPY RETURNDATASIZE PUSH1 0x0 REVERT JUMPDEST POP POP POP PUSH1 0x40 MLOAD MLOAD PUSH1 0x60 SHL SWAP1 POP PUSH1 0x40 MLOAD DUP1 PUSH1 0xE0 ADD PUSH1 0x40 MSTORE DUP1 DUP4 PUSH12 0xFFFFFFFFFFFFFFFFFFFFFFFF NOT AND DUP2 MSTORE PUSH1 0x20 ADD DUP6 PUSH20 0xFFFFFFFFFFFFFFFFFFFFFFFFFFFFFFFFFFFFFFFF AND DUP2 MSTORE PUSH1 0x20 ADD DUP10 PUSH20 0xFFFFFFFFFFFFFFFFFFFFFFFFFFFFFFFFFFFFFFFF AND DUP2 MSTORE PUSH1 0x20 ADD DUP9 DUP2 MSTORE PUSH1 0x20 ADD DUP5 DUP2 MSTORE PUSH1 0x20 ADD DUP8 DUP8 DUP1 DUP1 PUSH1 0x1F ADD PUSH1 0x20 DUP1 SWAP2 DIV MUL PUSH1 0x20 ADD PUSH1 0x40 MLOAD SWAP1 DUP2 ADD PUSH1 0x40 MSTORE DUP1 SWAP4 SWAP3 SWAP2 SWAP1 DUP2 DUP2 MSTORE PUSH1 0x20 ADD DUP4 DUP4 DUP1 DUP3 DUP5 CALLDATACOPY PUSH1 0x0 DUP2 DUP5 ADD MSTORE PUSH1 0x1F NOT PUSH1 0x1F DUP3 ADD AND SWAP1 POP DUP1 DUP4 ADD SWAP3 POP POP POP POP POP POP POP DUP2 MSTORE PUSH1 0x20 ADD DUP3 PUSH12 0xFFFFFFFFFFFFFFFFFFFFFFFF NOT AND DUP2 MSTORE POP PUSH1 0x1 PUSH1 0x0 DUP5 PUSH12 0xFFFFFFFFFFFFFFFFFFFFFFFF NOT AND PUSH12 0xFFFFFFFFFFFFFFFFFFFFFFFF NOT AND DUP2 MSTORE PUSH1 0x20 ADD SWAP1 DUP2 MSTORE PUSH1 0x20 ADD PUSH1 0x0 KECCAK256 PUSH1 0x0 DUP3 ADD MLOAD DUP2 PUSH1 0x0 ADD PUSH1 0x0 PUSH2 0x100 EXP DUP2 SLOAD DUP2 PUSH20 0xFFFFFFFFFFFFFFFFFFFFFFFFFFFFFFFFFFFFFFFF MUL NOT AND SWAP1 DUP4 PUSH1 0x60 SHR MUL OR SWAP1 SSTORE POP PUSH1 0x20 DUP3 ADD MLOAD DUP2 PUSH1 0x1 ADD PUSH1 0x0 PUSH2 0x100 EXP DUP2 SLOAD DUP2 PUSH20 0xFFFFFFFFFFFFFFFFFFFFFFFFFFFFFFFFFFFFFFFF MUL NOT AND SWAP1 DUP4 PUSH20 0xFFFFFFFFFFFFFFFFFFFFFFFFFFFFFFFFFFFFFFFF AND MUL OR SWAP1 SSTORE POP PUSH1 0x40 DUP3 ADD MLOAD DUP2 PUSH1 0x2 ADD PUSH1 0x0 PUSH2 0x100 EXP DUP2 SLOAD DUP2 PUSH20 0xFFFFFFFFFFFFFFFFFFFFFFFFFFFFFFFFFFFFFFFF MUL NOT AND SWAP1 DUP4 PUSH20 0xFFFFFFFFFFFFFFFFFFFFFFFFFFFFFFFFFFFFFFFF AND MUL OR SWAP1 SSTORE POP PUSH1 0x60 DUP3 ADD MLOAD DUP2 PUSH1 0x3 ADD SSTORE PUSH1 0x80 DUP3 ADD MLOAD DUP2 PUSH1 0x4 ADD SSTORE PUSH1 0xA0 DUP3 ADD MLOAD DUP2 PUSH1 0x5 ADD SWAP1 DUP1 MLOAD SWAP1 PUSH1 0x20 ADD SWAP1 PUSH2 0x6A2 SWAP3 SWAP2 SWAP1 PUSH2 0x1331 JUMP JUMPDEST POP PUSH1 0xC0 DUP3 ADD MLOAD DUP2 PUSH1 0x6 ADD PUSH1 0x0 PUSH2 0x100 EXP DUP2 SLOAD DUP2 PUSH20 0xFFFFFFFFFFFFFFFFFFFFFFFFFFFFFFFFFFFFFFFF MUL NOT AND SWAP1 DUP4 PUSH1 0x60 SHR MUL OR SWAP1 SSTORE POP SWAP1 POP POP PUSH1 0x2 PUSH1 0x0 DUP6 PUSH20 0xFFFFFFFFFFFFFFFFFFFFFFFFFFFFFFFFFFFFFFFF AND PUSH20 0xFFFFFFFFFFFFFFFFFFFFFFFFFFFFFFFFFFFFFFFF AND DUP2 MSTORE PUSH1 0x20 ADD SWAP1 DUP2 MSTORE PUSH1 0x20 ADD PUSH1 0x0 KECCAK256 POP PUSH1 0x2 PUSH1 0x0 DUP10 PUSH20 0xFFFFFFFFFFFFFFFFFFFFFFFFFFFFFFFFFFFFFFFF AND PUSH20 0xFFFFFFFFFFFFFFFFFFFFFFFFFFFFFFFFFFFFFFFF AND DUP2 MSTORE PUSH1 0x20 ADD SWAP1 DUP2 MSTORE PUSH1 0x20 ADD PUSH1 0x0 KECCAK256 POP PUSH1 0x2 PUSH1 0x0 DUP6 PUSH20 0xFFFFFFFFFFFFFFFFFFFFFFFFFFFFFFFFFFFFFFFF AND PUSH20 0xFFFFFFFFFFFFFFFFFFFFFFFFFFFFFFFFFFFFFFFF AND DUP2 MSTORE PUSH1 0x20 ADD SWAP1 DUP2 MSTORE PUSH1 0x20 ADD PUSH1 0x0 KECCAK256 PUSH1 0x1 PUSH1 0x0 DUP5 PUSH12 0xFFFFFFFFFFFFFFFFFFFFFFFF NOT AND PUSH12 0xFFFFFFFFFFFFFFFFFFFFFFFF NOT AND DUP2 MSTORE PUSH1 0x20 ADD SWAP1 DUP2 MSTORE PUSH1 0x20 ADD PUSH1 0x0 KECCAK256 SWAP1 DUP1 PUSH1 0x1 DUP2 SLOAD ADD DUP1 DUP3 SSTORE DUP1 SWAP2 POP POP PUSH1 0x1 SWAP1 SUB SWAP1 PUSH1 0x0 MSTORE PUSH1 0x20 PUSH1 0x0 KECCAK256 SWAP1 PUSH1 0x7 MUL ADD PUSH1 0x0 SWAP1 SWAP2 SWAP1 SWAP2 SWAP1 SWAP2 POP PUSH1 0x0 DUP3 ADD PUSH1 0x0 SWAP1 SLOAD SWAP1 PUSH2 0x100 EXP SWAP1 DIV PUSH1 0x60 SHL DUP2 PUSH1 0x0 ADD PUSH1 0x0 PUSH2 0x100 EXP DUP2 SLOAD DUP2 PUSH20 0xFFFFFFFFFFFFFFFFFFFFFFFFFFFFFFFFFFFFFFFF MUL NOT AND SWAP1 DUP4 PUSH1 0x60 SHR MUL OR SWAP1 SSTORE POP PUSH1 0x1 DUP3 ADD PUSH1 0x0 SWAP1 SLOAD SWAP1 PUSH2 0x100 EXP SWAP1 DIV PUSH20 0xFFFFFFFFFFFFFFFFFFFFFFFFFFFFFFFFFFFFFFFF AND DUP2 PUSH1 0x1 ADD PUSH1 0x0 PUSH2 0x100 EXP DUP2 SLOAD DUP2 PUSH20 0xFFFFFFFFFFFFFFFFFFFFFFFFFFFFFFFFFFFFFFFF MUL NOT AND SWAP1 DUP4 PUSH20 0xFFFFFFFFFFFFFFFFFFFFFFFFFFFFFFFFFFFFFFFF AND MUL OR SWAP1 SSTORE POP PUSH1 0x2 DUP3 ADD PUSH1 0x0 SWAP1 SLOAD SWAP1 PUSH2 0x100 EXP SWAP1 DIV PUSH20 0xFFFFFFFFFFFFFFFFFFFFFFFFFFFFFFFFFFFFFFFF AND DUP2 PUSH1 0x2 ADD PUSH1 0x0 PUSH2 0x100 EXP DUP2 SLOAD DUP2 PUSH20 0xFFFFFFFFFFFFFFFFFFFFFFFFFFFFFFFFFFFFFFFF MUL NOT AND SWAP1 DUP4 PUSH20 0xFFFFFFFFFFFFFFFFFFFFFFFFFFFFFFFFFFFFFFFF AND MUL OR SWAP1 SSTORE POP PUSH1 0x3 DUP3 ADD SLOAD DUP2 PUSH1 0x3 ADD SSTORE PUSH1 0x4 DUP3 ADD SLOAD DUP2 PUSH1 0x4 ADD SSTORE PUSH1 0x5 DUP3 ADD DUP2 PUSH1 0x5 ADD SWAP1 DUP1 SLOAD PUSH2 0x92A SWAP1 PUSH2 0x1CAD JUMP JUMPDEST PUSH2 0x935 SWAP3 SWAP2 SWAP1 PUSH2 0x13B7 JUMP JUMPDEST POP PUSH1 0x6 DUP3 ADD PUSH1 0x0 SWAP1 SLOAD SWAP1 PUSH2 0x100 EXP SWAP1 DIV PUSH1 0x60 SHL DUP2 PUSH1 0x6 ADD PUSH1 0x0 PUSH2 0x100 EXP DUP2 SLOAD DUP2 PUSH20 0xFFFFFFFFFFFFFFFFFFFFFFFFFFFFFFFFFFFFFFFF MUL NOT AND SWAP1 DUP4 PUSH1 0x60 SHR MUL OR SWAP1 SSTORE POP POP POP PUSH1 0x2 PUSH1 0x0 DUP10 PUSH20 0xFFFFFFFFFFFFFFFFFFFFFFFFFFFFFFFFFFFFFFFF AND PUSH20 0xFFFFFFFFFFFFFFFFFFFFFFFFFFFFFFFFFFFFFFFF AND DUP2 MSTORE PUSH1 0x20 ADD SWAP1 DUP2 MSTORE PUSH1 0x20 ADD PUSH1 0x0 KECCAK256 PUSH1 0x1 PUSH1 0x0 DUP5 PUSH12 0xFFFFFFFFFFFFFFFFFFFFFFFF NOT AND PUSH12 0xFFFFFFFFFFFFFFFFFFFFFFFF NOT AND DUP2 MSTORE PUSH1 0x20 ADD SWAP1 DUP2 MSTORE PUSH1 0x20 ADD PUSH1 0x0 KECCAK256 SWAP1 DUP1 PUSH1 0x1 DUP2 SLOAD ADD DUP1 DUP3 SSTORE DUP1 SWAP2 POP POP PUSH1 0x1 SWAP1 SUB SWAP1 PUSH1 0x0 MSTORE PUSH1 0x20 PUSH1 0x0 KECCAK256 SWAP1 PUSH1 0x7 MUL ADD PUSH1 0x0 SWAP1 SWAP2 SWAP1 SWAP2 SWAP1 SWAP2 POP PUSH1 0x0 DUP3 ADD PUSH1 0x0 SWAP1 SLOAD SWAP1 PUSH2 0x100 EXP SWAP1 DIV PUSH1 0x60 SHL DUP2 PUSH1 0x0 ADD PUSH1 0x0 PUSH2 0x100 EXP DUP2 SLOAD DUP2 PUSH20 0xFFFFFFFFFFFFFFFFFFFFFFFFFFFFFFFFFFFFFFFF MUL NOT AND SWAP1 DUP4 PUSH1 0x60 SHR MUL OR SWAP1 SSTORE POP PUSH1 0x1 DUP3 ADD PUSH1 0x0 SWAP1 SLOAD SWAP1 PUSH2 0x100 EXP SWAP1 DIV PUSH20 0xFFFFFFFFFFFFFFFFFFFFFFFFFFFFFFFFFFFFFFFF AND DUP2 PUSH1 0x1 ADD PUSH1 0x0 PUSH2 0x100 EXP DUP2 SLOAD DUP2 PUSH20 0xFFFFFFFFFFFFFFFFFFFFFFFFFFFFFFFFFFFFFFFF MUL NOT AND SWAP1 DUP4 PUSH20 0xFFFFFFFFFFFFFFFFFFFFFFFFFFFFFFFFFFFFFFFF AND MUL OR SWAP1 SSTORE POP PUSH1 0x2 DUP3 ADD PUSH1 0x0 SWAP1 SLOAD SWAP1 PUSH2 0x100 EXP SWAP1 DIV PUSH20 0xFFFFFFFFFFFFFFFFFFFFFFFFFFFFFFFFFFFFFFFF AND DUP2 PUSH1 0x2 ADD PUSH1 0x0 PUSH2 0x100 EXP DUP2 SLOAD DUP2 PUSH20 0xFFFFFFFFFFFFFFFFFFFFFFFFFFFFFFFFFFFFFFFF MUL NOT AND SWAP1 DUP4 PUSH20 0xFFFFFFFFFFFFFFFFFFFFFFFFFFFFFFFFFFFFFFFF AND MUL OR SWAP1 SSTORE POP PUSH1 0x3 DUP3 ADD SLOAD DUP2 PUSH1 0x3 ADD SSTORE PUSH1 0x4 DUP3 ADD SLOAD DUP2 PUSH1 0x4 ADD SSTORE PUSH1 0x5 DUP3 ADD DUP2 PUSH1 0x5 ADD SWAP1 DUP1 SLOAD PUSH2 0xB49 SWAP1 PUSH2 0x1CAD JUMP JUMPDEST PUSH2 0xB54 SWAP3 SWAP2 SWAP1 PUSH2 0x13B7 JUMP JUMPDEST POP PUSH1 0x6 DUP3 ADD PUSH1 0x0 SWAP1 SLOAD SWAP1 PUSH2 0x100 EXP SWAP1 DIV PUSH1 0x60 SHL DUP2 PUSH1 0x6 ADD PUSH1 0x0 PUSH2 0x100 EXP DUP2 SLOAD DUP2 PUSH20 0xFFFFFFFFFFFFFFFFFFFFFFFFFFFFFFFFFFFFFFFF MUL NOT AND SWAP1 DUP4 PUSH1 0x60 SHR MUL OR SWAP1 SSTORE POP POP POP POP POP POP POP POP POP POP POP JUMP JUMPDEST PUSH1 0x60 PUSH1 0x2 PUSH1 0x0 DUP4 PUSH20 0xFFFFFFFFFFFFFFFFFFFFFFFFFFFFFFFFFFFFFFFF AND PUSH20 0xFFFFFFFFFFFFFFFFFFFFFFFFFFFFFFFFFFFFFFFF AND DUP2 MSTORE PUSH1 0x20 ADD SWAP1 DUP2 MSTORE PUSH1 0x20 ADD PUSH1 0x0 KECCAK256 DUP1 SLOAD DUP1 PUSH1 0x20 MUL PUSH1 0x20 ADD PUSH1 0x40 MLOAD SWAP1 DUP2 ADD PUSH1 0x40 MSTORE DUP1 SWAP3 SWAP2 SWAP1 DUP2 DUP2 MSTORE PUSH1 0x20 ADD PUSH1 0x0 SWAP1 JUMPDEST DUP3 DUP3 LT ISZERO PUSH2 0xDF1 JUMPI DUP4 DUP3 SWAP1 PUSH1 0x0 MSTORE PUSH1 0x20 PUSH1 0x0 KECCAK256 SWAP1 PUSH1 0x7 MUL ADD PUSH1 0x40 MLOAD DUP1 PUSH1 0xE0 ADD PUSH1 0x40 MSTORE SWAP1 DUP2 PUSH1 0x0 DUP3 ADD PUSH1 0x0 SWAP1 SLOAD SWAP1 PUSH2 0x100 EXP SWAP1 DIV PUSH1 0x60 SHL PUSH12 0xFFFFFFFFFFFFFFFFFFFFFFFF NOT AND PUSH12 0xFFFFFFFFFFFFFFFFFFFFFFFF NOT AND DUP2 MSTORE PUSH1 0x20 ADD PUSH1 0x1 DUP3 ADD PUSH1 0x0 SWAP1 SLOAD SWAP1 PUSH2 0x100 EXP SWAP1 DIV PUSH20 0xFFFFFFFFFFFFFFFFFFFFFFFFFFFFFFFFFFFFFFFF AND PUSH20 0xFFFFFFFFFFFFFFFFFFFFFFFFFFFFFFFFFFFFFFFF AND PUSH20 0xFFFFFFFFFFFFFFFFFFFFFFFFFFFFFFFFFFFFFFFF AND DUP2 MSTORE PUSH1 0x20 ADD PUSH1 0x2 DUP3 ADD PUSH1 0x0 SWAP1 SLOAD SWAP1 PUSH2 0x100 EXP SWAP1 DIV PUSH20 0xFFFFFFFFFFFFFFFFFFFFFFFFFFFFFFFFFFFFFFFF AND PUSH20 0xFFFFFFFFFFFFFFFFFFFFFFFFFFFFFFFFFFFFFFFF AND PUSH20 0xFFFFFFFFFFFFFFFFFFFFFFFFFFFFFFFFFFFFFFFF AND DUP2 MSTORE PUSH1 0x20 ADD PUSH1 0x3 DUP3 ADD SLOAD DUP2 MSTORE PUSH1 0x20 ADD PUSH1 0x4 DUP3 ADD SLOAD DUP2 MSTORE PUSH1 0x20 ADD PUSH1 0x5 DUP3 ADD DUP1 SLOAD PUSH2 0xD2B SWAP1 PUSH2 0x1CAD JUMP JUMPDEST DUP1 PUSH1 0x1F ADD PUSH1 0x20 DUP1 SWAP2 DIV MUL PUSH1 0x20 ADD PUSH1 0x40 MLOAD SWAP1 DUP2 ADD PUSH1 0x40 MSTORE DUP1 SWAP3 SWAP2 SWAP1 DUP2 DUP2 MSTORE PUSH1 0x20 ADD DUP3 DUP1 SLOAD PUSH2 0xD57 SWAP1 PUSH2 0x1CAD JUMP JUMPDEST DUP1 ISZERO PUSH2 0xDA4 JUMPI DUP1 PUSH1 0x1F LT PUSH2 0xD79 JUMPI PUSH2 0x100 DUP1 DUP4 SLOAD DIV MUL DUP4 MSTORE SWAP2 PUSH1 0x20 ADD SWAP2 PUSH2 0xDA4 JUMP JUMPDEST DUP3 ADD SWAP2 SWAP1 PUSH1 0x0 MSTORE PUSH1 0x20 PUSH1 0x0 KECCAK256 SWAP1 JUMPDEST DUP2 SLOAD DUP2 MSTORE SWAP1 PUSH1 0x1 ADD SWAP1 PUSH1 0x20 ADD DUP1 DUP4 GT PUSH2 0xD87 JUMPI DUP3 SWAP1 SUB PUSH1 0x1F AND DUP3 ADD SWAP2 JUMPDEST POP POP POP POP POP DUP2 MSTORE PUSH1 0x20 ADD PUSH1 0x6 DUP3 ADD PUSH1 0x0 SWAP1 SLOAD SWAP1 PUSH2 0x100 EXP SWAP1 DIV PUSH1 0x60 SHL PUSH12 0xFFFFFFFFFFFFFFFFFFFFFFFF NOT AND PUSH12 0xFFFFFFFFFFFFFFFFFFFFFFFF NOT AND DUP2 MSTORE POP POP DUP2 MSTORE PUSH1 0x20 ADD SWAP1 PUSH1 0x1 ADD SWAP1 PUSH2 0xC03 JUMP JUMPDEST POP POP POP POP SWAP1 POP SWAP2 SWAP1 POP JUMP JUMPDEST PUSH2 0xE04 PUSH2 0x1444 JUMP JUMPDEST PUSH1 0x1 PUSH1 0x0 DUP4 PUSH12 0xFFFFFFFFFFFFFFFFFFFFFFFF NOT AND PUSH12 0xFFFFFFFFFFFFFFFFFFFFFFFF NOT AND DUP2 MSTORE PUSH1 0x20 ADD SWAP1 DUP2 MSTORE PUSH1 0x20 ADD PUSH1 0x0 KECCAK256 PUSH1 0x40 MLOAD DUP1 PUSH1 0xE0 ADD PUSH1 0x40 MSTORE SWAP1 DUP2 PUSH1 0x0 DUP3 ADD PUSH1 0x0 SWAP1 SLOAD SWAP1 PUSH2 0x100 EXP SWAP1 DIV PUSH1 0x60 SHL PUSH12 0xFFFFFFFFFFFFFFFFFFFFFFFF NOT AND PUSH12 0xFFFFFFFFFFFFFFFFFFFFFFFF NOT AND DUP2 MSTORE PUSH1 0x20 ADD PUSH1 0x1 DUP3 ADD PUSH1 0x0 SWAP1 SLOAD SWAP1 PUSH2 0x100 EXP SWAP1 DIV PUSH20 0xFFFFFFFFFFFFFFFFFFFFFFFFFFFFFFFFFFFFFFFF AND PUSH20 0xFFFFFFFFFFFFFFFFFFFFFFFFFFFFFFFFFFFFFFFF AND PUSH20 0xFFFFFFFFFFFFFFFFFFFFFFFFFFFFFFFFFFFFFFFF AND DUP2 MSTORE PUSH1 0x20 ADD PUSH1 0x2 DUP3 ADD PUSH1 0x0 SWAP1 SLOAD SWAP1 PUSH2 0x100 EXP SWAP1 DIV PUSH20 0xFFFFFFFFFFFFFFFFFFFFFFFFFFFFFFFFFFFFFFFF AND PUSH20 0xFFFFFFFFFFFFFFFFFFFFFFFFFFFFFFFFFFFFFFFF AND PUSH20 0xFFFFFFFFFFFFFFFFFFFFFFFFFFFFFFFFFFFFFFFF AND DUP2 MSTORE PUSH1 0x20 ADD PUSH1 0x3 DUP3 ADD SLOAD DUP2 MSTORE PUSH1 0x20 ADD PUSH1 0x4 DUP3 ADD SLOAD DUP2 MSTORE PUSH1 0x20 ADD PUSH1 0x5 DUP3 ADD DUP1 SLOAD PUSH2 0xF45 SWAP1 PUSH2 0x1CAD JUMP JUMPDEST DUP1 PUSH1 0x1F ADD PUSH1 0x20 DUP1 SWAP2 DIV MUL PUSH1 0x20 ADD PUSH1 0x40 MLOAD SWAP1 DUP2 ADD PUSH1 0x40 MSTORE DUP1 SWAP3 SWAP2 SWAP1 DUP2 DUP2 MSTORE PUSH1 0x20 ADD DUP3 DUP1 SLOAD PUSH2 0xF71 SWAP1 PUSH2 0x1CAD JUMP JUMPDEST DUP1 ISZERO PUSH2 0xFBE JUMPI DUP1 PUSH1 0x1F LT PUSH2 0xF93 JUMPI PUSH2 0x100 DUP1 DUP4 SLOAD DIV MUL DUP4 MSTORE SWAP2 PUSH1 0x20 ADD SWAP2 PUSH2 0xFBE JUMP JUMPDEST DUP3 ADD SWAP2 SWAP1 PUSH1 0x0 MSTORE PUSH1 0x20 PUSH1 0x0 KECCAK256 SWAP1 JUMPDEST DUP2 SLOAD DUP2 MSTORE SWAP1 PUSH1 0x1 ADD SWAP1 PUSH1 0x20 ADD DUP1 DUP4 GT PUSH2 0xFA1 JUMPI DUP3 SWAP1 SUB PUSH1 0x1F AND DUP3 ADD SWAP2 JUMPDEST POP POP POP POP POP DUP2 MSTORE PUSH1 0x20 ADD PUSH1 0x6 DUP3 ADD PUSH1 0x0 SWAP1 SLOAD SWAP1 PUSH2 0x100 EXP SWAP1 DIV PUSH1 0x60 SHL PUSH12 0xFFFFFFFFFFFFFFFFFFFFFFFF NOT AND PUSH12 0xFFFFFFFFFFFFFFFFFFFFFFFF NOT AND DUP2 MSTORE POP POP SWAP1 POP PUSH1 0x1 PUSH1 0x0 DUP4 PUSH12 0xFFFFFFFFFFFFFFFFFFFFFFFF NOT AND PUSH12 0xFFFFFFFFFFFFFFFFFFFFFFFF NOT AND DUP2 MSTORE PUSH1 0x20 ADD SWAP1 DUP2 MSTORE PUSH1 0x20 ADD PUSH1 0x0 KECCAK256 PUSH1 0x40 MLOAD DUP1 PUSH1 0xE0 ADD PUSH1 0x40 MSTORE SWAP1 DUP2 PUSH1 0x0 DUP3 ADD PUSH1 0x0 SWAP1 SLOAD SWAP1 PUSH2 0x100 EXP SWAP1 DIV PUSH1 0x60 SHL PUSH12 0xFFFFFFFFFFFFFFFFFFFFFFFF NOT AND PUSH12 0xFFFFFFFFFFFFFFFFFFFFFFFF NOT AND DUP2 MSTORE PUSH1 0x20 ADD PUSH1 0x1 DUP3 ADD PUSH1 0x0 SWAP1 SLOAD SWAP1 PUSH2 0x100 EXP SWAP1 DIV PUSH20 0xFFFFFFFFFFFFFFFFFFFFFFFFFFFFFFFFFFFFFFFF AND PUSH20 0xFFFFFFFFFFFFFFFFFFFFFFFFFFFFFFFFFFFFFFFF AND PUSH20 0xFFFFFFFFFFFFFFFFFFFFFFFFFFFFFFFFFFFFFFFF AND DUP2 MSTORE PUSH1 0x20 ADD PUSH1 0x2 DUP3 ADD PUSH1 0x0 SWAP1 SLOAD SWAP1 PUSH2 0x100 EXP SWAP1 DIV PUSH20 0xFFFFFFFFFFFFFFFFFFFFFFFFFFFFFFFFFFFFFFFF AND PUSH20 0xFFFFFFFFFFFFFFFFFFFFFFFFFFFFFFFFFFFFFFFF AND PUSH20 0xFFFFFFFFFFFFFFFFFFFFFFFFFFFFFFFFFFFFFFFF AND DUP2 MSTORE PUSH1 0x20 ADD PUSH1 0x3 DUP3 ADD SLOAD DUP2 MSTORE PUSH1 0x20 ADD PUSH1 0x4 DUP3 ADD SLOAD DUP2 MSTORE PUSH1 0x20 ADD PUSH1 0x5 DUP3 ADD DUP1 SLOAD PUSH2 0x113F SWAP1 PUSH2 0x1CAD JUMP JUMPDEST DUP1 PUSH1 0x1F ADD PUSH1 0x20 DUP1 SWAP2 DIV MUL PUSH1 0x20 ADD PUSH1 0x40 MLOAD SWAP1 DUP2 ADD PUSH1 0x40 MSTORE DUP1 SWAP3 SWAP2 SWAP1 DUP2 DUP2 MSTORE PUSH1 0x20 ADD DUP3 DUP1 SLOAD PUSH2 0x116B SWAP1 PUSH2 0x1CAD JUMP JUMPDEST DUP1 ISZERO PUSH2 0x11B8 JUMPI DUP1 PUSH1 0x1F LT PUSH2 0x118D JUMPI PUSH2 0x100 DUP1 DUP4 SLOAD DIV MUL DUP4 MSTORE SWAP2 PUSH1 0x20 ADD SWAP2 PUSH2 0x11B8 JUMP JUMPDEST DUP3 ADD SWAP2 SWAP1 PUSH1 0x0 MSTORE PUSH1 0x20 PUSH1 0x0 KECCAK256 SWAP1 JUMPDEST DUP2 SLOAD DUP2 MSTORE SWAP1 PUSH1 0x1 ADD SWAP1 PUSH1 0x20 ADD DUP1 DUP4 GT PUSH2 0x119B JUMPI DUP3 SWAP1 SUB PUSH1 0x1F AND DUP3 ADD SWAP2 JUMPDEST POP POP POP POP POP DUP2 MSTORE PUSH1 0x20 ADD PUSH1 0x6 DUP3 ADD PUSH1 0x0 SWAP1 SLOAD SWAP1 PUSH2 0x100 EXP SWAP1 DIV PUSH1 0x60 SHL PUSH12 0xFFFFFFFFFFFFFFFFFFFFFFFF NOT AND PUSH12 0xFFFFFFFFFFFFFFFFFFFFFFFF NOT AND DUP2 MSTORE POP POP SWAP1 POP SWAP2 SWAP1 POP JUMP JUMPDEST PUSH1 0x0 DUP2 DUP2 SLOAD DUP2 LT PUSH2 0x120D JUMPI PUSH1 0x0 DUP1 REVERT JUMPDEST SWAP1 PUSH1 0x0 MSTORE PUSH1 0x20 PUSH1 0x0 KECCAK256 SWAP1 PUSH1 0x7 MUL ADD PUSH1 0x0 SWAP2 POP SWAP1 POP DUP1 PUSH1 0x0 ADD PUSH1 0x0 SWAP1 SLOAD SWAP1 PUSH2 0x100 EXP SWAP1 DIV PUSH1 0x60 SHL SWAP1 DUP1 PUSH1 0x1 ADD PUSH1 0x0 SWAP1 SLOAD SWAP1 PUSH2 0x100 EXP SWAP1 DIV PUSH20 0xFFFFFFFFFFFFFFFFFFFFFFFFFFFFFFFFFFFFFFFF AND SWAP1 DUP1 PUSH1 0x2 ADD PUSH1 0x0 SWAP1 SLOAD SWAP1 PUSH2 0x100 EXP SWAP1 DIV PUSH20 0xFFFFFFFFFFFFFFFFFFFFFFFFFFFFFFFFFFFFFFFF AND SWAP1 DUP1 PUSH1 0x3 ADD SLOAD SWAP1 DUP1 PUSH1 0x4 ADD SLOAD SWAP1 DUP1 PUSH1 0x5 ADD DUP1 SLOAD PUSH2 0x129B SWAP1 PUSH2 0x1CAD JUMP JUMPDEST DUP1 PUSH1 0x1F ADD PUSH1 0x20 DUP1 SWAP2 DIV MUL PUSH1 0x20 ADD PUSH1 0x40 MLOAD SWAP1 DUP2 ADD PUSH1 0x40 MSTORE DUP1 SWAP3 SWAP2 SWAP1 DUP2 DUP2 MSTORE PUSH1 0x20 ADD DUP3 DUP1 SLOAD PUSH2 0x12C7 SWAP1 PUSH2 0x1CAD JUMP JUMPDEST DUP1 ISZERO PUSH2 0x1314 JUMPI DUP1 PUSH1 0x1F LT PUSH2 0x12E9 JUMPI PUSH2 0x100 DUP1 DUP4 SLOAD DIV MUL DUP4 MSTORE SWAP2 PUSH1 0x20 ADD SWAP2 PUSH2 0x1314 JUMP JUMPDEST DUP3 ADD SWAP2 SWAP1 PUSH1 0x0 MSTORE PUSH1 0x20 PUSH1 0x0 KECCAK256 SWAP1 JUMPDEST DUP2 SLOAD DUP2 MSTORE SWAP1 PUSH1 0x1 ADD SWAP1 PUSH1 0x20 ADD DUP1 DUP4 GT PUSH2 0x12F7 JUMPI DUP3 SWAP1 SUB PUSH1 0x1F AND DUP3 ADD SWAP2 JUMPDEST POP POP POP POP POP SWAP1 DUP1 PUSH1 0x6 ADD PUSH1 0x0 SWAP1 SLOAD SWAP1 PUSH2 0x100 EXP SWAP1 DIV PUSH1 0x60 SHL SWAP1 POP DUP8 JUMP JUMPDEST DUP3 DUP1 SLOAD PUSH2 0x133D SWAP1 PUSH2 0x1CAD JUMP JUMPDEST SWAP1 PUSH1 0x0 MSTORE PUSH1 0x20 PUSH1 0x0 KECCAK256 SWAP1 PUSH1 0x1F ADD PUSH1 0x20 SWAP1 DIV DUP2 ADD SWAP3 DUP3 PUSH2 0x135F JUMPI PUSH1 0x0 DUP6 SSTORE PUSH2 0x13A6 JUMP JUMPDEST DUP3 PUSH1 0x1F LT PUSH2 0x1378 JUMPI DUP1 MLOAD PUSH1 0xFF NOT AND DUP4 DUP1 ADD OR DUP6 SSTORE PUSH2 0x13A6 JUMP JUMPDEST DUP3 DUP1 ADD PUSH1 0x1 ADD DUP6 SSTORE DUP3 ISZERO PUSH2 0x13A6 JUMPI SWAP2 DUP3 ADD JUMPDEST DUP3 DUP2 GT ISZERO PUSH2 0x13A5 JUMPI DUP3 MLOAD DUP3 SSTORE SWAP2 PUSH1 0x20 ADD SWAP2 SWAP1 PUSH1 0x1 ADD SWAP1 PUSH2 0x138A JUMP JUMPDEST JUMPDEST POP SWAP1 POP PUSH2 0x13B3 SWAP2 SWAP1 PUSH2 0x14CB JUMP JUMPDEST POP SWAP1 JUMP JUMPDEST DUP3 DUP1 SLOAD PUSH2 0x13C3 SWAP1 PUSH2 0x1CAD JUMP JUMPDEST SWAP1 PUSH1 0x0 MSTORE PUSH1 0x20 PUSH1 0x0 KECCAK256 SWAP1 PUSH1 0x1F ADD PUSH1 0x20 SWAP1 DIV DUP2 ADD SWAP3 DUP3 PUSH2 0x13E5 JUMPI PUSH1 0x0 DUP6 SSTORE PUSH2 0x1433 JUMP JUMPDEST DUP3 PUSH1 0x1F LT PUSH2 0x13F6 JUMPI DUP1 SLOAD DUP6 SSTORE PUSH2 0x1433 JUMP JUMPDEST DUP3 DUP1 ADD PUSH1 0x1 ADD DUP6 SSTORE DUP3 ISZERO PUSH2 0x1433 JUMPI PUSH1 0x0 MSTORE PUSH1 0x20 PUSH1 0x0 KECCAK256 SWAP2 PUSH1 0x1F ADD PUSH1 0x20 SWAP1 DIV DUP3 ADD JUMPDEST DUP3 DUP2 GT ISZERO PUSH2 0x1432 JUMPI DUP3 SLOAD DUP3 SSTORE SWAP2 PUSH1 0x1 ADD SWAP2 SWAP1 PUSH1 0x1 ADD SWAP1 PUSH2 0x1417 JUMP JUMPDEST JUMPDEST POP SWAP1 POP PUSH2 0x1440 SWAP2 SWAP1 PUSH2 0x14CB JUMP JUMPDEST POP SWAP1 JUMP JUMPDEST PUSH1 0x40 MLOAD DUP1 PUSH1 0xE0 ADD PUSH1 0x40 MSTORE DUP1 PUSH1 0x0 PUSH12 0xFFFFFFFFFFFFFFFFFFFFFFFF NOT AND DUP2 MSTORE PUSH1 0x20 ADD PUSH1 0x0 PUSH20 0xFFFFFFFFFFFFFFFFFFFFFFFFFFFFFFFFFFFFFFFF AND DUP2 MSTORE PUSH1 0x20 ADD PUSH1 0x0 PUSH20 0xFFFFFFFFFFFFFFFFFFFFFFFFFFFFFFFFFFFFFFFF AND DUP2 MSTORE PUSH1 0x20 ADD PUSH1 0x0 DUP2 MSTORE PUSH1 0x20 ADD PUSH1 0x0 DUP2 MSTORE PUSH1 0x20 ADD PUSH1 0x60 DUP2 MSTORE PUSH1 0x20 ADD PUSH1 0x0 PUSH12 0xFFFFFFFFFFFFFFFFFFFFFFFF NOT AND DUP2 MSTORE POP SWAP1 JUMP JUMPDEST JUMPDEST DUP1 DUP3 GT ISZERO PUSH2 0x14E4 JUMPI PUSH1 0x0 DUP2 PUSH1 0x0 SWAP1 SSTORE POP PUSH1 0x1 ADD PUSH2 0x14CC JUMP JUMPDEST POP SWAP1 JUMP JUMPDEST PUSH1 0x0 DUP2 CALLDATALOAD SWAP1 POP PUSH2 0x14F7 DUP2 PUSH2 0x1D7D JUMP JUMPDEST SWAP3 SWAP2 POP POP JUMP JUMPDEST PUSH1 0x0 DUP2 CALLDATALOAD SWAP1 POP PUSH2 0x150C DUP2 PUSH2 0x1D94 JUMP JUMPDEST SWAP3 SWAP2 POP POP JUMP JUMPDEST PUSH1 0x0 DUP1 DUP4 PUSH1 0x1F DUP5 ADD SLT PUSH2 0x1528 JUMPI PUSH2 0x1527 PUSH2 0x1D4B JUMP JUMPDEST JUMPDEST DUP3 CALLDATALOAD SWAP1 POP PUSH8 0xFFFFFFFFFFFFFFFF DUP2 GT ISZERO PUSH2 0x1545 JUMPI PUSH2 0x1544 PUSH2 0x1D46 JUMP JUMPDEST JUMPDEST PUSH1 0x20 DUP4 ADD SWAP2 POP DUP4 PUSH1 0x1 DUP3 MUL DUP4 ADD GT ISZERO PUSH2 0x1561 JUMPI PUSH2 0x1560 PUSH2 0x1D50 JUMP JUMPDEST JUMPDEST SWAP3 POP SWAP3 SWAP1 POP JUMP JUMPDEST PUSH1 0x0 DUP2 CALLDATALOAD SWAP1 POP PUSH2 0x1577 DUP2 PUSH2 0x1DAB JUMP JUMPDEST SWAP3 SWAP2 POP POP JUMP JUMPDEST PUSH1 0x0 PUSH1 0x20 DUP3 DUP5 SUB SLT ISZERO PUSH2 0x1593 JUMPI PUSH2 0x1592 PUSH2 0x1D5A JUMP JUMPDEST JUMPDEST PUSH1 0x0 PUSH2 0x15A1 DUP5 DUP3 DUP6 ADD PUSH2 0x14E8 JUMP JUMPDEST SWAP2 POP POP SWAP3 SWAP2 POP POP JUMP JUMPDEST PUSH1 0x0 DUP1 PUSH1 0x40 DUP4 DUP6 SUB SLT ISZERO PUSH2 0x15C1 JUMPI PUSH2 0x15C0 PUSH2 0x1D5A JUMP JUMPDEST JUMPDEST PUSH1 0x0 PUSH2 0x15CF DUP6 DUP3 DUP7 ADD PUSH2 0x14E8 JUMP JUMPDEST SWAP3 POP POP PUSH1 0x20 PUSH2 0x15E0 DUP6 DUP3 DUP7 ADD PUSH2 0x1568 JUMP JUMPDEST SWAP2 POP POP SWAP3 POP SWAP3 SWAP1 POP JUMP JUMPDEST PUSH1 0x0 DUP1 PUSH1 0x0 DUP1 PUSH1 0x60 DUP6 DUP8 SUB SLT ISZERO PUSH2 0x1604 JUMPI PUSH2 0x1603 PUSH2 0x1D5A JUMP JUMPDEST JUMPDEST PUSH1 0x0 PUSH2 0x1612 DUP8 DUP3 DUP9 ADD PUSH2 0x14E8 JUMP JUMPDEST SWAP5 POP POP PUSH1 0x20 PUSH2 0x1623 DUP8 DUP3 DUP9 ADD PUSH2 0x1568 JUMP JUMPDEST SWAP4 POP POP PUSH1 0x40 DUP6 ADD CALLDATALOAD PUSH8 0xFFFFFFFFFFFFFFFF DUP2 GT ISZERO PUSH2 0x1644 JUMPI PUSH2 0x1643 PUSH2 0x1D55 JUMP JUMPDEST JUMPDEST PUSH2 0x1650 DUP8 DUP3 DUP9 ADD PUSH2 0x1512 JUMP JUMPDEST SWAP3 POP SWAP3 POP POP SWAP3 SWAP6 SWAP2 SWAP5 POP SWAP3 POP JUMP JUMPDEST PUSH1 0x0 PUSH1 0x20 DUP3 DUP5 SUB SLT ISZERO PUSH2 0x1674 JUMPI PUSH2 0x1673 PUSH2 0x1D5A JUMP JUMPDEST JUMPDEST PUSH1 0x0 PUSH2 0x1682 DUP5 DUP3 DUP6 ADD PUSH2 0x14FD JUMP JUMPDEST SWAP2 POP POP SWAP3 SWAP2 POP POP JUMP JUMPDEST PUSH1 0x0 PUSH1 0x20 DUP3 DUP5 SUB SLT ISZERO PUSH2 0x16A1 JUMPI PUSH2 0x16A0 PUSH2 0x1D5A JUMP JUMPDEST JUMPDEST PUSH1 0x0 PUSH2 0x16AF DUP5 DUP3 DUP6 ADD PUSH2 0x1568 JUMP JUMPDEST SWAP2 POP POP SWAP3 SWAP2 POP POP JUMP JUMPDEST PUSH1 0x0 PUSH2 0x16C4 DUP4 DUP4 PUSH2 0x1873 JUMP JUMPDEST SWAP1 POP SWAP3 SWAP2 POP POP JUMP JUMPDEST PUSH2 0x16D5 DUP2 PUSH2 0x1C03 JUMP JUMPDEST DUP3 MSTORE POP POP JUMP JUMPDEST PUSH2 0x16E4 DUP2 PUSH2 0x1C03 JUMP JUMPDEST DUP3 MSTORE POP POP JUMP JUMPDEST PUSH2 0x16FB PUSH2 0x16F6 DUP3 PUSH2 0x1C03 JUMP JUMPDEST PUSH2 0x1CDF JUMP JUMPDEST DUP3 MSTORE POP POP JUMP JUMPDEST PUSH1 0x0 PUSH2 0x170C DUP3 PUSH2 0x1B8C JUMP JUMPDEST PUSH2 0x1716 DUP2 DUP6 PUSH2 0x1BBA JUMP JUMPDEST SWAP4 POP DUP4 PUSH1 0x20 DUP3 MUL DUP6 ADD PUSH2 0x1728 DUP6 PUSH2 0x1B7C JUMP JUMPDEST DUP1 PUSH1 0x0 JUMPDEST DUP6 DUP2 LT ISZERO PUSH2 0x1764 JUMPI DUP5 DUP5 SUB DUP10 MSTORE DUP2 MLOAD PUSH2 0x1745 DUP6 DUP3 PUSH2 0x16B8 JUMP JUMPDEST SWAP5 POP PUSH2 0x1750 DUP4 PUSH2 0x1BAD JUMP JUMPDEST SWAP3 POP PUSH1 0x20 DUP11 ADD SWAP10 POP POP PUSH1 0x1 DUP2 ADD SWAP1 POP PUSH2 0x172C JUMP JUMPDEST POP DUP3 SWAP8 POP DUP8 SWAP6 POP POP POP POP POP POP SWAP3 SWAP2 POP POP JUMP JUMPDEST PUSH2 0x177F DUP2 PUSH2 0x1C15 JUMP JUMPDEST DUP3 MSTORE POP POP JUMP JUMPDEST PUSH2 0x178E DUP2 PUSH2 0x1C15 JUMP JUMPDEST DUP3 MSTORE POP POP JUMP JUMPDEST PUSH2 0x17A5 PUSH2 0x17A0 DUP3 PUSH2 0x1C15 JUMP JUMPDEST PUSH2 0x1CF1 JUMP JUMPDEST DUP3 MSTORE POP POP JUMP JUMPDEST PUSH1 0x0 PUSH2 0x17B6 DUP3 PUSH2 0x1B97 JUMP JUMPDEST PUSH2 0x17C0 DUP2 DUP6 PUSH2 0x1BCB JUMP JUMPDEST SWAP4 POP PUSH2 0x17D0 DUP2 DUP6 PUSH1 0x20 DUP7 ADD PUSH2 0x1C7A JUMP JUMPDEST DUP1 DUP5 ADD SWAP2 POP POP SWAP3 SWAP2 POP POP JUMP JUMPDEST PUSH1 0x0 PUSH2 0x17E8 DUP4 DUP6 PUSH2 0x1BF8 JUMP JUMPDEST SWAP4 POP PUSH2 0x17F5 DUP4 DUP6 DUP5 PUSH2 0x1C6B JUMP JUMPDEST DUP3 DUP5 ADD SWAP1 POP SWAP4 SWAP3 POP POP POP JUMP JUMPDEST PUSH1 0x0 PUSH2 0x180C DUP3 PUSH2 0x1BA2 JUMP JUMPDEST PUSH2 0x1816 DUP2 DUP6 PUSH2 0x1BD6 JUMP JUMPDEST SWAP4 POP PUSH2 0x1826 DUP2 DUP6 PUSH1 0x20 DUP7 ADD PUSH2 0x1C7A JUMP JUMPDEST PUSH2 0x182F DUP2 PUSH2 0x1D5F JUMP JUMPDEST DUP5 ADD SWAP2 POP POP SWAP3 SWAP2 POP POP JUMP JUMPDEST PUSH1 0x0 PUSH2 0x1845 DUP3 PUSH2 0x1BA2 JUMP JUMPDEST PUSH2 0x184F DUP2 DUP6 PUSH2 0x1BE7 JUMP JUMPDEST SWAP4 POP PUSH2 0x185F DUP2 DUP6 PUSH1 0x20 DUP7 ADD PUSH2 0x1C7A JUMP JUMPDEST PUSH2 0x1868 DUP2 PUSH2 0x1D5F JUMP JUMPDEST DUP5 ADD SWAP2 POP POP SWAP3 SWAP2 POP POP JUMP JUMPDEST PUSH1 0x0 PUSH1 0xE0 DUP4 ADD PUSH1 0x0 DUP4 ADD MLOAD PUSH2 0x188B PUSH1 0x0 DUP7 ADD DUP3 PUSH2 0x1776 JUMP JUMPDEST POP PUSH1 0x20 DUP4 ADD MLOAD PUSH2 0x189E PUSH1 0x20 DUP7 ADD DUP3 PUSH2 0x16CC JUMP JUMPDEST POP PUSH1 0x40 DUP4 ADD MLOAD PUSH2 0x18B1 PUSH1 0x40 DUP7 ADD DUP3 PUSH2 0x16CC JUMP JUMPDEST POP PUSH1 0x60 DUP4 ADD MLOAD PUSH2 0x18C4 PUSH1 0x60 DUP7 ADD DUP3 PUSH2 0x19AB JUMP JUMPDEST POP PUSH1 0x80 DUP4 ADD MLOAD PUSH2 0x18D7 PUSH1 0x80 DUP7 ADD DUP3 PUSH2 0x19AB JUMP JUMPDEST POP PUSH1 0xA0 DUP4 ADD MLOAD DUP5 DUP3 SUB PUSH1 0xA0 DUP7 ADD MSTORE PUSH2 0x18EF DUP3 DUP3 PUSH2 0x1801 JUMP JUMPDEST SWAP2 POP POP PUSH1 0xC0 DUP4 ADD MLOAD PUSH2 0x1904 PUSH1 0xC0 DUP7 ADD DUP3 PUSH2 0x1776 JUMP JUMPDEST POP DUP1 SWAP2 POP POP SWAP3 SWAP2 POP POP JUMP JUMPDEST PUSH1 0x0 PUSH1 0xE0 DUP4 ADD PUSH1 0x0 DUP4 ADD MLOAD PUSH2 0x1927 PUSH1 0x0 DUP7 ADD DUP3 PUSH2 0x1776 JUMP JUMPDEST POP PUSH1 0x20 DUP4 ADD MLOAD PUSH2 0x193A PUSH1 0x20 DUP7 ADD DUP3 PUSH2 0x16CC JUMP JUMPDEST POP PUSH1 0x40 DUP4 ADD MLOAD PUSH2 0x194D PUSH1 0x40 DUP7 ADD DUP3 PUSH2 0x16CC JUMP JUMPDEST POP PUSH1 0x60 DUP4 ADD MLOAD PUSH2 0x1960 PUSH1 0x60 DUP7 ADD DUP3 PUSH2 0x19AB JUMP JUMPDEST POP PUSH1 0x80 DUP4 ADD MLOAD PUSH2 0x1973 PUSH1 0x80 DUP7 ADD DUP3 PUSH2 0x19AB JUMP JUMPDEST POP PUSH1 0xA0 DUP4 ADD MLOAD DUP5 DUP3 SUB PUSH1 0xA0 DUP7 ADD MSTORE PUSH2 0x198B DUP3 DUP3 PUSH2 0x1801 JUMP JUMPDEST SWAP2 POP POP PUSH1 0xC0 DUP4 ADD MLOAD PUSH2 0x19A0 PUSH1 0xC0 DUP7 ADD DUP3 PUSH2 0x1776 JUMP JUMPDEST POP DUP1 SWAP2 POP POP SWAP3 SWAP2 POP POP JUMP JUMPDEST PUSH2 0x19B4 DUP2 PUSH2 0x1C61 JUMP JUMPDEST DUP3 MSTORE POP POP JUMP JUMPDEST PUSH2 0x19C3 DUP2 PUSH2 0x1C61 JUMP JUMPDEST DUP3 MSTORE POP POP JUMP JUMPDEST PUSH2 0x19DA PUSH2 0x19D5 DUP3 PUSH2 0x1C61 JUMP JUMPDEST PUSH2 0x1D0D JUMP JUMPDEST DUP3 MSTORE POP POP JUMP JUMPDEST PUSH1 0x0 PUSH2 0x19EC DUP3 DUP10 PUSH2 0x16EA JUMP JUMPDEST PUSH1 0x14 DUP3 ADD SWAP2 POP PUSH2 0x19FC DUP3 DUP9 PUSH2 0x16EA JUMP JUMPDEST PUSH1 0x14 DUP3 ADD SWAP2 POP PUSH2 0x1A0C DUP3 DUP8 PUSH2 0x19C9 JUMP JUMPDEST PUSH1 0x20 DUP3 ADD SWAP2 POP PUSH2 0x1A1C DUP3 DUP7 PUSH2 0x19C9 JUMP JUMPDEST PUSH1 0x20 DUP3 ADD SWAP2 POP PUSH2 0x1A2D DUP3 DUP5 DUP7 PUSH2 0x17DC JUMP JUMPDEST SWAP2 POP DUP2 SWAP1 POP SWAP8 SWAP7 POP POP POP POP POP POP POP JUMP JUMPDEST PUSH1 0x0 PUSH2 0x1A49 DUP3 DUP11 PUSH2 0x1794 JUMP JUMPDEST PUSH1 0x14 DUP3 ADD SWAP2 POP PUSH2 0x1A59 DUP3 DUP10 PUSH2 0x16EA JUMP JUMPDEST PUSH1 0x14 DUP3 ADD SWAP2 POP PUSH2 0x1A69 DUP3 DUP9 PUSH2 0x16EA JUMP JUMPDEST PUSH1 0x14 DUP3 ADD SWAP2 POP PUSH2 0x1A79 DUP3 DUP8 PUSH2 0x19C9 JUMP JUMPDEST PUSH1 0x20 DUP3 ADD SWAP2 POP PUSH2 0x1A89 DUP3 DUP7 PUSH2 0x19C9 JUMP JUMPDEST PUSH1 0x20 DUP3 ADD SWAP2 POP PUSH2 0x1A9A DUP3 DUP5 DUP7 PUSH2 0x17DC JUMP JUMPDEST SWAP2 POP DUP2 SWAP1 POP SWAP9 SWAP8 POP POP POP POP POP POP POP POP JUMP JUMPDEST PUSH1 0x0 PUSH2 0x1AB7 DUP3 DUP5 PUSH2 0x17AB JUMP JUMPDEST SWAP2 POP DUP2 SWAP1 POP SWAP3 SWAP2 POP POP JUMP JUMPDEST PUSH1 0x0 PUSH1 0x20 DUP3 ADD SWAP1 POP DUP2 DUP2 SUB PUSH1 0x0 DUP4 ADD MSTORE PUSH2 0x1ADC DUP2 DUP5 PUSH2 0x1701 JUMP JUMPDEST SWAP1 POP SWAP3 SWAP2 POP POP JUMP JUMPDEST PUSH1 0x0 PUSH1 0xE0 DUP3 ADD SWAP1 POP PUSH2 0x1AF9 PUSH1 0x0 DUP4 ADD DUP11 PUSH2 0x1785 JUMP JUMPDEST PUSH2 0x1B06 PUSH1 0x20 DUP4 ADD DUP10 PUSH2 0x16DB JUMP JUMPDEST PUSH2 0x1B13 PUSH1 0x40 DUP4 ADD DUP9 PUSH2 0x16DB JUMP JUMPDEST PUSH2 0x1B20 PUSH1 0x60 DUP4 ADD DUP8 PUSH2 0x19BA JUMP JUMPDEST PUSH2 0x1B2D PUSH1 0x80 DUP4 ADD DUP7 PUSH2 0x19BA JUMP JUMPDEST DUP2 DUP2 SUB PUSH1 0xA0 DUP4 ADD MSTORE PUSH2 0x1B3F DUP2 DUP6 PUSH2 0x183A JUMP JUMPDEST SWAP1 POP PUSH2 0x1B4E PUSH1 0xC0 DUP4 ADD DUP5 PUSH2 0x1785 JUMP JUMPDEST SWAP9 SWAP8 POP POP POP POP POP POP POP POP JUMP JUMPDEST PUSH1 0x0 PUSH1 0x20 DUP3 ADD SWAP1 POP DUP2 DUP2 SUB PUSH1 0x0 DUP4 ADD MSTORE PUSH2 0x1B74 DUP2 DUP5 PUSH2 0x190F JUMP JUMPDEST SWAP1 POP SWAP3 SWAP2 POP POP JUMP JUMPDEST PUSH1 0x0 DUP2 SWAP1 POP PUSH1 0x20 DUP3 ADD SWAP1 POP SWAP2 SWAP1 POP JUMP JUMPDEST PUSH1 0x0 DUP2 MLOAD SWAP1 POP SWAP2 SWAP1 POP JUMP JUMPDEST PUSH1 0x0 DUP2 MLOAD SWAP1 POP SWAP2 SWAP1 POP JUMP JUMPDEST PUSH1 0x0 DUP2 MLOAD SWAP1 POP SWAP2 SWAP1 POP JUMP JUMPDEST PUSH1 0x0 PUSH1 0x20 DUP3 ADD SWAP1 POP SWAP2 SWAP1 POP JUMP JUMPDEST PUSH1 0x0 DUP3 DUP3 MSTORE PUSH1 0x20 DUP3 ADD SWAP1 POP SWAP3 SWAP2 POP POP JUMP JUMPDEST PUSH1 0x0 DUP2 SWAP1 POP SWAP3 SWAP2 POP POP JUMP JUMPDEST PUSH1 0x0 DUP3 DUP3 MSTORE PUSH1 0x20 DUP3 ADD SWAP1 POP SWAP3 SWAP2 POP POP JUMP JUMPDEST PUSH1 0x0 DUP3 DUP3 MSTORE PUSH1 0x20 DUP3 ADD SWAP1 POP SWAP3 SWAP2 POP POP JUMP JUMPDEST PUSH1 0x0 DUP2 SWAP1 POP SWAP3 SWAP2 POP POP JUMP JUMPDEST PUSH1 0x0 PUSH2 0x1C0E DUP3 PUSH2 0x1C41 JUMP JUMPDEST SWAP1 POP SWAP2 SWAP1 POP JUMP JUMPDEST PUSH1 0x0 PUSH32 0xFFFFFFFFFFFFFFFFFFFFFFFFFFFFFFFFFFFFFFFF000000000000000000000000 DUP3 AND SWAP1 POP SWAP2 SWAP1 POP JUMP JUMPDEST PUSH1 0x0 PUSH20 0xFFFFFFFFFFFFFFFFFFFFFFFFFFFFFFFFFFFFFFFF DUP3 AND SWAP1 POP SWAP2 SWAP1 POP JUMP JUMPDEST PUSH1 0x0 DUP2 SWAP1 POP SWAP2 SWAP1 POP JUMP JUMPDEST DUP3 DUP2 DUP4 CALLDATACOPY PUSH1 0x0 DUP4 DUP4 ADD MSTORE POP POP POP JUMP JUMPDEST PUSH1 0x0 JUMPDEST DUP4 DUP2 LT ISZERO PUSH2 0x1C98 JUMPI DUP1 DUP3 ADD MLOAD DUP2 DUP5 ADD MSTORE PUSH1 0x20 DUP2 ADD SWAP1 POP PUSH2 0x1C7D JUMP JUMPDEST DUP4 DUP2 GT ISZERO PUSH2 0x1CA7 JUMPI PUSH1 0x0 DUP5 DUP5 ADD MSTORE JUMPDEST POP POP POP POP JUMP JUMPDEST PUSH1 0x0 PUSH1 0x2 DUP3 DIV SWAP1 POP PUSH1 0x1 DUP3 AND DUP1 PUSH2 0x1CC5 JUMPI PUSH1 0x7F DUP3 AND SWAP2 POP JUMPDEST PUSH1 0x20 DUP3 LT DUP2 EQ ISZERO PUSH2 0x1CD9 JUMPI PUSH2 0x1CD8 PUSH2 0x1D17 JUMP JUMPDEST JUMPDEST POP SWAP2 SWAP1 POP JUMP JUMPDEST PUSH1 0x0 PUSH2 0x1CEA DUP3 PUSH2 0x1CFB JUMP JUMPDEST SWAP1 POP SWAP2 SWAP1 POP JUMP JUMPDEST PUSH1 0x0 DUP2 SWAP1 POP SWAP2 SWAP1 POP JUMP JUMPDEST PUSH1 0x0 PUSH2 0x1D06 DUP3 PUSH2 0x1D70 JUMP JUMPDEST SWAP1 POP SWAP2 SWAP1 POP JUMP JUMPDEST PUSH1 0x0 DUP2 SWAP1 POP SWAP2 SWAP1 POP JUMP JUMPDEST PUSH32 0x4E487B7100000000000000000000000000000000000000000000000000000000 PUSH1 0x0 MSTORE PUSH1 0x22 PUSH1 0x4 MSTORE PUSH1 0x24 PUSH1 0x0 REVERT JUMPDEST PUSH1 0x0 DUP1 REVERT JUMPDEST PUSH1 0x0 DUP1 REVERT JUMPDEST PUSH1 0x0 DUP1 REVERT JUMPDEST PUSH1 0x0 DUP1 REVERT JUMPDEST PUSH1 0x0 DUP1 REVERT JUMPDEST PUSH1 0x0 PUSH1 0x1F NOT PUSH1 0x1F DUP4 ADD AND SWAP1 POP SWAP2 SWAP1 POP JUMP JUMPDEST PUSH1 0x0 DUP2 PUSH1 0x60 SHL SWAP1 POP SWAP2 SWAP1 POP JUMP JUMPDEST PUSH2 0x1D86 DUP2 PUSH2 0x1C03 JUMP JUMPDEST DUP2 EQ PUSH2 0x1D91 JUMPI PUSH1 0x0 DUP1 REVERT JUMPDEST POP JUMP JUMPDEST PUSH2 0x1D9D DUP2 PUSH2 0x1C15 JUMP JUMPDEST DUP2 EQ PUSH2 0x1DA8 JUMPI PUSH1 0x0 DUP1 REVERT JUMPDEST POP JUMP JUMPDEST PUSH2 0x1DB4 DUP2 PUSH2 0x1C61 JUMP JUMPDEST DUP2 EQ PUSH2 0x1DBF JUMPI PUSH1 0x0 DUP1 REVERT JUMPDEST POP JUMP INVALID LOG2 PUSH5 0x6970667358 0x22 SLT KECCAK256 PUSH14 0xDD9FEDB58ED451316B004B9468F7 RETURNDATACOPY SSTORE DUP12 0xAB LOG0 COINBASE LOG4 0xC3 DUP11 0xB1 INVALID 0xBF PUSH16 0x84FD080F64736F6C6343000807003300 "
				},
				"gasEstimates": {
					"creation": {
						"codeDepositCost": "1534400",
						"executionCost": "1603",
						"totalCost": "1536003"
					},
					"external": {
						"addNewPayment(address,uint256,string)": "infinite",
						"allTXsarray(address,uint256)": "infinite",
						"clienttransactions(bytes20)": "infinite",
						"ctarray(uint256)": "infinite",
						"getAllTransactionsOfAClient(address)": "infinite",
						"getPaymentByID(bytes20)": "infinite"
					}
				},
				"methodIdentifiers": {
					"addNewPayment(address,uint256,string)": "7d1a8825",
					"allTXsarray(address,uint256)": "6f1d3e53",
					"clienttransactions(bytes20)": "2b08a98a",
					"ctarray(uint256)": "c08724c1",
					"getAllTransactionsOfAClient(address)": "92206f3f",
					"getPaymentByID(bytes20)": "b69c9053"
				}
			},
			"storageLayout": {
				"storage": [
					{
						"astId": 20,
						"contract": "contracts/BankTransaction.sol:BankTransaction",
						"label": "ctarray",
						"offset": 0,
						"slot": "0",
						"type": "t_array(t_struct(ClientTransaction)16_storage)dyn_storage"
					},
					{
						"astId": 25,
						"contract": "contracts/BankTransaction.sol:BankTransaction",
						"label": "clienttransactions",
						"offset": 0,
						"slot": "1",
						"type": "t_mapping(t_bytes20,t_struct(ClientTransaction)16_storage)"
					},
					{
						"astId": 31,
						"contract": "contracts/BankTransaction.sol:BankTransaction",
						"label": "allTXsarray",
						"offset": 0,
						"slot": "2",
						"type": "t_mapping(t_address,t_array(t_struct(ClientTransaction)16_storage)dyn_storage)"
					}
				],
				"types": {
					"t_address": {
						"encoding": "inplace",
						"label": "address",
						"numberOfBytes": "20"
					},
					"t_array(t_struct(ClientTransaction)16_storage)dyn_storage": {
						"base": "t_struct(ClientTransaction)16_storage",
						"encoding": "dynamic_array",
						"label": "struct BankTransaction.ClientTransaction[]",
						"numberOfBytes": "32"
					},
					"t_bytes20": {
						"encoding": "inplace",
						"label": "bytes20",
						"numberOfBytes": "20"
					},
					"t_mapping(t_address,t_array(t_struct(ClientTransaction)16_storage)dyn_storage)": {
						"encoding": "mapping",
						"key": "t_address",
						"label": "mapping(address => struct BankTransaction.ClientTransaction[])",
						"numberOfBytes": "32",
						"value": "t_array(t_struct(ClientTransaction)16_storage)dyn_storage"
					},
					"t_mapping(t_bytes20,t_struct(ClientTransaction)16_storage)": {
						"encoding": "mapping",
						"key": "t_bytes20",
						"label": "mapping(bytes20 => struct BankTransaction.ClientTransaction)",
						"numberOfBytes": "32",
						"value": "t_struct(ClientTransaction)16_storage"
					},
					"t_string_storage": {
						"encoding": "bytes",
						"label": "string",
						"numberOfBytes": "32"
					},
					"t_struct(ClientTransaction)16_storage": {
						"encoding": "inplace",
						"label": "struct BankTransaction.ClientTransaction",
						"members": [
							{
								"astId": 3,
								"contract": "contracts/BankTransaction.sol:BankTransaction",
								"label": "payment_ID",
								"offset": 0,
								"slot": "0",
								"type": "t_bytes20"
							},
							{
								"astId": 5,
								"contract": "contracts/BankTransaction.sol:BankTransaction",
								"label": "client_ID",
								"offset": 0,
								"slot": "1",
								"type": "t_address"
							},
							{
								"astId": 7,
								"contract": "contracts/BankTransaction.sol:BankTransaction",
								"label": "recipient_ID",
								"offset": 0,
								"slot": "2",
								"type": "t_address"
							},
							{
								"astId": 9,
								"contract": "contracts/BankTransaction.sol:BankTransaction",
								"label": "amountOfPayment",
								"offset": 0,
								"slot": "3",
								"type": "t_uint256"
							},
							{
								"astId": 11,
								"contract": "contracts/BankTransaction.sol:BankTransaction",
								"label": "timeOfPayment",
								"offset": 0,
								"slot": "4",
								"type": "t_uint256"
							},
							{
								"astId": 13,
								"contract": "contracts/BankTransaction.sol:BankTransaction",
								"label": "Remarks",
								"offset": 0,
								"slot": "5",
								"type": "t_string_storage"
							},
							{
								"astId": 15,
								"contract": "contracts/BankTransaction.sol:BankTransaction",
								"label": "paymentHash",
								"offset": 0,
								"slot": "6",
								"type": "t_bytes20"
							}
						],
						"numberOfBytes": "224"
					},
					"t_uint256": {
						"encoding": "inplace",
						"label": "uint256",
						"numberOfBytes": "32"
					}
				}
			},
			"userdoc": {
				"kind": "user",
				"methods": {},
				"version": 1
			}
		}
	}
}