{
	"contracts/BankTransaction.sol": {
		"BankTransaction": {
			"abi": [
				{
					"inputs": [
						{
							"internalType": "address",
							"name": "",
							"type": "address"
						},
						{
							"internalType": "uint256",
							"name": "",
							"type": "uint256"
						}
					],
					"name": "TXsarray",
					"outputs": [
						{
							"internalType": "bytes20",
							"name": "",
							"type": "bytes20"
						}
					],
					"stateMutability": "view",
					"type": "function"
				},
				{
					"inputs": [
						{
							"internalType": "address",
							"name": "_recipient_ID",
							"type": "address"
						},
						{
							"internalType": "uint256",
							"name": "amountOfPayment",
							"type": "uint256"
						},
						{
							"internalType": "string",
							"name": "Remarks",
							"type": "string"
						}
					],
					"name": "addNewPayment",
					"outputs": [
						{
							"components": [
								{
									"internalType": "bytes20",
									"name": "payment_ID",
									"type": "bytes20"
								},
								{
									"internalType": "address",
									"name": "client_ID",
									"type": "address"
								},
								{
									"internalType": "address",
									"name": "recipient_ID",
									"type": "address"
								},
								{
									"internalType": "uint256",
									"name": "amountOfPayment",
									"type": "uint256"
								},
								{
									"internalType": "uint256",
									"name": "timeOfPayment",
									"type": "uint256"
								},
								{
									"internalType": "string",
									"name": "Remarks",
									"type": "string"
								},
								{
									"internalType": "bytes20",
									"name": "paymentHash",
									"type": "bytes20"
								}
							],
							"internalType": "struct BankTransaction.ClientTransaction",
							"name": "clienttx",
							"type": "tuple"
						}
					],
					"stateMutability": "nonpayable",
					"type": "function"
				},
				{
					"inputs": [
						{
							"internalType": "bytes20",
							"name": "",
							"type": "bytes20"
						}
					],
					"name": "clienttransactions",
					"outputs": [
						{
							"internalType": "bytes20",
							"name": "payment_ID",
							"type": "bytes20"
						},
						{
							"internalType": "address",
							"name": "client_ID",
							"type": "address"
						},
						{
							"internalType": "address",
							"name": "recipient_ID",
							"type": "address"
						},
						{
							"internalType": "uint256",
							"name": "amountOfPayment",
							"type": "uint256"
						},
						{
							"internalType": "uint256",
							"name": "timeOfPayment",
							"type": "uint256"
						},
						{
							"internalType": "string",
							"name": "Remarks",
							"type": "string"
						},
						{
							"internalType": "bytes20",
							"name": "paymentHash",
							"type": "bytes20"
						}
					],
					"stateMutability": "view",
					"type": "function"
				},
				{
					"inputs": [
						{
							"internalType": "address",
							"name": "_client_ID",
							"type": "address"
						}
					],
					"name": "getAllTransactionsOfAClient",
					"outputs": [
						{
							"internalType": "bytes20[]",
							"name": "Array",
							"type": "bytes20[]"
						}
					],
					"stateMutability": "view",
					"type": "function"
				},
				{
					"inputs": [
						{
							"internalType": "bytes20",
							"name": "_payment_ID",
							"type": "bytes20"
						}
					],
					"name": "getPaymentByID",
					"outputs": [
						{
							"components": [
								{
									"internalType": "bytes20",
									"name": "payment_ID",
									"type": "bytes20"
								},
								{
									"internalType": "address",
									"name": "client_ID",
									"type": "address"
								},
								{
									"internalType": "address",
									"name": "recipient_ID",
									"type": "address"
								},
								{
									"internalType": "uint256",
									"name": "amountOfPayment",
									"type": "uint256"
								},
								{
									"internalType": "uint256",
									"name": "timeOfPayment",
									"type": "uint256"
								},
								{
									"internalType": "string",
									"name": "Remarks",
									"type": "string"
								},
								{
									"internalType": "bytes20",
									"name": "paymentHash",
									"type": "bytes20"
								}
							],
							"internalType": "struct BankTransaction.ClientTransaction",
							"name": "ct",
							"type": "tuple"
						}
					],
					"stateMutability": "view",
					"type": "function"
				}
			],
			"devdoc": {
				"kind": "dev",
				"methods": {},
				"version": 1
			},
			"evm": {
				"assembly": "    /* \"contracts/BankTransaction.sol\":90:2644  contract BankTransaction{... */\n  mstore(0x40, 0x80)\n  callvalue\n  dup1\n  iszero\n  tag_1\n  jumpi\n  0x00\n  dup1\n  revert\ntag_1:\n  pop\n  dataSize(sub_0)\n  dup1\n  dataOffset(sub_0)\n  0x00\n  codecopy\n  0x00\n  return\nstop\n\nsub_0: assembly {\n        /* \"contracts/BankTransaction.sol\":90:2644  contract BankTransaction{... */\n      mstore(0x40, 0x80)\n      callvalue\n      dup1\n      iszero\n      tag_1\n      jumpi\n      0x00\n      dup1\n      revert\n    tag_1:\n      pop\n      jumpi(tag_2, lt(calldatasize, 0x04))\n      shr(0xe0, calldataload(0x00))\n      dup1\n      0x0736e9fb\n      eq\n      tag_3\n      jumpi\n      dup1\n      0x2b08a98a\n      eq\n      tag_4\n      jumpi\n      dup1\n      0x7d1a8825\n      eq\n      tag_5\n      jumpi\n      dup1\n      0x92206f3f\n      eq\n      tag_6\n      jumpi\n      dup1\n      0xb69c9053\n      eq\n      tag_7\n      jumpi\n    tag_2:\n      0x00\n      dup1\n      revert\n        /* \"contracts/BankTransaction.sol\":510:554  mapping (address=>bytes20[]) public TXsarray */\n    tag_3:\n      tag_8\n      0x04\n      dup1\n      calldatasize\n      sub\n      dup2\n      add\n      swap1\n      tag_9\n      swap2\n      swap1\n      tag_10\n      jump\t// in\n    tag_9:\n      tag_11\n      jump\t// in\n    tag_8:\n      mload(0x40)\n      tag_12\n      swap2\n      swap1\n      tag_13\n      jump\t// in\n    tag_12:\n      mload(0x40)\n      dup1\n      swap2\n      sub\n      swap1\n      return\n        /* \"contracts/BankTransaction.sol\":439:502  mapping(bytes20 => ClientTransaction) public clienttransactions */\n    tag_4:\n      tag_14\n      0x04\n      dup1\n      calldatasize\n      sub\n      dup2\n      add\n      swap1\n      tag_15\n      swap2\n      swap1\n      tag_16\n      jump\t// in\n    tag_15:\n      tag_17\n      jump\t// in\n    tag_14:\n      mload(0x40)\n      tag_18\n      swap8\n      swap7\n      swap6\n      swap5\n      swap4\n      swap3\n      swap2\n      swap1\n      tag_19\n      jump\t// in\n    tag_18:\n      mload(0x40)\n      dup1\n      swap2\n      sub\n      swap1\n      return\n        /* \"contracts/BankTransaction.sol\":570:1548  function addNewPayment(      ... */\n    tag_5:\n      tag_20\n      0x04\n      dup1\n      calldatasize\n      sub\n      dup2\n      add\n      swap1\n      tag_21\n      swap2\n      swap1\n      tag_22\n      jump\t// in\n    tag_21:\n      tag_23\n      jump\t// in\n    tag_20:\n      mload(0x40)\n      tag_24\n      swap2\n      swap1\n      tag_25\n      jump\t// in\n    tag_24:\n      mload(0x40)\n      dup1\n      swap2\n      sub\n      swap1\n      return\n        /* \"contracts/BankTransaction.sol\":1778:1936  function getAllTransactionsOfAClient(address  _client_ID) external view  returns (bytes20[] memory Array){... */\n    tag_6:\n      tag_26\n      0x04\n      dup1\n      calldatasize\n      sub\n      dup2\n      add\n      swap1\n      tag_27\n      swap2\n      swap1\n      tag_28\n      jump\t// in\n    tag_27:\n      tag_29\n      jump\t// in\n    tag_26:\n      mload(0x40)\n      tag_30\n      swap2\n      swap1\n      tag_31\n      jump\t// in\n    tag_30:\n      mload(0x40)\n      dup1\n      swap2\n      sub\n      swap1\n      return\n        /* \"contracts/BankTransaction.sol\":1557:1768  function getPaymentByID(bytes20 _payment_ID) public view returns (ClientTransaction memory ct){... */\n    tag_7:\n      tag_32\n      0x04\n      dup1\n      calldatasize\n      sub\n      dup2\n      add\n      swap1\n      tag_33\n      swap2\n      swap1\n      tag_16\n      jump\t// in\n    tag_33:\n      tag_34\n      jump\t// in\n    tag_32:\n      mload(0x40)\n      tag_35\n      swap2\n      swap1\n      tag_25\n      jump\t// in\n    tag_35:\n      mload(0x40)\n      dup1\n      swap2\n      sub\n      swap1\n      return\n        /* \"contracts/BankTransaction.sol\":510:554  mapping (address=>bytes20[]) public TXsarray */\n    tag_11:\n      mstore(0x20, 0x02)\n      dup2\n      0x00\n      mstore\n      keccak256(0x00, 0x40)\n      dup2\n      dup2\n      sload\n      dup2\n      lt\n      tag_36\n      jumpi\n      0x00\n      dup1\n      revert\n    tag_36:\n      swap1\n      0x00\n      mstore\n      keccak256(0x00, 0x20)\n      add\n      0x00\n      swap2\n      pop\n      swap2\n      pop\n      swap1\n      sload\n      swap1\n      0x0100\n      exp\n      swap1\n      div\n      0x60\n      shl\n      dup2\n      jump\t// out\n        /* \"contracts/BankTransaction.sol\":439:502  mapping(bytes20 => ClientTransaction) public clienttransactions */\n    tag_17:\n      mstore(0x20, 0x01)\n      dup1\n      0x00\n      mstore\n      keccak256(0x00, 0x40)\n      0x00\n      swap2\n      pop\n      swap1\n      pop\n      dup1\n      0x00\n      add\n      0x00\n      swap1\n      sload\n      swap1\n      0x0100\n      exp\n      swap1\n      div\n      0x60\n      shl\n      swap1\n      dup1\n      0x01\n      add\n      0x00\n      swap1\n      sload\n      swap1\n      0x0100\n      exp\n      swap1\n      div\n      0xffffffffffffffffffffffffffffffffffffffff\n      and\n      swap1\n      dup1\n      0x02\n      add\n      0x00\n      swap1\n      sload\n      swap1\n      0x0100\n      exp\n      swap1\n      div\n      0xffffffffffffffffffffffffffffffffffffffff\n      and\n      swap1\n      dup1\n      0x03\n      add\n      sload\n      swap1\n      dup1\n      0x04\n      add\n      sload\n      swap1\n      dup1\n      0x05\n      add\n      dup1\n      sload\n      tag_38\n      swap1\n      tag_39\n      jump\t// in\n    tag_38:\n      dup1\n      0x1f\n      add\n      0x20\n      dup1\n      swap2\n      div\n      mul\n      0x20\n      add\n      mload(0x40)\n      swap1\n      dup2\n      add\n      0x40\n      mstore\n      dup1\n      swap3\n      swap2\n      swap1\n      dup2\n      dup2\n      mstore\n      0x20\n      add\n      dup3\n      dup1\n      sload\n      tag_40\n      swap1\n      tag_39\n      jump\t// in\n    tag_40:\n      dup1\n      iszero\n      tag_41\n      jumpi\n      dup1\n      0x1f\n      lt\n      tag_42\n      jumpi\n      0x0100\n      dup1\n      dup4\n      sload\n      div\n      mul\n      dup4\n      mstore\n      swap2\n      0x20\n      add\n      swap2\n      jump(tag_41)\n    tag_42:\n      dup3\n      add\n      swap2\n      swap1\n      0x00\n      mstore\n      keccak256(0x00, 0x20)\n      swap1\n    tag_43:\n      dup2\n      sload\n      dup2\n      mstore\n      swap1\n      0x01\n      add\n      swap1\n      0x20\n      add\n      dup1\n      dup4\n      gt\n      tag_43\n      jumpi\n      dup3\n      swap1\n      sub\n      0x1f\n      and\n      dup3\n      add\n      swap2\n    tag_41:\n      pop\n      pop\n      pop\n      pop\n      pop\n      swap1\n      dup1\n      0x06\n      add\n      0x00\n      swap1\n      sload\n      swap1\n      0x0100\n      exp\n      swap1\n      div\n      0x60\n      shl\n      swap1\n      pop\n      dup8\n      jump\t// out\n        /* \"contracts/BankTransaction.sol\":570:1548  function addNewPayment(      ... */\n    tag_23:\n        /* \"contracts/BankTransaction.sol\":803:836  ClientTransaction memory clienttx */\n      tag_44\n      tag_45\n      jump\t// in\n    tag_44:\n        /* \"contracts/BankTransaction.sol\":856:874  address _client_ID */\n      0x00\n        /* \"contracts/BankTransaction.sol\":877:887  msg.sender */\n      caller\n        /* \"contracts/BankTransaction.sol\":856:887  address _client_ID = msg.sender */\n      swap1\n      pop\n        /* \"contracts/BankTransaction.sol\":920:934  uint timeStamp */\n      0x00\n        /* \"contracts/BankTransaction.sol\":937:952  block.timestamp */\n      timestamp\n        /* \"contracts/BankTransaction.sol\":920:952  uint timeStamp = block.timestamp */\n      swap1\n      pop\n        /* \"contracts/BankTransaction.sol\":971:990  bytes20 _payment_ID */\n      0x00\n        /* \"contracts/BankTransaction.sol\":993:1084  ripemd160(abi.encodePacked(_client_ID, _recipient_ID, amountOfPayment, timeStamp, Remarks)) */\n      0x03\n        /* \"contracts/BankTransaction.sol\":1020:1030  _client_ID */\n      dup4\n        /* \"contracts/BankTransaction.sol\":1032:1045  _recipient_ID */\n      dup10\n        /* \"contracts/BankTransaction.sol\":1047:1062  amountOfPayment */\n      dup10\n        /* \"contracts/BankTransaction.sol\":1064:1073  timeStamp */\n      dup6\n        /* \"contracts/BankTransaction.sol\":1075:1082  Remarks */\n      dup11\n      dup11\n        /* \"contracts/BankTransaction.sol\":1003:1083  abi.encodePacked(_client_ID, _recipient_ID, amountOfPayment, timeStamp, Remarks) */\n      add(0x20, mload(0x40))\n      tag_47\n      swap7\n      swap6\n      swap5\n      swap4\n      swap3\n      swap2\n      swap1\n      tag_48\n      jump\t// in\n    tag_47:\n      mload(0x40)\n      0x20\n      dup2\n      dup4\n      sub\n      sub\n      dup2\n      mstore\n      swap1\n      0x40\n      mstore\n        /* \"contracts/BankTransaction.sol\":993:1084  ripemd160(abi.encodePacked(_client_ID, _recipient_ID, amountOfPayment, timeStamp, Remarks)) */\n      mload(0x40)\n      tag_49\n      swap2\n      swap1\n      tag_50\n      jump\t// in\n    tag_49:\n      0x20\n      mload(0x40)\n      dup1\n      dup4\n      sub\n      dup2\n      dup6\n      gas\n      staticcall\n      iszero\n      dup1\n      iszero\n      tag_52\n      jumpi\n      returndatasize\n      0x00\n      dup1\n      returndatacopy\n      revert(0x00, returndatasize)\n    tag_52:\n      pop\n      pop\n      pop\n      shl(0x60, mload(mload(0x40)))\n        /* \"contracts/BankTransaction.sol\":971:1084  bytes20 _payment_ID = ripemd160(abi.encodePacked(_client_ID, _recipient_ID, amountOfPayment, timeStamp, Remarks)) */\n      swap1\n      pop\n        /* \"contracts/BankTransaction.sol\":1103:1123  bytes20 _paymentHash */\n      0x00\n        /* \"contracts/BankTransaction.sol\":1126:1228  ripemd160(abi.encodePacked(_payment_ID, _client_ID, _recipient_ID, amountOfPayment,timeStamp,Remarks)) */\n      0x03\n        /* \"contracts/BankTransaction.sol\":1153:1164  _payment_ID */\n      dup3\n        /* \"contracts/BankTransaction.sol\":1166:1176  _client_ID */\n      dup6\n        /* \"contracts/BankTransaction.sol\":1178:1191  _recipient_ID */\n      dup12\n        /* \"contracts/BankTransaction.sol\":1193:1208  amountOfPayment */\n      dup12\n        /* \"contracts/BankTransaction.sol\":1209:1218  timeStamp */\n      dup8\n        /* \"contracts/BankTransaction.sol\":1219:1226  Remarks */\n      dup13\n      dup13\n        /* \"contracts/BankTransaction.sol\":1136:1227  abi.encodePacked(_payment_ID, _client_ID, _recipient_ID, amountOfPayment,timeStamp,Remarks) */\n      add(0x20, mload(0x40))\n      tag_53\n      swap8\n      swap7\n      swap6\n      swap5\n      swap4\n      swap3\n      swap2\n      swap1\n      tag_54\n      jump\t// in\n    tag_53:\n      mload(0x40)\n      0x20\n      dup2\n      dup4\n      sub\n      sub\n      dup2\n      mstore\n      swap1\n      0x40\n      mstore\n        /* \"contracts/BankTransaction.sol\":1126:1228  ripemd160(abi.encodePacked(_payment_ID, _client_ID, _recipient_ID, amountOfPayment,timeStamp,Remarks)) */\n      mload(0x40)\n      tag_55\n      swap2\n      swap1\n      tag_50\n      jump\t// in\n    tag_55:\n      0x20\n      mload(0x40)\n      dup1\n      dup4\n      sub\n      dup2\n      dup6\n      gas\n      staticcall\n      iszero\n      dup1\n      iszero\n      tag_57\n      jumpi\n      returndatasize\n      0x00\n      dup1\n      returndatacopy\n      revert(0x00, returndatasize)\n    tag_57:\n      pop\n      pop\n      pop\n      shl(0x60, mload(mload(0x40)))\n        /* \"contracts/BankTransaction.sol\":1103:1228  bytes20 _paymentHash = ripemd160(abi.encodePacked(_payment_ID, _client_ID, _recipient_ID, amountOfPayment,timeStamp,Remarks)) */\n      swap1\n      pop\n        /* \"contracts/BankTransaction.sol\":1258:1366  ClientTransaction(_payment_ID, _client_ID, _recipient_ID, amountOfPayment, timeStamp, Remarks, _paymentHash) */\n      mload(0x40)\n      dup1\n      0xe0\n      add\n      0x40\n      mstore\n      dup1\n        /* \"contracts/BankTransaction.sol\":1276:1287  _payment_ID */\n      dup4\n        /* \"contracts/BankTransaction.sol\":1258:1366  ClientTransaction(_payment_ID, _client_ID, _recipient_ID, amountOfPayment, timeStamp, Remarks, _paymentHash) */\n      not(0xffffffffffffffffffffffff)\n      and\n      dup2\n      mstore\n      0x20\n      add\n        /* \"contracts/BankTransaction.sol\":1289:1299  _client_ID */\n      dup6\n        /* \"contracts/BankTransaction.sol\":1258:1366  ClientTransaction(_payment_ID, _client_ID, _recipient_ID, amountOfPayment, timeStamp, Remarks, _paymentHash) */\n      0xffffffffffffffffffffffffffffffffffffffff\n      and\n      dup2\n      mstore\n      0x20\n      add\n        /* \"contracts/BankTransaction.sol\":1301:1314  _recipient_ID */\n      dup11\n        /* \"contracts/BankTransaction.sol\":1258:1366  ClientTransaction(_payment_ID, _client_ID, _recipient_ID, amountOfPayment, timeStamp, Remarks, _paymentHash) */\n      0xffffffffffffffffffffffffffffffffffffffff\n      and\n      dup2\n      mstore\n      0x20\n      add\n        /* \"contracts/BankTransaction.sol\":1316:1331  amountOfPayment */\n      dup10\n        /* \"contracts/BankTransaction.sol\":1258:1366  ClientTransaction(_payment_ID, _client_ID, _recipient_ID, amountOfPayment, timeStamp, Remarks, _paymentHash) */\n      dup2\n      mstore\n      0x20\n      add\n        /* \"contracts/BankTransaction.sol\":1333:1342  timeStamp */\n      dup5\n        /* \"contracts/BankTransaction.sol\":1258:1366  ClientTransaction(_payment_ID, _client_ID, _recipient_ID, amountOfPayment, timeStamp, Remarks, _paymentHash) */\n      dup2\n      mstore\n      0x20\n      add\n        /* \"contracts/BankTransaction.sol\":1344:1351  Remarks */\n      dup9\n      dup9\n        /* \"contracts/BankTransaction.sol\":1258:1366  ClientTransaction(_payment_ID, _client_ID, _recipient_ID, amountOfPayment, timeStamp, Remarks, _paymentHash) */\n      dup1\n      dup1\n      0x1f\n      add\n      0x20\n      dup1\n      swap2\n      div\n      mul\n      0x20\n      add\n      mload(0x40)\n      swap1\n      dup2\n      add\n      0x40\n      mstore\n      dup1\n      swap4\n      swap3\n      swap2\n      swap1\n      dup2\n      dup2\n      mstore\n      0x20\n      add\n      dup4\n      dup4\n      dup1\n      dup3\n      dup5\n      calldatacopy\n      0x00\n      dup2\n      dup5\n      add\n      mstore\n      not(0x1f)\n      0x1f\n      dup3\n      add\n      and\n      swap1\n      pop\n      dup1\n      dup4\n      add\n      swap3\n      pop\n      pop\n      pop\n      pop\n      pop\n      pop\n      pop\n      dup2\n      mstore\n      0x20\n      add\n        /* \"contracts/BankTransaction.sol\":1353:1365  _paymentHash */\n      dup3\n        /* \"contracts/BankTransaction.sol\":1258:1366  ClientTransaction(_payment_ID, _client_ID, _recipient_ID, amountOfPayment, timeStamp, Remarks, _paymentHash) */\n      not(0xffffffffffffffffffffffff)\n      and\n      dup2\n      mstore\n      pop\n        /* \"contracts/BankTransaction.sol\":1247:1366  clienttx = ClientTransaction(_payment_ID, _client_ID, _recipient_ID, amountOfPayment, timeStamp, Remarks, _paymentHash) */\n      swap5\n      pop\n        /* \"contracts/BankTransaction.sol\":1387:1395  TXsarray */\n      0x02\n        /* \"contracts/BankTransaction.sol\":1387:1407  TXsarray[_client_ID] */\n      0x00\n        /* \"contracts/BankTransaction.sol\":1396:1406  _client_ID */\n      dup6\n        /* \"contracts/BankTransaction.sol\":1387:1407  TXsarray[_client_ID] */\n      0xffffffffffffffffffffffffffffffffffffffff\n      and\n      0xffffffffffffffffffffffffffffffffffffffff\n      and\n      dup2\n      mstore\n      0x20\n      add\n      swap1\n      dup2\n      mstore\n      0x20\n      add\n      0x00\n      keccak256\n      pop\n        /* \"contracts/BankTransaction.sol\":1463:1471  clienttx */\n      dup5\n        /* \"contracts/BankTransaction.sol\":1429:1447  clienttransactions */\n      0x01\n        /* \"contracts/BankTransaction.sol\":1429:1460  clienttransactions[_payment_ID] */\n      0x00\n        /* \"contracts/BankTransaction.sol\":1448:1459  _payment_ID */\n      dup5\n        /* \"contracts/BankTransaction.sol\":1429:1460  clienttransactions[_payment_ID] */\n      not(0xffffffffffffffffffffffff)\n      and\n      not(0xffffffffffffffffffffffff)\n      and\n      dup2\n      mstore\n      0x20\n      add\n      swap1\n      dup2\n      mstore\n      0x20\n      add\n      0x00\n      keccak256\n        /* \"contracts/BankTransaction.sol\":1429:1471  clienttransactions[_payment_ID] = clienttx */\n      0x00\n      dup3\n      add\n      mload\n      dup2\n      0x00\n      add\n      exp(0x0100, 0x00)\n      dup2\n      sload\n      dup2\n      0xffffffffffffffffffffffffffffffffffffffff\n      mul\n      not\n      and\n      swap1\n      dup4\n      0x60\n      shr\n      mul\n      or\n      swap1\n      sstore\n      pop\n      0x20\n      dup3\n      add\n      mload\n      dup2\n      0x01\n      add\n      exp(0x0100, 0x00)\n      dup2\n      sload\n      dup2\n      0xffffffffffffffffffffffffffffffffffffffff\n      mul\n      not\n      and\n      swap1\n      dup4\n      0xffffffffffffffffffffffffffffffffffffffff\n      and\n      mul\n      or\n      swap1\n      sstore\n      pop\n      0x40\n      dup3\n      add\n      mload\n      dup2\n      0x02\n      add\n      exp(0x0100, 0x00)\n      dup2\n      sload\n      dup2\n      0xffffffffffffffffffffffffffffffffffffffff\n      mul\n      not\n      and\n      swap1\n      dup4\n      0xffffffffffffffffffffffffffffffffffffffff\n      and\n      mul\n      or\n      swap1\n      sstore\n      pop\n      0x60\n      dup3\n      add\n      mload\n      dup2\n      0x03\n      add\n      sstore\n      0x80\n      dup3\n      add\n      mload\n      dup2\n      0x04\n      add\n      sstore\n      0xa0\n      dup3\n      add\n      mload\n      dup2\n      0x05\n      add\n      swap1\n      dup1\n      mload\n      swap1\n      0x20\n      add\n      swap1\n      tag_58\n      swap3\n      swap2\n      swap1\n      tag_59\n      jump\t// in\n    tag_58:\n      pop\n      0xc0\n      dup3\n      add\n      mload\n      dup2\n      0x06\n      add\n      exp(0x0100, 0x00)\n      dup2\n      sload\n      dup2\n      0xffffffffffffffffffffffffffffffffffffffff\n      mul\n      not\n      and\n      swap1\n      dup4\n      0x60\n      shr\n      mul\n      or\n      swap1\n      sstore\n      pop\n      swap1\n      pop\n      pop\n        /* \"contracts/BankTransaction.sol\":1491:1503  AllClientTXs */\n      0x00\n        /* \"contracts/BankTransaction.sol\":1509:1520  _payment_ID */\n      dup3\n        /* \"contracts/BankTransaction.sol\":1491:1521  AllClientTXs.push(_payment_ID) */\n      swap1\n      dup1\n      0x01\n      dup2\n      sload\n      add\n      dup1\n      dup3\n      sstore\n      dup1\n      swap2\n      pop\n      pop\n      0x01\n      swap1\n      sub\n      swap1\n      0x00\n      mstore\n      keccak256(0x00, 0x20)\n      add\n      0x00\n      swap1\n      swap2\n      swap1\n      swap2\n      swap1\n      swap2\n      0x0100\n      exp\n      dup2\n      sload\n      dup2\n      0xffffffffffffffffffffffffffffffffffffffff\n      mul\n      not\n      and\n      swap1\n      dup4\n      0x60\n      shr\n      mul\n      or\n      swap1\n      sstore\n      pop\n        /* \"contracts/BankTransaction.sol\":837:1548  {... */\n      pop\n      pop\n      pop\n      pop\n        /* \"contracts/BankTransaction.sol\":570:1548  function addNewPayment(      ... */\n      swap5\n      swap4\n      pop\n      pop\n      pop\n      pop\n      jump\t// out\n        /* \"contracts/BankTransaction.sol\":1778:1936  function getAllTransactionsOfAClient(address  _client_ID) external view  returns (bytes20[] memory Array){... */\n    tag_29:\n        /* \"contracts/BankTransaction.sol\":1860:1882  bytes20[] memory Array */\n      0x60\n        /* \"contracts/BankTransaction.sol\":1907:1915  TXsarray */\n      0x02\n        /* \"contracts/BankTransaction.sol\":1907:1927  TXsarray[_client_ID] */\n      0x00\n        /* \"contracts/BankTransaction.sol\":1916:1926  _client_ID */\n      dup4\n        /* \"contracts/BankTransaction.sol\":1907:1927  TXsarray[_client_ID] */\n      0xffffffffffffffffffffffffffffffffffffffff\n      and\n      0xffffffffffffffffffffffffffffffffffffffff\n      and\n      dup2\n      mstore\n      0x20\n      add\n      swap1\n      dup2\n      mstore\n      0x20\n      add\n      0x00\n      keccak256\n        /* \"contracts/BankTransaction.sol\":1900:1927  return TXsarray[_client_ID] */\n      dup1\n      sload\n      dup1\n      0x20\n      mul\n      0x20\n      add\n      mload(0x40)\n      swap1\n      dup2\n      add\n      0x40\n      mstore\n      dup1\n      swap3\n      swap2\n      swap1\n      dup2\n      dup2\n      mstore\n      0x20\n      add\n      dup3\n      dup1\n      sload\n      dup1\n      iszero\n      tag_62\n      jumpi\n      0x20\n      mul\n      dup3\n      add\n      swap2\n      swap1\n      0x00\n      mstore\n      keccak256(0x00, 0x20)\n      swap1\n    tag_63:\n      dup2\n      0x00\n      swap1\n      sload\n      swap1\n      0x0100\n      exp\n      swap1\n      div\n      0x60\n      shl\n      not(0xffffffffffffffffffffffff)\n      and\n      dup2\n      mstore\n      0x20\n      add\n      swap1\n      0x01\n      add\n      swap1\n      dup1\n      dup4\n      gt\n      tag_63\n      jumpi\n    tag_62:\n      pop\n      pop\n      pop\n      pop\n      pop\n      swap1\n      pop\n        /* \"contracts/BankTransaction.sol\":1778:1936  function getAllTransactionsOfAClient(address  _client_ID) external view  returns (bytes20[] memory Array){... */\n      swap2\n      swap1\n      pop\n      jump\t// out\n        /* \"contracts/BankTransaction.sol\":1557:1768  function getPaymentByID(bytes20 _payment_ID) public view returns (ClientTransaction memory ct){... */\n    tag_34:\n        /* \"contracts/BankTransaction.sol\":1623:1650  ClientTransaction memory ct */\n      tag_64\n      tag_45\n      jump\t// in\n    tag_64:\n        /* \"contracts/BankTransaction.sol\":1673:1691  clienttransactions */\n      0x01\n        /* \"contracts/BankTransaction.sol\":1673:1704  clienttransactions[_payment_ID] */\n      0x00\n        /* \"contracts/BankTransaction.sol\":1692:1703  _payment_ID */\n      dup4\n        /* \"contracts/BankTransaction.sol\":1673:1704  clienttransactions[_payment_ID] */\n      not(0xffffffffffffffffffffffff)\n      and\n      not(0xffffffffffffffffffffffff)\n      and\n      dup2\n      mstore\n      0x20\n      add\n      swap1\n      dup2\n      mstore\n      0x20\n      add\n      0x00\n      keccak256\n        /* \"contracts/BankTransaction.sol\":1668:1704  ct = clienttransactions[_payment_ID] */\n      mload(0x40)\n      dup1\n      0xe0\n      add\n      0x40\n      mstore\n      swap1\n      dup2\n      0x00\n      dup3\n      add\n      0x00\n      swap1\n      sload\n      swap1\n      0x0100\n      exp\n      swap1\n      div\n      0x60\n      shl\n      not(0xffffffffffffffffffffffff)\n      and\n      not(0xffffffffffffffffffffffff)\n      and\n      dup2\n      mstore\n      0x20\n      add\n      0x01\n      dup3\n      add\n      0x00\n      swap1\n      sload\n      swap1\n      0x0100\n      exp\n      swap1\n      div\n      0xffffffffffffffffffffffffffffffffffffffff\n      and\n      0xffffffffffffffffffffffffffffffffffffffff\n      and\n      0xffffffffffffffffffffffffffffffffffffffff\n      and\n      dup2\n      mstore\n      0x20\n      add\n      0x02\n      dup3\n      add\n      0x00\n      swap1\n      sload\n      swap1\n      0x0100\n      exp\n      swap1\n      div\n      0xffffffffffffffffffffffffffffffffffffffff\n      and\n      0xffffffffffffffffffffffffffffffffffffffff\n      and\n      0xffffffffffffffffffffffffffffffffffffffff\n      and\n      dup2\n      mstore\n      0x20\n      add\n      0x03\n      dup3\n      add\n      sload\n      dup2\n      mstore\n      0x20\n      add\n      0x04\n      dup3\n      add\n      sload\n      dup2\n      mstore\n      0x20\n      add\n      0x05\n      dup3\n      add\n      dup1\n      sload\n      tag_66\n      swap1\n      tag_39\n      jump\t// in\n    tag_66:\n      dup1\n      0x1f\n      add\n      0x20\n      dup1\n      swap2\n      div\n      mul\n      0x20\n      add\n      mload(0x40)\n      swap1\n      dup2\n      add\n      0x40\n      mstore\n      dup1\n      swap3\n      swap2\n      swap1\n      dup2\n      dup2\n      mstore\n      0x20\n      add\n      dup3\n      dup1\n      sload\n      tag_67\n      swap1\n      tag_39\n      jump\t// in\n    tag_67:\n      dup1\n      iszero\n      tag_68\n      jumpi\n      dup1\n      0x1f\n      lt\n      tag_69\n      jumpi\n      0x0100\n      dup1\n      dup4\n      sload\n      div\n      mul\n      dup4\n      mstore\n      swap2\n      0x20\n      add\n      swap2\n      jump(tag_68)\n    tag_69:\n      dup3\n      add\n      swap2\n      swap1\n      0x00\n      mstore\n      keccak256(0x00, 0x20)\n      swap1\n    tag_70:\n      dup2\n      sload\n      dup2\n      mstore\n      swap1\n      0x01\n      add\n      swap1\n      0x20\n      add\n      dup1\n      dup4\n      gt\n      tag_70\n      jumpi\n      dup3\n      swap1\n      sub\n      0x1f\n      and\n      dup3\n      add\n      swap2\n    tag_68:\n      pop\n      pop\n      pop\n      pop\n      pop\n      dup2\n      mstore\n      0x20\n      add\n      0x06\n      dup3\n      add\n      0x00\n      swap1\n      sload\n      swap1\n      0x0100\n      exp\n      swap1\n      div\n      0x60\n      shl\n      not(0xffffffffffffffffffffffff)\n      and\n      not(0xffffffffffffffffffffffff)\n      and\n      dup2\n      mstore\n      pop\n      pop\n      swap1\n      pop\n        /* \"contracts/BankTransaction.sol\":1728:1746  clienttransactions */\n      0x01\n        /* \"contracts/BankTransaction.sol\":1728:1759  clienttransactions[_payment_ID] */\n      0x00\n        /* \"contracts/BankTransaction.sol\":1747:1758  _payment_ID */\n      dup4\n        /* \"contracts/BankTransaction.sol\":1728:1759  clienttransactions[_payment_ID] */\n      not(0xffffffffffffffffffffffff)\n      and\n      not(0xffffffffffffffffffffffff)\n      and\n      dup2\n      mstore\n      0x20\n      add\n      swap1\n      dup2\n      mstore\n      0x20\n      add\n      0x00\n      keccak256\n        /* \"contracts/BankTransaction.sol\":1721:1759  return clienttransactions[_payment_ID] */\n      mload(0x40)\n      dup1\n      0xe0\n      add\n      0x40\n      mstore\n      swap1\n      dup2\n      0x00\n      dup3\n      add\n      0x00\n      swap1\n      sload\n      swap1\n      0x0100\n      exp\n      swap1\n      div\n      0x60\n      shl\n      not(0xffffffffffffffffffffffff)\n      and\n      not(0xffffffffffffffffffffffff)\n      and\n      dup2\n      mstore\n      0x20\n      add\n      0x01\n      dup3\n      add\n      0x00\n      swap1\n      sload\n      swap1\n      0x0100\n      exp\n      swap1\n      div\n      0xffffffffffffffffffffffffffffffffffffffff\n      and\n      0xffffffffffffffffffffffffffffffffffffffff\n      and\n      0xffffffffffffffffffffffffffffffffffffffff\n      and\n      dup2\n      mstore\n      0x20\n      add\n      0x02\n      dup3\n      add\n      0x00\n      swap1\n      sload\n      swap1\n      0x0100\n      exp\n      swap1\n      div\n      0xffffffffffffffffffffffffffffffffffffffff\n      and\n      0xffffffffffffffffffffffffffffffffffffffff\n      and\n      0xffffffffffffffffffffffffffffffffffffffff\n      and\n      dup2\n      mstore\n      0x20\n      add\n      0x03\n      dup3\n      add\n      sload\n      dup2\n      mstore\n      0x20\n      add\n      0x04\n      dup3\n      add\n      sload\n      dup2\n      mstore\n      0x20\n      add\n      0x05\n      dup3\n      add\n      dup1\n      sload\n      tag_71\n      swap1\n      tag_39\n      jump\t// in\n    tag_71:\n      dup1\n      0x1f\n      add\n      0x20\n      dup1\n      swap2\n      div\n      mul\n      0x20\n      add\n      mload(0x40)\n      swap1\n      dup2\n      add\n      0x40\n      mstore\n      dup1\n      swap3\n      swap2\n      swap1\n      dup2\n      dup2\n      mstore\n      0x20\n      add\n      dup3\n      dup1\n      sload\n      tag_72\n      swap1\n      tag_39\n      jump\t// in\n    tag_72:\n      dup1\n      iszero\n      tag_73\n      jumpi\n      dup1\n      0x1f\n      lt\n      tag_74\n      jumpi\n      0x0100\n      dup1\n      dup4\n      sload\n      div\n      mul\n      dup4\n      mstore\n      swap2\n      0x20\n      add\n      swap2\n      jump(tag_73)\n    tag_74:\n      dup3\n      add\n      swap2\n      swap1\n      0x00\n      mstore\n      keccak256(0x00, 0x20)\n      swap1\n    tag_75:\n      dup2\n      sload\n      dup2\n      mstore\n      swap1\n      0x01\n      add\n      swap1\n      0x20\n      add\n      dup1\n      dup4\n      gt\n      tag_75\n      jumpi\n      dup3\n      swap1\n      sub\n      0x1f\n      and\n      dup3\n      add\n      swap2\n    tag_73:\n      pop\n      pop\n      pop\n      pop\n      pop\n      dup2\n      mstore\n      0x20\n      add\n      0x06\n      dup3\n      add\n      0x00\n      swap1\n      sload\n      swap1\n      0x0100\n      exp\n      swap1\n      div\n      0x60\n      shl\n      not(0xffffffffffffffffffffffff)\n      and\n      not(0xffffffffffffffffffffffff)\n      and\n      dup2\n      mstore\n      pop\n      pop\n      swap1\n      pop\n        /* \"contracts/BankTransaction.sol\":1557:1768  function getPaymentByID(bytes20 _payment_ID) public view returns (ClientTransaction memory ct){... */\n      swap2\n      swap1\n      pop\n      jump\t// out\n    tag_45:\n      mload(0x40)\n      dup1\n      0xe0\n      add\n      0x40\n      mstore\n      dup1\n      and(not(0xffffffffffffffffffffffff), 0x00)\n      dup2\n      mstore\n      0x20\n      add\n      and(0xffffffffffffffffffffffffffffffffffffffff, 0x00)\n      dup2\n      mstore\n      0x20\n      add\n      and(0xffffffffffffffffffffffffffffffffffffffff, 0x00)\n      dup2\n      mstore\n      0x20\n      add\n      0x00\n      dup2\n      mstore\n      0x20\n      add\n      0x00\n      dup2\n      mstore\n      0x20\n      add\n      0x60\n      dup2\n      mstore\n      0x20\n      add\n      and(not(0xffffffffffffffffffffffff), 0x00)\n      dup2\n      mstore\n      pop\n      swap1\n      jump\t// out\n    tag_59:\n      dup3\n      dup1\n      sload\n      tag_76\n      swap1\n      tag_39\n      jump\t// in\n    tag_76:\n      swap1\n      0x00\n      mstore\n      keccak256(0x00, 0x20)\n      swap1\n      0x1f\n      add\n      0x20\n      swap1\n      div\n      dup2\n      add\n      swap3\n      dup3\n      tag_78\n      jumpi\n      0x00\n      dup6\n      sstore\n      jump(tag_77)\n    tag_78:\n      dup3\n      0x1f\n      lt\n      tag_79\n      jumpi\n      dup1\n      mload\n      not(0xff)\n      and\n      dup4\n      dup1\n      add\n      or\n      dup6\n      sstore\n      jump(tag_77)\n    tag_79:\n      dup3\n      dup1\n      add\n      0x01\n      add\n      dup6\n      sstore\n      dup3\n      iszero\n      tag_77\n      jumpi\n      swap2\n      dup3\n      add\n    tag_80:\n      dup3\n      dup2\n      gt\n      iszero\n      tag_81\n      jumpi\n      dup3\n      mload\n      dup3\n      sstore\n      swap2\n      0x20\n      add\n      swap2\n      swap1\n      0x01\n      add\n      swap1\n      jump(tag_80)\n    tag_81:\n    tag_77:\n      pop\n      swap1\n      pop\n      tag_82\n      swap2\n      swap1\n      tag_83\n      jump\t// in\n    tag_82:\n      pop\n      swap1\n      jump\t// out\n    tag_83:\n    tag_84:\n      dup1\n      dup3\n      gt\n      iszero\n      tag_85\n      jumpi\n      0x00\n      dup2\n      0x00\n      swap1\n      sstore\n      pop\n      0x01\n      add\n      jump(tag_84)\n    tag_85:\n      pop\n      swap1\n      jump\t// out\n        /* \"#utility.yul\":88:205   */\n    tag_87:\n        /* \"#utility.yul\":197:198   */\n      0x00\n        /* \"#utility.yul\":194:195   */\n      dup1\n        /* \"#utility.yul\":187:199   */\n      revert\n        /* \"#utility.yul\":211:328   */\n    tag_88:\n        /* \"#utility.yul\":320:321   */\n      0x00\n        /* \"#utility.yul\":317:318   */\n      dup1\n        /* \"#utility.yul\":310:322   */\n      revert\n        /* \"#utility.yul\":334:460   */\n    tag_89:\n        /* \"#utility.yul\":371:378   */\n      0x00\n        /* \"#utility.yul\":411:453   */\n      0xffffffffffffffffffffffffffffffffffffffff\n        /* \"#utility.yul\":404:409   */\n      dup3\n        /* \"#utility.yul\":400:454   */\n      and\n        /* \"#utility.yul\":389:454   */\n      swap1\n      pop\n        /* \"#utility.yul\":334:460   */\n      swap2\n      swap1\n      pop\n      jump\t// out\n        /* \"#utility.yul\":466:562   */\n    tag_90:\n        /* \"#utility.yul\":503:510   */\n      0x00\n        /* \"#utility.yul\":532:556   */\n      tag_144\n        /* \"#utility.yul\":550:555   */\n      dup3\n        /* \"#utility.yul\":532:556   */\n      tag_89\n      jump\t// in\n    tag_144:\n        /* \"#utility.yul\":521:556   */\n      swap1\n      pop\n        /* \"#utility.yul\":466:562   */\n      swap2\n      swap1\n      pop\n      jump\t// out\n        /* \"#utility.yul\":568:690   */\n    tag_91:\n        /* \"#utility.yul\":641:665   */\n      tag_146\n        /* \"#utility.yul\":659:664   */\n      dup2\n        /* \"#utility.yul\":641:665   */\n      tag_90\n      jump\t// in\n    tag_146:\n        /* \"#utility.yul\":634:639   */\n      dup2\n        /* \"#utility.yul\":631:666   */\n      eq\n        /* \"#utility.yul\":621:684   */\n      tag_147\n      jumpi\n        /* \"#utility.yul\":680:681   */\n      0x00\n        /* \"#utility.yul\":677:678   */\n      dup1\n        /* \"#utility.yul\":670:682   */\n      revert\n        /* \"#utility.yul\":621:684   */\n    tag_147:\n        /* \"#utility.yul\":568:690   */\n      pop\n      jump\t// out\n        /* \"#utility.yul\":696:835   */\n    tag_92:\n        /* \"#utility.yul\":742:747   */\n      0x00\n        /* \"#utility.yul\":780:786   */\n      dup2\n        /* \"#utility.yul\":767:787   */\n      calldataload\n        /* \"#utility.yul\":758:787   */\n      swap1\n      pop\n        /* \"#utility.yul\":796:829   */\n      tag_149\n        /* \"#utility.yul\":823:828   */\n      dup2\n        /* \"#utility.yul\":796:829   */\n      tag_91\n      jump\t// in\n    tag_149:\n        /* \"#utility.yul\":696:835   */\n      swap3\n      swap2\n      pop\n      pop\n      jump\t// out\n        /* \"#utility.yul\":841:918   */\n    tag_93:\n        /* \"#utility.yul\":878:885   */\n      0x00\n        /* \"#utility.yul\":907:912   */\n      dup2\n        /* \"#utility.yul\":896:912   */\n      swap1\n      pop\n        /* \"#utility.yul\":841:918   */\n      swap2\n      swap1\n      pop\n      jump\t// out\n        /* \"#utility.yul\":924:1046   */\n    tag_94:\n        /* \"#utility.yul\":997:1021   */\n      tag_152\n        /* \"#utility.yul\":1015:1020   */\n      dup2\n        /* \"#utility.yul\":997:1021   */\n      tag_93\n      jump\t// in\n    tag_152:\n        /* \"#utility.yul\":990:995   */\n      dup2\n        /* \"#utility.yul\":987:1022   */\n      eq\n        /* \"#utility.yul\":977:1040   */\n      tag_153\n      jumpi\n        /* \"#utility.yul\":1036:1037   */\n      0x00\n        /* \"#utility.yul\":1033:1034   */\n      dup1\n        /* \"#utility.yul\":1026:1038   */\n      revert\n        /* \"#utility.yul\":977:1040   */\n    tag_153:\n        /* \"#utility.yul\":924:1046   */\n      pop\n      jump\t// out\n        /* \"#utility.yul\":1052:1191   */\n    tag_95:\n        /* \"#utility.yul\":1098:1103   */\n      0x00\n        /* \"#utility.yul\":1136:1142   */\n      dup2\n        /* \"#utility.yul\":1123:1143   */\n      calldataload\n        /* \"#utility.yul\":1114:1143   */\n      swap1\n      pop\n        /* \"#utility.yul\":1152:1185   */\n      tag_155\n        /* \"#utility.yul\":1179:1184   */\n      dup2\n        /* \"#utility.yul\":1152:1185   */\n      tag_94\n      jump\t// in\n    tag_155:\n        /* \"#utility.yul\":1052:1191   */\n      swap3\n      swap2\n      pop\n      pop\n      jump\t// out\n        /* \"#utility.yul\":1197:1671   */\n    tag_10:\n        /* \"#utility.yul\":1265:1271   */\n      0x00\n        /* \"#utility.yul\":1273:1279   */\n      dup1\n        /* \"#utility.yul\":1322:1324   */\n      0x40\n        /* \"#utility.yul\":1310:1319   */\n      dup4\n        /* \"#utility.yul\":1301:1308   */\n      dup6\n        /* \"#utility.yul\":1297:1320   */\n      sub\n        /* \"#utility.yul\":1293:1325   */\n      slt\n        /* \"#utility.yul\":1290:1409   */\n      iszero\n      tag_157\n      jumpi\n        /* \"#utility.yul\":1328:1407   */\n      tag_158\n      tag_87\n      jump\t// in\n    tag_158:\n        /* \"#utility.yul\":1290:1409   */\n    tag_157:\n        /* \"#utility.yul\":1448:1449   */\n      0x00\n        /* \"#utility.yul\":1473:1526   */\n      tag_159\n        /* \"#utility.yul\":1518:1525   */\n      dup6\n        /* \"#utility.yul\":1509:1515   */\n      dup3\n        /* \"#utility.yul\":1498:1507   */\n      dup7\n        /* \"#utility.yul\":1494:1516   */\n      add\n        /* \"#utility.yul\":1473:1526   */\n      tag_92\n      jump\t// in\n    tag_159:\n        /* \"#utility.yul\":1463:1526   */\n      swap3\n      pop\n        /* \"#utility.yul\":1419:1536   */\n      pop\n        /* \"#utility.yul\":1575:1577   */\n      0x20\n        /* \"#utility.yul\":1601:1654   */\n      tag_160\n        /* \"#utility.yul\":1646:1653   */\n      dup6\n        /* \"#utility.yul\":1637:1643   */\n      dup3\n        /* \"#utility.yul\":1626:1635   */\n      dup7\n        /* \"#utility.yul\":1622:1644   */\n      add\n        /* \"#utility.yul\":1601:1654   */\n      tag_95\n      jump\t// in\n    tag_160:\n        /* \"#utility.yul\":1591:1654   */\n      swap2\n      pop\n        /* \"#utility.yul\":1546:1664   */\n      pop\n        /* \"#utility.yul\":1197:1671   */\n      swap3\n      pop\n      swap3\n      swap1\n      pop\n      jump\t// out\n        /* \"#utility.yul\":1677:1827   */\n    tag_96:\n        /* \"#utility.yul\":1714:1721   */\n      0x00\n        /* \"#utility.yul\":1754:1820   */\n      0xffffffffffffffffffffffffffffffffffffffff000000000000000000000000\n        /* \"#utility.yul\":1747:1752   */\n      dup3\n        /* \"#utility.yul\":1743:1821   */\n      and\n        /* \"#utility.yul\":1732:1821   */\n      swap1\n      pop\n        /* \"#utility.yul\":1677:1827   */\n      swap2\n      swap1\n      pop\n      jump\t// out\n        /* \"#utility.yul\":1833:1951   */\n    tag_97:\n        /* \"#utility.yul\":1920:1944   */\n      tag_163\n        /* \"#utility.yul\":1938:1943   */\n      dup2\n        /* \"#utility.yul\":1920:1944   */\n      tag_96\n      jump\t// in\n    tag_163:\n        /* \"#utility.yul\":1915:1918   */\n      dup3\n        /* \"#utility.yul\":1908:1945   */\n      mstore\n        /* \"#utility.yul\":1833:1951   */\n      pop\n      pop\n      jump\t// out\n        /* \"#utility.yul\":1957:2179   */\n    tag_13:\n        /* \"#utility.yul\":2050:2054   */\n      0x00\n        /* \"#utility.yul\":2088:2090   */\n      0x20\n        /* \"#utility.yul\":2077:2086   */\n      dup3\n        /* \"#utility.yul\":2073:2091   */\n      add\n        /* \"#utility.yul\":2065:2091   */\n      swap1\n      pop\n        /* \"#utility.yul\":2101:2172   */\n      tag_165\n        /* \"#utility.yul\":2169:2170   */\n      0x00\n        /* \"#utility.yul\":2158:2167   */\n      dup4\n        /* \"#utility.yul\":2154:2171   */\n      add\n        /* \"#utility.yul\":2145:2151   */\n      dup5\n        /* \"#utility.yul\":2101:2172   */\n      tag_97\n      jump\t// in\n    tag_165:\n        /* \"#utility.yul\":1957:2179   */\n      swap3\n      swap2\n      pop\n      pop\n      jump\t// out\n        /* \"#utility.yul\":2185:2307   */\n    tag_98:\n        /* \"#utility.yul\":2258:2282   */\n      tag_167\n        /* \"#utility.yul\":2276:2281   */\n      dup2\n        /* \"#utility.yul\":2258:2282   */\n      tag_96\n      jump\t// in\n    tag_167:\n        /* \"#utility.yul\":2251:2256   */\n      dup2\n        /* \"#utility.yul\":2248:2283   */\n      eq\n        /* \"#utility.yul\":2238:2301   */\n      tag_168\n      jumpi\n        /* \"#utility.yul\":2297:2298   */\n      0x00\n        /* \"#utility.yul\":2294:2295   */\n      dup1\n        /* \"#utility.yul\":2287:2299   */\n      revert\n        /* \"#utility.yul\":2238:2301   */\n    tag_168:\n        /* \"#utility.yul\":2185:2307   */\n      pop\n      jump\t// out\n        /* \"#utility.yul\":2313:2452   */\n    tag_99:\n        /* \"#utility.yul\":2359:2364   */\n      0x00\n        /* \"#utility.yul\":2397:2403   */\n      dup2\n        /* \"#utility.yul\":2384:2404   */\n      calldataload\n        /* \"#utility.yul\":2375:2404   */\n      swap1\n      pop\n        /* \"#utility.yul\":2413:2446   */\n      tag_170\n        /* \"#utility.yul\":2440:2445   */\n      dup2\n        /* \"#utility.yul\":2413:2446   */\n      tag_98\n      jump\t// in\n    tag_170:\n        /* \"#utility.yul\":2313:2452   */\n      swap3\n      swap2\n      pop\n      pop\n      jump\t// out\n        /* \"#utility.yul\":2458:2787   */\n    tag_16:\n        /* \"#utility.yul\":2517:2523   */\n      0x00\n        /* \"#utility.yul\":2566:2568   */\n      0x20\n        /* \"#utility.yul\":2554:2563   */\n      dup3\n        /* \"#utility.yul\":2545:2552   */\n      dup5\n        /* \"#utility.yul\":2541:2564   */\n      sub\n        /* \"#utility.yul\":2537:2569   */\n      slt\n        /* \"#utility.yul\":2534:2653   */\n      iszero\n      tag_172\n      jumpi\n        /* \"#utility.yul\":2572:2651   */\n      tag_173\n      tag_87\n      jump\t// in\n    tag_173:\n        /* \"#utility.yul\":2534:2653   */\n    tag_172:\n        /* \"#utility.yul\":2692:2693   */\n      0x00\n        /* \"#utility.yul\":2717:2770   */\n      tag_174\n        /* \"#utility.yul\":2762:2769   */\n      dup5\n        /* \"#utility.yul\":2753:2759   */\n      dup3\n        /* \"#utility.yul\":2742:2751   */\n      dup6\n        /* \"#utility.yul\":2738:2760   */\n      add\n        /* \"#utility.yul\":2717:2770   */\n      tag_99\n      jump\t// in\n    tag_174:\n        /* \"#utility.yul\":2707:2770   */\n      swap2\n      pop\n        /* \"#utility.yul\":2663:2780   */\n      pop\n        /* \"#utility.yul\":2458:2787   */\n      swap3\n      swap2\n      pop\n      pop\n      jump\t// out\n        /* \"#utility.yul\":2793:2911   */\n    tag_100:\n        /* \"#utility.yul\":2880:2904   */\n      tag_176\n        /* \"#utility.yul\":2898:2903   */\n      dup2\n        /* \"#utility.yul\":2880:2904   */\n      tag_90\n      jump\t// in\n    tag_176:\n        /* \"#utility.yul\":2875:2878   */\n      dup3\n        /* \"#utility.yul\":2868:2905   */\n      mstore\n        /* \"#utility.yul\":2793:2911   */\n      pop\n      pop\n      jump\t// out\n        /* \"#utility.yul\":2917:3035   */\n    tag_101:\n        /* \"#utility.yul\":3004:3028   */\n      tag_178\n        /* \"#utility.yul\":3022:3027   */\n      dup2\n        /* \"#utility.yul\":3004:3028   */\n      tag_93\n      jump\t// in\n    tag_178:\n        /* \"#utility.yul\":2999:3002   */\n      dup3\n        /* \"#utility.yul\":2992:3029   */\n      mstore\n        /* \"#utility.yul\":2917:3035   */\n      pop\n      pop\n      jump\t// out\n        /* \"#utility.yul\":3041:3140   */\n    tag_102:\n        /* \"#utility.yul\":3093:3099   */\n      0x00\n        /* \"#utility.yul\":3127:3132   */\n      dup2\n        /* \"#utility.yul\":3121:3133   */\n      mload\n        /* \"#utility.yul\":3111:3133   */\n      swap1\n      pop\n        /* \"#utility.yul\":3041:3140   */\n      swap2\n      swap1\n      pop\n      jump\t// out\n        /* \"#utility.yul\":3146:3315   */\n    tag_103:\n        /* \"#utility.yul\":3230:3241   */\n      0x00\n        /* \"#utility.yul\":3264:3270   */\n      dup3\n        /* \"#utility.yul\":3259:3262   */\n      dup3\n        /* \"#utility.yul\":3252:3271   */\n      mstore\n        /* \"#utility.yul\":3304:3308   */\n      0x20\n        /* \"#utility.yul\":3299:3302   */\n      dup3\n        /* \"#utility.yul\":3295:3309   */\n      add\n        /* \"#utility.yul\":3280:3309   */\n      swap1\n      pop\n        /* \"#utility.yul\":3146:3315   */\n      swap3\n      swap2\n      pop\n      pop\n      jump\t// out\n        /* \"#utility.yul\":3321:3628   */\n    tag_104:\n        /* \"#utility.yul\":3389:3390   */\n      0x00\n        /* \"#utility.yul\":3399:3512   */\n    tag_182:\n        /* \"#utility.yul\":3413:3419   */\n      dup4\n        /* \"#utility.yul\":3410:3411   */\n      dup2\n        /* \"#utility.yul\":3407:3420   */\n      lt\n        /* \"#utility.yul\":3399:3512   */\n      iszero\n      tag_184\n      jumpi\n        /* \"#utility.yul\":3498:3499   */\n      dup1\n        /* \"#utility.yul\":3493:3496   */\n      dup3\n        /* \"#utility.yul\":3489:3500   */\n      add\n        /* \"#utility.yul\":3483:3501   */\n      mload\n        /* \"#utility.yul\":3479:3480   */\n      dup2\n        /* \"#utility.yul\":3474:3477   */\n      dup5\n        /* \"#utility.yul\":3470:3481   */\n      add\n        /* \"#utility.yul\":3463:3502   */\n      mstore\n        /* \"#utility.yul\":3435:3437   */\n      0x20\n        /* \"#utility.yul\":3432:3433   */\n      dup2\n        /* \"#utility.yul\":3428:3438   */\n      add\n        /* \"#utility.yul\":3423:3438   */\n      swap1\n      pop\n        /* \"#utility.yul\":3399:3512   */\n      jump(tag_182)\n    tag_184:\n        /* \"#utility.yul\":3530:3536   */\n      dup4\n        /* \"#utility.yul\":3527:3528   */\n      dup2\n        /* \"#utility.yul\":3524:3537   */\n      gt\n        /* \"#utility.yul\":3521:3622   */\n      iszero\n      tag_185\n      jumpi\n        /* \"#utility.yul\":3610:3611   */\n      0x00\n        /* \"#utility.yul\":3601:3607   */\n      dup5\n        /* \"#utility.yul\":3596:3599   */\n      dup5\n        /* \"#utility.yul\":3592:3608   */\n      add\n        /* \"#utility.yul\":3585:3612   */\n      mstore\n        /* \"#utility.yul\":3521:3622   */\n    tag_185:\n        /* \"#utility.yul\":3370:3628   */\n      pop\n        /* \"#utility.yul\":3321:3628   */\n      pop\n      pop\n      pop\n      jump\t// out\n        /* \"#utility.yul\":3634:3736   */\n    tag_105:\n        /* \"#utility.yul\":3675:3681   */\n      0x00\n        /* \"#utility.yul\":3726:3728   */\n      0x1f\n        /* \"#utility.yul\":3722:3729   */\n      not\n        /* \"#utility.yul\":3717:3719   */\n      0x1f\n        /* \"#utility.yul\":3710:3715   */\n      dup4\n        /* \"#utility.yul\":3706:3720   */\n      add\n        /* \"#utility.yul\":3702:3730   */\n      and\n        /* \"#utility.yul\":3692:3730   */\n      swap1\n      pop\n        /* \"#utility.yul\":3634:3736   */\n      swap2\n      swap1\n      pop\n      jump\t// out\n        /* \"#utility.yul\":3742:4106   */\n    tag_106:\n        /* \"#utility.yul\":3830:3833   */\n      0x00\n        /* \"#utility.yul\":3858:3897   */\n      tag_188\n        /* \"#utility.yul\":3891:3896   */\n      dup3\n        /* \"#utility.yul\":3858:3897   */\n      tag_102\n      jump\t// in\n    tag_188:\n        /* \"#utility.yul\":3913:3984   */\n      tag_189\n        /* \"#utility.yul\":3977:3983   */\n      dup2\n        /* \"#utility.yul\":3972:3975   */\n      dup6\n        /* \"#utility.yul\":3913:3984   */\n      tag_103\n      jump\t// in\n    tag_189:\n        /* \"#utility.yul\":3906:3984   */\n      swap4\n      pop\n        /* \"#utility.yul\":3993:4045   */\n      tag_190\n        /* \"#utility.yul\":4038:4044   */\n      dup2\n        /* \"#utility.yul\":4033:4036   */\n      dup6\n        /* \"#utility.yul\":4026:4030   */\n      0x20\n        /* \"#utility.yul\":4019:4024   */\n      dup7\n        /* \"#utility.yul\":4015:4031   */\n      add\n        /* \"#utility.yul\":3993:4045   */\n      tag_104\n      jump\t// in\n    tag_190:\n        /* \"#utility.yul\":4070:4099   */\n      tag_191\n        /* \"#utility.yul\":4092:4098   */\n      dup2\n        /* \"#utility.yul\":4070:4099   */\n      tag_105\n      jump\t// in\n    tag_191:\n        /* \"#utility.yul\":4065:4068   */\n      dup5\n        /* \"#utility.yul\":4061:4100   */\n      add\n        /* \"#utility.yul\":4054:4100   */\n      swap2\n      pop\n        /* \"#utility.yul\":3834:4106   */\n      pop\n        /* \"#utility.yul\":3742:4106   */\n      swap3\n      swap2\n      pop\n      pop\n      jump\t// out\n        /* \"#utility.yul\":4112:5089   */\n    tag_19:\n        /* \"#utility.yul\":4393:4397   */\n      0x00\n        /* \"#utility.yul\":4431:4434   */\n      0xe0\n        /* \"#utility.yul\":4420:4429   */\n      dup3\n        /* \"#utility.yul\":4416:4435   */\n      add\n        /* \"#utility.yul\":4408:4435   */\n      swap1\n      pop\n        /* \"#utility.yul\":4445:4516   */\n      tag_193\n        /* \"#utility.yul\":4513:4514   */\n      0x00\n        /* \"#utility.yul\":4502:4511   */\n      dup4\n        /* \"#utility.yul\":4498:4515   */\n      add\n        /* \"#utility.yul\":4489:4495   */\n      dup11\n        /* \"#utility.yul\":4445:4516   */\n      tag_97\n      jump\t// in\n    tag_193:\n        /* \"#utility.yul\":4526:4598   */\n      tag_194\n        /* \"#utility.yul\":4594:4596   */\n      0x20\n        /* \"#utility.yul\":4583:4592   */\n      dup4\n        /* \"#utility.yul\":4579:4597   */\n      add\n        /* \"#utility.yul\":4570:4576   */\n      dup10\n        /* \"#utility.yul\":4526:4598   */\n      tag_100\n      jump\t// in\n    tag_194:\n        /* \"#utility.yul\":4608:4680   */\n      tag_195\n        /* \"#utility.yul\":4676:4678   */\n      0x40\n        /* \"#utility.yul\":4665:4674   */\n      dup4\n        /* \"#utility.yul\":4661:4679   */\n      add\n        /* \"#utility.yul\":4652:4658   */\n      dup9\n        /* \"#utility.yul\":4608:4680   */\n      tag_100\n      jump\t// in\n    tag_195:\n        /* \"#utility.yul\":4690:4762   */\n      tag_196\n        /* \"#utility.yul\":4758:4760   */\n      0x60\n        /* \"#utility.yul\":4747:4756   */\n      dup4\n        /* \"#utility.yul\":4743:4761   */\n      add\n        /* \"#utility.yul\":4734:4740   */\n      dup8\n        /* \"#utility.yul\":4690:4762   */\n      tag_101\n      jump\t// in\n    tag_196:\n        /* \"#utility.yul\":4772:4845   */\n      tag_197\n        /* \"#utility.yul\":4840:4843   */\n      0x80\n        /* \"#utility.yul\":4829:4838   */\n      dup4\n        /* \"#utility.yul\":4825:4844   */\n      add\n        /* \"#utility.yul\":4816:4822   */\n      dup7\n        /* \"#utility.yul\":4772:4845   */\n      tag_101\n      jump\t// in\n    tag_197:\n        /* \"#utility.yul\":4893:4902   */\n      dup2\n        /* \"#utility.yul\":4887:4891   */\n      dup2\n        /* \"#utility.yul\":4883:4903   */\n      sub\n        /* \"#utility.yul\":4877:4880   */\n      0xa0\n        /* \"#utility.yul\":4866:4875   */\n      dup4\n        /* \"#utility.yul\":4862:4881   */\n      add\n        /* \"#utility.yul\":4855:4904   */\n      mstore\n        /* \"#utility.yul\":4921:4999   */\n      tag_198\n        /* \"#utility.yul\":4994:4998   */\n      dup2\n        /* \"#utility.yul\":4985:4991   */\n      dup6\n        /* \"#utility.yul\":4921:4999   */\n      tag_106\n      jump\t// in\n    tag_198:\n        /* \"#utility.yul\":4913:4999   */\n      swap1\n      pop\n        /* \"#utility.yul\":5009:5082   */\n      tag_199\n        /* \"#utility.yul\":5077:5080   */\n      0xc0\n        /* \"#utility.yul\":5066:5075   */\n      dup4\n        /* \"#utility.yul\":5062:5081   */\n      add\n        /* \"#utility.yul\":5053:5059   */\n      dup5\n        /* \"#utility.yul\":5009:5082   */\n      tag_97\n      jump\t// in\n    tag_199:\n        /* \"#utility.yul\":4112:5089   */\n      swap9\n      swap8\n      pop\n      pop\n      pop\n      pop\n      pop\n      pop\n      pop\n      pop\n      jump\t// out\n        /* \"#utility.yul\":5095:5212   */\n    tag_107:\n        /* \"#utility.yul\":5204:5205   */\n      0x00\n        /* \"#utility.yul\":5201:5202   */\n      dup1\n        /* \"#utility.yul\":5194:5206   */\n      revert\n        /* \"#utility.yul\":5218:5335   */\n    tag_108:\n        /* \"#utility.yul\":5327:5328   */\n      0x00\n        /* \"#utility.yul\":5324:5325   */\n      dup1\n        /* \"#utility.yul\":5317:5329   */\n      revert\n        /* \"#utility.yul\":5341:5458   */\n    tag_109:\n        /* \"#utility.yul\":5450:5451   */\n      0x00\n        /* \"#utility.yul\":5447:5448   */\n      dup1\n        /* \"#utility.yul\":5440:5452   */\n      revert\n        /* \"#utility.yul\":5478:6031   */\n    tag_110:\n        /* \"#utility.yul\":5536:5544   */\n      0x00\n        /* \"#utility.yul\":5546:5552   */\n      dup1\n        /* \"#utility.yul\":5596:5599   */\n      dup4\n        /* \"#utility.yul\":5589:5593   */\n      0x1f\n        /* \"#utility.yul\":5581:5587   */\n      dup5\n        /* \"#utility.yul\":5577:5594   */\n      add\n        /* \"#utility.yul\":5573:5600   */\n      slt\n        /* \"#utility.yul\":5563:5685   */\n      tag_204\n      jumpi\n        /* \"#utility.yul\":5604:5683   */\n      tag_205\n      tag_107\n      jump\t// in\n    tag_205:\n        /* \"#utility.yul\":5563:5685   */\n    tag_204:\n        /* \"#utility.yul\":5717:5723   */\n      dup3\n        /* \"#utility.yul\":5704:5724   */\n      calldataload\n        /* \"#utility.yul\":5694:5724   */\n      swap1\n      pop\n        /* \"#utility.yul\":5747:5765   */\n      0xffffffffffffffff\n        /* \"#utility.yul\":5739:5745   */\n      dup2\n        /* \"#utility.yul\":5736:5766   */\n      gt\n        /* \"#utility.yul\":5733:5850   */\n      iszero\n      tag_206\n      jumpi\n        /* \"#utility.yul\":5769:5848   */\n      tag_207\n      tag_108\n      jump\t// in\n    tag_207:\n        /* \"#utility.yul\":5733:5850   */\n    tag_206:\n        /* \"#utility.yul\":5883:5887   */\n      0x20\n        /* \"#utility.yul\":5875:5881   */\n      dup4\n        /* \"#utility.yul\":5871:5888   */\n      add\n        /* \"#utility.yul\":5859:5888   */\n      swap2\n      pop\n        /* \"#utility.yul\":5937:5940   */\n      dup4\n        /* \"#utility.yul\":5929:5933   */\n      0x01\n        /* \"#utility.yul\":5921:5927   */\n      dup3\n        /* \"#utility.yul\":5917:5934   */\n      mul\n        /* \"#utility.yul\":5907:5915   */\n      dup4\n        /* \"#utility.yul\":5903:5935   */\n      add\n        /* \"#utility.yul\":5900:5941   */\n      gt\n        /* \"#utility.yul\":5897:6025   */\n      iszero\n      tag_208\n      jumpi\n        /* \"#utility.yul\":5944:6023   */\n      tag_209\n      tag_109\n      jump\t// in\n    tag_209:\n        /* \"#utility.yul\":5897:6025   */\n    tag_208:\n        /* \"#utility.yul\":5478:6031   */\n      swap3\n      pop\n      swap3\n      swap1\n      pop\n      jump\t// out\n        /* \"#utility.yul\":6037:6856   */\n    tag_22:\n        /* \"#utility.yul\":6126:6132   */\n      0x00\n        /* \"#utility.yul\":6134:6140   */\n      dup1\n        /* \"#utility.yul\":6142:6148   */\n      0x00\n        /* \"#utility.yul\":6150:6156   */\n      dup1\n        /* \"#utility.yul\":6199:6201   */\n      0x60\n        /* \"#utility.yul\":6187:6196   */\n      dup6\n        /* \"#utility.yul\":6178:6185   */\n      dup8\n        /* \"#utility.yul\":6174:6197   */\n      sub\n        /* \"#utility.yul\":6170:6202   */\n      slt\n        /* \"#utility.yul\":6167:6286   */\n      iszero\n      tag_211\n      jumpi\n        /* \"#utility.yul\":6205:6284   */\n      tag_212\n      tag_87\n      jump\t// in\n    tag_212:\n        /* \"#utility.yul\":6167:6286   */\n    tag_211:\n        /* \"#utility.yul\":6325:6326   */\n      0x00\n        /* \"#utility.yul\":6350:6403   */\n      tag_213\n        /* \"#utility.yul\":6395:6402   */\n      dup8\n        /* \"#utility.yul\":6386:6392   */\n      dup3\n        /* \"#utility.yul\":6375:6384   */\n      dup9\n        /* \"#utility.yul\":6371:6393   */\n      add\n        /* \"#utility.yul\":6350:6403   */\n      tag_92\n      jump\t// in\n    tag_213:\n        /* \"#utility.yul\":6340:6403   */\n      swap5\n      pop\n        /* \"#utility.yul\":6296:6413   */\n      pop\n        /* \"#utility.yul\":6452:6454   */\n      0x20\n        /* \"#utility.yul\":6478:6531   */\n      tag_214\n        /* \"#utility.yul\":6523:6530   */\n      dup8\n        /* \"#utility.yul\":6514:6520   */\n      dup3\n        /* \"#utility.yul\":6503:6512   */\n      dup9\n        /* \"#utility.yul\":6499:6521   */\n      add\n        /* \"#utility.yul\":6478:6531   */\n      tag_95\n      jump\t// in\n    tag_214:\n        /* \"#utility.yul\":6468:6531   */\n      swap4\n      pop\n        /* \"#utility.yul\":6423:6541   */\n      pop\n        /* \"#utility.yul\":6608:6610   */\n      0x40\n        /* \"#utility.yul\":6597:6606   */\n      dup6\n        /* \"#utility.yul\":6593:6611   */\n      add\n        /* \"#utility.yul\":6580:6612   */\n      calldataload\n        /* \"#utility.yul\":6639:6657   */\n      0xffffffffffffffff\n        /* \"#utility.yul\":6631:6637   */\n      dup2\n        /* \"#utility.yul\":6628:6658   */\n      gt\n        /* \"#utility.yul\":6625:6742   */\n      iszero\n      tag_215\n      jumpi\n        /* \"#utility.yul\":6661:6740   */\n      tag_216\n      tag_88\n      jump\t// in\n    tag_216:\n        /* \"#utility.yul\":6625:6742   */\n    tag_215:\n        /* \"#utility.yul\":6774:6839   */\n      tag_217\n        /* \"#utility.yul\":6831:6838   */\n      dup8\n        /* \"#utility.yul\":6822:6828   */\n      dup3\n        /* \"#utility.yul\":6811:6820   */\n      dup9\n        /* \"#utility.yul\":6807:6829   */\n      add\n        /* \"#utility.yul\":6774:6839   */\n      tag_110\n      jump\t// in\n    tag_217:\n        /* \"#utility.yul\":6756:6839   */\n      swap3\n      pop\n      swap3\n      pop\n        /* \"#utility.yul\":6551:6849   */\n      pop\n        /* \"#utility.yul\":6037:6856   */\n      swap3\n      swap6\n      swap2\n      swap5\n      pop\n      swap3\n      pop\n      jump\t// out\n        /* \"#utility.yul\":6862:6970   */\n    tag_111:\n        /* \"#utility.yul\":6939:6963   */\n      tag_219\n        /* \"#utility.yul\":6957:6962   */\n      dup2\n        /* \"#utility.yul\":6939:6963   */\n      tag_96\n      jump\t// in\n    tag_219:\n        /* \"#utility.yul\":6934:6937   */\n      dup3\n        /* \"#utility.yul\":6927:6964   */\n      mstore\n        /* \"#utility.yul\":6862:6970   */\n      pop\n      pop\n      jump\t// out\n        /* \"#utility.yul\":6976:7084   */\n    tag_112:\n        /* \"#utility.yul\":7053:7077   */\n      tag_221\n        /* \"#utility.yul\":7071:7076   */\n      dup2\n        /* \"#utility.yul\":7053:7077   */\n      tag_90\n      jump\t// in\n    tag_221:\n        /* \"#utility.yul\":7048:7051   */\n      dup3\n        /* \"#utility.yul\":7041:7078   */\n      mstore\n        /* \"#utility.yul\":6976:7084   */\n      pop\n      pop\n      jump\t// out\n        /* \"#utility.yul\":7090:7198   */\n    tag_113:\n        /* \"#utility.yul\":7167:7191   */\n      tag_223\n        /* \"#utility.yul\":7185:7190   */\n      dup2\n        /* \"#utility.yul\":7167:7191   */\n      tag_93\n      jump\t// in\n    tag_223:\n        /* \"#utility.yul\":7162:7165   */\n      dup3\n        /* \"#utility.yul\":7155:7192   */\n      mstore\n        /* \"#utility.yul\":7090:7198   */\n      pop\n      pop\n      jump\t// out\n        /* \"#utility.yul\":7204:7363   */\n    tag_114:\n        /* \"#utility.yul\":7278:7289   */\n      0x00\n        /* \"#utility.yul\":7312:7318   */\n      dup3\n        /* \"#utility.yul\":7307:7310   */\n      dup3\n        /* \"#utility.yul\":7300:7319   */\n      mstore\n        /* \"#utility.yul\":7352:7356   */\n      0x20\n        /* \"#utility.yul\":7347:7350   */\n      dup3\n        /* \"#utility.yul\":7343:7357   */\n      add\n        /* \"#utility.yul\":7328:7357   */\n      swap1\n      pop\n        /* \"#utility.yul\":7204:7363   */\n      swap3\n      swap2\n      pop\n      pop\n      jump\t// out\n        /* \"#utility.yul\":7369:7713   */\n    tag_115:\n        /* \"#utility.yul\":7447:7450   */\n      0x00\n        /* \"#utility.yul\":7475:7514   */\n      tag_226\n        /* \"#utility.yul\":7508:7513   */\n      dup3\n        /* \"#utility.yul\":7475:7514   */\n      tag_102\n      jump\t// in\n    tag_226:\n        /* \"#utility.yul\":7530:7591   */\n      tag_227\n        /* \"#utility.yul\":7584:7590   */\n      dup2\n        /* \"#utility.yul\":7579:7582   */\n      dup6\n        /* \"#utility.yul\":7530:7591   */\n      tag_114\n      jump\t// in\n    tag_227:\n        /* \"#utility.yul\":7523:7591   */\n      swap4\n      pop\n        /* \"#utility.yul\":7600:7652   */\n      tag_228\n        /* \"#utility.yul\":7645:7651   */\n      dup2\n        /* \"#utility.yul\":7640:7643   */\n      dup6\n        /* \"#utility.yul\":7633:7637   */\n      0x20\n        /* \"#utility.yul\":7626:7631   */\n      dup7\n        /* \"#utility.yul\":7622:7638   */\n      add\n        /* \"#utility.yul\":7600:7652   */\n      tag_104\n      jump\t// in\n    tag_228:\n        /* \"#utility.yul\":7677:7706   */\n      tag_229\n        /* \"#utility.yul\":7699:7705   */\n      dup2\n        /* \"#utility.yul\":7677:7706   */\n      tag_105\n      jump\t// in\n    tag_229:\n        /* \"#utility.yul\":7672:7675   */\n      dup5\n        /* \"#utility.yul\":7668:7707   */\n      add\n        /* \"#utility.yul\":7661:7707   */\n      swap2\n      pop\n        /* \"#utility.yul\":7451:7713   */\n      pop\n        /* \"#utility.yul\":7369:7713   */\n      swap3\n      swap2\n      pop\n      pop\n      jump\t// out\n        /* \"#utility.yul\":7811:9352   */\n    tag_116:\n        /* \"#utility.yul\":7946:7949   */\n      0x00\n        /* \"#utility.yul\":7982:7986   */\n      0xe0\n        /* \"#utility.yul\":7977:7980   */\n      dup4\n        /* \"#utility.yul\":7973:7987   */\n      add\n        /* \"#utility.yul\":8075:8079   */\n      0x00\n        /* \"#utility.yul\":8068:8073   */\n      dup4\n        /* \"#utility.yul\":8064:8080   */\n      add\n        /* \"#utility.yul\":8058:8081   */\n      mload\n        /* \"#utility.yul\":8094:8157   */\n      tag_231\n        /* \"#utility.yul\":8151:8155   */\n      0x00\n        /* \"#utility.yul\":8146:8149   */\n      dup7\n        /* \"#utility.yul\":8142:8156   */\n      add\n        /* \"#utility.yul\":8128:8140   */\n      dup3\n        /* \"#utility.yul\":8094:8157   */\n      tag_111\n      jump\t// in\n    tag_231:\n        /* \"#utility.yul\":7997:8167   */\n      pop\n        /* \"#utility.yul\":8254:8258   */\n      0x20\n        /* \"#utility.yul\":8247:8252   */\n      dup4\n        /* \"#utility.yul\":8243:8259   */\n      add\n        /* \"#utility.yul\":8237:8260   */\n      mload\n        /* \"#utility.yul\":8273:8336   */\n      tag_232\n        /* \"#utility.yul\":8330:8334   */\n      0x20\n        /* \"#utility.yul\":8325:8328   */\n      dup7\n        /* \"#utility.yul\":8321:8335   */\n      add\n        /* \"#utility.yul\":8307:8319   */\n      dup3\n        /* \"#utility.yul\":8273:8336   */\n      tag_112\n      jump\t// in\n    tag_232:\n        /* \"#utility.yul\":8177:8346   */\n      pop\n        /* \"#utility.yul\":8436:8440   */\n      0x40\n        /* \"#utility.yul\":8429:8434   */\n      dup4\n        /* \"#utility.yul\":8425:8441   */\n      add\n        /* \"#utility.yul\":8419:8442   */\n      mload\n        /* \"#utility.yul\":8455:8518   */\n      tag_233\n        /* \"#utility.yul\":8512:8516   */\n      0x40\n        /* \"#utility.yul\":8507:8510   */\n      dup7\n        /* \"#utility.yul\":8503:8517   */\n      add\n        /* \"#utility.yul\":8489:8501   */\n      dup3\n        /* \"#utility.yul\":8455:8518   */\n      tag_112\n      jump\t// in\n    tag_233:\n        /* \"#utility.yul\":8356:8528   */\n      pop\n        /* \"#utility.yul\":8621:8625   */\n      0x60\n        /* \"#utility.yul\":8614:8619   */\n      dup4\n        /* \"#utility.yul\":8610:8626   */\n      add\n        /* \"#utility.yul\":8604:8627   */\n      mload\n        /* \"#utility.yul\":8640:8703   */\n      tag_234\n        /* \"#utility.yul\":8697:8701   */\n      0x60\n        /* \"#utility.yul\":8692:8695   */\n      dup7\n        /* \"#utility.yul\":8688:8702   */\n      add\n        /* \"#utility.yul\":8674:8686   */\n      dup3\n        /* \"#utility.yul\":8640:8703   */\n      tag_113\n      jump\t// in\n    tag_234:\n        /* \"#utility.yul\":8538:8713   */\n      pop\n        /* \"#utility.yul\":8804:8808   */\n      0x80\n        /* \"#utility.yul\":8797:8802   */\n      dup4\n        /* \"#utility.yul\":8793:8809   */\n      add\n        /* \"#utility.yul\":8787:8810   */\n      mload\n        /* \"#utility.yul\":8823:8886   */\n      tag_235\n        /* \"#utility.yul\":8880:8884   */\n      0x80\n        /* \"#utility.yul\":8875:8878   */\n      dup7\n        /* \"#utility.yul\":8871:8885   */\n      add\n        /* \"#utility.yul\":8857:8869   */\n      dup3\n        /* \"#utility.yul\":8823:8886   */\n      tag_113\n      jump\t// in\n    tag_235:\n        /* \"#utility.yul\":8723:8896   */\n      pop\n        /* \"#utility.yul\":8981:8985   */\n      0xa0\n        /* \"#utility.yul\":8974:8979   */\n      dup4\n        /* \"#utility.yul\":8970:8986   */\n      add\n        /* \"#utility.yul\":8964:8987   */\n      mload\n        /* \"#utility.yul\":9034:9037   */\n      dup5\n        /* \"#utility.yul\":9028:9032   */\n      dup3\n        /* \"#utility.yul\":9024:9038   */\n      sub\n        /* \"#utility.yul\":9017:9021   */\n      0xa0\n        /* \"#utility.yul\":9012:9015   */\n      dup7\n        /* \"#utility.yul\":9008:9022   */\n      add\n        /* \"#utility.yul\":9001:9039   */\n      mstore\n        /* \"#utility.yul\":9060:9133   */\n      tag_236\n        /* \"#utility.yul\":9128:9132   */\n      dup3\n        /* \"#utility.yul\":9114:9126   */\n      dup3\n        /* \"#utility.yul\":9060:9133   */\n      tag_115\n      jump\t// in\n    tag_236:\n        /* \"#utility.yul\":9052:9133   */\n      swap2\n      pop\n        /* \"#utility.yul\":8906:9144   */\n      pop\n        /* \"#utility.yul\":9233:9237   */\n      0xc0\n        /* \"#utility.yul\":9226:9231   */\n      dup4\n        /* \"#utility.yul\":9222:9238   */\n      add\n        /* \"#utility.yul\":9216:9239   */\n      mload\n        /* \"#utility.yul\":9252:9315   */\n      tag_237\n        /* \"#utility.yul\":9309:9313   */\n      0xc0\n        /* \"#utility.yul\":9304:9307   */\n      dup7\n        /* \"#utility.yul\":9300:9314   */\n      add\n        /* \"#utility.yul\":9286:9298   */\n      dup3\n        /* \"#utility.yul\":9252:9315   */\n      tag_111\n      jump\t// in\n    tag_237:\n        /* \"#utility.yul\":9154:9325   */\n      pop\n        /* \"#utility.yul\":9342:9346   */\n      dup1\n        /* \"#utility.yul\":9335:9346   */\n      swap2\n      pop\n        /* \"#utility.yul\":7951:9352   */\n      pop\n        /* \"#utility.yul\":7811:9352   */\n      swap3\n      swap2\n      pop\n      pop\n      jump\t// out\n        /* \"#utility.yul\":9358:9763   */\n    tag_25:\n        /* \"#utility.yul\":9517:9521   */\n      0x00\n        /* \"#utility.yul\":9555:9557   */\n      0x20\n        /* \"#utility.yul\":9544:9553   */\n      dup3\n        /* \"#utility.yul\":9540:9558   */\n      add\n        /* \"#utility.yul\":9532:9558   */\n      swap1\n      pop\n        /* \"#utility.yul\":9604:9613   */\n      dup2\n        /* \"#utility.yul\":9598:9602   */\n      dup2\n        /* \"#utility.yul\":9594:9614   */\n      sub\n        /* \"#utility.yul\":9590:9591   */\n      0x00\n        /* \"#utility.yul\":9579:9588   */\n      dup4\n        /* \"#utility.yul\":9575:9592   */\n      add\n        /* \"#utility.yul\":9568:9615   */\n      mstore\n        /* \"#utility.yul\":9632:9756   */\n      tag_239\n        /* \"#utility.yul\":9751:9755   */\n      dup2\n        /* \"#utility.yul\":9742:9748   */\n      dup5\n        /* \"#utility.yul\":9632:9756   */\n      tag_116\n      jump\t// in\n    tag_239:\n        /* \"#utility.yul\":9624:9756   */\n      swap1\n      pop\n        /* \"#utility.yul\":9358:9763   */\n      swap3\n      swap2\n      pop\n      pop\n      jump\t// out\n        /* \"#utility.yul\":9769:10098   */\n    tag_28:\n        /* \"#utility.yul\":9828:9834   */\n      0x00\n        /* \"#utility.yul\":9877:9879   */\n      0x20\n        /* \"#utility.yul\":9865:9874   */\n      dup3\n        /* \"#utility.yul\":9856:9863   */\n      dup5\n        /* \"#utility.yul\":9852:9875   */\n      sub\n        /* \"#utility.yul\":9848:9880   */\n      slt\n        /* \"#utility.yul\":9845:9964   */\n      iszero\n      tag_241\n      jumpi\n        /* \"#utility.yul\":9883:9962   */\n      tag_242\n      tag_87\n      jump\t// in\n    tag_242:\n        /* \"#utility.yul\":9845:9964   */\n    tag_241:\n        /* \"#utility.yul\":10003:10004   */\n      0x00\n        /* \"#utility.yul\":10028:10081   */\n      tag_243\n        /* \"#utility.yul\":10073:10080   */\n      dup5\n        /* \"#utility.yul\":10064:10070   */\n      dup3\n        /* \"#utility.yul\":10053:10062   */\n      dup6\n        /* \"#utility.yul\":10049:10071   */\n      add\n        /* \"#utility.yul\":10028:10081   */\n      tag_92\n      jump\t// in\n    tag_243:\n        /* \"#utility.yul\":10018:10081   */\n      swap2\n      pop\n        /* \"#utility.yul\":9974:10091   */\n      pop\n        /* \"#utility.yul\":9769:10098   */\n      swap3\n      swap2\n      pop\n      pop\n      jump\t// out\n        /* \"#utility.yul\":10104:10218   */\n    tag_117:\n        /* \"#utility.yul\":10171:10177   */\n      0x00\n        /* \"#utility.yul\":10205:10210   */\n      dup2\n        /* \"#utility.yul\":10199:10211   */\n      mload\n        /* \"#utility.yul\":10189:10211   */\n      swap1\n      pop\n        /* \"#utility.yul\":10104:10218   */\n      swap2\n      swap1\n      pop\n      jump\t// out\n        /* \"#utility.yul\":10224:10408   */\n    tag_118:\n        /* \"#utility.yul\":10323:10334   */\n      0x00\n        /* \"#utility.yul\":10357:10363   */\n      dup3\n        /* \"#utility.yul\":10352:10355   */\n      dup3\n        /* \"#utility.yul\":10345:10364   */\n      mstore\n        /* \"#utility.yul\":10397:10401   */\n      0x20\n        /* \"#utility.yul\":10392:10395   */\n      dup3\n        /* \"#utility.yul\":10388:10402   */\n      add\n        /* \"#utility.yul\":10373:10402   */\n      swap1\n      pop\n        /* \"#utility.yul\":10224:10408   */\n      swap3\n      swap2\n      pop\n      pop\n      jump\t// out\n        /* \"#utility.yul\":10414:10546   */\n    tag_119:\n        /* \"#utility.yul\":10481:10485   */\n      0x00\n        /* \"#utility.yul\":10504:10507   */\n      dup2\n        /* \"#utility.yul\":10496:10507   */\n      swap1\n      pop\n        /* \"#utility.yul\":10534:10538   */\n      0x20\n        /* \"#utility.yul\":10529:10532   */\n      dup3\n        /* \"#utility.yul\":10525:10539   */\n      add\n        /* \"#utility.yul\":10517:10539   */\n      swap1\n      pop\n        /* \"#utility.yul\":10414:10546   */\n      swap2\n      swap1\n      pop\n      jump\t// out\n        /* \"#utility.yul\":10552:10731   */\n    tag_120:\n        /* \"#utility.yul\":10621:10631   */\n      0x00\n        /* \"#utility.yul\":10642:10688   */\n      tag_248\n        /* \"#utility.yul\":10684:10687   */\n      dup4\n        /* \"#utility.yul\":10676:10682   */\n      dup4\n        /* \"#utility.yul\":10642:10688   */\n      tag_111\n      jump\t// in\n    tag_248:\n        /* \"#utility.yul\":10720:10724   */\n      0x20\n        /* \"#utility.yul\":10715:10718   */\n      dup4\n        /* \"#utility.yul\":10711:10725   */\n      add\n        /* \"#utility.yul\":10697:10725   */\n      swap1\n      pop\n        /* \"#utility.yul\":10552:10731   */\n      swap3\n      swap2\n      pop\n      pop\n      jump\t// out\n        /* \"#utility.yul\":10737:10850   */\n    tag_121:\n        /* \"#utility.yul\":10807:10811   */\n      0x00\n        /* \"#utility.yul\":10839:10843   */\n      0x20\n        /* \"#utility.yul\":10834:10837   */\n      dup3\n        /* \"#utility.yul\":10830:10844   */\n      add\n        /* \"#utility.yul\":10822:10844   */\n      swap1\n      pop\n        /* \"#utility.yul\":10737:10850   */\n      swap2\n      swap1\n      pop\n      jump\t// out\n        /* \"#utility.yul\":10886:11618   */\n    tag_122:\n        /* \"#utility.yul\":11005:11008   */\n      0x00\n        /* \"#utility.yul\":11034:11088   */\n      tag_251\n        /* \"#utility.yul\":11082:11087   */\n      dup3\n        /* \"#utility.yul\":11034:11088   */\n      tag_117\n      jump\t// in\n    tag_251:\n        /* \"#utility.yul\":11104:11190   */\n      tag_252\n        /* \"#utility.yul\":11183:11189   */\n      dup2\n        /* \"#utility.yul\":11178:11181   */\n      dup6\n        /* \"#utility.yul\":11104:11190   */\n      tag_118\n      jump\t// in\n    tag_252:\n        /* \"#utility.yul\":11097:11190   */\n      swap4\n      pop\n        /* \"#utility.yul\":11214:11270   */\n      tag_253\n        /* \"#utility.yul\":11264:11269   */\n      dup4\n        /* \"#utility.yul\":11214:11270   */\n      tag_119\n      jump\t// in\n    tag_253:\n        /* \"#utility.yul\":11293:11300   */\n      dup1\n        /* \"#utility.yul\":11324:11325   */\n      0x00\n        /* \"#utility.yul\":11309:11593   */\n    tag_254:\n        /* \"#utility.yul\":11334:11340   */\n      dup4\n        /* \"#utility.yul\":11331:11332   */\n      dup2\n        /* \"#utility.yul\":11328:11341   */\n      lt\n        /* \"#utility.yul\":11309:11593   */\n      iszero\n      tag_256\n      jumpi\n        /* \"#utility.yul\":11410:11416   */\n      dup2\n        /* \"#utility.yul\":11404:11417   */\n      mload\n        /* \"#utility.yul\":11437:11500   */\n      tag_257\n        /* \"#utility.yul\":11496:11499   */\n      dup9\n        /* \"#utility.yul\":11481:11494   */\n      dup3\n        /* \"#utility.yul\":11437:11500   */\n      tag_120\n      jump\t// in\n    tag_257:\n        /* \"#utility.yul\":11430:11500   */\n      swap8\n      pop\n        /* \"#utility.yul\":11523:11583   */\n      tag_258\n        /* \"#utility.yul\":11576:11582   */\n      dup4\n        /* \"#utility.yul\":11523:11583   */\n      tag_121\n      jump\t// in\n    tag_258:\n        /* \"#utility.yul\":11513:11583   */\n      swap3\n      pop\n        /* \"#utility.yul\":11369:11593   */\n      pop\n        /* \"#utility.yul\":11356:11357   */\n      0x01\n        /* \"#utility.yul\":11353:11354   */\n      dup2\n        /* \"#utility.yul\":11349:11358   */\n      add\n        /* \"#utility.yul\":11344:11358   */\n      swap1\n      pop\n        /* \"#utility.yul\":11309:11593   */\n      jump(tag_254)\n    tag_256:\n        /* \"#utility.yul\":11313:11327   */\n      pop\n        /* \"#utility.yul\":11609:11612   */\n      dup6\n        /* \"#utility.yul\":11602:11612   */\n      swap4\n      pop\n        /* \"#utility.yul\":11010:11618   */\n      pop\n      pop\n      pop\n        /* \"#utility.yul\":10886:11618   */\n      swap3\n      swap2\n      pop\n      pop\n      jump\t// out\n        /* \"#utility.yul\":11624:11997   */\n    tag_31:\n        /* \"#utility.yul\":11767:11771   */\n      0x00\n        /* \"#utility.yul\":11805:11807   */\n      0x20\n        /* \"#utility.yul\":11794:11803   */\n      dup3\n        /* \"#utility.yul\":11790:11808   */\n      add\n        /* \"#utility.yul\":11782:11808   */\n      swap1\n      pop\n        /* \"#utility.yul\":11854:11863   */\n      dup2\n        /* \"#utility.yul\":11848:11852   */\n      dup2\n        /* \"#utility.yul\":11844:11864   */\n      sub\n        /* \"#utility.yul\":11840:11841   */\n      0x00\n        /* \"#utility.yul\":11829:11838   */\n      dup4\n        /* \"#utility.yul\":11825:11842   */\n      add\n        /* \"#utility.yul\":11818:11865   */\n      mstore\n        /* \"#utility.yul\":11882:11990   */\n      tag_260\n        /* \"#utility.yul\":11985:11989   */\n      dup2\n        /* \"#utility.yul\":11976:11982   */\n      dup5\n        /* \"#utility.yul\":11882:11990   */\n      tag_122\n      jump\t// in\n    tag_260:\n        /* \"#utility.yul\":11874:11990   */\n      swap1\n      pop\n        /* \"#utility.yul\":11624:11997   */\n      swap3\n      swap2\n      pop\n      pop\n      jump\t// out\n        /* \"#utility.yul\":12003:12183   */\n    tag_123:\n        /* \"#utility.yul\":12051:12128   */\n      0x4e487b7100000000000000000000000000000000000000000000000000000000\n        /* \"#utility.yul\":12048:12049   */\n      0x00\n        /* \"#utility.yul\":12041:12129   */\n      mstore\n        /* \"#utility.yul\":12148:12152   */\n      0x22\n        /* \"#utility.yul\":12145:12146   */\n      0x04\n        /* \"#utility.yul\":12138:12153   */\n      mstore\n        /* \"#utility.yul\":12172:12176   */\n      0x24\n        /* \"#utility.yul\":12169:12170   */\n      0x00\n        /* \"#utility.yul\":12162:12177   */\n      revert\n        /* \"#utility.yul\":12189:12509   */\n    tag_39:\n        /* \"#utility.yul\":12233:12239   */\n      0x00\n        /* \"#utility.yul\":12270:12271   */\n      0x02\n        /* \"#utility.yul\":12264:12268   */\n      dup3\n        /* \"#utility.yul\":12260:12272   */\n      div\n        /* \"#utility.yul\":12250:12272   */\n      swap1\n      pop\n        /* \"#utility.yul\":12317:12318   */\n      0x01\n        /* \"#utility.yul\":12311:12315   */\n      dup3\n        /* \"#utility.yul\":12307:12319   */\n      and\n        /* \"#utility.yul\":12338:12356   */\n      dup1\n        /* \"#utility.yul\":12328:12409   */\n      tag_263\n      jumpi\n        /* \"#utility.yul\":12394:12398   */\n      0x7f\n        /* \"#utility.yul\":12386:12392   */\n      dup3\n        /* \"#utility.yul\":12382:12399   */\n      and\n        /* \"#utility.yul\":12372:12399   */\n      swap2\n      pop\n        /* \"#utility.yul\":12328:12409   */\n    tag_263:\n        /* \"#utility.yul\":12456:12458   */\n      0x20\n        /* \"#utility.yul\":12448:12454   */\n      dup3\n        /* \"#utility.yul\":12445:12459   */\n      lt\n        /* \"#utility.yul\":12425:12443   */\n      dup2\n        /* \"#utility.yul\":12422:12460   */\n      eq\n        /* \"#utility.yul\":12419:12503   */\n      iszero\n      tag_264\n      jumpi\n        /* \"#utility.yul\":12475:12493   */\n      tag_265\n      tag_123\n      jump\t// in\n    tag_265:\n        /* \"#utility.yul\":12419:12503   */\n    tag_264:\n        /* \"#utility.yul\":12240:12509   */\n      pop\n        /* \"#utility.yul\":12189:12509   */\n      swap2\n      swap1\n      pop\n      jump\t// out\n        /* \"#utility.yul\":12515:12609   */\n    tag_124:\n        /* \"#utility.yul\":12548:12556   */\n      0x00\n        /* \"#utility.yul\":12596:12601   */\n      dup2\n        /* \"#utility.yul\":12592:12594   */\n      0x60\n        /* \"#utility.yul\":12588:12602   */\n      shl\n        /* \"#utility.yul\":12567:12602   */\n      swap1\n      pop\n        /* \"#utility.yul\":12515:12609   */\n      swap2\n      swap1\n      pop\n      jump\t// out\n        /* \"#utility.yul\":12615:12709   */\n    tag_125:\n        /* \"#utility.yul\":12654:12661   */\n      0x00\n        /* \"#utility.yul\":12683:12703   */\n      tag_268\n        /* \"#utility.yul\":12697:12702   */\n      dup3\n        /* \"#utility.yul\":12683:12703   */\n      tag_124\n      jump\t// in\n    tag_268:\n        /* \"#utility.yul\":12672:12703   */\n      swap1\n      pop\n        /* \"#utility.yul\":12615:12709   */\n      swap2\n      swap1\n      pop\n      jump\t// out\n        /* \"#utility.yul\":12715:12815   */\n    tag_126:\n        /* \"#utility.yul\":12754:12761   */\n      0x00\n        /* \"#utility.yul\":12783:12809   */\n      tag_270\n        /* \"#utility.yul\":12803:12808   */\n      dup3\n        /* \"#utility.yul\":12783:12809   */\n      tag_125\n      jump\t// in\n    tag_270:\n        /* \"#utility.yul\":12772:12809   */\n      swap1\n      pop\n        /* \"#utility.yul\":12715:12815   */\n      swap2\n      swap1\n      pop\n      jump\t// out\n        /* \"#utility.yul\":12821:12978   */\n    tag_127:\n        /* \"#utility.yul\":12926:12971   */\n      tag_272\n        /* \"#utility.yul\":12946:12970   */\n      tag_273\n        /* \"#utility.yul\":12964:12969   */\n      dup3\n        /* \"#utility.yul\":12946:12970   */\n      tag_90\n      jump\t// in\n    tag_273:\n        /* \"#utility.yul\":12926:12971   */\n      tag_126\n      jump\t// in\n    tag_272:\n        /* \"#utility.yul\":12921:12924   */\n      dup3\n        /* \"#utility.yul\":12914:12972   */\n      mstore\n        /* \"#utility.yul\":12821:12978   */\n      pop\n      pop\n      jump\t// out\n        /* \"#utility.yul\":12984:13063   */\n    tag_128:\n        /* \"#utility.yul\":13023:13030   */\n      0x00\n        /* \"#utility.yul\":13052:13057   */\n      dup2\n        /* \"#utility.yul\":13041:13057   */\n      swap1\n      pop\n        /* \"#utility.yul\":12984:13063   */\n      swap2\n      swap1\n      pop\n      jump\t// out\n        /* \"#utility.yul\":13069:13226   */\n    tag_129:\n        /* \"#utility.yul\":13174:13219   */\n      tag_276\n        /* \"#utility.yul\":13194:13218   */\n      tag_277\n        /* \"#utility.yul\":13212:13217   */\n      dup3\n        /* \"#utility.yul\":13194:13218   */\n      tag_93\n      jump\t// in\n    tag_277:\n        /* \"#utility.yul\":13174:13219   */\n      tag_128\n      jump\t// in\n    tag_276:\n        /* \"#utility.yul\":13169:13172   */\n      dup3\n        /* \"#utility.yul\":13162:13220   */\n      mstore\n        /* \"#utility.yul\":13069:13226   */\n      pop\n      pop\n      jump\t// out\n        /* \"#utility.yul\":13232:13380   */\n    tag_130:\n        /* \"#utility.yul\":13334:13345   */\n      0x00\n        /* \"#utility.yul\":13371:13374   */\n      dup2\n        /* \"#utility.yul\":13356:13374   */\n      swap1\n      pop\n        /* \"#utility.yul\":13232:13380   */\n      swap3\n      swap2\n      pop\n      pop\n      jump\t// out\n        /* \"#utility.yul\":13386:13540   */\n    tag_131:\n        /* \"#utility.yul\":13470:13476   */\n      dup3\n        /* \"#utility.yul\":13465:13468   */\n      dup2\n        /* \"#utility.yul\":13460:13463   */\n      dup4\n        /* \"#utility.yul\":13447:13477   */\n      calldatacopy\n        /* \"#utility.yul\":13532:13533   */\n      0x00\n        /* \"#utility.yul\":13523:13529   */\n      dup4\n        /* \"#utility.yul\":13518:13521   */\n      dup4\n        /* \"#utility.yul\":13514:13530   */\n      add\n        /* \"#utility.yul\":13507:13534   */\n      mstore\n        /* \"#utility.yul\":13386:13540   */\n      pop\n      pop\n      pop\n      jump\t// out\n        /* \"#utility.yul\":13570:13887   */\n    tag_132:\n        /* \"#utility.yul\":13686:13689   */\n      0x00\n        /* \"#utility.yul\":13707:13796   */\n      tag_281\n        /* \"#utility.yul\":13789:13795   */\n      dup4\n        /* \"#utility.yul\":13784:13787   */\n      dup6\n        /* \"#utility.yul\":13707:13796   */\n      tag_130\n      jump\t// in\n    tag_281:\n        /* \"#utility.yul\":13700:13796   */\n      swap4\n      pop\n        /* \"#utility.yul\":13806:13849   */\n      tag_282\n        /* \"#utility.yul\":13842:13848   */\n      dup4\n        /* \"#utility.yul\":13837:13840   */\n      dup6\n        /* \"#utility.yul\":13830:13835   */\n      dup5\n        /* \"#utility.yul\":13806:13849   */\n      tag_131\n      jump\t// in\n    tag_282:\n        /* \"#utility.yul\":13874:13880   */\n      dup3\n        /* \"#utility.yul\":13869:13872   */\n      dup5\n        /* \"#utility.yul\":13865:13881   */\n      add\n        /* \"#utility.yul\":13858:13881   */\n      swap1\n      pop\n        /* \"#utility.yul\":13570:13887   */\n      swap4\n      swap3\n      pop\n      pop\n      pop\n      jump\t// out\n        /* \"#utility.yul\":13893:14752   */\n    tag_48:\n        /* \"#utility.yul\":14147:14150   */\n      0x00\n        /* \"#utility.yul\":14162:14237   */\n      tag_284\n        /* \"#utility.yul\":14233:14236   */\n      dup3\n        /* \"#utility.yul\":14224:14230   */\n      dup10\n        /* \"#utility.yul\":14162:14237   */\n      tag_127\n      jump\t// in\n    tag_284:\n        /* \"#utility.yul\":14262:14264   */\n      0x14\n        /* \"#utility.yul\":14257:14260   */\n      dup3\n        /* \"#utility.yul\":14253:14265   */\n      add\n        /* \"#utility.yul\":14246:14265   */\n      swap2\n      pop\n        /* \"#utility.yul\":14275:14350   */\n      tag_285\n        /* \"#utility.yul\":14346:14349   */\n      dup3\n        /* \"#utility.yul\":14337:14343   */\n      dup9\n        /* \"#utility.yul\":14275:14350   */\n      tag_127\n      jump\t// in\n    tag_285:\n        /* \"#utility.yul\":14375:14377   */\n      0x14\n        /* \"#utility.yul\":14370:14373   */\n      dup3\n        /* \"#utility.yul\":14366:14378   */\n      add\n        /* \"#utility.yul\":14359:14378   */\n      swap2\n      pop\n        /* \"#utility.yul\":14388:14463   */\n      tag_286\n        /* \"#utility.yul\":14459:14462   */\n      dup3\n        /* \"#utility.yul\":14450:14456   */\n      dup8\n        /* \"#utility.yul\":14388:14463   */\n      tag_129\n      jump\t// in\n    tag_286:\n        /* \"#utility.yul\":14488:14490   */\n      0x20\n        /* \"#utility.yul\":14483:14486   */\n      dup3\n        /* \"#utility.yul\":14479:14491   */\n      add\n        /* \"#utility.yul\":14472:14491   */\n      swap2\n      pop\n        /* \"#utility.yul\":14501:14576   */\n      tag_287\n        /* \"#utility.yul\":14572:14575   */\n      dup3\n        /* \"#utility.yul\":14563:14569   */\n      dup7\n        /* \"#utility.yul\":14501:14576   */\n      tag_129\n      jump\t// in\n    tag_287:\n        /* \"#utility.yul\":14601:14603   */\n      0x20\n        /* \"#utility.yul\":14596:14599   */\n      dup3\n        /* \"#utility.yul\":14592:14604   */\n      add\n        /* \"#utility.yul\":14585:14604   */\n      swap2\n      pop\n        /* \"#utility.yul\":14621:14726   */\n      tag_288\n        /* \"#utility.yul\":14722:14725   */\n      dup3\n        /* \"#utility.yul\":14713:14719   */\n      dup5\n        /* \"#utility.yul\":14705:14711   */\n      dup7\n        /* \"#utility.yul\":14621:14726   */\n      tag_132\n      jump\t// in\n    tag_288:\n        /* \"#utility.yul\":14614:14726   */\n      swap2\n      pop\n        /* \"#utility.yul\":14743:14746   */\n      dup2\n        /* \"#utility.yul\":14736:14746   */\n      swap1\n      pop\n        /* \"#utility.yul\":13893:14752   */\n      swap8\n      swap7\n      pop\n      pop\n      pop\n      pop\n      pop\n      pop\n      pop\n      jump\t// out\n        /* \"#utility.yul\":14758:14856   */\n    tag_133:\n        /* \"#utility.yul\":14809:14815   */\n      0x00\n        /* \"#utility.yul\":14843:14848   */\n      dup2\n        /* \"#utility.yul\":14837:14849   */\n      mload\n        /* \"#utility.yul\":14827:14849   */\n      swap1\n      pop\n        /* \"#utility.yul\":14758:14856   */\n      swap2\n      swap1\n      pop\n      jump\t// out\n        /* \"#utility.yul\":14862:15009   */\n    tag_134:\n        /* \"#utility.yul\":14963:14974   */\n      0x00\n        /* \"#utility.yul\":15000:15003   */\n      dup2\n        /* \"#utility.yul\":14985:15003   */\n      swap1\n      pop\n        /* \"#utility.yul\":14862:15009   */\n      swap3\n      swap2\n      pop\n      pop\n      jump\t// out\n        /* \"#utility.yul\":15015:15388   */\n    tag_135:\n        /* \"#utility.yul\":15119:15122   */\n      0x00\n        /* \"#utility.yul\":15147:15185   */\n      tag_292\n        /* \"#utility.yul\":15179:15184   */\n      dup3\n        /* \"#utility.yul\":15147:15185   */\n      tag_133\n      jump\t// in\n    tag_292:\n        /* \"#utility.yul\":15201:15289   */\n      tag_293\n        /* \"#utility.yul\":15282:15288   */\n      dup2\n        /* \"#utility.yul\":15277:15280   */\n      dup6\n        /* \"#utility.yul\":15201:15289   */\n      tag_134\n      jump\t// in\n    tag_293:\n        /* \"#utility.yul\":15194:15289   */\n      swap4\n      pop\n        /* \"#utility.yul\":15298:15350   */\n      tag_294\n        /* \"#utility.yul\":15343:15349   */\n      dup2\n        /* \"#utility.yul\":15338:15341   */\n      dup6\n        /* \"#utility.yul\":15331:15335   */\n      0x20\n        /* \"#utility.yul\":15324:15329   */\n      dup7\n        /* \"#utility.yul\":15320:15336   */\n      add\n        /* \"#utility.yul\":15298:15350   */\n      tag_104\n      jump\t// in\n    tag_294:\n        /* \"#utility.yul\":15375:15381   */\n      dup1\n        /* \"#utility.yul\":15370:15373   */\n      dup5\n        /* \"#utility.yul\":15366:15382   */\n      add\n        /* \"#utility.yul\":15359:15382   */\n      swap2\n      pop\n        /* \"#utility.yul\":15123:15388   */\n      pop\n        /* \"#utility.yul\":15015:15388   */\n      swap3\n      swap2\n      pop\n      pop\n      jump\t// out\n        /* \"#utility.yul\":15394:15665   */\n    tag_50:\n        /* \"#utility.yul\":15524:15527   */\n      0x00\n        /* \"#utility.yul\":15546:15639   */\n      tag_296\n        /* \"#utility.yul\":15635:15638   */\n      dup3\n        /* \"#utility.yul\":15626:15632   */\n      dup5\n        /* \"#utility.yul\":15546:15639   */\n      tag_135\n      jump\t// in\n    tag_296:\n        /* \"#utility.yul\":15539:15639   */\n      swap2\n      pop\n        /* \"#utility.yul\":15656:15659   */\n      dup2\n        /* \"#utility.yul\":15649:15659   */\n      swap1\n      pop\n        /* \"#utility.yul\":15394:15665   */\n      swap3\n      swap2\n      pop\n      pop\n      jump\t// out\n        /* \"#utility.yul\":15671:15750   */\n    tag_136:\n        /* \"#utility.yul\":15710:15717   */\n      0x00\n        /* \"#utility.yul\":15739:15744   */\n      dup2\n        /* \"#utility.yul\":15728:15744   */\n      swap1\n      pop\n        /* \"#utility.yul\":15671:15750   */\n      swap2\n      swap1\n      pop\n      jump\t// out\n        /* \"#utility.yul\":15756:15913   */\n    tag_137:\n        /* \"#utility.yul\":15861:15906   */\n      tag_299\n        /* \"#utility.yul\":15881:15905   */\n      tag_300\n        /* \"#utility.yul\":15899:15904   */\n      dup3\n        /* \"#utility.yul\":15881:15905   */\n      tag_96\n      jump\t// in\n    tag_300:\n        /* \"#utility.yul\":15861:15906   */\n      tag_136\n      jump\t// in\n    tag_299:\n        /* \"#utility.yul\":15856:15859   */\n      dup3\n        /* \"#utility.yul\":15849:15907   */\n      mstore\n        /* \"#utility.yul\":15756:15913   */\n      pop\n      pop\n      jump\t// out\n        /* \"#utility.yul\":15919:16919   */\n    tag_54:\n        /* \"#utility.yul\":16201:16204   */\n      0x00\n        /* \"#utility.yul\":16216:16291   */\n      tag_302\n        /* \"#utility.yul\":16287:16290   */\n      dup3\n        /* \"#utility.yul\":16278:16284   */\n      dup11\n        /* \"#utility.yul\":16216:16291   */\n      tag_137\n      jump\t// in\n    tag_302:\n        /* \"#utility.yul\":16316:16318   */\n      0x14\n        /* \"#utility.yul\":16311:16314   */\n      dup3\n        /* \"#utility.yul\":16307:16319   */\n      add\n        /* \"#utility.yul\":16300:16319   */\n      swap2\n      pop\n        /* \"#utility.yul\":16329:16404   */\n      tag_303\n        /* \"#utility.yul\":16400:16403   */\n      dup3\n        /* \"#utility.yul\":16391:16397   */\n      dup10\n        /* \"#utility.yul\":16329:16404   */\n      tag_127\n      jump\t// in\n    tag_303:\n        /* \"#utility.yul\":16429:16431   */\n      0x14\n        /* \"#utility.yul\":16424:16427   */\n      dup3\n        /* \"#utility.yul\":16420:16432   */\n      add\n        /* \"#utility.yul\":16413:16432   */\n      swap2\n      pop\n        /* \"#utility.yul\":16442:16517   */\n      tag_304\n        /* \"#utility.yul\":16513:16516   */\n      dup3\n        /* \"#utility.yul\":16504:16510   */\n      dup9\n        /* \"#utility.yul\":16442:16517   */\n      tag_127\n      jump\t// in\n    tag_304:\n        /* \"#utility.yul\":16542:16544   */\n      0x14\n        /* \"#utility.yul\":16537:16540   */\n      dup3\n        /* \"#utility.yul\":16533:16545   */\n      add\n        /* \"#utility.yul\":16526:16545   */\n      swap2\n      pop\n        /* \"#utility.yul\":16555:16630   */\n      tag_305\n        /* \"#utility.yul\":16626:16629   */\n      dup3\n        /* \"#utility.yul\":16617:16623   */\n      dup8\n        /* \"#utility.yul\":16555:16630   */\n      tag_129\n      jump\t// in\n    tag_305:\n        /* \"#utility.yul\":16655:16657   */\n      0x20\n        /* \"#utility.yul\":16650:16653   */\n      dup3\n        /* \"#utility.yul\":16646:16658   */\n      add\n        /* \"#utility.yul\":16639:16658   */\n      swap2\n      pop\n        /* \"#utility.yul\":16668:16743   */\n      tag_306\n        /* \"#utility.yul\":16739:16742   */\n      dup3\n        /* \"#utility.yul\":16730:16736   */\n      dup7\n        /* \"#utility.yul\":16668:16743   */\n      tag_129\n      jump\t// in\n    tag_306:\n        /* \"#utility.yul\":16768:16770   */\n      0x20\n        /* \"#utility.yul\":16763:16766   */\n      dup3\n        /* \"#utility.yul\":16759:16771   */\n      add\n        /* \"#utility.yul\":16752:16771   */\n      swap2\n      pop\n        /* \"#utility.yul\":16788:16893   */\n      tag_307\n        /* \"#utility.yul\":16889:16892   */\n      dup3\n        /* \"#utility.yul\":16880:16886   */\n      dup5\n        /* \"#utility.yul\":16872:16878   */\n      dup7\n        /* \"#utility.yul\":16788:16893   */\n      tag_132\n      jump\t// in\n    tag_307:\n        /* \"#utility.yul\":16781:16893   */\n      swap2\n      pop\n        /* \"#utility.yul\":16910:16913   */\n      dup2\n        /* \"#utility.yul\":16903:16913   */\n      swap1\n      pop\n        /* \"#utility.yul\":15919:16919   */\n      swap9\n      swap8\n      pop\n      pop\n      pop\n      pop\n      pop\n      pop\n      pop\n      pop\n      jump\t// out\n\n    auxdata: 0xa26469706673582212203b4310d31bf2b53fd472fc29fd2c39b0d5513dc5a263228336a5554092aed9b464736f6c634300080b0033\n}\n",
				"bytecode": {
					"linkReferences": {},
					"object": "608060405234801561001057600080fd5b50611475806100206000396000f3fe608060405234801561001057600080fd5b50600436106100575760003560e01c80630736e9fb1461005c5780632b08a98a1461008c5780637d1a8825146100c257806392206f3f146100f2578063b69c905314610122575b600080fd5b61007660048036038101906100719190610cc4565b610152565b6040516100839190610d3f565b60405180910390f35b6100a660048036038101906100a19190610d86565b61018d565b6040516100b99796959493929190610e6a565b60405180910390f35b6100dc60048036038101906100d79190610f45565b6102b1565b6040516100e991906110cc565b60405180910390f35b61010c600480360381019061010791906110ee565b610648565b60405161011991906111ca565b60405180910390f35b61013c60048036038101906101379190610d86565b6106fb565b60405161014991906110cc565b60405180910390f35b6002602052816000526040600020818154811061016e57600080fd5b906000526020600020016000915091509054906101000a900460601b81565b60016020528060005260406000206000915090508060000160009054906101000a900460601b908060010160009054906101000a900473ffffffffffffffffffffffffffffffffffffffff16908060020160009054906101000a900473ffffffffffffffffffffffffffffffffffffffff169080600301549080600401549080600501805461021b9061121b565b80601f01602080910402602001604051908101604052809291908181526020018280546102479061121b565b80156102945780601f1061026957610100808354040283529160200191610294565b820191906000526020600020905b81548152906001019060200180831161027757829003601f168201915b5050505050908060060160009054906101000a900460601b905087565b6102b9610afc565b6000339050600042905060006003838989858a8a6040516020016102e2969594939291906112f5565b6040516020818303038152906040526040516102fe9190611399565b602060405180830381855afa15801561031b573d6000803e3d6000fd5b5050506040515160601b90506000600382858b8b878c8c60405160200161034897969594939291906113d1565b6040516020818303038152906040526040516103649190611399565b602060405180830381855afa158015610381573d6000803e3d6000fd5b5050506040515160601b90506040518060e00160405280836bffffffffffffffffffffffff191681526020018573ffffffffffffffffffffffffffffffffffffffff1681526020018a73ffffffffffffffffffffffffffffffffffffffff16815260200189815260200184815260200188888080601f016020809104026020016040519081016040528093929190818152602001838380828437600081840152601f19601f820116905080830192505050505050508152602001826bffffffffffffffffffffffff19168152509450600260008573ffffffffffffffffffffffffffffffffffffffff1673ffffffffffffffffffffffffffffffffffffffff168152602001908152602001600020508460016000846bffffffffffffffffffffffff19166bffffffffffffffffffffffff1916815260200190815260200160002060008201518160000160006101000a81548173ffffffffffffffffffffffffffffffffffffffff021916908360601c021790555060208201518160010160006101000a81548173ffffffffffffffffffffffffffffffffffffffff021916908373ffffffffffffffffffffffffffffffffffffffff16021790555060408201518160020160006101000a81548173ffffffffffffffffffffffffffffffffffffffff021916908373ffffffffffffffffffffffffffffffffffffffff160217905550606082015181600301556080820151816004015560a08201518160050190805190602001906105b4929190610b83565b5060c08201518160060160006101000a81548173ffffffffffffffffffffffffffffffffffffffff021916908360601c02179055509050506000829080600181540180825580915050600190039060005260206000200160009091909190916101000a81548173ffffffffffffffffffffffffffffffffffffffff021916908360601c021790555050505050949350505050565b6060600260008373ffffffffffffffffffffffffffffffffffffffff1673ffffffffffffffffffffffffffffffffffffffff1681526020019081526020016000208054806020026020016040519081016040528092919081815260200182805480156106ef57602002820191906000526020600020905b8160009054906101000a900460601b6bffffffffffffffffffffffff1916815260200190600101908083116106bf575b50505050509050919050565b610703610afc565b60016000836bffffffffffffffffffffffff19166bffffffffffffffffffffffff191681526020019081526020016000206040518060e00160405290816000820160009054906101000a900460601b6bffffffffffffffffffffffff19166bffffffffffffffffffffffff191681526020016001820160009054906101000a900473ffffffffffffffffffffffffffffffffffffffff1673ffffffffffffffffffffffffffffffffffffffff1673ffffffffffffffffffffffffffffffffffffffff1681526020016002820160009054906101000a900473ffffffffffffffffffffffffffffffffffffffff1673ffffffffffffffffffffffffffffffffffffffff1673ffffffffffffffffffffffffffffffffffffffff16815260200160038201548152602001600482015481526020016005820180546108449061121b565b80601f01602080910402602001604051908101604052809291908181526020018280546108709061121b565b80156108bd5780601f10610892576101008083540402835291602001916108bd565b820191906000526020600020905b8154815290600101906020018083116108a057829003601f168201915b505050505081526020016006820160009054906101000a900460601b6bffffffffffffffffffffffff19166bffffffffffffffffffffffff191681525050905060016000836bffffffffffffffffffffffff19166bffffffffffffffffffffffff191681526020019081526020016000206040518060e00160405290816000820160009054906101000a900460601b6bffffffffffffffffffffffff19166bffffffffffffffffffffffff191681526020016001820160009054906101000a900473ffffffffffffffffffffffffffffffffffffffff1673ffffffffffffffffffffffffffffffffffffffff1673ffffffffffffffffffffffffffffffffffffffff1681526020016002820160009054906101000a900473ffffffffffffffffffffffffffffffffffffffff1673ffffffffffffffffffffffffffffffffffffffff1673ffffffffffffffffffffffffffffffffffffffff1681526020016003820154815260200160048201548152602001600582018054610a3e9061121b565b80601f0160208091040260200160405190810160405280929190818152602001828054610a6a9061121b565b8015610ab75780601f10610a8c57610100808354040283529160200191610ab7565b820191906000526020600020905b815481529060010190602001808311610a9a57829003601f168201915b505050505081526020016006820160009054906101000a900460601b6bffffffffffffffffffffffff19166bffffffffffffffffffffffff1916815250509050919050565b6040518060e0016040528060006bffffffffffffffffffffffff19168152602001600073ffffffffffffffffffffffffffffffffffffffff168152602001600073ffffffffffffffffffffffffffffffffffffffff16815260200160008152602001600081526020016060815260200160006bffffffffffffffffffffffff191681525090565b828054610b8f9061121b565b90600052602060002090601f016020900481019282610bb15760008555610bf8565b82601f10610bca57805160ff1916838001178555610bf8565b82800160010185558215610bf8579182015b82811115610bf7578251825591602001919060010190610bdc565b5b509050610c059190610c09565b5090565b5b80821115610c22576000816000905550600101610c0a565b5090565b600080fd5b600080fd5b600073ffffffffffffffffffffffffffffffffffffffff82169050919050565b6000610c5b82610c30565b9050919050565b610c6b81610c50565b8114610c7657600080fd5b50565b600081359050610c8881610c62565b92915050565b6000819050919050565b610ca181610c8e565b8114610cac57600080fd5b50565b600081359050610cbe81610c98565b92915050565b60008060408385031215610cdb57610cda610c26565b5b6000610ce985828601610c79565b9250506020610cfa85828601610caf565b9150509250929050565b60007fffffffffffffffffffffffffffffffffffffffff00000000000000000000000082169050919050565b610d3981610d04565b82525050565b6000602082019050610d546000830184610d30565b92915050565b610d6381610d04565b8114610d6e57600080fd5b50565b600081359050610d8081610d5a565b92915050565b600060208284031215610d9c57610d9b610c26565b5b6000610daa84828501610d71565b91505092915050565b610dbc81610c50565b82525050565b610dcb81610c8e565b82525050565b600081519050919050565b600082825260208201905092915050565b60005b83811015610e0b578082015181840152602081019050610df0565b83811115610e1a576000848401525b50505050565b6000601f19601f8301169050919050565b6000610e3c82610dd1565b610e468185610ddc565b9350610e56818560208601610ded565b610e5f81610e20565b840191505092915050565b600060e082019050610e7f600083018a610d30565b610e8c6020830189610db3565b610e996040830188610db3565b610ea66060830187610dc2565b610eb36080830186610dc2565b81810360a0830152610ec58185610e31565b9050610ed460c0830184610d30565b98975050505050505050565b600080fd5b600080fd5b600080fd5b60008083601f840112610f0557610f04610ee0565b5b8235905067ffffffffffffffff811115610f2257610f21610ee5565b5b602083019150836001820283011115610f3e57610f3d610eea565b5b9250929050565b60008060008060608587031215610f5f57610f5e610c26565b5b6000610f6d87828801610c79565b9450506020610f7e87828801610caf565b935050604085013567ffffffffffffffff811115610f9f57610f9e610c2b565b5b610fab87828801610eef565b925092505092959194509250565b610fc281610d04565b82525050565b610fd181610c50565b82525050565b610fe081610c8e565b82525050565b600082825260208201905092915050565b600061100282610dd1565b61100c8185610fe6565b935061101c818560208601610ded565b61102581610e20565b840191505092915050565b600060e0830160008301516110486000860182610fb9565b50602083015161105b6020860182610fc8565b50604083015161106e6040860182610fc8565b5060608301516110816060860182610fd7565b5060808301516110946080860182610fd7565b5060a083015184820360a08601526110ac8282610ff7565b91505060c08301516110c160c0860182610fb9565b508091505092915050565b600060208201905081810360008301526110e68184611030565b905092915050565b60006020828403121561110457611103610c26565b5b600061111284828501610c79565b91505092915050565b600081519050919050565b600082825260208201905092915050565b6000819050602082019050919050565b60006111538383610fb9565b60208301905092915050565b6000602082019050919050565b60006111778261111b565b6111818185611126565b935061118c83611137565b8060005b838110156111bd5781516111a48882611147565b97506111af8361115f565b925050600181019050611190565b5085935050505092915050565b600060208201905081810360008301526111e4818461116c565b905092915050565b7f4e487b7100000000000000000000000000000000000000000000000000000000600052602260045260246000fd5b6000600282049050600182168061123357607f821691505b60208210811415611247576112466111ec565b5b50919050565b60008160601b9050919050565b60006112658261124d565b9050919050565b60006112778261125a565b9050919050565b61128f61128a82610c50565b61126c565b82525050565b6000819050919050565b6112b06112ab82610c8e565b611295565b82525050565b600081905092915050565b82818337600083830152505050565b60006112dc83856112b6565b93506112e98385846112c1565b82840190509392505050565b6000611301828961127e565b601482019150611311828861127e565b601482019150611321828761129f565b602082019150611331828661129f565b6020820191506113428284866112d0565b9150819050979650505050505050565b600081519050919050565b600081905092915050565b600061137382611352565b61137d818561135d565b935061138d818560208601610ded565b80840191505092915050565b60006113a58284611368565b915081905092915050565b6000819050919050565b6113cb6113c682610d04565b6113b0565b82525050565b60006113dd828a6113ba565b6014820191506113ed828961127e565b6014820191506113fd828861127e565b60148201915061140d828761129f565b60208201915061141d828661129f565b60208201915061142e8284866112d0565b91508190509897505050505050505056fea26469706673582212203b4310d31bf2b53fd472fc29fd2c39b0d5513dc5a263228336a5554092aed9b464736f6c634300080b0033",
					"opcodes": "PUSH1 0x80 PUSH1 0x40 MSTORE CALLVALUE DUP1 ISZERO PUSH2 0x10 JUMPI PUSH1 0x0 DUP1 REVERT JUMPDEST POP PUSH2 0x1475 DUP1 PUSH2 0x20 PUSH1 0x0 CODECOPY PUSH1 0x0 RETURN INVALID PUSH1 0x80 PUSH1 0x40 MSTORE CALLVALUE DUP1 ISZERO PUSH2 0x10 JUMPI PUSH1 0x0 DUP1 REVERT JUMPDEST POP PUSH1 0x4 CALLDATASIZE LT PUSH2 0x57 JUMPI PUSH1 0x0 CALLDATALOAD PUSH1 0xE0 SHR DUP1 PUSH4 0x736E9FB EQ PUSH2 0x5C JUMPI DUP1 PUSH4 0x2B08A98A EQ PUSH2 0x8C JUMPI DUP1 PUSH4 0x7D1A8825 EQ PUSH2 0xC2 JUMPI DUP1 PUSH4 0x92206F3F EQ PUSH2 0xF2 JUMPI DUP1 PUSH4 0xB69C9053 EQ PUSH2 0x122 JUMPI JUMPDEST PUSH1 0x0 DUP1 REVERT JUMPDEST PUSH2 0x76 PUSH1 0x4 DUP1 CALLDATASIZE SUB DUP2 ADD SWAP1 PUSH2 0x71 SWAP2 SWAP1 PUSH2 0xCC4 JUMP JUMPDEST PUSH2 0x152 JUMP JUMPDEST PUSH1 0x40 MLOAD PUSH2 0x83 SWAP2 SWAP1 PUSH2 0xD3F JUMP JUMPDEST PUSH1 0x40 MLOAD DUP1 SWAP2 SUB SWAP1 RETURN JUMPDEST PUSH2 0xA6 PUSH1 0x4 DUP1 CALLDATASIZE SUB DUP2 ADD SWAP1 PUSH2 0xA1 SWAP2 SWAP1 PUSH2 0xD86 JUMP JUMPDEST PUSH2 0x18D JUMP JUMPDEST PUSH1 0x40 MLOAD PUSH2 0xB9 SWAP8 SWAP7 SWAP6 SWAP5 SWAP4 SWAP3 SWAP2 SWAP1 PUSH2 0xE6A JUMP JUMPDEST PUSH1 0x40 MLOAD DUP1 SWAP2 SUB SWAP1 RETURN JUMPDEST PUSH2 0xDC PUSH1 0x4 DUP1 CALLDATASIZE SUB DUP2 ADD SWAP1 PUSH2 0xD7 SWAP2 SWAP1 PUSH2 0xF45 JUMP JUMPDEST PUSH2 0x2B1 JUMP JUMPDEST PUSH1 0x40 MLOAD PUSH2 0xE9 SWAP2 SWAP1 PUSH2 0x10CC JUMP JUMPDEST PUSH1 0x40 MLOAD DUP1 SWAP2 SUB SWAP1 RETURN JUMPDEST PUSH2 0x10C PUSH1 0x4 DUP1 CALLDATASIZE SUB DUP2 ADD SWAP1 PUSH2 0x107 SWAP2 SWAP1 PUSH2 0x10EE JUMP JUMPDEST PUSH2 0x648 JUMP JUMPDEST PUSH1 0x40 MLOAD PUSH2 0x119 SWAP2 SWAP1 PUSH2 0x11CA JUMP JUMPDEST PUSH1 0x40 MLOAD DUP1 SWAP2 SUB SWAP1 RETURN JUMPDEST PUSH2 0x13C PUSH1 0x4 DUP1 CALLDATASIZE SUB DUP2 ADD SWAP1 PUSH2 0x137 SWAP2 SWAP1 PUSH2 0xD86 JUMP JUMPDEST PUSH2 0x6FB JUMP JUMPDEST PUSH1 0x40 MLOAD PUSH2 0x149 SWAP2 SWAP1 PUSH2 0x10CC JUMP JUMPDEST PUSH1 0x40 MLOAD DUP1 SWAP2 SUB SWAP1 RETURN JUMPDEST PUSH1 0x2 PUSH1 0x20 MSTORE DUP2 PUSH1 0x0 MSTORE PUSH1 0x40 PUSH1 0x0 KECCAK256 DUP2 DUP2 SLOAD DUP2 LT PUSH2 0x16E JUMPI PUSH1 0x0 DUP1 REVERT JUMPDEST SWAP1 PUSH1 0x0 MSTORE PUSH1 0x20 PUSH1 0x0 KECCAK256 ADD PUSH1 0x0 SWAP2 POP SWAP2 POP SWAP1 SLOAD SWAP1 PUSH2 0x100 EXP SWAP1 DIV PUSH1 0x60 SHL DUP2 JUMP JUMPDEST PUSH1 0x1 PUSH1 0x20 MSTORE DUP1 PUSH1 0x0 MSTORE PUSH1 0x40 PUSH1 0x0 KECCAK256 PUSH1 0x0 SWAP2 POP SWAP1 POP DUP1 PUSH1 0x0 ADD PUSH1 0x0 SWAP1 SLOAD SWAP1 PUSH2 0x100 EXP SWAP1 DIV PUSH1 0x60 SHL SWAP1 DUP1 PUSH1 0x1 ADD PUSH1 0x0 SWAP1 SLOAD SWAP1 PUSH2 0x100 EXP SWAP1 DIV PUSH20 0xFFFFFFFFFFFFFFFFFFFFFFFFFFFFFFFFFFFFFFFF AND SWAP1 DUP1 PUSH1 0x2 ADD PUSH1 0x0 SWAP1 SLOAD SWAP1 PUSH2 0x100 EXP SWAP1 DIV PUSH20 0xFFFFFFFFFFFFFFFFFFFFFFFFFFFFFFFFFFFFFFFF AND SWAP1 DUP1 PUSH1 0x3 ADD SLOAD SWAP1 DUP1 PUSH1 0x4 ADD SLOAD SWAP1 DUP1 PUSH1 0x5 ADD DUP1 SLOAD PUSH2 0x21B SWAP1 PUSH2 0x121B JUMP JUMPDEST DUP1 PUSH1 0x1F ADD PUSH1 0x20 DUP1 SWAP2 DIV MUL PUSH1 0x20 ADD PUSH1 0x40 MLOAD SWAP1 DUP2 ADD PUSH1 0x40 MSTORE DUP1 SWAP3 SWAP2 SWAP1 DUP2 DUP2 MSTORE PUSH1 0x20 ADD DUP3 DUP1 SLOAD PUSH2 0x247 SWAP1 PUSH2 0x121B JUMP JUMPDEST DUP1 ISZERO PUSH2 0x294 JUMPI DUP1 PUSH1 0x1F LT PUSH2 0x269 JUMPI PUSH2 0x100 DUP1 DUP4 SLOAD DIV MUL DUP4 MSTORE SWAP2 PUSH1 0x20 ADD SWAP2 PUSH2 0x294 JUMP JUMPDEST DUP3 ADD SWAP2 SWAP1 PUSH1 0x0 MSTORE PUSH1 0x20 PUSH1 0x0 KECCAK256 SWAP1 JUMPDEST DUP2 SLOAD DUP2 MSTORE SWAP1 PUSH1 0x1 ADD SWAP1 PUSH1 0x20 ADD DUP1 DUP4 GT PUSH2 0x277 JUMPI DUP3 SWAP1 SUB PUSH1 0x1F AND DUP3 ADD SWAP2 JUMPDEST POP POP POP POP POP SWAP1 DUP1 PUSH1 0x6 ADD PUSH1 0x0 SWAP1 SLOAD SWAP1 PUSH2 0x100 EXP SWAP1 DIV PUSH1 0x60 SHL SWAP1 POP DUP8 JUMP JUMPDEST PUSH2 0x2B9 PUSH2 0xAFC JUMP JUMPDEST PUSH1 0x0 CALLER SWAP1 POP PUSH1 0x0 TIMESTAMP SWAP1 POP PUSH1 0x0 PUSH1 0x3 DUP4 DUP10 DUP10 DUP6 DUP11 DUP11 PUSH1 0x40 MLOAD PUSH1 0x20 ADD PUSH2 0x2E2 SWAP7 SWAP6 SWAP5 SWAP4 SWAP3 SWAP2 SWAP1 PUSH2 0x12F5 JUMP JUMPDEST PUSH1 0x40 MLOAD PUSH1 0x20 DUP2 DUP4 SUB SUB DUP2 MSTORE SWAP1 PUSH1 0x40 MSTORE PUSH1 0x40 MLOAD PUSH2 0x2FE SWAP2 SWAP1 PUSH2 0x1399 JUMP JUMPDEST PUSH1 0x20 PUSH1 0x40 MLOAD DUP1 DUP4 SUB DUP2 DUP6 GAS STATICCALL ISZERO DUP1 ISZERO PUSH2 0x31B JUMPI RETURNDATASIZE PUSH1 0x0 DUP1 RETURNDATACOPY RETURNDATASIZE PUSH1 0x0 REVERT JUMPDEST POP POP POP PUSH1 0x40 MLOAD MLOAD PUSH1 0x60 SHL SWAP1 POP PUSH1 0x0 PUSH1 0x3 DUP3 DUP6 DUP12 DUP12 DUP8 DUP13 DUP13 PUSH1 0x40 MLOAD PUSH1 0x20 ADD PUSH2 0x348 SWAP8 SWAP7 SWAP6 SWAP5 SWAP4 SWAP3 SWAP2 SWAP1 PUSH2 0x13D1 JUMP JUMPDEST PUSH1 0x40 MLOAD PUSH1 0x20 DUP2 DUP4 SUB SUB DUP2 MSTORE SWAP1 PUSH1 0x40 MSTORE PUSH1 0x40 MLOAD PUSH2 0x364 SWAP2 SWAP1 PUSH2 0x1399 JUMP JUMPDEST PUSH1 0x20 PUSH1 0x40 MLOAD DUP1 DUP4 SUB DUP2 DUP6 GAS STATICCALL ISZERO DUP1 ISZERO PUSH2 0x381 JUMPI RETURNDATASIZE PUSH1 0x0 DUP1 RETURNDATACOPY RETURNDATASIZE PUSH1 0x0 REVERT JUMPDEST POP POP POP PUSH1 0x40 MLOAD MLOAD PUSH1 0x60 SHL SWAP1 POP PUSH1 0x40 MLOAD DUP1 PUSH1 0xE0 ADD PUSH1 0x40 MSTORE DUP1 DUP4 PUSH12 0xFFFFFFFFFFFFFFFFFFFFFFFF NOT AND DUP2 MSTORE PUSH1 0x20 ADD DUP6 PUSH20 0xFFFFFFFFFFFFFFFFFFFFFFFFFFFFFFFFFFFFFFFF AND DUP2 MSTORE PUSH1 0x20 ADD DUP11 PUSH20 0xFFFFFFFFFFFFFFFFFFFFFFFFFFFFFFFFFFFFFFFF AND DUP2 MSTORE PUSH1 0x20 ADD DUP10 DUP2 MSTORE PUSH1 0x20 ADD DUP5 DUP2 MSTORE PUSH1 0x20 ADD DUP9 DUP9 DUP1 DUP1 PUSH1 0x1F ADD PUSH1 0x20 DUP1 SWAP2 DIV MUL PUSH1 0x20 ADD PUSH1 0x40 MLOAD SWAP1 DUP2 ADD PUSH1 0x40 MSTORE DUP1 SWAP4 SWAP3 SWAP2 SWAP1 DUP2 DUP2 MSTORE PUSH1 0x20 ADD DUP4 DUP4 DUP1 DUP3 DUP5 CALLDATACOPY PUSH1 0x0 DUP2 DUP5 ADD MSTORE PUSH1 0x1F NOT PUSH1 0x1F DUP3 ADD AND SWAP1 POP DUP1 DUP4 ADD SWAP3 POP POP POP POP POP POP POP DUP2 MSTORE PUSH1 0x20 ADD DUP3 PUSH12 0xFFFFFFFFFFFFFFFFFFFFFFFF NOT AND DUP2 MSTORE POP SWAP5 POP PUSH1 0x2 PUSH1 0x0 DUP6 PUSH20 0xFFFFFFFFFFFFFFFFFFFFFFFFFFFFFFFFFFFFFFFF AND PUSH20 0xFFFFFFFFFFFFFFFFFFFFFFFFFFFFFFFFFFFFFFFF AND DUP2 MSTORE PUSH1 0x20 ADD SWAP1 DUP2 MSTORE PUSH1 0x20 ADD PUSH1 0x0 KECCAK256 POP DUP5 PUSH1 0x1 PUSH1 0x0 DUP5 PUSH12 0xFFFFFFFFFFFFFFFFFFFFFFFF NOT AND PUSH12 0xFFFFFFFFFFFFFFFFFFFFFFFF NOT AND DUP2 MSTORE PUSH1 0x20 ADD SWAP1 DUP2 MSTORE PUSH1 0x20 ADD PUSH1 0x0 KECCAK256 PUSH1 0x0 DUP3 ADD MLOAD DUP2 PUSH1 0x0 ADD PUSH1 0x0 PUSH2 0x100 EXP DUP2 SLOAD DUP2 PUSH20 0xFFFFFFFFFFFFFFFFFFFFFFFFFFFFFFFFFFFFFFFF MUL NOT AND SWAP1 DUP4 PUSH1 0x60 SHR MUL OR SWAP1 SSTORE POP PUSH1 0x20 DUP3 ADD MLOAD DUP2 PUSH1 0x1 ADD PUSH1 0x0 PUSH2 0x100 EXP DUP2 SLOAD DUP2 PUSH20 0xFFFFFFFFFFFFFFFFFFFFFFFFFFFFFFFFFFFFFFFF MUL NOT AND SWAP1 DUP4 PUSH20 0xFFFFFFFFFFFFFFFFFFFFFFFFFFFFFFFFFFFFFFFF AND MUL OR SWAP1 SSTORE POP PUSH1 0x40 DUP3 ADD MLOAD DUP2 PUSH1 0x2 ADD PUSH1 0x0 PUSH2 0x100 EXP DUP2 SLOAD DUP2 PUSH20 0xFFFFFFFFFFFFFFFFFFFFFFFFFFFFFFFFFFFFFFFF MUL NOT AND SWAP1 DUP4 PUSH20 0xFFFFFFFFFFFFFFFFFFFFFFFFFFFFFFFFFFFFFFFF AND MUL OR SWAP1 SSTORE POP PUSH1 0x60 DUP3 ADD MLOAD DUP2 PUSH1 0x3 ADD SSTORE PUSH1 0x80 DUP3 ADD MLOAD DUP2 PUSH1 0x4 ADD SSTORE PUSH1 0xA0 DUP3 ADD MLOAD DUP2 PUSH1 0x5 ADD SWAP1 DUP1 MLOAD SWAP1 PUSH1 0x20 ADD SWAP1 PUSH2 0x5B4 SWAP3 SWAP2 SWAP1 PUSH2 0xB83 JUMP JUMPDEST POP PUSH1 0xC0 DUP3 ADD MLOAD DUP2 PUSH1 0x6 ADD PUSH1 0x0 PUSH2 0x100 EXP DUP2 SLOAD DUP2 PUSH20 0xFFFFFFFFFFFFFFFFFFFFFFFFFFFFFFFFFFFFFFFF MUL NOT AND SWAP1 DUP4 PUSH1 0x60 SHR MUL OR SWAP1 SSTORE POP SWAP1 POP POP PUSH1 0x0 DUP3 SWAP1 DUP1 PUSH1 0x1 DUP2 SLOAD ADD DUP1 DUP3 SSTORE DUP1 SWAP2 POP POP PUSH1 0x1 SWAP1 SUB SWAP1 PUSH1 0x0 MSTORE PUSH1 0x20 PUSH1 0x0 KECCAK256 ADD PUSH1 0x0 SWAP1 SWAP2 SWAP1 SWAP2 SWAP1 SWAP2 PUSH2 0x100 EXP DUP2 SLOAD DUP2 PUSH20 0xFFFFFFFFFFFFFFFFFFFFFFFFFFFFFFFFFFFFFFFF MUL NOT AND SWAP1 DUP4 PUSH1 0x60 SHR MUL OR SWAP1 SSTORE POP POP POP POP POP SWAP5 SWAP4 POP POP POP POP JUMP JUMPDEST PUSH1 0x60 PUSH1 0x2 PUSH1 0x0 DUP4 PUSH20 0xFFFFFFFFFFFFFFFFFFFFFFFFFFFFFFFFFFFFFFFF AND PUSH20 0xFFFFFFFFFFFFFFFFFFFFFFFFFFFFFFFFFFFFFFFF AND DUP2 MSTORE PUSH1 0x20 ADD SWAP1 DUP2 MSTORE PUSH1 0x20 ADD PUSH1 0x0 KECCAK256 DUP1 SLOAD DUP1 PUSH1 0x20 MUL PUSH1 0x20 ADD PUSH1 0x40 MLOAD SWAP1 DUP2 ADD PUSH1 0x40 MSTORE DUP1 SWAP3 SWAP2 SWAP1 DUP2 DUP2 MSTORE PUSH1 0x20 ADD DUP3 DUP1 SLOAD DUP1 ISZERO PUSH2 0x6EF JUMPI PUSH1 0x20 MUL DUP3 ADD SWAP2 SWAP1 PUSH1 0x0 MSTORE PUSH1 0x20 PUSH1 0x0 KECCAK256 SWAP1 JUMPDEST DUP2 PUSH1 0x0 SWAP1 SLOAD SWAP1 PUSH2 0x100 EXP SWAP1 DIV PUSH1 0x60 SHL PUSH12 0xFFFFFFFFFFFFFFFFFFFFFFFF NOT AND DUP2 MSTORE PUSH1 0x20 ADD SWAP1 PUSH1 0x1 ADD SWAP1 DUP1 DUP4 GT PUSH2 0x6BF JUMPI JUMPDEST POP POP POP POP POP SWAP1 POP SWAP2 SWAP1 POP JUMP JUMPDEST PUSH2 0x703 PUSH2 0xAFC JUMP JUMPDEST PUSH1 0x1 PUSH1 0x0 DUP4 PUSH12 0xFFFFFFFFFFFFFFFFFFFFFFFF NOT AND PUSH12 0xFFFFFFFFFFFFFFFFFFFFFFFF NOT AND DUP2 MSTORE PUSH1 0x20 ADD SWAP1 DUP2 MSTORE PUSH1 0x20 ADD PUSH1 0x0 KECCAK256 PUSH1 0x40 MLOAD DUP1 PUSH1 0xE0 ADD PUSH1 0x40 MSTORE SWAP1 DUP2 PUSH1 0x0 DUP3 ADD PUSH1 0x0 SWAP1 SLOAD SWAP1 PUSH2 0x100 EXP SWAP1 DIV PUSH1 0x60 SHL PUSH12 0xFFFFFFFFFFFFFFFFFFFFFFFF NOT AND PUSH12 0xFFFFFFFFFFFFFFFFFFFFFFFF NOT AND DUP2 MSTORE PUSH1 0x20 ADD PUSH1 0x1 DUP3 ADD PUSH1 0x0 SWAP1 SLOAD SWAP1 PUSH2 0x100 EXP SWAP1 DIV PUSH20 0xFFFFFFFFFFFFFFFFFFFFFFFFFFFFFFFFFFFFFFFF AND PUSH20 0xFFFFFFFFFFFFFFFFFFFFFFFFFFFFFFFFFFFFFFFF AND PUSH20 0xFFFFFFFFFFFFFFFFFFFFFFFFFFFFFFFFFFFFFFFF AND DUP2 MSTORE PUSH1 0x20 ADD PUSH1 0x2 DUP3 ADD PUSH1 0x0 SWAP1 SLOAD SWAP1 PUSH2 0x100 EXP SWAP1 DIV PUSH20 0xFFFFFFFFFFFFFFFFFFFFFFFFFFFFFFFFFFFFFFFF AND PUSH20 0xFFFFFFFFFFFFFFFFFFFFFFFFFFFFFFFFFFFFFFFF AND PUSH20 0xFFFFFFFFFFFFFFFFFFFFFFFFFFFFFFFFFFFFFFFF AND DUP2 MSTORE PUSH1 0x20 ADD PUSH1 0x3 DUP3 ADD SLOAD DUP2 MSTORE PUSH1 0x20 ADD PUSH1 0x4 DUP3 ADD SLOAD DUP2 MSTORE PUSH1 0x20 ADD PUSH1 0x5 DUP3 ADD DUP1 SLOAD PUSH2 0x844 SWAP1 PUSH2 0x121B JUMP JUMPDEST DUP1 PUSH1 0x1F ADD PUSH1 0x20 DUP1 SWAP2 DIV MUL PUSH1 0x20 ADD PUSH1 0x40 MLOAD SWAP1 DUP2 ADD PUSH1 0x40 MSTORE DUP1 SWAP3 SWAP2 SWAP1 DUP2 DUP2 MSTORE PUSH1 0x20 ADD DUP3 DUP1 SLOAD PUSH2 0x870 SWAP1 PUSH2 0x121B JUMP JUMPDEST DUP1 ISZERO PUSH2 0x8BD JUMPI DUP1 PUSH1 0x1F LT PUSH2 0x892 JUMPI PUSH2 0x100 DUP1 DUP4 SLOAD DIV MUL DUP4 MSTORE SWAP2 PUSH1 0x20 ADD SWAP2 PUSH2 0x8BD JUMP JUMPDEST DUP3 ADD SWAP2 SWAP1 PUSH1 0x0 MSTORE PUSH1 0x20 PUSH1 0x0 KECCAK256 SWAP1 JUMPDEST DUP2 SLOAD DUP2 MSTORE SWAP1 PUSH1 0x1 ADD SWAP1 PUSH1 0x20 ADD DUP1 DUP4 GT PUSH2 0x8A0 JUMPI DUP3 SWAP1 SUB PUSH1 0x1F AND DUP3 ADD SWAP2 JUMPDEST POP POP POP POP POP DUP2 MSTORE PUSH1 0x20 ADD PUSH1 0x6 DUP3 ADD PUSH1 0x0 SWAP1 SLOAD SWAP1 PUSH2 0x100 EXP SWAP1 DIV PUSH1 0x60 SHL PUSH12 0xFFFFFFFFFFFFFFFFFFFFFFFF NOT AND PUSH12 0xFFFFFFFFFFFFFFFFFFFFFFFF NOT AND DUP2 MSTORE POP POP SWAP1 POP PUSH1 0x1 PUSH1 0x0 DUP4 PUSH12 0xFFFFFFFFFFFFFFFFFFFFFFFF NOT AND PUSH12 0xFFFFFFFFFFFFFFFFFFFFFFFF NOT AND DUP2 MSTORE PUSH1 0x20 ADD SWAP1 DUP2 MSTORE PUSH1 0x20 ADD PUSH1 0x0 KECCAK256 PUSH1 0x40 MLOAD DUP1 PUSH1 0xE0 ADD PUSH1 0x40 MSTORE SWAP1 DUP2 PUSH1 0x0 DUP3 ADD PUSH1 0x0 SWAP1 SLOAD SWAP1 PUSH2 0x100 EXP SWAP1 DIV PUSH1 0x60 SHL PUSH12 0xFFFFFFFFFFFFFFFFFFFFFFFF NOT AND PUSH12 0xFFFFFFFFFFFFFFFFFFFFFFFF NOT AND DUP2 MSTORE PUSH1 0x20 ADD PUSH1 0x1 DUP3 ADD PUSH1 0x0 SWAP1 SLOAD SWAP1 PUSH2 0x100 EXP SWAP1 DIV PUSH20 0xFFFFFFFFFFFFFFFFFFFFFFFFFFFFFFFFFFFFFFFF AND PUSH20 0xFFFFFFFFFFFFFFFFFFFFFFFFFFFFFFFFFFFFFFFF AND PUSH20 0xFFFFFFFFFFFFFFFFFFFFFFFFFFFFFFFFFFFFFFFF AND DUP2 MSTORE PUSH1 0x20 ADD PUSH1 0x2 DUP3 ADD PUSH1 0x0 SWAP1 SLOAD SWAP1 PUSH2 0x100 EXP SWAP1 DIV PUSH20 0xFFFFFFFFFFFFFFFFFFFFFFFFFFFFFFFFFFFFFFFF AND PUSH20 0xFFFFFFFFFFFFFFFFFFFFFFFFFFFFFFFFFFFFFFFF AND PUSH20 0xFFFFFFFFFFFFFFFFFFFFFFFFFFFFFFFFFFFFFFFF AND DUP2 MSTORE PUSH1 0x20 ADD PUSH1 0x3 DUP3 ADD SLOAD DUP2 MSTORE PUSH1 0x20 ADD PUSH1 0x4 DUP3 ADD SLOAD DUP2 MSTORE PUSH1 0x20 ADD PUSH1 0x5 DUP3 ADD DUP1 SLOAD PUSH2 0xA3E SWAP1 PUSH2 0x121B JUMP JUMPDEST DUP1 PUSH1 0x1F ADD PUSH1 0x20 DUP1 SWAP2 DIV MUL PUSH1 0x20 ADD PUSH1 0x40 MLOAD SWAP1 DUP2 ADD PUSH1 0x40 MSTORE DUP1 SWAP3 SWAP2 SWAP1 DUP2 DUP2 MSTORE PUSH1 0x20 ADD DUP3 DUP1 SLOAD PUSH2 0xA6A SWAP1 PUSH2 0x121B JUMP JUMPDEST DUP1 ISZERO PUSH2 0xAB7 JUMPI DUP1 PUSH1 0x1F LT PUSH2 0xA8C JUMPI PUSH2 0x100 DUP1 DUP4 SLOAD DIV MUL DUP4 MSTORE SWAP2 PUSH1 0x20 ADD SWAP2 PUSH2 0xAB7 JUMP JUMPDEST DUP3 ADD SWAP2 SWAP1 PUSH1 0x0 MSTORE PUSH1 0x20 PUSH1 0x0 KECCAK256 SWAP1 JUMPDEST DUP2 SLOAD DUP2 MSTORE SWAP1 PUSH1 0x1 ADD SWAP1 PUSH1 0x20 ADD DUP1 DUP4 GT PUSH2 0xA9A JUMPI DUP3 SWAP1 SUB PUSH1 0x1F AND DUP3 ADD SWAP2 JUMPDEST POP POP POP POP POP DUP2 MSTORE PUSH1 0x20 ADD PUSH1 0x6 DUP3 ADD PUSH1 0x0 SWAP1 SLOAD SWAP1 PUSH2 0x100 EXP SWAP1 DIV PUSH1 0x60 SHL PUSH12 0xFFFFFFFFFFFFFFFFFFFFFFFF NOT AND PUSH12 0xFFFFFFFFFFFFFFFFFFFFFFFF NOT AND DUP2 MSTORE POP POP SWAP1 POP SWAP2 SWAP1 POP JUMP JUMPDEST PUSH1 0x40 MLOAD DUP1 PUSH1 0xE0 ADD PUSH1 0x40 MSTORE DUP1 PUSH1 0x0 PUSH12 0xFFFFFFFFFFFFFFFFFFFFFFFF NOT AND DUP2 MSTORE PUSH1 0x20 ADD PUSH1 0x0 PUSH20 0xFFFFFFFFFFFFFFFFFFFFFFFFFFFFFFFFFFFFFFFF AND DUP2 MSTORE PUSH1 0x20 ADD PUSH1 0x0 PUSH20 0xFFFFFFFFFFFFFFFFFFFFFFFFFFFFFFFFFFFFFFFF AND DUP2 MSTORE PUSH1 0x20 ADD PUSH1 0x0 DUP2 MSTORE PUSH1 0x20 ADD PUSH1 0x0 DUP2 MSTORE PUSH1 0x20 ADD PUSH1 0x60 DUP2 MSTORE PUSH1 0x20 ADD PUSH1 0x0 PUSH12 0xFFFFFFFFFFFFFFFFFFFFFFFF NOT AND DUP2 MSTORE POP SWAP1 JUMP JUMPDEST DUP3 DUP1 SLOAD PUSH2 0xB8F SWAP1 PUSH2 0x121B JUMP JUMPDEST SWAP1 PUSH1 0x0 MSTORE PUSH1 0x20 PUSH1 0x0 KECCAK256 SWAP1 PUSH1 0x1F ADD PUSH1 0x20 SWAP1 DIV DUP2 ADD SWAP3 DUP3 PUSH2 0xBB1 JUMPI PUSH1 0x0 DUP6 SSTORE PUSH2 0xBF8 JUMP JUMPDEST DUP3 PUSH1 0x1F LT PUSH2 0xBCA JUMPI DUP1 MLOAD PUSH1 0xFF NOT AND DUP4 DUP1 ADD OR DUP6 SSTORE PUSH2 0xBF8 JUMP JUMPDEST DUP3 DUP1 ADD PUSH1 0x1 ADD DUP6 SSTORE DUP3 ISZERO PUSH2 0xBF8 JUMPI SWAP2 DUP3 ADD JUMPDEST DUP3 DUP2 GT ISZERO PUSH2 0xBF7 JUMPI DUP3 MLOAD DUP3 SSTORE SWAP2 PUSH1 0x20 ADD SWAP2 SWAP1 PUSH1 0x1 ADD SWAP1 PUSH2 0xBDC JUMP JUMPDEST JUMPDEST POP SWAP1 POP PUSH2 0xC05 SWAP2 SWAP1 PUSH2 0xC09 JUMP JUMPDEST POP SWAP1 JUMP JUMPDEST JUMPDEST DUP1 DUP3 GT ISZERO PUSH2 0xC22 JUMPI PUSH1 0x0 DUP2 PUSH1 0x0 SWAP1 SSTORE POP PUSH1 0x1 ADD PUSH2 0xC0A JUMP JUMPDEST POP SWAP1 JUMP JUMPDEST PUSH1 0x0 DUP1 REVERT JUMPDEST PUSH1 0x0 DUP1 REVERT JUMPDEST PUSH1 0x0 PUSH20 0xFFFFFFFFFFFFFFFFFFFFFFFFFFFFFFFFFFFFFFFF DUP3 AND SWAP1 POP SWAP2 SWAP1 POP JUMP JUMPDEST PUSH1 0x0 PUSH2 0xC5B DUP3 PUSH2 0xC30 JUMP JUMPDEST SWAP1 POP SWAP2 SWAP1 POP JUMP JUMPDEST PUSH2 0xC6B DUP2 PUSH2 0xC50 JUMP JUMPDEST DUP2 EQ PUSH2 0xC76 JUMPI PUSH1 0x0 DUP1 REVERT JUMPDEST POP JUMP JUMPDEST PUSH1 0x0 DUP2 CALLDATALOAD SWAP1 POP PUSH2 0xC88 DUP2 PUSH2 0xC62 JUMP JUMPDEST SWAP3 SWAP2 POP POP JUMP JUMPDEST PUSH1 0x0 DUP2 SWAP1 POP SWAP2 SWAP1 POP JUMP JUMPDEST PUSH2 0xCA1 DUP2 PUSH2 0xC8E JUMP JUMPDEST DUP2 EQ PUSH2 0xCAC JUMPI PUSH1 0x0 DUP1 REVERT JUMPDEST POP JUMP JUMPDEST PUSH1 0x0 DUP2 CALLDATALOAD SWAP1 POP PUSH2 0xCBE DUP2 PUSH2 0xC98 JUMP JUMPDEST SWAP3 SWAP2 POP POP JUMP JUMPDEST PUSH1 0x0 DUP1 PUSH1 0x40 DUP4 DUP6 SUB SLT ISZERO PUSH2 0xCDB JUMPI PUSH2 0xCDA PUSH2 0xC26 JUMP JUMPDEST JUMPDEST PUSH1 0x0 PUSH2 0xCE9 DUP6 DUP3 DUP7 ADD PUSH2 0xC79 JUMP JUMPDEST SWAP3 POP POP PUSH1 0x20 PUSH2 0xCFA DUP6 DUP3 DUP7 ADD PUSH2 0xCAF JUMP JUMPDEST SWAP2 POP POP SWAP3 POP SWAP3 SWAP1 POP JUMP JUMPDEST PUSH1 0x0 PUSH32 0xFFFFFFFFFFFFFFFFFFFFFFFFFFFFFFFFFFFFFFFF000000000000000000000000 DUP3 AND SWAP1 POP SWAP2 SWAP1 POP JUMP JUMPDEST PUSH2 0xD39 DUP2 PUSH2 0xD04 JUMP JUMPDEST DUP3 MSTORE POP POP JUMP JUMPDEST PUSH1 0x0 PUSH1 0x20 DUP3 ADD SWAP1 POP PUSH2 0xD54 PUSH1 0x0 DUP4 ADD DUP5 PUSH2 0xD30 JUMP JUMPDEST SWAP3 SWAP2 POP POP JUMP JUMPDEST PUSH2 0xD63 DUP2 PUSH2 0xD04 JUMP JUMPDEST DUP2 EQ PUSH2 0xD6E JUMPI PUSH1 0x0 DUP1 REVERT JUMPDEST POP JUMP JUMPDEST PUSH1 0x0 DUP2 CALLDATALOAD SWAP1 POP PUSH2 0xD80 DUP2 PUSH2 0xD5A JUMP JUMPDEST SWAP3 SWAP2 POP POP JUMP JUMPDEST PUSH1 0x0 PUSH1 0x20 DUP3 DUP5 SUB SLT ISZERO PUSH2 0xD9C JUMPI PUSH2 0xD9B PUSH2 0xC26 JUMP JUMPDEST JUMPDEST PUSH1 0x0 PUSH2 0xDAA DUP5 DUP3 DUP6 ADD PUSH2 0xD71 JUMP JUMPDEST SWAP2 POP POP SWAP3 SWAP2 POP POP JUMP JUMPDEST PUSH2 0xDBC DUP2 PUSH2 0xC50 JUMP JUMPDEST DUP3 MSTORE POP POP JUMP JUMPDEST PUSH2 0xDCB DUP2 PUSH2 0xC8E JUMP JUMPDEST DUP3 MSTORE POP POP JUMP JUMPDEST PUSH1 0x0 DUP2 MLOAD SWAP1 POP SWAP2 SWAP1 POP JUMP JUMPDEST PUSH1 0x0 DUP3 DUP3 MSTORE PUSH1 0x20 DUP3 ADD SWAP1 POP SWAP3 SWAP2 POP POP JUMP JUMPDEST PUSH1 0x0 JUMPDEST DUP4 DUP2 LT ISZERO PUSH2 0xE0B JUMPI DUP1 DUP3 ADD MLOAD DUP2 DUP5 ADD MSTORE PUSH1 0x20 DUP2 ADD SWAP1 POP PUSH2 0xDF0 JUMP JUMPDEST DUP4 DUP2 GT ISZERO PUSH2 0xE1A JUMPI PUSH1 0x0 DUP5 DUP5 ADD MSTORE JUMPDEST POP POP POP POP JUMP JUMPDEST PUSH1 0x0 PUSH1 0x1F NOT PUSH1 0x1F DUP4 ADD AND SWAP1 POP SWAP2 SWAP1 POP JUMP JUMPDEST PUSH1 0x0 PUSH2 0xE3C DUP3 PUSH2 0xDD1 JUMP JUMPDEST PUSH2 0xE46 DUP2 DUP6 PUSH2 0xDDC JUMP JUMPDEST SWAP4 POP PUSH2 0xE56 DUP2 DUP6 PUSH1 0x20 DUP7 ADD PUSH2 0xDED JUMP JUMPDEST PUSH2 0xE5F DUP2 PUSH2 0xE20 JUMP JUMPDEST DUP5 ADD SWAP2 POP POP SWAP3 SWAP2 POP POP JUMP JUMPDEST PUSH1 0x0 PUSH1 0xE0 DUP3 ADD SWAP1 POP PUSH2 0xE7F PUSH1 0x0 DUP4 ADD DUP11 PUSH2 0xD30 JUMP JUMPDEST PUSH2 0xE8C PUSH1 0x20 DUP4 ADD DUP10 PUSH2 0xDB3 JUMP JUMPDEST PUSH2 0xE99 PUSH1 0x40 DUP4 ADD DUP9 PUSH2 0xDB3 JUMP JUMPDEST PUSH2 0xEA6 PUSH1 0x60 DUP4 ADD DUP8 PUSH2 0xDC2 JUMP JUMPDEST PUSH2 0xEB3 PUSH1 0x80 DUP4 ADD DUP7 PUSH2 0xDC2 JUMP JUMPDEST DUP2 DUP2 SUB PUSH1 0xA0 DUP4 ADD MSTORE PUSH2 0xEC5 DUP2 DUP6 PUSH2 0xE31 JUMP JUMPDEST SWAP1 POP PUSH2 0xED4 PUSH1 0xC0 DUP4 ADD DUP5 PUSH2 0xD30 JUMP JUMPDEST SWAP9 SWAP8 POP POP POP POP POP POP POP POP JUMP JUMPDEST PUSH1 0x0 DUP1 REVERT JUMPDEST PUSH1 0x0 DUP1 REVERT JUMPDEST PUSH1 0x0 DUP1 REVERT JUMPDEST PUSH1 0x0 DUP1 DUP4 PUSH1 0x1F DUP5 ADD SLT PUSH2 0xF05 JUMPI PUSH2 0xF04 PUSH2 0xEE0 JUMP JUMPDEST JUMPDEST DUP3 CALLDATALOAD SWAP1 POP PUSH8 0xFFFFFFFFFFFFFFFF DUP2 GT ISZERO PUSH2 0xF22 JUMPI PUSH2 0xF21 PUSH2 0xEE5 JUMP JUMPDEST JUMPDEST PUSH1 0x20 DUP4 ADD SWAP2 POP DUP4 PUSH1 0x1 DUP3 MUL DUP4 ADD GT ISZERO PUSH2 0xF3E JUMPI PUSH2 0xF3D PUSH2 0xEEA JUMP JUMPDEST JUMPDEST SWAP3 POP SWAP3 SWAP1 POP JUMP JUMPDEST PUSH1 0x0 DUP1 PUSH1 0x0 DUP1 PUSH1 0x60 DUP6 DUP8 SUB SLT ISZERO PUSH2 0xF5F JUMPI PUSH2 0xF5E PUSH2 0xC26 JUMP JUMPDEST JUMPDEST PUSH1 0x0 PUSH2 0xF6D DUP8 DUP3 DUP9 ADD PUSH2 0xC79 JUMP JUMPDEST SWAP5 POP POP PUSH1 0x20 PUSH2 0xF7E DUP8 DUP3 DUP9 ADD PUSH2 0xCAF JUMP JUMPDEST SWAP4 POP POP PUSH1 0x40 DUP6 ADD CALLDATALOAD PUSH8 0xFFFFFFFFFFFFFFFF DUP2 GT ISZERO PUSH2 0xF9F JUMPI PUSH2 0xF9E PUSH2 0xC2B JUMP JUMPDEST JUMPDEST PUSH2 0xFAB DUP8 DUP3 DUP9 ADD PUSH2 0xEEF JUMP JUMPDEST SWAP3 POP SWAP3 POP POP SWAP3 SWAP6 SWAP2 SWAP5 POP SWAP3 POP JUMP JUMPDEST PUSH2 0xFC2 DUP2 PUSH2 0xD04 JUMP JUMPDEST DUP3 MSTORE POP POP JUMP JUMPDEST PUSH2 0xFD1 DUP2 PUSH2 0xC50 JUMP JUMPDEST DUP3 MSTORE POP POP JUMP JUMPDEST PUSH2 0xFE0 DUP2 PUSH2 0xC8E JUMP JUMPDEST DUP3 MSTORE POP POP JUMP JUMPDEST PUSH1 0x0 DUP3 DUP3 MSTORE PUSH1 0x20 DUP3 ADD SWAP1 POP SWAP3 SWAP2 POP POP JUMP JUMPDEST PUSH1 0x0 PUSH2 0x1002 DUP3 PUSH2 0xDD1 JUMP JUMPDEST PUSH2 0x100C DUP2 DUP6 PUSH2 0xFE6 JUMP JUMPDEST SWAP4 POP PUSH2 0x101C DUP2 DUP6 PUSH1 0x20 DUP7 ADD PUSH2 0xDED JUMP JUMPDEST PUSH2 0x1025 DUP2 PUSH2 0xE20 JUMP JUMPDEST DUP5 ADD SWAP2 POP POP SWAP3 SWAP2 POP POP JUMP JUMPDEST PUSH1 0x0 PUSH1 0xE0 DUP4 ADD PUSH1 0x0 DUP4 ADD MLOAD PUSH2 0x1048 PUSH1 0x0 DUP7 ADD DUP3 PUSH2 0xFB9 JUMP JUMPDEST POP PUSH1 0x20 DUP4 ADD MLOAD PUSH2 0x105B PUSH1 0x20 DUP7 ADD DUP3 PUSH2 0xFC8 JUMP JUMPDEST POP PUSH1 0x40 DUP4 ADD MLOAD PUSH2 0x106E PUSH1 0x40 DUP7 ADD DUP3 PUSH2 0xFC8 JUMP JUMPDEST POP PUSH1 0x60 DUP4 ADD MLOAD PUSH2 0x1081 PUSH1 0x60 DUP7 ADD DUP3 PUSH2 0xFD7 JUMP JUMPDEST POP PUSH1 0x80 DUP4 ADD MLOAD PUSH2 0x1094 PUSH1 0x80 DUP7 ADD DUP3 PUSH2 0xFD7 JUMP JUMPDEST POP PUSH1 0xA0 DUP4 ADD MLOAD DUP5 DUP3 SUB PUSH1 0xA0 DUP7 ADD MSTORE PUSH2 0x10AC DUP3 DUP3 PUSH2 0xFF7 JUMP JUMPDEST SWAP2 POP POP PUSH1 0xC0 DUP4 ADD MLOAD PUSH2 0x10C1 PUSH1 0xC0 DUP7 ADD DUP3 PUSH2 0xFB9 JUMP JUMPDEST POP DUP1 SWAP2 POP POP SWAP3 SWAP2 POP POP JUMP JUMPDEST PUSH1 0x0 PUSH1 0x20 DUP3 ADD SWAP1 POP DUP2 DUP2 SUB PUSH1 0x0 DUP4 ADD MSTORE PUSH2 0x10E6 DUP2 DUP5 PUSH2 0x1030 JUMP JUMPDEST SWAP1 POP SWAP3 SWAP2 POP POP JUMP JUMPDEST PUSH1 0x0 PUSH1 0x20 DUP3 DUP5 SUB SLT ISZERO PUSH2 0x1104 JUMPI PUSH2 0x1103 PUSH2 0xC26 JUMP JUMPDEST JUMPDEST PUSH1 0x0 PUSH2 0x1112 DUP5 DUP3 DUP6 ADD PUSH2 0xC79 JUMP JUMPDEST SWAP2 POP POP SWAP3 SWAP2 POP POP JUMP JUMPDEST PUSH1 0x0 DUP2 MLOAD SWAP1 POP SWAP2 SWAP1 POP JUMP JUMPDEST PUSH1 0x0 DUP3 DUP3 MSTORE PUSH1 0x20 DUP3 ADD SWAP1 POP SWAP3 SWAP2 POP POP JUMP JUMPDEST PUSH1 0x0 DUP2 SWAP1 POP PUSH1 0x20 DUP3 ADD SWAP1 POP SWAP2 SWAP1 POP JUMP JUMPDEST PUSH1 0x0 PUSH2 0x1153 DUP4 DUP4 PUSH2 0xFB9 JUMP JUMPDEST PUSH1 0x20 DUP4 ADD SWAP1 POP SWAP3 SWAP2 POP POP JUMP JUMPDEST PUSH1 0x0 PUSH1 0x20 DUP3 ADD SWAP1 POP SWAP2 SWAP1 POP JUMP JUMPDEST PUSH1 0x0 PUSH2 0x1177 DUP3 PUSH2 0x111B JUMP JUMPDEST PUSH2 0x1181 DUP2 DUP6 PUSH2 0x1126 JUMP JUMPDEST SWAP4 POP PUSH2 0x118C DUP4 PUSH2 0x1137 JUMP JUMPDEST DUP1 PUSH1 0x0 JUMPDEST DUP4 DUP2 LT ISZERO PUSH2 0x11BD JUMPI DUP2 MLOAD PUSH2 0x11A4 DUP9 DUP3 PUSH2 0x1147 JUMP JUMPDEST SWAP8 POP PUSH2 0x11AF DUP4 PUSH2 0x115F JUMP JUMPDEST SWAP3 POP POP PUSH1 0x1 DUP2 ADD SWAP1 POP PUSH2 0x1190 JUMP JUMPDEST POP DUP6 SWAP4 POP POP POP POP SWAP3 SWAP2 POP POP JUMP JUMPDEST PUSH1 0x0 PUSH1 0x20 DUP3 ADD SWAP1 POP DUP2 DUP2 SUB PUSH1 0x0 DUP4 ADD MSTORE PUSH2 0x11E4 DUP2 DUP5 PUSH2 0x116C JUMP JUMPDEST SWAP1 POP SWAP3 SWAP2 POP POP JUMP JUMPDEST PUSH32 0x4E487B7100000000000000000000000000000000000000000000000000000000 PUSH1 0x0 MSTORE PUSH1 0x22 PUSH1 0x4 MSTORE PUSH1 0x24 PUSH1 0x0 REVERT JUMPDEST PUSH1 0x0 PUSH1 0x2 DUP3 DIV SWAP1 POP PUSH1 0x1 DUP3 AND DUP1 PUSH2 0x1233 JUMPI PUSH1 0x7F DUP3 AND SWAP2 POP JUMPDEST PUSH1 0x20 DUP3 LT DUP2 EQ ISZERO PUSH2 0x1247 JUMPI PUSH2 0x1246 PUSH2 0x11EC JUMP JUMPDEST JUMPDEST POP SWAP2 SWAP1 POP JUMP JUMPDEST PUSH1 0x0 DUP2 PUSH1 0x60 SHL SWAP1 POP SWAP2 SWAP1 POP JUMP JUMPDEST PUSH1 0x0 PUSH2 0x1265 DUP3 PUSH2 0x124D JUMP JUMPDEST SWAP1 POP SWAP2 SWAP1 POP JUMP JUMPDEST PUSH1 0x0 PUSH2 0x1277 DUP3 PUSH2 0x125A JUMP JUMPDEST SWAP1 POP SWAP2 SWAP1 POP JUMP JUMPDEST PUSH2 0x128F PUSH2 0x128A DUP3 PUSH2 0xC50 JUMP JUMPDEST PUSH2 0x126C JUMP JUMPDEST DUP3 MSTORE POP POP JUMP JUMPDEST PUSH1 0x0 DUP2 SWAP1 POP SWAP2 SWAP1 POP JUMP JUMPDEST PUSH2 0x12B0 PUSH2 0x12AB DUP3 PUSH2 0xC8E JUMP JUMPDEST PUSH2 0x1295 JUMP JUMPDEST DUP3 MSTORE POP POP JUMP JUMPDEST PUSH1 0x0 DUP2 SWAP1 POP SWAP3 SWAP2 POP POP JUMP JUMPDEST DUP3 DUP2 DUP4 CALLDATACOPY PUSH1 0x0 DUP4 DUP4 ADD MSTORE POP POP POP JUMP JUMPDEST PUSH1 0x0 PUSH2 0x12DC DUP4 DUP6 PUSH2 0x12B6 JUMP JUMPDEST SWAP4 POP PUSH2 0x12E9 DUP4 DUP6 DUP5 PUSH2 0x12C1 JUMP JUMPDEST DUP3 DUP5 ADD SWAP1 POP SWAP4 SWAP3 POP POP POP JUMP JUMPDEST PUSH1 0x0 PUSH2 0x1301 DUP3 DUP10 PUSH2 0x127E JUMP JUMPDEST PUSH1 0x14 DUP3 ADD SWAP2 POP PUSH2 0x1311 DUP3 DUP9 PUSH2 0x127E JUMP JUMPDEST PUSH1 0x14 DUP3 ADD SWAP2 POP PUSH2 0x1321 DUP3 DUP8 PUSH2 0x129F JUMP JUMPDEST PUSH1 0x20 DUP3 ADD SWAP2 POP PUSH2 0x1331 DUP3 DUP7 PUSH2 0x129F JUMP JUMPDEST PUSH1 0x20 DUP3 ADD SWAP2 POP PUSH2 0x1342 DUP3 DUP5 DUP7 PUSH2 0x12D0 JUMP JUMPDEST SWAP2 POP DUP2 SWAP1 POP SWAP8 SWAP7 POP POP POP POP POP POP POP JUMP JUMPDEST PUSH1 0x0 DUP2 MLOAD SWAP1 POP SWAP2 SWAP1 POP JUMP JUMPDEST PUSH1 0x0 DUP2 SWAP1 POP SWAP3 SWAP2 POP POP JUMP JUMPDEST PUSH1 0x0 PUSH2 0x1373 DUP3 PUSH2 0x1352 JUMP JUMPDEST PUSH2 0x137D DUP2 DUP6 PUSH2 0x135D JUMP JUMPDEST SWAP4 POP PUSH2 0x138D DUP2 DUP6 PUSH1 0x20 DUP7 ADD PUSH2 0xDED JUMP JUMPDEST DUP1 DUP5 ADD SWAP2 POP POP SWAP3 SWAP2 POP POP JUMP JUMPDEST PUSH1 0x0 PUSH2 0x13A5 DUP3 DUP5 PUSH2 0x1368 JUMP JUMPDEST SWAP2 POP DUP2 SWAP1 POP SWAP3 SWAP2 POP POP JUMP JUMPDEST PUSH1 0x0 DUP2 SWAP1 POP SWAP2 SWAP1 POP JUMP JUMPDEST PUSH2 0x13CB PUSH2 0x13C6 DUP3 PUSH2 0xD04 JUMP JUMPDEST PUSH2 0x13B0 JUMP JUMPDEST DUP3 MSTORE POP POP JUMP JUMPDEST PUSH1 0x0 PUSH2 0x13DD DUP3 DUP11 PUSH2 0x13BA JUMP JUMPDEST PUSH1 0x14 DUP3 ADD SWAP2 POP PUSH2 0x13ED DUP3 DUP10 PUSH2 0x127E JUMP JUMPDEST PUSH1 0x14 DUP3 ADD SWAP2 POP PUSH2 0x13FD DUP3 DUP9 PUSH2 0x127E JUMP JUMPDEST PUSH1 0x14 DUP3 ADD SWAP2 POP PUSH2 0x140D DUP3 DUP8 PUSH2 0x129F JUMP JUMPDEST PUSH1 0x20 DUP3 ADD SWAP2 POP PUSH2 0x141D DUP3 DUP7 PUSH2 0x129F JUMP JUMPDEST PUSH1 0x20 DUP3 ADD SWAP2 POP PUSH2 0x142E DUP3 DUP5 DUP7 PUSH2 0x12D0 JUMP JUMPDEST SWAP2 POP DUP2 SWAP1 POP SWAP9 SWAP8 POP POP POP POP POP POP POP POP JUMP INVALID LOG2 PUSH5 0x6970667358 0x22 SLT KECCAK256 EXTCODESIZE NUMBER LT 0xD3 SHL CALLCODE 0xB5 EXTCODEHASH 0xD4 PUSH19 0xFC29FD2C39B0D5513DC5A263228336A5554092 0xAE 0xD9 0xB4 PUSH5 0x736F6C6343 STOP ADDMOD SIGNEXTEND STOP CALLER "
				},
				"gasEstimates": {
					"creation": {
						"codeDepositCost": "1047400",
						"executionCost": "1087",
						"totalCost": "1048487"
					},
					"external": {
						"TXsarray(address,uint256)": "5182",
						"addNewPayment(address,uint256,string)": "infinite",
						"clienttransactions(bytes20)": "infinite",
						"getAllTransactionsOfAClient(address)": "infinite",
						"getPaymentByID(bytes20)": "infinite"
					}
				},
				"methodIdentifiers": {
					"TXsarray(address,uint256)": "0736e9fb",
					"addNewPayment(address,uint256,string)": "7d1a8825",
					"clienttransactions(bytes20)": "2b08a98a",
					"getAllTransactionsOfAClient(address)": "92206f3f",
					"getPaymentByID(bytes20)": "b69c9053"
				}
			},
			"storageLayout": {
				"storage": [
					{
						"astId": 20,
						"contract": "contracts/BankTransaction.sol:BankTransaction",
						"label": "AllClientTXs",
						"offset": 0,
						"slot": "0",
						"type": "t_array(t_bytes20)dyn_storage"
					},
					{
						"astId": 25,
						"contract": "contracts/BankTransaction.sol:BankTransaction",
						"label": "clienttransactions",
						"offset": 0,
						"slot": "1",
						"type": "t_mapping(t_bytes20,t_struct(ClientTransaction)17_storage)"
					},
					{
						"astId": 30,
						"contract": "contracts/BankTransaction.sol:BankTransaction",
						"label": "TXsarray",
						"offset": 0,
						"slot": "2",
						"type": "t_mapping(t_address,t_array(t_bytes20)dyn_storage)"
					}
				],
				"types": {
					"t_address": {
						"encoding": "inplace",
						"label": "address",
						"numberOfBytes": "20"
					},
					"t_array(t_bytes20)dyn_storage": {
						"base": "t_bytes20",
						"encoding": "dynamic_array",
						"label": "bytes20[]",
						"numberOfBytes": "32"
					},
					"t_bytes20": {
						"encoding": "inplace",
						"label": "bytes20",
						"numberOfBytes": "20"
					},
					"t_mapping(t_address,t_array(t_bytes20)dyn_storage)": {
						"encoding": "mapping",
						"key": "t_address",
						"label": "mapping(address => bytes20[])",
						"numberOfBytes": "32",
						"value": "t_array(t_bytes20)dyn_storage"
					},
					"t_mapping(t_bytes20,t_struct(ClientTransaction)17_storage)": {
						"encoding": "mapping",
						"key": "t_bytes20",
						"label": "mapping(bytes20 => struct BankTransaction.ClientTransaction)",
						"numberOfBytes": "32",
						"value": "t_struct(ClientTransaction)17_storage"
					},
					"t_string_storage": {
						"encoding": "bytes",
						"label": "string",
						"numberOfBytes": "32"
					},
					"t_struct(ClientTransaction)17_storage": {
						"encoding": "inplace",
						"label": "struct BankTransaction.ClientTransaction",
						"members": [
							{
								"astId": 4,
								"contract": "contracts/BankTransaction.sol:BankTransaction",
								"label": "payment_ID",
								"offset": 0,
								"slot": "0",
								"type": "t_bytes20"
							},
							{
								"astId": 6,
								"contract": "contracts/BankTransaction.sol:BankTransaction",
								"label": "client_ID",
								"offset": 0,
								"slot": "1",
								"type": "t_address"
							},
							{
								"astId": 8,
								"contract": "contracts/BankTransaction.sol:BankTransaction",
								"label": "recipient_ID",
								"offset": 0,
								"slot": "2",
								"type": "t_address"
							},
							{
								"astId": 10,
								"contract": "contracts/BankTransaction.sol:BankTransaction",
								"label": "amountOfPayment",
								"offset": 0,
								"slot": "3",
								"type": "t_uint256"
							},
							{
								"astId": 12,
								"contract": "contracts/BankTransaction.sol:BankTransaction",
								"label": "timeOfPayment",
								"offset": 0,
								"slot": "4",
								"type": "t_uint256"
							},
							{
								"astId": 14,
								"contract": "contracts/BankTransaction.sol:BankTransaction",
								"label": "Remarks",
								"offset": 0,
								"slot": "5",
								"type": "t_string_storage"
							},
							{
								"astId": 16,
								"contract": "contracts/BankTransaction.sol:BankTransaction",
								"label": "paymentHash",
								"offset": 0,
								"slot": "6",
								"type": "t_bytes20"
							}
						],
						"numberOfBytes": "224"
					},
					"t_uint256": {
						"encoding": "inplace",
						"label": "uint256",
						"numberOfBytes": "32"
					}
				}
			},
			"userdoc": {
				"kind": "user",
				"methods": {},
				"version": 1
			}
		}
	}
}