{
	"contracts/BankTransaction.sol": {
		"BankTransaction": {
			"abi": [
				{
					"inputs": [
						{
							"internalType": "address",
							"name": "",
							"type": "address"
						},
						{
							"internalType": "uint256",
							"name": "",
							"type": "uint256"
						}
					],
					"name": "TXaddresses",
					"outputs": [
						{
							"internalType": "bytes20",
							"name": "payment_ID",
							"type": "bytes20"
						},
						{
							"internalType": "address",
							"name": "client_ID",
							"type": "address"
						},
						{
							"internalType": "address",
							"name": "recipient_ID",
							"type": "address"
						},
						{
							"internalType": "uint256",
							"name": "amountOfPayment",
							"type": "uint256"
						},
						{
							"internalType": "uint256",
							"name": "timeOfPayment",
							"type": "uint256"
						},
						{
							"internalType": "string",
							"name": "Remarks",
							"type": "string"
						},
						{
							"internalType": "bytes20",
							"name": "paymentHash",
							"type": "bytes20"
						}
					],
					"stateMutability": "view",
					"type": "function"
				},
				{
					"inputs": [],
					"name": "addTransaction",
					"outputs": [],
					"stateMutability": "nonpayable",
					"type": "function"
				},
				{
					"inputs": [
						{
							"internalType": "bytes20",
							"name": "",
							"type": "bytes20"
						}
					],
					"name": "clienttransactions",
					"outputs": [
						{
							"internalType": "bytes20",
							"name": "payment_ID",
							"type": "bytes20"
						},
						{
							"internalType": "address",
							"name": "client_ID",
							"type": "address"
						},
						{
							"internalType": "address",
							"name": "recipient_ID",
							"type": "address"
						},
						{
							"internalType": "uint256",
							"name": "amountOfPayment",
							"type": "uint256"
						},
						{
							"internalType": "uint256",
							"name": "timeOfPayment",
							"type": "uint256"
						},
						{
							"internalType": "string",
							"name": "Remarks",
							"type": "string"
						},
						{
							"internalType": "bytes20",
							"name": "paymentHash",
							"type": "bytes20"
						}
					],
					"stateMutability": "view",
					"type": "function"
				},
				{
					"inputs": [
						{
							"internalType": "address",
							"name": "_client_ID",
							"type": "address"
						}
					],
					"name": "getAllTransactionsOfAClient",
					"outputs": [
						{
							"components": [
								{
									"internalType": "bytes20",
									"name": "payment_ID",
									"type": "bytes20"
								},
								{
									"internalType": "address",
									"name": "client_ID",
									"type": "address"
								},
								{
									"internalType": "address",
									"name": "recipient_ID",
									"type": "address"
								},
								{
									"internalType": "uint256",
									"name": "amountOfPayment",
									"type": "uint256"
								},
								{
									"internalType": "uint256",
									"name": "timeOfPayment",
									"type": "uint256"
								},
								{
									"internalType": "string",
									"name": "Remarks",
									"type": "string"
								},
								{
									"internalType": "bytes20",
									"name": "paymentHash",
									"type": "bytes20"
								}
							],
							"internalType": "struct BankTransaction.Transaction[]",
							"name": "",
							"type": "tuple[]"
						}
					],
					"stateMutability": "view",
					"type": "function"
				},
				{
					"inputs": [
						{
							"internalType": "bytes20",
							"name": "_payment_ID",
							"type": "bytes20"
						}
					],
					"name": "getPaymentByID",
					"outputs": [
						{
							"components": [
								{
									"internalType": "bytes20",
									"name": "payment_ID",
									"type": "bytes20"
								},
								{
									"internalType": "address",
									"name": "client_ID",
									"type": "address"
								},
								{
									"internalType": "address",
									"name": "recipient_ID",
									"type": "address"
								},
								{
									"internalType": "uint256",
									"name": "amountOfPayment",
									"type": "uint256"
								},
								{
									"internalType": "uint256",
									"name": "timeOfPayment",
									"type": "uint256"
								},
								{
									"internalType": "string",
									"name": "Remarks",
									"type": "string"
								},
								{
									"internalType": "bytes20",
									"name": "paymentHash",
									"type": "bytes20"
								}
							],
							"internalType": "struct BankTransaction.Transaction",
							"name": "",
							"type": "tuple"
						}
					],
					"stateMutability": "view",
					"type": "function"
				},
				{
					"inputs": [
						{
							"internalType": "address",
							"name": "clientID",
							"type": "address"
						},
						{
							"internalType": "address",
							"name": "recipientID",
							"type": "address"
						},
						{
							"internalType": "uint256",
							"name": "amount",
							"type": "uint256"
						},
						{
							"internalType": "string",
							"name": "remarks",
							"type": "string"
						}
					],
					"name": "setTransaction",
					"outputs": [],
					"stateMutability": "nonpayable",
					"type": "function"
				},
				{
					"inputs": [],
					"name": "transactions",
					"outputs": [
						{
							"internalType": "bytes20",
							"name": "payment_ID",
							"type": "bytes20"
						},
						{
							"internalType": "address",
							"name": "client_ID",
							"type": "address"
						},
						{
							"internalType": "address",
							"name": "recipient_ID",
							"type": "address"
						},
						{
							"internalType": "uint256",
							"name": "amountOfPayment",
							"type": "uint256"
						},
						{
							"internalType": "uint256",
							"name": "timeOfPayment",
							"type": "uint256"
						},
						{
							"internalType": "string",
							"name": "Remarks",
							"type": "string"
						},
						{
							"internalType": "bytes20",
							"name": "paymentHash",
							"type": "bytes20"
						}
					],
					"stateMutability": "view",
					"type": "function"
				}
			],
			"devdoc": {
				"kind": "dev",
				"methods": {},
				"version": 1
			},
			"evm": {
				"assembly": "    /* \"contracts/BankTransaction.sol\":66:2357  contract BankTransaction{\r... */\n  mstore(0x40, 0x80)\n  callvalue\n  dup1\n  iszero\n  tag_1\n  jumpi\n  0x00\n  dup1\n  revert\ntag_1:\n  pop\n  dataSize(sub_0)\n  dup1\n  dataOffset(sub_0)\n  0x00\n  codecopy\n  0x00\n  return\nstop\n\nsub_0: assembly {\n        /* \"contracts/BankTransaction.sol\":66:2357  contract BankTransaction{\r... */\n      mstore(0x40, 0x80)\n      callvalue\n      dup1\n      iszero\n      tag_1\n      jumpi\n      0x00\n      dup1\n      revert\n    tag_1:\n      pop\n      jumpi(tag_2, lt(calldatasize, 0x04))\n      shr(0xe0, calldataload(0x00))\n      dup1\n      0x92206f3f\n      gt\n      tag_10\n      jumpi\n      dup1\n      0x92206f3f\n      eq\n      tag_6\n      jumpi\n      dup1\n      0xaf34aea4\n      eq\n      tag_7\n      jumpi\n      dup1\n      0xb69c9053\n      eq\n      tag_8\n      jumpi\n      dup1\n      0xf7ed5ce8\n      eq\n      tag_9\n      jumpi\n      jump(tag_2)\n    tag_10:\n      dup1\n      0x18015191\n      eq\n      tag_3\n      jumpi\n      dup1\n      0x2b08a98a\n      eq\n      tag_4\n      jumpi\n      dup1\n      0x431f48c8\n      eq\n      tag_5\n      jumpi\n    tag_2:\n      0x00\n      dup1\n      revert\n        /* \"contracts/BankTransaction.sol\":334:365  Transaction public transactions */\n    tag_3:\n      tag_11\n      tag_12\n      jump\t// in\n    tag_11:\n      mload(0x40)\n      tag_13\n      swap8\n      swap7\n      swap6\n      swap5\n      swap4\n      swap3\n      swap2\n      swap1\n      tag_14\n      jump\t// in\n    tag_13:\n      mload(0x40)\n      dup1\n      swap2\n      sub\n      swap1\n      return\n        /* \"contracts/BankTransaction.sol\":403:460  mapping(bytes20 => Transaction) public clienttransactions */\n    tag_4:\n      tag_15\n      0x04\n      dup1\n      calldatasize\n      sub\n      dup2\n      add\n      swap1\n      tag_16\n      swap2\n      swap1\n      tag_17\n      jump\t// in\n    tag_16:\n      tag_18\n      jump\t// in\n    tag_15:\n      mload(0x40)\n      tag_19\n      swap8\n      swap7\n      swap6\n      swap5\n      swap4\n      swap3\n      swap2\n      swap1\n      tag_14\n      jump\t// in\n    tag_19:\n      mload(0x40)\n      dup1\n      swap2\n      sub\n      swap1\n      return\n        /* \"contracts/BankTransaction.sol\":581:1271  function setTransaction(address clientID, address recipientID, uint amount,string calldata remarks) public {\r... */\n    tag_5:\n      tag_20\n      0x04\n      dup1\n      calldatasize\n      sub\n      dup2\n      add\n      swap1\n      tag_21\n      swap2\n      swap1\n      tag_22\n      jump\t// in\n    tag_21:\n      tag_23\n      jump\t// in\n    tag_20:\n      stop\n        /* \"contracts/BankTransaction.sol\":1521:1674  function getAllTransactionsOfAClient(address  _client_ID) public  view  returns (Transaction[] memory ){\r... */\n    tag_6:\n      tag_24\n      0x04\n      dup1\n      calldatasize\n      sub\n      dup2\n      add\n      swap1\n      tag_25\n      swap2\n      swap1\n      tag_26\n      jump\t// in\n    tag_25:\n      tag_27\n      jump\t// in\n    tag_24:\n      mload(0x40)\n      tag_28\n      swap2\n      swap1\n      tag_29\n      jump\t// in\n    tag_28:\n      mload(0x40)\n      dup1\n      swap2\n      sub\n      swap1\n      return\n        /* \"contracts/BankTransaction.sol\":1279:1362  function addTransaction() external {\r... */\n    tag_7:\n      tag_30\n      tag_31\n      jump\t// in\n    tag_30:\n      stop\n        /* \"contracts/BankTransaction.sol\":1370:1513  function getPaymentByID(bytes20 _payment_ID) public view returns ( Transaction memory){\r... */\n    tag_8:\n      tag_32\n      0x04\n      dup1\n      calldatasize\n      sub\n      dup2\n      add\n      swap1\n      tag_33\n      swap2\n      swap1\n      tag_17\n      jump\t// in\n    tag_33:\n      tag_34\n      jump\t// in\n    tag_32:\n      mload(0x40)\n      tag_35\n      swap2\n      swap1\n      tag_36\n      jump\t// in\n    tag_35:\n      mload(0x40)\n      dup1\n      swap2\n      sub\n      swap1\n      return\n        /* \"contracts/BankTransaction.sol\":467:519  mapping (address =>Transaction[]) public TXaddresses */\n    tag_9:\n      tag_37\n      0x04\n      dup1\n      calldatasize\n      sub\n      dup2\n      add\n      swap1\n      tag_38\n      swap2\n      swap1\n      tag_39\n      jump\t// in\n    tag_38:\n      tag_40\n      jump\t// in\n    tag_37:\n      mload(0x40)\n      tag_41\n      swap8\n      swap7\n      swap6\n      swap5\n      swap4\n      swap3\n      swap2\n      swap1\n      tag_14\n      jump\t// in\n    tag_41:\n      mload(0x40)\n      dup1\n      swap2\n      sub\n      swap1\n      return\n        /* \"contracts/BankTransaction.sol\":334:365  Transaction public transactions */\n    tag_12:\n      0x00\n      dup1\n      0x00\n      add\n      0x00\n      swap1\n      sload\n      swap1\n      0x0100\n      exp\n      swap1\n      div\n      0x60\n      shl\n      swap1\n      dup1\n      0x01\n      add\n      0x00\n      swap1\n      sload\n      swap1\n      0x0100\n      exp\n      swap1\n      div\n      0xffffffffffffffffffffffffffffffffffffffff\n      and\n      swap1\n      dup1\n      0x02\n      add\n      0x00\n      swap1\n      sload\n      swap1\n      0x0100\n      exp\n      swap1\n      div\n      0xffffffffffffffffffffffffffffffffffffffff\n      and\n      swap1\n      dup1\n      0x03\n      add\n      sload\n      swap1\n      dup1\n      0x04\n      add\n      sload\n      swap1\n      dup1\n      0x05\n      add\n      dup1\n      sload\n      tag_42\n      swap1\n      tag_43\n      jump\t// in\n    tag_42:\n      dup1\n      0x1f\n      add\n      0x20\n      dup1\n      swap2\n      div\n      mul\n      0x20\n      add\n      mload(0x40)\n      swap1\n      dup2\n      add\n      0x40\n      mstore\n      dup1\n      swap3\n      swap2\n      swap1\n      dup2\n      dup2\n      mstore\n      0x20\n      add\n      dup3\n      dup1\n      sload\n      tag_44\n      swap1\n      tag_43\n      jump\t// in\n    tag_44:\n      dup1\n      iszero\n      tag_45\n      jumpi\n      dup1\n      0x1f\n      lt\n      tag_46\n      jumpi\n      0x0100\n      dup1\n      dup4\n      sload\n      div\n      mul\n      dup4\n      mstore\n      swap2\n      0x20\n      add\n      swap2\n      jump(tag_45)\n    tag_46:\n      dup3\n      add\n      swap2\n      swap1\n      0x00\n      mstore\n      keccak256(0x00, 0x20)\n      swap1\n    tag_47:\n      dup2\n      sload\n      dup2\n      mstore\n      swap1\n      0x01\n      add\n      swap1\n      0x20\n      add\n      dup1\n      dup4\n      gt\n      tag_47\n      jumpi\n      dup3\n      swap1\n      sub\n      0x1f\n      and\n      dup3\n      add\n      swap2\n    tag_45:\n      pop\n      pop\n      pop\n      pop\n      pop\n      swap1\n      dup1\n      0x06\n      add\n      0x00\n      swap1\n      sload\n      swap1\n      0x0100\n      exp\n      swap1\n      div\n      0x60\n      shl\n      swap1\n      pop\n      dup8\n      jump\t// out\n        /* \"contracts/BankTransaction.sol\":403:460  mapping(bytes20 => Transaction) public clienttransactions */\n    tag_18:\n      mstore(0x20, 0x08)\n      dup1\n      0x00\n      mstore\n      keccak256(0x00, 0x40)\n      0x00\n      swap2\n      pop\n      swap1\n      pop\n      dup1\n      0x00\n      add\n      0x00\n      swap1\n      sload\n      swap1\n      0x0100\n      exp\n      swap1\n      div\n      0x60\n      shl\n      swap1\n      dup1\n      0x01\n      add\n      0x00\n      swap1\n      sload\n      swap1\n      0x0100\n      exp\n      swap1\n      div\n      0xffffffffffffffffffffffffffffffffffffffff\n      and\n      swap1\n      dup1\n      0x02\n      add\n      0x00\n      swap1\n      sload\n      swap1\n      0x0100\n      exp\n      swap1\n      div\n      0xffffffffffffffffffffffffffffffffffffffff\n      and\n      swap1\n      dup1\n      0x03\n      add\n      sload\n      swap1\n      dup1\n      0x04\n      add\n      sload\n      swap1\n      dup1\n      0x05\n      add\n      dup1\n      sload\n      tag_48\n      swap1\n      tag_43\n      jump\t// in\n    tag_48:\n      dup1\n      0x1f\n      add\n      0x20\n      dup1\n      swap2\n      div\n      mul\n      0x20\n      add\n      mload(0x40)\n      swap1\n      dup2\n      add\n      0x40\n      mstore\n      dup1\n      swap3\n      swap2\n      swap1\n      dup2\n      dup2\n      mstore\n      0x20\n      add\n      dup3\n      dup1\n      sload\n      tag_49\n      swap1\n      tag_43\n      jump\t// in\n    tag_49:\n      dup1\n      iszero\n      tag_50\n      jumpi\n      dup1\n      0x1f\n      lt\n      tag_51\n      jumpi\n      0x0100\n      dup1\n      dup4\n      sload\n      div\n      mul\n      dup4\n      mstore\n      swap2\n      0x20\n      add\n      swap2\n      jump(tag_50)\n    tag_51:\n      dup3\n      add\n      swap2\n      swap1\n      0x00\n      mstore\n      keccak256(0x00, 0x20)\n      swap1\n    tag_52:\n      dup2\n      sload\n      dup2\n      mstore\n      swap1\n      0x01\n      add\n      swap1\n      0x20\n      add\n      dup1\n      dup4\n      gt\n      tag_52\n      jumpi\n      dup3\n      swap1\n      sub\n      0x1f\n      and\n      dup3\n      add\n      swap2\n    tag_50:\n      pop\n      pop\n      pop\n      pop\n      pop\n      swap1\n      dup1\n      0x06\n      add\n      0x00\n      swap1\n      sload\n      swap1\n      0x0100\n      exp\n      swap1\n      div\n      0x60\n      shl\n      swap1\n      pop\n      dup8\n      jump\t// out\n        /* \"contracts/BankTransaction.sol\":581:1271  function setTransaction(address clientID, address recipientID, uint amount,string calldata remarks) public {\r... */\n    tag_23:\n        /* \"contracts/BankTransaction.sol\":698:715  address client_ID */\n      0x00\n        /* \"contracts/BankTransaction.sol\":718:726  clientID */\n      dup6\n        /* \"contracts/BankTransaction.sol\":698:726  address client_ID = clientID */\n      swap1\n      pop\n        /* \"contracts/BankTransaction.sol\":736:756  address recipient_ID */\n      0x00\n        /* \"contracts/BankTransaction.sol\":759:770  recipientID */\n      dup6\n        /* \"contracts/BankTransaction.sol\":736:770  address recipient_ID = recipientID */\n      swap1\n      pop\n        /* \"contracts/BankTransaction.sol\":780:800  uint amountOfPayment */\n      0x00\n        /* \"contracts/BankTransaction.sol\":803:809  amount */\n      dup6\n        /* \"contracts/BankTransaction.sol\":780:809  uint amountOfPayment = amount */\n      swap1\n      pop\n        /* \"contracts/BankTransaction.sol\":819:828  uint time */\n      0x00\n        /* \"contracts/BankTransaction.sol\":831:846  block.timestamp */\n      timestamp\n        /* \"contracts/BankTransaction.sol\":819:846  uint time = block.timestamp */\n      swap1\n      pop\n        /* \"contracts/BankTransaction.sol\":856:874  uint timeOfPayment */\n      0x00\n        /* \"contracts/BankTransaction.sol\":877:881  time */\n      dup2\n        /* \"contracts/BankTransaction.sol\":856:881  uint timeOfPayment = time */\n      swap1\n      pop\n        /* \"contracts/BankTransaction.sol\":892:909  bytes20 PaymentID */\n      0x00\n        /* \"contracts/BankTransaction.sol\":912:986  ripemd160(abi.encodePacked(clientID , recipientID, amount, time, remarks)) */\n      0x03\n        /* \"contracts/BankTransaction.sol\":939:947  clientID */\n      dup12\n        /* \"contracts/BankTransaction.sol\":950:961  recipientID */\n      dup12\n        /* \"contracts/BankTransaction.sol\":963:969  amount */\n      dup12\n        /* \"contracts/BankTransaction.sol\":971:975  time */\n      dup7\n        /* \"contracts/BankTransaction.sol\":977:984  remarks */\n      dup13\n      dup13\n        /* \"contracts/BankTransaction.sol\":922:985  abi.encodePacked(clientID , recipientID, amount, time, remarks) */\n      add(0x20, mload(0x40))\n      tag_54\n      swap7\n      swap6\n      swap5\n      swap4\n      swap3\n      swap2\n      swap1\n      tag_55\n      jump\t// in\n    tag_54:\n      mload(0x40)\n      0x20\n      dup2\n      dup4\n      sub\n      sub\n      dup2\n      mstore\n      swap1\n      0x40\n      mstore\n        /* \"contracts/BankTransaction.sol\":912:986  ripemd160(abi.encodePacked(clientID , recipientID, amount, time, remarks)) */\n      mload(0x40)\n      tag_56\n      swap2\n      swap1\n      tag_57\n      jump\t// in\n    tag_56:\n      0x20\n      mload(0x40)\n      dup1\n      dup4\n      sub\n      dup2\n      dup6\n      gas\n      staticcall\n      iszero\n      dup1\n      iszero\n      tag_59\n      jumpi\n      returndatasize\n      0x00\n      dup1\n      returndatacopy\n      revert(0x00, returndatasize)\n    tag_59:\n      pop\n      pop\n      pop\n      shl(0x60, mload(mload(0x40)))\n        /* \"contracts/BankTransaction.sol\":892:986  bytes20 PaymentID = ripemd160(abi.encodePacked(clientID , recipientID, amount, time, remarks)) */\n      swap1\n      pop\n        /* \"contracts/BankTransaction.sol\":996:1014  bytes20 Payment_ID */\n      0x00\n        /* \"contracts/BankTransaction.sol\":1017:1026  PaymentID */\n      dup2\n        /* \"contracts/BankTransaction.sol\":996:1026  bytes20 Payment_ID = PaymentID */\n      swap1\n      pop\n        /* \"contracts/BankTransaction.sol\":1036:1048  bytes20 Hash */\n      0x00\n        /* \"contracts/BankTransaction.sol\":1051:1134  ripemd160(abi.encodePacked(PaymentID, clientID, recipientID, amount,time, remarks)) */\n      0x03\n        /* \"contracts/BankTransaction.sol\":1078:1087  PaymentID */\n      dup4\n        /* \"contracts/BankTransaction.sol\":1089:1097  clientID */\n      dup15\n        /* \"contracts/BankTransaction.sol\":1099:1110  recipientID */\n      dup15\n        /* \"contracts/BankTransaction.sol\":1112:1118  amount */\n      dup15\n        /* \"contracts/BankTransaction.sol\":1119:1123  time */\n      dup10\n        /* \"contracts/BankTransaction.sol\":1125:1132  remarks */\n      dup16\n      dup16\n        /* \"contracts/BankTransaction.sol\":1061:1133  abi.encodePacked(PaymentID, clientID, recipientID, amount,time, remarks) */\n      add(0x20, mload(0x40))\n      tag_60\n      swap8\n      swap7\n      swap6\n      swap5\n      swap4\n      swap3\n      swap2\n      swap1\n      tag_61\n      jump\t// in\n    tag_60:\n      mload(0x40)\n      0x20\n      dup2\n      dup4\n      sub\n      sub\n      dup2\n      mstore\n      swap1\n      0x40\n      mstore\n        /* \"contracts/BankTransaction.sol\":1051:1134  ripemd160(abi.encodePacked(PaymentID, clientID, recipientID, amount,time, remarks)) */\n      mload(0x40)\n      tag_62\n      swap2\n      swap1\n      tag_57\n      jump\t// in\n    tag_62:\n      0x20\n      mload(0x40)\n      dup1\n      dup4\n      sub\n      dup2\n      dup6\n      gas\n      staticcall\n      iszero\n      dup1\n      iszero\n      tag_64\n      jumpi\n      returndatasize\n      0x00\n      dup1\n      returndatacopy\n      revert(0x00, returndatasize)\n    tag_64:\n      pop\n      pop\n      pop\n      shl(0x60, mload(mload(0x40)))\n        /* \"contracts/BankTransaction.sol\":1036:1134  bytes20 Hash = ripemd160(abi.encodePacked(PaymentID, clientID, recipientID, amount,time, remarks)) */\n      swap1\n      pop\n        /* \"contracts/BankTransaction.sol\":1144:1163  bytes20 paymentHash */\n      0x00\n        /* \"contracts/BankTransaction.sol\":1166:1170  Hash */\n      dup2\n        /* \"contracts/BankTransaction.sol\":1144:1170  bytes20 paymentHash = Hash */\n      swap1\n      pop\n        /* \"contracts/BankTransaction.sol\":1195:1263  Transaction(PaymentID,clientID,recipientID,amount,time,remarks,Hash) */\n      mload(0x40)\n      dup1\n      0xe0\n      add\n      0x40\n      mstore\n      dup1\n        /* \"contracts/BankTransaction.sol\":1207:1216  PaymentID */\n      dup6\n        /* \"contracts/BankTransaction.sol\":1195:1263  Transaction(PaymentID,clientID,recipientID,amount,time,remarks,Hash) */\n      not(0xffffffffffffffffffffffff)\n      and\n      dup2\n      mstore\n      0x20\n      add\n        /* \"contracts/BankTransaction.sol\":1217:1225  clientID */\n      dup16\n        /* \"contracts/BankTransaction.sol\":1195:1263  Transaction(PaymentID,clientID,recipientID,amount,time,remarks,Hash) */\n      0xffffffffffffffffffffffffffffffffffffffff\n      and\n      dup2\n      mstore\n      0x20\n      add\n        /* \"contracts/BankTransaction.sol\":1226:1237  recipientID */\n      dup15\n        /* \"contracts/BankTransaction.sol\":1195:1263  Transaction(PaymentID,clientID,recipientID,amount,time,remarks,Hash) */\n      0xffffffffffffffffffffffffffffffffffffffff\n      and\n      dup2\n      mstore\n      0x20\n      add\n        /* \"contracts/BankTransaction.sol\":1238:1244  amount */\n      dup14\n        /* \"contracts/BankTransaction.sol\":1195:1263  Transaction(PaymentID,clientID,recipientID,amount,time,remarks,Hash) */\n      dup2\n      mstore\n      0x20\n      add\n        /* \"contracts/BankTransaction.sol\":1245:1249  time */\n      dup8\n        /* \"contracts/BankTransaction.sol\":1195:1263  Transaction(PaymentID,clientID,recipientID,amount,time,remarks,Hash) */\n      dup2\n      mstore\n      0x20\n      add\n        /* \"contracts/BankTransaction.sol\":1250:1257  remarks */\n      dup13\n      dup13\n        /* \"contracts/BankTransaction.sol\":1195:1263  Transaction(PaymentID,clientID,recipientID,amount,time,remarks,Hash) */\n      dup1\n      dup1\n      0x1f\n      add\n      0x20\n      dup1\n      swap2\n      div\n      mul\n      0x20\n      add\n      mload(0x40)\n      swap1\n      dup2\n      add\n      0x40\n      mstore\n      dup1\n      swap4\n      swap3\n      swap2\n      swap1\n      dup2\n      dup2\n      mstore\n      0x20\n      add\n      dup4\n      dup4\n      dup1\n      dup3\n      dup5\n      calldatacopy\n      0x00\n      dup2\n      dup5\n      add\n      mstore\n      not(0x1f)\n      0x1f\n      dup3\n      add\n      and\n      swap1\n      pop\n      dup1\n      dup4\n      add\n      swap3\n      pop\n      pop\n      pop\n      pop\n      pop\n      pop\n      pop\n      dup2\n      mstore\n      0x20\n      add\n        /* \"contracts/BankTransaction.sol\":1258:1262  Hash */\n      dup4\n        /* \"contracts/BankTransaction.sol\":1195:1263  Transaction(PaymentID,clientID,recipientID,amount,time,remarks,Hash) */\n      not(0xffffffffffffffffffffffff)\n      and\n      dup2\n      mstore\n      pop\n        /* \"contracts/BankTransaction.sol\":1180:1192  transactions */\n      0x00\n        /* \"contracts/BankTransaction.sol\":1180:1263  transactions = Transaction(PaymentID,clientID,recipientID,amount,time,remarks,Hash) */\n      dup1\n      dup3\n      add\n      mload\n      dup2\n      0x00\n      add\n      exp(0x0100, 0x00)\n      dup2\n      sload\n      dup2\n      0xffffffffffffffffffffffffffffffffffffffff\n      mul\n      not\n      and\n      swap1\n      dup4\n      0x60\n      shr\n      mul\n      or\n      swap1\n      sstore\n      pop\n      0x20\n      dup3\n      add\n      mload\n      dup2\n      0x01\n      add\n      exp(0x0100, 0x00)\n      dup2\n      sload\n      dup2\n      0xffffffffffffffffffffffffffffffffffffffff\n      mul\n      not\n      and\n      swap1\n      dup4\n      0xffffffffffffffffffffffffffffffffffffffff\n      and\n      mul\n      or\n      swap1\n      sstore\n      pop\n      0x40\n      dup3\n      add\n      mload\n      dup2\n      0x02\n      add\n      exp(0x0100, 0x00)\n      dup2\n      sload\n      dup2\n      0xffffffffffffffffffffffffffffffffffffffff\n      mul\n      not\n      and\n      swap1\n      dup4\n      0xffffffffffffffffffffffffffffffffffffffff\n      and\n      mul\n      or\n      swap1\n      sstore\n      pop\n      0x60\n      dup3\n      add\n      mload\n      dup2\n      0x03\n      add\n      sstore\n      0x80\n      dup3\n      add\n      mload\n      dup2\n      0x04\n      add\n      sstore\n      0xa0\n      dup3\n      add\n      mload\n      dup2\n      0x05\n      add\n      swap1\n      dup1\n      mload\n      swap1\n      0x20\n      add\n      swap1\n      tag_65\n      swap3\n      swap2\n      swap1\n      tag_66\n      jump\t// in\n    tag_65:\n      pop\n      0xc0\n      dup3\n      add\n      mload\n      dup2\n      0x06\n      add\n      exp(0x0100, 0x00)\n      dup2\n      sload\n      dup2\n      0xffffffffffffffffffffffffffffffffffffffff\n      mul\n      not\n      and\n      swap1\n      dup4\n      0x60\n      shr\n      mul\n      or\n      swap1\n      sstore\n      pop\n      swap1\n      pop\n      pop\n        /* \"contracts/BankTransaction.sol\":688:1271  {\r... */\n      pop\n      pop\n      pop\n      pop\n      pop\n      pop\n      pop\n      pop\n      pop\n        /* \"contracts/BankTransaction.sol\":581:1271  function setTransaction(address clientID, address recipientID, uint amount,string calldata remarks) public {\r... */\n      pop\n      pop\n      pop\n      pop\n      pop\n      jump\t// out\n        /* \"contracts/BankTransaction.sol\":1521:1674  function getAllTransactionsOfAClient(address  _client_ID) public  view  returns (Transaction[] memory ){\r... */\n    tag_27:\n        /* \"contracts/BankTransaction.sol\":1602:1622  Transaction[] memory */\n      0x60\n        /* \"contracts/BankTransaction.sol\":1642:1653  TXaddresses */\n      0x09\n        /* \"contracts/BankTransaction.sol\":1642:1665  TXaddresses[_client_ID] */\n      0x00\n        /* \"contracts/BankTransaction.sol\":1654:1664  _client_ID */\n      dup4\n        /* \"contracts/BankTransaction.sol\":1642:1665  TXaddresses[_client_ID] */\n      0xffffffffffffffffffffffffffffffffffffffff\n      and\n      0xffffffffffffffffffffffffffffffffffffffff\n      and\n      dup2\n      mstore\n      0x20\n      add\n      swap1\n      dup2\n      mstore\n      0x20\n      add\n      0x00\n      keccak256\n        /* \"contracts/BankTransaction.sol\":1635:1665  return TXaddresses[_client_ID] */\n      dup1\n      sload\n      dup1\n      0x20\n      mul\n      0x20\n      add\n      mload(0x40)\n      swap1\n      dup2\n      add\n      0x40\n      mstore\n      dup1\n      swap3\n      swap2\n      swap1\n      dup2\n      dup2\n      mstore\n      0x20\n      add\n      0x00\n      swap1\n    tag_68:\n      dup3\n      dup3\n      lt\n      iszero\n      tag_69\n      jumpi\n      dup4\n      dup3\n      swap1\n      0x00\n      mstore\n      keccak256(0x00, 0x20)\n      swap1\n      0x07\n      mul\n      add\n      mload(0x40)\n      dup1\n      0xe0\n      add\n      0x40\n      mstore\n      swap1\n      dup2\n      0x00\n      dup3\n      add\n      0x00\n      swap1\n      sload\n      swap1\n      0x0100\n      exp\n      swap1\n      div\n      0x60\n      shl\n      not(0xffffffffffffffffffffffff)\n      and\n      not(0xffffffffffffffffffffffff)\n      and\n      dup2\n      mstore\n      0x20\n      add\n      0x01\n      dup3\n      add\n      0x00\n      swap1\n      sload\n      swap1\n      0x0100\n      exp\n      swap1\n      div\n      0xffffffffffffffffffffffffffffffffffffffff\n      and\n      0xffffffffffffffffffffffffffffffffffffffff\n      and\n      0xffffffffffffffffffffffffffffffffffffffff\n      and\n      dup2\n      mstore\n      0x20\n      add\n      0x02\n      dup3\n      add\n      0x00\n      swap1\n      sload\n      swap1\n      0x0100\n      exp\n      swap1\n      div\n      0xffffffffffffffffffffffffffffffffffffffff\n      and\n      0xffffffffffffffffffffffffffffffffffffffff\n      and\n      0xffffffffffffffffffffffffffffffffffffffff\n      and\n      dup2\n      mstore\n      0x20\n      add\n      0x03\n      dup3\n      add\n      sload\n      dup2\n      mstore\n      0x20\n      add\n      0x04\n      dup3\n      add\n      sload\n      dup2\n      mstore\n      0x20\n      add\n      0x05\n      dup3\n      add\n      dup1\n      sload\n      tag_71\n      swap1\n      tag_43\n      jump\t// in\n    tag_71:\n      dup1\n      0x1f\n      add\n      0x20\n      dup1\n      swap2\n      div\n      mul\n      0x20\n      add\n      mload(0x40)\n      swap1\n      dup2\n      add\n      0x40\n      mstore\n      dup1\n      swap3\n      swap2\n      swap1\n      dup2\n      dup2\n      mstore\n      0x20\n      add\n      dup3\n      dup1\n      sload\n      tag_72\n      swap1\n      tag_43\n      jump\t// in\n    tag_72:\n      dup1\n      iszero\n      tag_73\n      jumpi\n      dup1\n      0x1f\n      lt\n      tag_74\n      jumpi\n      0x0100\n      dup1\n      dup4\n      sload\n      div\n      mul\n      dup4\n      mstore\n      swap2\n      0x20\n      add\n      swap2\n      jump(tag_73)\n    tag_74:\n      dup3\n      add\n      swap2\n      swap1\n      0x00\n      mstore\n      keccak256(0x00, 0x20)\n      swap1\n    tag_75:\n      dup2\n      sload\n      dup2\n      mstore\n      swap1\n      0x01\n      add\n      swap1\n      0x20\n      add\n      dup1\n      dup4\n      gt\n      tag_75\n      jumpi\n      dup3\n      swap1\n      sub\n      0x1f\n      and\n      dup3\n      add\n      swap2\n    tag_73:\n      pop\n      pop\n      pop\n      pop\n      pop\n      dup2\n      mstore\n      0x20\n      add\n      0x06\n      dup3\n      add\n      0x00\n      swap1\n      sload\n      swap1\n      0x0100\n      exp\n      swap1\n      div\n      0x60\n      shl\n      not(0xffffffffffffffffffffffff)\n      and\n      not(0xffffffffffffffffffffffff)\n      and\n      dup2\n      mstore\n      pop\n      pop\n      dup2\n      mstore\n      0x20\n      add\n      swap1\n      0x01\n      add\n      swap1\n      jump(tag_68)\n    tag_69:\n      pop\n      pop\n      pop\n      pop\n      swap1\n      pop\n        /* \"contracts/BankTransaction.sol\":1521:1674  function getAllTransactionsOfAClient(address  _client_ID) public  view  returns (Transaction[] memory ){\r... */\n      swap2\n      swap1\n      pop\n      jump\t// out\n        /* \"contracts/BankTransaction.sol\":1279:1362  function addTransaction() external {\r... */\n    tag_31:\n        /* \"contracts/BankTransaction.sol\":1326:1335  ClientTXs */\n      0x07\n        /* \"contracts/BankTransaction.sol\":1341:1353  transactions */\n      0x00\n        /* \"contracts/BankTransaction.sol\":1326:1354  ClientTXs.push(transactions) */\n      swap1\n      dup1\n      0x01\n      dup2\n      sload\n      add\n      dup1\n      dup3\n      sstore\n      dup1\n      swap2\n      pop\n      pop\n      0x01\n      swap1\n      sub\n      swap1\n      0x00\n      mstore\n      keccak256(0x00, 0x20)\n      swap1\n      0x07\n      mul\n      add\n      0x00\n      swap1\n      swap2\n      swap1\n      swap2\n      swap1\n      swap2\n      pop\n      0x00\n      dup3\n      add\n      0x00\n      swap1\n      sload\n      swap1\n      0x0100\n      exp\n      swap1\n      div\n      0x60\n      shl\n      dup2\n      0x00\n      add\n      exp(0x0100, 0x00)\n      dup2\n      sload\n      dup2\n      0xffffffffffffffffffffffffffffffffffffffff\n      mul\n      not\n      and\n      swap1\n      dup4\n      0x60\n      shr\n      mul\n      or\n      swap1\n      sstore\n      pop\n      0x01\n      dup3\n      add\n      0x00\n      swap1\n      sload\n      swap1\n      0x0100\n      exp\n      swap1\n      div\n      0xffffffffffffffffffffffffffffffffffffffff\n      and\n      dup2\n      0x01\n      add\n      exp(0x0100, 0x00)\n      dup2\n      sload\n      dup2\n      0xffffffffffffffffffffffffffffffffffffffff\n      mul\n      not\n      and\n      swap1\n      dup4\n      0xffffffffffffffffffffffffffffffffffffffff\n      and\n      mul\n      or\n      swap1\n      sstore\n      pop\n      0x02\n      dup3\n      add\n      0x00\n      swap1\n      sload\n      swap1\n      0x0100\n      exp\n      swap1\n      div\n      0xffffffffffffffffffffffffffffffffffffffff\n      and\n      dup2\n      0x02\n      add\n      exp(0x0100, 0x00)\n      dup2\n      sload\n      dup2\n      0xffffffffffffffffffffffffffffffffffffffff\n      mul\n      not\n      and\n      swap1\n      dup4\n      0xffffffffffffffffffffffffffffffffffffffff\n      and\n      mul\n      or\n      swap1\n      sstore\n      pop\n      0x03\n      dup3\n      add\n      sload\n      dup2\n      0x03\n      add\n      sstore\n      0x04\n      dup3\n      add\n      sload\n      dup2\n      0x04\n      add\n      sstore\n      0x05\n      dup3\n      add\n      dup2\n      0x05\n      add\n      swap1\n      dup1\n      sload\n      tag_78\n      swap1\n      tag_43\n      jump\t// in\n    tag_78:\n      tag_79\n      swap3\n      swap2\n      swap1\n      tag_80\n      jump\t// in\n    tag_79:\n      pop\n      0x06\n      dup3\n      add\n      0x00\n      swap1\n      sload\n      swap1\n      0x0100\n      exp\n      swap1\n      div\n      0x60\n      shl\n      dup2\n      0x06\n      add\n      exp(0x0100, 0x00)\n      dup2\n      sload\n      dup2\n      0xffffffffffffffffffffffffffffffffffffffff\n      mul\n      not\n      and\n      swap1\n      dup4\n      0x60\n      shr\n      mul\n      or\n      swap1\n      sstore\n      pop\n      pop\n      pop\n        /* \"contracts/BankTransaction.sol\":1279:1362  function addTransaction() external {\r... */\n      jump\t// out\n        /* \"contracts/BankTransaction.sol\":1370:1513  function getPaymentByID(bytes20 _payment_ID) public view returns ( Transaction memory){\r... */\n    tag_34:\n        /* \"contracts/BankTransaction.sol\":1437:1455  Transaction memory */\n      tag_81\n      tag_82\n      jump\t// in\n    tag_81:\n        /* \"contracts/BankTransaction.sol\":1474:1492  clienttransactions */\n      0x08\n        /* \"contracts/BankTransaction.sol\":1474:1505  clienttransactions[_payment_ID] */\n      0x00\n        /* \"contracts/BankTransaction.sol\":1493:1504  _payment_ID */\n      dup4\n        /* \"contracts/BankTransaction.sol\":1474:1505  clienttransactions[_payment_ID] */\n      not(0xffffffffffffffffffffffff)\n      and\n      not(0xffffffffffffffffffffffff)\n      and\n      dup2\n      mstore\n      0x20\n      add\n      swap1\n      dup2\n      mstore\n      0x20\n      add\n      0x00\n      keccak256\n        /* \"contracts/BankTransaction.sol\":1467:1505  return clienttransactions[_payment_ID] */\n      mload(0x40)\n      dup1\n      0xe0\n      add\n      0x40\n      mstore\n      swap1\n      dup2\n      0x00\n      dup3\n      add\n      0x00\n      swap1\n      sload\n      swap1\n      0x0100\n      exp\n      swap1\n      div\n      0x60\n      shl\n      not(0xffffffffffffffffffffffff)\n      and\n      not(0xffffffffffffffffffffffff)\n      and\n      dup2\n      mstore\n      0x20\n      add\n      0x01\n      dup3\n      add\n      0x00\n      swap1\n      sload\n      swap1\n      0x0100\n      exp\n      swap1\n      div\n      0xffffffffffffffffffffffffffffffffffffffff\n      and\n      0xffffffffffffffffffffffffffffffffffffffff\n      and\n      0xffffffffffffffffffffffffffffffffffffffff\n      and\n      dup2\n      mstore\n      0x20\n      add\n      0x02\n      dup3\n      add\n      0x00\n      swap1\n      sload\n      swap1\n      0x0100\n      exp\n      swap1\n      div\n      0xffffffffffffffffffffffffffffffffffffffff\n      and\n      0xffffffffffffffffffffffffffffffffffffffff\n      and\n      0xffffffffffffffffffffffffffffffffffffffff\n      and\n      dup2\n      mstore\n      0x20\n      add\n      0x03\n      dup3\n      add\n      sload\n      dup2\n      mstore\n      0x20\n      add\n      0x04\n      dup3\n      add\n      sload\n      dup2\n      mstore\n      0x20\n      add\n      0x05\n      dup3\n      add\n      dup1\n      sload\n      tag_84\n      swap1\n      tag_43\n      jump\t// in\n    tag_84:\n      dup1\n      0x1f\n      add\n      0x20\n      dup1\n      swap2\n      div\n      mul\n      0x20\n      add\n      mload(0x40)\n      swap1\n      dup2\n      add\n      0x40\n      mstore\n      dup1\n      swap3\n      swap2\n      swap1\n      dup2\n      dup2\n      mstore\n      0x20\n      add\n      dup3\n      dup1\n      sload\n      tag_85\n      swap1\n      tag_43\n      jump\t// in\n    tag_85:\n      dup1\n      iszero\n      tag_86\n      jumpi\n      dup1\n      0x1f\n      lt\n      tag_87\n      jumpi\n      0x0100\n      dup1\n      dup4\n      sload\n      div\n      mul\n      dup4\n      mstore\n      swap2\n      0x20\n      add\n      swap2\n      jump(tag_86)\n    tag_87:\n      dup3\n      add\n      swap2\n      swap1\n      0x00\n      mstore\n      keccak256(0x00, 0x20)\n      swap1\n    tag_88:\n      dup2\n      sload\n      dup2\n      mstore\n      swap1\n      0x01\n      add\n      swap1\n      0x20\n      add\n      dup1\n      dup4\n      gt\n      tag_88\n      jumpi\n      dup3\n      swap1\n      sub\n      0x1f\n      and\n      dup3\n      add\n      swap2\n    tag_86:\n      pop\n      pop\n      pop\n      pop\n      pop\n      dup2\n      mstore\n      0x20\n      add\n      0x06\n      dup3\n      add\n      0x00\n      swap1\n      sload\n      swap1\n      0x0100\n      exp\n      swap1\n      div\n      0x60\n      shl\n      not(0xffffffffffffffffffffffff)\n      and\n      not(0xffffffffffffffffffffffff)\n      and\n      dup2\n      mstore\n      pop\n      pop\n      swap1\n      pop\n        /* \"contracts/BankTransaction.sol\":1370:1513  function getPaymentByID(bytes20 _payment_ID) public view returns ( Transaction memory){\r... */\n      swap2\n      swap1\n      pop\n      jump\t// out\n        /* \"contracts/BankTransaction.sol\":467:519  mapping (address =>Transaction[]) public TXaddresses */\n    tag_40:\n      mstore(0x20, 0x09)\n      dup2\n      0x00\n      mstore\n      keccak256(0x00, 0x40)\n      dup2\n      dup2\n      sload\n      dup2\n      lt\n      tag_89\n      jumpi\n      0x00\n      dup1\n      revert\n    tag_89:\n      swap1\n      0x00\n      mstore\n      keccak256(0x00, 0x20)\n      swap1\n      0x07\n      mul\n      add\n      0x00\n      swap2\n      pop\n      swap2\n      pop\n      pop\n      dup1\n      0x00\n      add\n      0x00\n      swap1\n      sload\n      swap1\n      0x0100\n      exp\n      swap1\n      div\n      0x60\n      shl\n      swap1\n      dup1\n      0x01\n      add\n      0x00\n      swap1\n      sload\n      swap1\n      0x0100\n      exp\n      swap1\n      div\n      0xffffffffffffffffffffffffffffffffffffffff\n      and\n      swap1\n      dup1\n      0x02\n      add\n      0x00\n      swap1\n      sload\n      swap1\n      0x0100\n      exp\n      swap1\n      div\n      0xffffffffffffffffffffffffffffffffffffffff\n      and\n      swap1\n      dup1\n      0x03\n      add\n      sload\n      swap1\n      dup1\n      0x04\n      add\n      sload\n      swap1\n      dup1\n      0x05\n      add\n      dup1\n      sload\n      tag_91\n      swap1\n      tag_43\n      jump\t// in\n    tag_91:\n      dup1\n      0x1f\n      add\n      0x20\n      dup1\n      swap2\n      div\n      mul\n      0x20\n      add\n      mload(0x40)\n      swap1\n      dup2\n      add\n      0x40\n      mstore\n      dup1\n      swap3\n      swap2\n      swap1\n      dup2\n      dup2\n      mstore\n      0x20\n      add\n      dup3\n      dup1\n      sload\n      tag_92\n      swap1\n      tag_43\n      jump\t// in\n    tag_92:\n      dup1\n      iszero\n      tag_93\n      jumpi\n      dup1\n      0x1f\n      lt\n      tag_94\n      jumpi\n      0x0100\n      dup1\n      dup4\n      sload\n      div\n      mul\n      dup4\n      mstore\n      swap2\n      0x20\n      add\n      swap2\n      jump(tag_93)\n    tag_94:\n      dup3\n      add\n      swap2\n      swap1\n      0x00\n      mstore\n      keccak256(0x00, 0x20)\n      swap1\n    tag_95:\n      dup2\n      sload\n      dup2\n      mstore\n      swap1\n      0x01\n      add\n      swap1\n      0x20\n      add\n      dup1\n      dup4\n      gt\n      tag_95\n      jumpi\n      dup3\n      swap1\n      sub\n      0x1f\n      and\n      dup3\n      add\n      swap2\n    tag_93:\n      pop\n      pop\n      pop\n      pop\n      pop\n      swap1\n      dup1\n      0x06\n      add\n      0x00\n      swap1\n      sload\n      swap1\n      0x0100\n      exp\n      swap1\n      div\n      0x60\n      shl\n      swap1\n      pop\n      dup8\n      jump\t// out\n    tag_66:\n      dup3\n      dup1\n      sload\n      tag_96\n      swap1\n      tag_43\n      jump\t// in\n    tag_96:\n      swap1\n      0x00\n      mstore\n      keccak256(0x00, 0x20)\n      swap1\n      0x1f\n      add\n      0x20\n      swap1\n      div\n      dup2\n      add\n      swap3\n      dup3\n      tag_98\n      jumpi\n      0x00\n      dup6\n      sstore\n      jump(tag_97)\n    tag_98:\n      dup3\n      0x1f\n      lt\n      tag_99\n      jumpi\n      dup1\n      mload\n      not(0xff)\n      and\n      dup4\n      dup1\n      add\n      or\n      dup6\n      sstore\n      jump(tag_97)\n    tag_99:\n      dup3\n      dup1\n      add\n      0x01\n      add\n      dup6\n      sstore\n      dup3\n      iszero\n      tag_97\n      jumpi\n      swap2\n      dup3\n      add\n    tag_100:\n      dup3\n      dup2\n      gt\n      iszero\n      tag_101\n      jumpi\n      dup3\n      mload\n      dup3\n      sstore\n      swap2\n      0x20\n      add\n      swap2\n      swap1\n      0x01\n      add\n      swap1\n      jump(tag_100)\n    tag_101:\n    tag_97:\n      pop\n      swap1\n      pop\n      tag_102\n      swap2\n      swap1\n      tag_103\n      jump\t// in\n    tag_102:\n      pop\n      swap1\n      jump\t// out\n    tag_80:\n      dup3\n      dup1\n      sload\n      tag_104\n      swap1\n      tag_43\n      jump\t// in\n    tag_104:\n      swap1\n      0x00\n      mstore\n      keccak256(0x00, 0x20)\n      swap1\n      0x1f\n      add\n      0x20\n      swap1\n      div\n      dup2\n      add\n      swap3\n      dup3\n      tag_106\n      jumpi\n      0x00\n      dup6\n      sstore\n      jump(tag_105)\n    tag_106:\n      dup3\n      0x1f\n      lt\n      tag_107\n      jumpi\n      dup1\n      sload\n      dup6\n      sstore\n      jump(tag_105)\n    tag_107:\n      dup3\n      dup1\n      add\n      0x01\n      add\n      dup6\n      sstore\n      dup3\n      iszero\n      tag_105\n      jumpi\n      0x00\n      mstore\n      keccak256(0x00, 0x20)\n      swap2\n      0x1f\n      add\n      0x20\n      swap1\n      div\n      dup3\n      add\n    tag_108:\n      dup3\n      dup2\n      gt\n      iszero\n      tag_109\n      jumpi\n      dup3\n      sload\n      dup3\n      sstore\n      swap2\n      0x01\n      add\n      swap2\n      swap1\n      0x01\n      add\n      swap1\n      jump(tag_108)\n    tag_109:\n    tag_105:\n      pop\n      swap1\n      pop\n      tag_110\n      swap2\n      swap1\n      tag_103\n      jump\t// in\n    tag_110:\n      pop\n      swap1\n      jump\t// out\n    tag_82:\n      mload(0x40)\n      dup1\n      0xe0\n      add\n      0x40\n      mstore\n      dup1\n      and(not(0xffffffffffffffffffffffff), 0x00)\n      dup2\n      mstore\n      0x20\n      add\n      and(0xffffffffffffffffffffffffffffffffffffffff, 0x00)\n      dup2\n      mstore\n      0x20\n      add\n      and(0xffffffffffffffffffffffffffffffffffffffff, 0x00)\n      dup2\n      mstore\n      0x20\n      add\n      0x00\n      dup2\n      mstore\n      0x20\n      add\n      0x00\n      dup2\n      mstore\n      0x20\n      add\n      0x60\n      dup2\n      mstore\n      0x20\n      add\n      and(not(0xffffffffffffffffffffffff), 0x00)\n      dup2\n      mstore\n      pop\n      swap1\n      jump\t// out\n    tag_103:\n    tag_111:\n      dup1\n      dup3\n      gt\n      iszero\n      tag_112\n      jumpi\n      0x00\n      dup2\n      0x00\n      swap1\n      sstore\n      pop\n      0x01\n      add\n      jump(tag_111)\n    tag_112:\n      pop\n      swap1\n      jump\t// out\n        /* \"#utility.yul\":7:146   */\n    tag_114:\n        /* \"#utility.yul\":53:58   */\n      0x00\n        /* \"#utility.yul\":91:97   */\n      dup2\n        /* \"#utility.yul\":78:98   */\n      calldataload\n        /* \"#utility.yul\":69:98   */\n      swap1\n      pop\n        /* \"#utility.yul\":107:140   */\n      tag_116\n        /* \"#utility.yul\":134:139   */\n      dup2\n        /* \"#utility.yul\":107:140   */\n      tag_117\n      jump\t// in\n    tag_116:\n        /* \"#utility.yul\":7:146   */\n      swap3\n      swap2\n      pop\n      pop\n      jump\t// out\n        /* \"#utility.yul\":152:291   */\n    tag_118:\n        /* \"#utility.yul\":198:203   */\n      0x00\n        /* \"#utility.yul\":236:242   */\n      dup2\n        /* \"#utility.yul\":223:243   */\n      calldataload\n        /* \"#utility.yul\":214:243   */\n      swap1\n      pop\n        /* \"#utility.yul\":252:285   */\n      tag_120\n        /* \"#utility.yul\":279:284   */\n      dup2\n        /* \"#utility.yul\":252:285   */\n      tag_121\n      jump\t// in\n    tag_120:\n        /* \"#utility.yul\":152:291   */\n      swap3\n      swap2\n      pop\n      pop\n      jump\t// out\n        /* \"#utility.yul\":311:864   */\n    tag_122:\n        /* \"#utility.yul\":369:377   */\n      0x00\n        /* \"#utility.yul\":379:385   */\n      dup1\n        /* \"#utility.yul\":429:432   */\n      dup4\n        /* \"#utility.yul\":422:426   */\n      0x1f\n        /* \"#utility.yul\":414:420   */\n      dup5\n        /* \"#utility.yul\":410:427   */\n      add\n        /* \"#utility.yul\":406:433   */\n      slt\n        /* \"#utility.yul\":396:518   */\n      tag_124\n      jumpi\n        /* \"#utility.yul\":437:516   */\n      tag_125\n      tag_126\n      jump\t// in\n    tag_125:\n        /* \"#utility.yul\":396:518   */\n    tag_124:\n        /* \"#utility.yul\":550:556   */\n      dup3\n        /* \"#utility.yul\":537:557   */\n      calldataload\n        /* \"#utility.yul\":527:557   */\n      swap1\n      pop\n        /* \"#utility.yul\":580:598   */\n      0xffffffffffffffff\n        /* \"#utility.yul\":572:578   */\n      dup2\n        /* \"#utility.yul\":569:599   */\n      gt\n        /* \"#utility.yul\":566:683   */\n      iszero\n      tag_127\n      jumpi\n        /* \"#utility.yul\":602:681   */\n      tag_128\n      tag_129\n      jump\t// in\n    tag_128:\n        /* \"#utility.yul\":566:683   */\n    tag_127:\n        /* \"#utility.yul\":716:720   */\n      0x20\n        /* \"#utility.yul\":708:714   */\n      dup4\n        /* \"#utility.yul\":704:721   */\n      add\n        /* \"#utility.yul\":692:721   */\n      swap2\n      pop\n        /* \"#utility.yul\":770:773   */\n      dup4\n        /* \"#utility.yul\":762:766   */\n      0x01\n        /* \"#utility.yul\":754:760   */\n      dup3\n        /* \"#utility.yul\":750:767   */\n      mul\n        /* \"#utility.yul\":740:748   */\n      dup4\n        /* \"#utility.yul\":736:768   */\n      add\n        /* \"#utility.yul\":733:774   */\n      gt\n        /* \"#utility.yul\":730:858   */\n      iszero\n      tag_130\n      jumpi\n        /* \"#utility.yul\":777:856   */\n      tag_131\n      tag_132\n      jump\t// in\n    tag_131:\n        /* \"#utility.yul\":730:858   */\n    tag_130:\n        /* \"#utility.yul\":311:864   */\n      swap3\n      pop\n      swap3\n      swap1\n      pop\n      jump\t// out\n        /* \"#utility.yul\":870:1009   */\n    tag_133:\n        /* \"#utility.yul\":916:921   */\n      0x00\n        /* \"#utility.yul\":954:960   */\n      dup2\n        /* \"#utility.yul\":941:961   */\n      calldataload\n        /* \"#utility.yul\":932:961   */\n      swap1\n      pop\n        /* \"#utility.yul\":970:1003   */\n      tag_135\n        /* \"#utility.yul\":997:1002   */\n      dup2\n        /* \"#utility.yul\":970:1003   */\n      tag_136\n      jump\t// in\n    tag_135:\n        /* \"#utility.yul\":870:1009   */\n      swap3\n      swap2\n      pop\n      pop\n      jump\t// out\n        /* \"#utility.yul\":1015:1344   */\n    tag_26:\n        /* \"#utility.yul\":1074:1080   */\n      0x00\n        /* \"#utility.yul\":1123:1125   */\n      0x20\n        /* \"#utility.yul\":1111:1120   */\n      dup3\n        /* \"#utility.yul\":1102:1109   */\n      dup5\n        /* \"#utility.yul\":1098:1121   */\n      sub\n        /* \"#utility.yul\":1094:1126   */\n      slt\n        /* \"#utility.yul\":1091:1210   */\n      iszero\n      tag_138\n      jumpi\n        /* \"#utility.yul\":1129:1208   */\n      tag_139\n      tag_140\n      jump\t// in\n    tag_139:\n        /* \"#utility.yul\":1091:1210   */\n    tag_138:\n        /* \"#utility.yul\":1249:1250   */\n      0x00\n        /* \"#utility.yul\":1274:1327   */\n      tag_141\n        /* \"#utility.yul\":1319:1326   */\n      dup5\n        /* \"#utility.yul\":1310:1316   */\n      dup3\n        /* \"#utility.yul\":1299:1308   */\n      dup6\n        /* \"#utility.yul\":1295:1317   */\n      add\n        /* \"#utility.yul\":1274:1327   */\n      tag_114\n      jump\t// in\n    tag_141:\n        /* \"#utility.yul\":1264:1327   */\n      swap2\n      pop\n        /* \"#utility.yul\":1220:1337   */\n      pop\n        /* \"#utility.yul\":1015:1344   */\n      swap3\n      swap2\n      pop\n      pop\n      jump\t// out\n        /* \"#utility.yul\":1350:2315   */\n    tag_22:\n        /* \"#utility.yul\":1448:1454   */\n      0x00\n        /* \"#utility.yul\":1456:1462   */\n      dup1\n        /* \"#utility.yul\":1464:1470   */\n      0x00\n        /* \"#utility.yul\":1472:1478   */\n      dup1\n        /* \"#utility.yul\":1480:1486   */\n      0x00\n        /* \"#utility.yul\":1529:1532   */\n      0x80\n        /* \"#utility.yul\":1517:1526   */\n      dup7\n        /* \"#utility.yul\":1508:1515   */\n      dup9\n        /* \"#utility.yul\":1504:1527   */\n      sub\n        /* \"#utility.yul\":1500:1533   */\n      slt\n        /* \"#utility.yul\":1497:1617   */\n      iszero\n      tag_143\n      jumpi\n        /* \"#utility.yul\":1536:1615   */\n      tag_144\n      tag_140\n      jump\t// in\n    tag_144:\n        /* \"#utility.yul\":1497:1617   */\n    tag_143:\n        /* \"#utility.yul\":1656:1657   */\n      0x00\n        /* \"#utility.yul\":1681:1734   */\n      tag_145\n        /* \"#utility.yul\":1726:1733   */\n      dup9\n        /* \"#utility.yul\":1717:1723   */\n      dup3\n        /* \"#utility.yul\":1706:1715   */\n      dup10\n        /* \"#utility.yul\":1702:1724   */\n      add\n        /* \"#utility.yul\":1681:1734   */\n      tag_114\n      jump\t// in\n    tag_145:\n        /* \"#utility.yul\":1671:1734   */\n      swap6\n      pop\n        /* \"#utility.yul\":1627:1744   */\n      pop\n        /* \"#utility.yul\":1783:1785   */\n      0x20\n        /* \"#utility.yul\":1809:1862   */\n      tag_146\n        /* \"#utility.yul\":1854:1861   */\n      dup9\n        /* \"#utility.yul\":1845:1851   */\n      dup3\n        /* \"#utility.yul\":1834:1843   */\n      dup10\n        /* \"#utility.yul\":1830:1852   */\n      add\n        /* \"#utility.yul\":1809:1862   */\n      tag_114\n      jump\t// in\n    tag_146:\n        /* \"#utility.yul\":1799:1862   */\n      swap5\n      pop\n        /* \"#utility.yul\":1754:1872   */\n      pop\n        /* \"#utility.yul\":1911:1913   */\n      0x40\n        /* \"#utility.yul\":1937:1990   */\n      tag_147\n        /* \"#utility.yul\":1982:1989   */\n      dup9\n        /* \"#utility.yul\":1973:1979   */\n      dup3\n        /* \"#utility.yul\":1962:1971   */\n      dup10\n        /* \"#utility.yul\":1958:1980   */\n      add\n        /* \"#utility.yul\":1937:1990   */\n      tag_133\n      jump\t// in\n    tag_147:\n        /* \"#utility.yul\":1927:1990   */\n      swap4\n      pop\n        /* \"#utility.yul\":1882:2000   */\n      pop\n        /* \"#utility.yul\":2067:2069   */\n      0x60\n        /* \"#utility.yul\":2056:2065   */\n      dup7\n        /* \"#utility.yul\":2052:2070   */\n      add\n        /* \"#utility.yul\":2039:2071   */\n      calldataload\n        /* \"#utility.yul\":2098:2116   */\n      0xffffffffffffffff\n        /* \"#utility.yul\":2090:2096   */\n      dup2\n        /* \"#utility.yul\":2087:2117   */\n      gt\n        /* \"#utility.yul\":2084:2201   */\n      iszero\n      tag_148\n      jumpi\n        /* \"#utility.yul\":2120:2199   */\n      tag_149\n      tag_150\n      jump\t// in\n    tag_149:\n        /* \"#utility.yul\":2084:2201   */\n    tag_148:\n        /* \"#utility.yul\":2233:2298   */\n      tag_151\n        /* \"#utility.yul\":2290:2297   */\n      dup9\n        /* \"#utility.yul\":2281:2287   */\n      dup3\n        /* \"#utility.yul\":2270:2279   */\n      dup10\n        /* \"#utility.yul\":2266:2288   */\n      add\n        /* \"#utility.yul\":2233:2298   */\n      tag_122\n      jump\t// in\n    tag_151:\n        /* \"#utility.yul\":2215:2298   */\n      swap3\n      pop\n      swap3\n      pop\n        /* \"#utility.yul\":2010:2308   */\n      pop\n        /* \"#utility.yul\":1350:2315   */\n      swap3\n      swap6\n      pop\n      swap3\n      swap6\n      swap1\n      swap4\n      pop\n      jump\t// out\n        /* \"#utility.yul\":2321:2795   */\n    tag_39:\n        /* \"#utility.yul\":2389:2395   */\n      0x00\n        /* \"#utility.yul\":2397:2403   */\n      dup1\n        /* \"#utility.yul\":2446:2448   */\n      0x40\n        /* \"#utility.yul\":2434:2443   */\n      dup4\n        /* \"#utility.yul\":2425:2432   */\n      dup6\n        /* \"#utility.yul\":2421:2444   */\n      sub\n        /* \"#utility.yul\":2417:2449   */\n      slt\n        /* \"#utility.yul\":2414:2533   */\n      iszero\n      tag_153\n      jumpi\n        /* \"#utility.yul\":2452:2531   */\n      tag_154\n      tag_140\n      jump\t// in\n    tag_154:\n        /* \"#utility.yul\":2414:2533   */\n    tag_153:\n        /* \"#utility.yul\":2572:2573   */\n      0x00\n        /* \"#utility.yul\":2597:2650   */\n      tag_155\n        /* \"#utility.yul\":2642:2649   */\n      dup6\n        /* \"#utility.yul\":2633:2639   */\n      dup3\n        /* \"#utility.yul\":2622:2631   */\n      dup7\n        /* \"#utility.yul\":2618:2640   */\n      add\n        /* \"#utility.yul\":2597:2650   */\n      tag_114\n      jump\t// in\n    tag_155:\n        /* \"#utility.yul\":2587:2650   */\n      swap3\n      pop\n        /* \"#utility.yul\":2543:2660   */\n      pop\n        /* \"#utility.yul\":2699:2701   */\n      0x20\n        /* \"#utility.yul\":2725:2778   */\n      tag_156\n        /* \"#utility.yul\":2770:2777   */\n      dup6\n        /* \"#utility.yul\":2761:2767   */\n      dup3\n        /* \"#utility.yul\":2750:2759   */\n      dup7\n        /* \"#utility.yul\":2746:2768   */\n      add\n        /* \"#utility.yul\":2725:2778   */\n      tag_133\n      jump\t// in\n    tag_156:\n        /* \"#utility.yul\":2715:2778   */\n      swap2\n      pop\n        /* \"#utility.yul\":2670:2788   */\n      pop\n        /* \"#utility.yul\":2321:2795   */\n      swap3\n      pop\n      swap3\n      swap1\n      pop\n      jump\t// out\n        /* \"#utility.yul\":2801:3130   */\n    tag_17:\n        /* \"#utility.yul\":2860:2866   */\n      0x00\n        /* \"#utility.yul\":2909:2911   */\n      0x20\n        /* \"#utility.yul\":2897:2906   */\n      dup3\n        /* \"#utility.yul\":2888:2895   */\n      dup5\n        /* \"#utility.yul\":2884:2907   */\n      sub\n        /* \"#utility.yul\":2880:2912   */\n      slt\n        /* \"#utility.yul\":2877:2996   */\n      iszero\n      tag_158\n      jumpi\n        /* \"#utility.yul\":2915:2994   */\n      tag_159\n      tag_140\n      jump\t// in\n    tag_159:\n        /* \"#utility.yul\":2877:2996   */\n    tag_158:\n        /* \"#utility.yul\":3035:3036   */\n      0x00\n        /* \"#utility.yul\":3060:3113   */\n      tag_160\n        /* \"#utility.yul\":3105:3112   */\n      dup5\n        /* \"#utility.yul\":3096:3102   */\n      dup3\n        /* \"#utility.yul\":3085:3094   */\n      dup6\n        /* \"#utility.yul\":3081:3103   */\n      add\n        /* \"#utility.yul\":3060:3113   */\n      tag_118\n      jump\t// in\n    tag_160:\n        /* \"#utility.yul\":3050:3113   */\n      swap2\n      pop\n        /* \"#utility.yul\":3006:3123   */\n      pop\n        /* \"#utility.yul\":2801:3130   */\n      swap3\n      swap2\n      pop\n      pop\n      jump\t// out\n        /* \"#utility.yul\":3136:3400   */\n    tag_161:\n        /* \"#utility.yul\":3259:3269   */\n      0x00\n        /* \"#utility.yul\":3294:3394   */\n      tag_163\n        /* \"#utility.yul\":3390:3393   */\n      dup4\n        /* \"#utility.yul\":3382:3388   */\n      dup4\n        /* \"#utility.yul\":3294:3394   */\n      tag_164\n      jump\t// in\n    tag_163:\n        /* \"#utility.yul\":3280:3394   */\n      swap1\n      pop\n        /* \"#utility.yul\":3136:3400   */\n      swap3\n      swap2\n      pop\n      pop\n      jump\t// out\n        /* \"#utility.yul\":3406:3514   */\n    tag_165:\n        /* \"#utility.yul\":3483:3507   */\n      tag_167\n        /* \"#utility.yul\":3501:3506   */\n      dup2\n        /* \"#utility.yul\":3483:3507   */\n      tag_168\n      jump\t// in\n    tag_167:\n        /* \"#utility.yul\":3478:3481   */\n      dup3\n        /* \"#utility.yul\":3471:3508   */\n      mstore\n        /* \"#utility.yul\":3406:3514   */\n      pop\n      pop\n      jump\t// out\n        /* \"#utility.yul\":3520:3638   */\n    tag_169:\n        /* \"#utility.yul\":3607:3631   */\n      tag_171\n        /* \"#utility.yul\":3625:3630   */\n      dup2\n        /* \"#utility.yul\":3607:3631   */\n      tag_168\n      jump\t// in\n    tag_171:\n        /* \"#utility.yul\":3602:3605   */\n      dup3\n        /* \"#utility.yul\":3595:3632   */\n      mstore\n        /* \"#utility.yul\":3520:3638   */\n      pop\n      pop\n      jump\t// out\n        /* \"#utility.yul\":3644:3801   */\n    tag_172:\n        /* \"#utility.yul\":3749:3794   */\n      tag_174\n        /* \"#utility.yul\":3769:3793   */\n      tag_175\n        /* \"#utility.yul\":3787:3792   */\n      dup3\n        /* \"#utility.yul\":3769:3793   */\n      tag_168\n      jump\t// in\n    tag_175:\n        /* \"#utility.yul\":3749:3794   */\n      tag_176\n      jump\t// in\n    tag_174:\n        /* \"#utility.yul\":3744:3747   */\n      dup3\n        /* \"#utility.yul\":3737:3795   */\n      mstore\n        /* \"#utility.yul\":3644:3801   */\n      pop\n      pop\n      jump\t// out\n        /* \"#utility.yul\":3891:5018   */\n    tag_177:\n        /* \"#utility.yul\":4064:4067   */\n      0x00\n        /* \"#utility.yul\":4093:4174   */\n      tag_179\n        /* \"#utility.yul\":4168:4173   */\n      dup3\n        /* \"#utility.yul\":4093:4174   */\n      tag_180\n      jump\t// in\n    tag_179:\n        /* \"#utility.yul\":4190:4303   */\n      tag_181\n        /* \"#utility.yul\":4296:4302   */\n      dup2\n        /* \"#utility.yul\":4291:4294   */\n      dup6\n        /* \"#utility.yul\":4190:4303   */\n      tag_182\n      jump\t// in\n    tag_181:\n        /* \"#utility.yul\":4183:4303   */\n      swap4\n      pop\n        /* \"#utility.yul\":4329:4332   */\n      dup4\n        /* \"#utility.yul\":4374:4378   */\n      0x20\n        /* \"#utility.yul\":4366:4372   */\n      dup3\n        /* \"#utility.yul\":4362:4379   */\n      mul\n        /* \"#utility.yul\":4357:4360   */\n      dup6\n        /* \"#utility.yul\":4353:4380   */\n      add\n        /* \"#utility.yul\":4404:4487   */\n      tag_183\n        /* \"#utility.yul\":4481:4486   */\n      dup6\n        /* \"#utility.yul\":4404:4487   */\n      tag_184\n      jump\t// in\n    tag_183:\n        /* \"#utility.yul\":4510:4517   */\n      dup1\n        /* \"#utility.yul\":4541:4542   */\n      0x00\n        /* \"#utility.yul\":4526:4973   */\n    tag_185:\n        /* \"#utility.yul\":4551:4557   */\n      dup6\n        /* \"#utility.yul\":4548:4549   */\n      dup2\n        /* \"#utility.yul\":4545:4558   */\n      lt\n        /* \"#utility.yul\":4526:4973   */\n      iszero\n      tag_187\n      jumpi\n        /* \"#utility.yul\":4622:4631   */\n      dup5\n        /* \"#utility.yul\":4616:4620   */\n      dup5\n        /* \"#utility.yul\":4612:4632   */\n      sub\n        /* \"#utility.yul\":4607:4610   */\n      dup10\n        /* \"#utility.yul\":4600:4633   */\n      mstore\n        /* \"#utility.yul\":4673:4679   */\n      dup2\n        /* \"#utility.yul\":4667:4680   */\n      mload\n        /* \"#utility.yul\":4701:4819   */\n      tag_188\n        /* \"#utility.yul\":4814:4818   */\n      dup6\n        /* \"#utility.yul\":4799:4812   */\n      dup3\n        /* \"#utility.yul\":4701:4819   */\n      tag_161\n      jump\t// in\n    tag_188:\n        /* \"#utility.yul\":4693:4819   */\n      swap5\n      pop\n        /* \"#utility.yul\":4842:4929   */\n      tag_189\n        /* \"#utility.yul\":4922:4928   */\n      dup4\n        /* \"#utility.yul\":4842:4929   */\n      tag_190\n      jump\t// in\n    tag_189:\n        /* \"#utility.yul\":4832:4929   */\n      swap3\n      pop\n        /* \"#utility.yul\":4958:4962   */\n      0x20\n        /* \"#utility.yul\":4953:4956   */\n      dup11\n        /* \"#utility.yul\":4949:4963   */\n      add\n        /* \"#utility.yul\":4942:4963   */\n      swap10\n      pop\n        /* \"#utility.yul\":4586:4973   */\n      pop\n        /* \"#utility.yul\":4573:4574   */\n      0x01\n        /* \"#utility.yul\":4570:4571   */\n      dup2\n        /* \"#utility.yul\":4566:4575   */\n      add\n        /* \"#utility.yul\":4561:4575   */\n      swap1\n      pop\n        /* \"#utility.yul\":4526:4973   */\n      jump(tag_185)\n    tag_187:\n        /* \"#utility.yul\":4530:4544   */\n      pop\n        /* \"#utility.yul\":4989:4993   */\n      dup3\n        /* \"#utility.yul\":4982:4993   */\n      swap8\n      pop\n        /* \"#utility.yul\":5009:5012   */\n      dup8\n        /* \"#utility.yul\":5002:5012   */\n      swap6\n      pop\n        /* \"#utility.yul\":4069:5018   */\n      pop\n      pop\n      pop\n      pop\n      pop\n        /* \"#utility.yul\":3891:5018   */\n      swap3\n      swap2\n      pop\n      pop\n      jump\t// out\n        /* \"#utility.yul\":5024:5132   */\n    tag_191:\n        /* \"#utility.yul\":5101:5125   */\n      tag_193\n        /* \"#utility.yul\":5119:5124   */\n      dup2\n        /* \"#utility.yul\":5101:5125   */\n      tag_194\n      jump\t// in\n    tag_193:\n        /* \"#utility.yul\":5096:5099   */\n      dup3\n        /* \"#utility.yul\":5089:5126   */\n      mstore\n        /* \"#utility.yul\":5024:5132   */\n      pop\n      pop\n      jump\t// out\n        /* \"#utility.yul\":5138:5256   */\n    tag_195:\n        /* \"#utility.yul\":5225:5249   */\n      tag_197\n        /* \"#utility.yul\":5243:5248   */\n      dup2\n        /* \"#utility.yul\":5225:5249   */\n      tag_194\n      jump\t// in\n    tag_197:\n        /* \"#utility.yul\":5220:5223   */\n      dup3\n        /* \"#utility.yul\":5213:5250   */\n      mstore\n        /* \"#utility.yul\":5138:5256   */\n      pop\n      pop\n      jump\t// out\n        /* \"#utility.yul\":5262:5419   */\n    tag_198:\n        /* \"#utility.yul\":5367:5412   */\n      tag_200\n        /* \"#utility.yul\":5387:5411   */\n      tag_201\n        /* \"#utility.yul\":5405:5410   */\n      dup3\n        /* \"#utility.yul\":5387:5411   */\n      tag_194\n      jump\t// in\n    tag_201:\n        /* \"#utility.yul\":5367:5412   */\n      tag_202\n      jump\t// in\n    tag_200:\n        /* \"#utility.yul\":5362:5365   */\n      dup3\n        /* \"#utility.yul\":5355:5413   */\n      mstore\n        /* \"#utility.yul\":5262:5419   */\n      pop\n      pop\n      jump\t// out\n        /* \"#utility.yul\":5425:5798   */\n    tag_203:\n        /* \"#utility.yul\":5529:5532   */\n      0x00\n        /* \"#utility.yul\":5557:5595   */\n      tag_205\n        /* \"#utility.yul\":5589:5594   */\n      dup3\n        /* \"#utility.yul\":5557:5595   */\n      tag_206\n      jump\t// in\n    tag_205:\n        /* \"#utility.yul\":5611:5699   */\n      tag_207\n        /* \"#utility.yul\":5692:5698   */\n      dup2\n        /* \"#utility.yul\":5687:5690   */\n      dup6\n        /* \"#utility.yul\":5611:5699   */\n      tag_208\n      jump\t// in\n    tag_207:\n        /* \"#utility.yul\":5604:5699   */\n      swap4\n      pop\n        /* \"#utility.yul\":5708:5760   */\n      tag_209\n        /* \"#utility.yul\":5753:5759   */\n      dup2\n        /* \"#utility.yul\":5748:5751   */\n      dup6\n        /* \"#utility.yul\":5741:5745   */\n      0x20\n        /* \"#utility.yul\":5734:5739   */\n      dup7\n        /* \"#utility.yul\":5730:5746   */\n      add\n        /* \"#utility.yul\":5708:5760   */\n      tag_210\n      jump\t// in\n    tag_209:\n        /* \"#utility.yul\":5785:5791   */\n      dup1\n        /* \"#utility.yul\":5780:5783   */\n      dup5\n        /* \"#utility.yul\":5776:5792   */\n      add\n        /* \"#utility.yul\":5769:5792   */\n      swap2\n      pop\n        /* \"#utility.yul\":5533:5798   */\n      pop\n        /* \"#utility.yul\":5425:5798   */\n      swap3\n      swap2\n      pop\n      pop\n      jump\t// out\n        /* \"#utility.yul\":5828:6145   */\n    tag_211:\n        /* \"#utility.yul\":5944:5947   */\n      0x00\n        /* \"#utility.yul\":5965:6054   */\n      tag_213\n        /* \"#utility.yul\":6047:6053   */\n      dup4\n        /* \"#utility.yul\":6042:6045   */\n      dup6\n        /* \"#utility.yul\":5965:6054   */\n      tag_214\n      jump\t// in\n    tag_213:\n        /* \"#utility.yul\":5958:6054   */\n      swap4\n      pop\n        /* \"#utility.yul\":6064:6107   */\n      tag_215\n        /* \"#utility.yul\":6100:6106   */\n      dup4\n        /* \"#utility.yul\":6095:6098   */\n      dup6\n        /* \"#utility.yul\":6088:6093   */\n      dup5\n        /* \"#utility.yul\":6064:6107   */\n      tag_216\n      jump\t// in\n    tag_215:\n        /* \"#utility.yul\":6132:6138   */\n      dup3\n        /* \"#utility.yul\":6127:6130   */\n      dup5\n        /* \"#utility.yul\":6123:6139   */\n      add\n        /* \"#utility.yul\":6116:6139   */\n      swap1\n      pop\n        /* \"#utility.yul\":5828:6145   */\n      swap4\n      swap3\n      pop\n      pop\n      pop\n      jump\t// out\n        /* \"#utility.yul\":6151:6495   */\n    tag_217:\n        /* \"#utility.yul\":6229:6232   */\n      0x00\n        /* \"#utility.yul\":6257:6296   */\n      tag_219\n        /* \"#utility.yul\":6290:6295   */\n      dup3\n        /* \"#utility.yul\":6257:6296   */\n      tag_220\n      jump\t// in\n    tag_219:\n        /* \"#utility.yul\":6312:6373   */\n      tag_221\n        /* \"#utility.yul\":6366:6372   */\n      dup2\n        /* \"#utility.yul\":6361:6364   */\n      dup6\n        /* \"#utility.yul\":6312:6373   */\n      tag_222\n      jump\t// in\n    tag_221:\n        /* \"#utility.yul\":6305:6373   */\n      swap4\n      pop\n        /* \"#utility.yul\":6382:6434   */\n      tag_223\n        /* \"#utility.yul\":6427:6433   */\n      dup2\n        /* \"#utility.yul\":6422:6425   */\n      dup6\n        /* \"#utility.yul\":6415:6419   */\n      0x20\n        /* \"#utility.yul\":6408:6413   */\n      dup7\n        /* \"#utility.yul\":6404:6420   */\n      add\n        /* \"#utility.yul\":6382:6434   */\n      tag_210\n      jump\t// in\n    tag_223:\n        /* \"#utility.yul\":6459:6488   */\n      tag_224\n        /* \"#utility.yul\":6481:6487   */\n      dup2\n        /* \"#utility.yul\":6459:6488   */\n      tag_225\n      jump\t// in\n    tag_224:\n        /* \"#utility.yul\":6454:6457   */\n      dup5\n        /* \"#utility.yul\":6450:6489   */\n      add\n        /* \"#utility.yul\":6443:6489   */\n      swap2\n      pop\n        /* \"#utility.yul\":6233:6495   */\n      pop\n        /* \"#utility.yul\":6151:6495   */\n      swap3\n      swap2\n      pop\n      pop\n      jump\t// out\n        /* \"#utility.yul\":6501:6865   */\n    tag_226:\n        /* \"#utility.yul\":6589:6592   */\n      0x00\n        /* \"#utility.yul\":6617:6656   */\n      tag_228\n        /* \"#utility.yul\":6650:6655   */\n      dup3\n        /* \"#utility.yul\":6617:6656   */\n      tag_220\n      jump\t// in\n    tag_228:\n        /* \"#utility.yul\":6672:6743   */\n      tag_229\n        /* \"#utility.yul\":6736:6742   */\n      dup2\n        /* \"#utility.yul\":6731:6734   */\n      dup6\n        /* \"#utility.yul\":6672:6743   */\n      tag_230\n      jump\t// in\n    tag_229:\n        /* \"#utility.yul\":6665:6743   */\n      swap4\n      pop\n        /* \"#utility.yul\":6752:6804   */\n      tag_231\n        /* \"#utility.yul\":6797:6803   */\n      dup2\n        /* \"#utility.yul\":6792:6795   */\n      dup6\n        /* \"#utility.yul\":6785:6789   */\n      0x20\n        /* \"#utility.yul\":6778:6783   */\n      dup7\n        /* \"#utility.yul\":6774:6790   */\n      add\n        /* \"#utility.yul\":6752:6804   */\n      tag_210\n      jump\t// in\n    tag_231:\n        /* \"#utility.yul\":6829:6858   */\n      tag_232\n        /* \"#utility.yul\":6851:6857   */\n      dup2\n        /* \"#utility.yul\":6829:6858   */\n      tag_225\n      jump\t// in\n    tag_232:\n        /* \"#utility.yul\":6824:6827   */\n      dup5\n        /* \"#utility.yul\":6820:6859   */\n      add\n        /* \"#utility.yul\":6813:6859   */\n      swap2\n      pop\n        /* \"#utility.yul\":6593:6865   */\n      pop\n        /* \"#utility.yul\":6501:6865   */\n      swap3\n      swap2\n      pop\n      pop\n      jump\t// out\n        /* \"#utility.yul\":6951:8470   */\n    tag_164:\n        /* \"#utility.yul\":7064:7067   */\n      0x00\n        /* \"#utility.yul\":7100:7104   */\n      0xe0\n        /* \"#utility.yul\":7095:7098   */\n      dup4\n        /* \"#utility.yul\":7091:7105   */\n      add\n        /* \"#utility.yul\":7193:7197   */\n      0x00\n        /* \"#utility.yul\":7186:7191   */\n      dup4\n        /* \"#utility.yul\":7182:7198   */\n      add\n        /* \"#utility.yul\":7176:7199   */\n      mload\n        /* \"#utility.yul\":7212:7275   */\n      tag_234\n        /* \"#utility.yul\":7269:7273   */\n      0x00\n        /* \"#utility.yul\":7264:7267   */\n      dup7\n        /* \"#utility.yul\":7260:7274   */\n      add\n        /* \"#utility.yul\":7246:7258   */\n      dup3\n        /* \"#utility.yul\":7212:7275   */\n      tag_191\n      jump\t// in\n    tag_234:\n        /* \"#utility.yul\":7115:7285   */\n      pop\n        /* \"#utility.yul\":7372:7376   */\n      0x20\n        /* \"#utility.yul\":7365:7370   */\n      dup4\n        /* \"#utility.yul\":7361:7377   */\n      add\n        /* \"#utility.yul\":7355:7378   */\n      mload\n        /* \"#utility.yul\":7391:7454   */\n      tag_235\n        /* \"#utility.yul\":7448:7452   */\n      0x20\n        /* \"#utility.yul\":7443:7446   */\n      dup7\n        /* \"#utility.yul\":7439:7453   */\n      add\n        /* \"#utility.yul\":7425:7437   */\n      dup3\n        /* \"#utility.yul\":7391:7454   */\n      tag_165\n      jump\t// in\n    tag_235:\n        /* \"#utility.yul\":7295:7464   */\n      pop\n        /* \"#utility.yul\":7554:7558   */\n      0x40\n        /* \"#utility.yul\":7547:7552   */\n      dup4\n        /* \"#utility.yul\":7543:7559   */\n      add\n        /* \"#utility.yul\":7537:7560   */\n      mload\n        /* \"#utility.yul\":7573:7636   */\n      tag_236\n        /* \"#utility.yul\":7630:7634   */\n      0x40\n        /* \"#utility.yul\":7625:7628   */\n      dup7\n        /* \"#utility.yul\":7621:7635   */\n      add\n        /* \"#utility.yul\":7607:7619   */\n      dup3\n        /* \"#utility.yul\":7573:7636   */\n      tag_165\n      jump\t// in\n    tag_236:\n        /* \"#utility.yul\":7474:7646   */\n      pop\n        /* \"#utility.yul\":7739:7743   */\n      0x60\n        /* \"#utility.yul\":7732:7737   */\n      dup4\n        /* \"#utility.yul\":7728:7744   */\n      add\n        /* \"#utility.yul\":7722:7745   */\n      mload\n        /* \"#utility.yul\":7758:7821   */\n      tag_237\n        /* \"#utility.yul\":7815:7819   */\n      0x60\n        /* \"#utility.yul\":7810:7813   */\n      dup7\n        /* \"#utility.yul\":7806:7820   */\n      add\n        /* \"#utility.yul\":7792:7804   */\n      dup3\n        /* \"#utility.yul\":7758:7821   */\n      tag_238\n      jump\t// in\n    tag_237:\n        /* \"#utility.yul\":7656:7831   */\n      pop\n        /* \"#utility.yul\":7922:7926   */\n      0x80\n        /* \"#utility.yul\":7915:7920   */\n      dup4\n        /* \"#utility.yul\":7911:7927   */\n      add\n        /* \"#utility.yul\":7905:7928   */\n      mload\n        /* \"#utility.yul\":7941:8004   */\n      tag_239\n        /* \"#utility.yul\":7998:8002   */\n      0x80\n        /* \"#utility.yul\":7993:7996   */\n      dup7\n        /* \"#utility.yul\":7989:8003   */\n      add\n        /* \"#utility.yul\":7975:7987   */\n      dup3\n        /* \"#utility.yul\":7941:8004   */\n      tag_238\n      jump\t// in\n    tag_239:\n        /* \"#utility.yul\":7841:8014   */\n      pop\n        /* \"#utility.yul\":8099:8103   */\n      0xa0\n        /* \"#utility.yul\":8092:8097   */\n      dup4\n        /* \"#utility.yul\":8088:8104   */\n      add\n        /* \"#utility.yul\":8082:8105   */\n      mload\n        /* \"#utility.yul\":8152:8155   */\n      dup5\n        /* \"#utility.yul\":8146:8150   */\n      dup3\n        /* \"#utility.yul\":8142:8156   */\n      sub\n        /* \"#utility.yul\":8135:8139   */\n      0xa0\n        /* \"#utility.yul\":8130:8133   */\n      dup7\n        /* \"#utility.yul\":8126:8140   */\n      add\n        /* \"#utility.yul\":8119:8157   */\n      mstore\n        /* \"#utility.yul\":8178:8251   */\n      tag_240\n        /* \"#utility.yul\":8246:8250   */\n      dup3\n        /* \"#utility.yul\":8232:8244   */\n      dup3\n        /* \"#utility.yul\":8178:8251   */\n      tag_217\n      jump\t// in\n    tag_240:\n        /* \"#utility.yul\":8170:8251   */\n      swap2\n      pop\n        /* \"#utility.yul\":8024:8262   */\n      pop\n        /* \"#utility.yul\":8351:8355   */\n      0xc0\n        /* \"#utility.yul\":8344:8349   */\n      dup4\n        /* \"#utility.yul\":8340:8356   */\n      add\n        /* \"#utility.yul\":8334:8357   */\n      mload\n        /* \"#utility.yul\":8370:8433   */\n      tag_241\n        /* \"#utility.yul\":8427:8431   */\n      0xc0\n        /* \"#utility.yul\":8422:8425   */\n      dup7\n        /* \"#utility.yul\":8418:8432   */\n      add\n        /* \"#utility.yul\":8404:8416   */\n      dup3\n        /* \"#utility.yul\":8370:8433   */\n      tag_191\n      jump\t// in\n    tag_241:\n        /* \"#utility.yul\":8272:8443   */\n      pop\n        /* \"#utility.yul\":8460:8464   */\n      dup1\n        /* \"#utility.yul\":8453:8464   */\n      swap2\n      pop\n        /* \"#utility.yul\":7069:8470   */\n      pop\n        /* \"#utility.yul\":6951:8470   */\n      swap3\n      swap2\n      pop\n      pop\n      jump\t// out\n        /* \"#utility.yul\":8556:10085   */\n    tag_242:\n        /* \"#utility.yul\":8679:8682   */\n      0x00\n        /* \"#utility.yul\":8715:8719   */\n      0xe0\n        /* \"#utility.yul\":8710:8713   */\n      dup4\n        /* \"#utility.yul\":8706:8720   */\n      add\n        /* \"#utility.yul\":8808:8812   */\n      0x00\n        /* \"#utility.yul\":8801:8806   */\n      dup4\n        /* \"#utility.yul\":8797:8813   */\n      add\n        /* \"#utility.yul\":8791:8814   */\n      mload\n        /* \"#utility.yul\":8827:8890   */\n      tag_244\n        /* \"#utility.yul\":8884:8888   */\n      0x00\n        /* \"#utility.yul\":8879:8882   */\n      dup7\n        /* \"#utility.yul\":8875:8889   */\n      add\n        /* \"#utility.yul\":8861:8873   */\n      dup3\n        /* \"#utility.yul\":8827:8890   */\n      tag_191\n      jump\t// in\n    tag_244:\n        /* \"#utility.yul\":8730:8900   */\n      pop\n        /* \"#utility.yul\":8987:8991   */\n      0x20\n        /* \"#utility.yul\":8980:8985   */\n      dup4\n        /* \"#utility.yul\":8976:8992   */\n      add\n        /* \"#utility.yul\":8970:8993   */\n      mload\n        /* \"#utility.yul\":9006:9069   */\n      tag_245\n        /* \"#utility.yul\":9063:9067   */\n      0x20\n        /* \"#utility.yul\":9058:9061   */\n      dup7\n        /* \"#utility.yul\":9054:9068   */\n      add\n        /* \"#utility.yul\":9040:9052   */\n      dup3\n        /* \"#utility.yul\":9006:9069   */\n      tag_165\n      jump\t// in\n    tag_245:\n        /* \"#utility.yul\":8910:9079   */\n      pop\n        /* \"#utility.yul\":9169:9173   */\n      0x40\n        /* \"#utility.yul\":9162:9167   */\n      dup4\n        /* \"#utility.yul\":9158:9174   */\n      add\n        /* \"#utility.yul\":9152:9175   */\n      mload\n        /* \"#utility.yul\":9188:9251   */\n      tag_246\n        /* \"#utility.yul\":9245:9249   */\n      0x40\n        /* \"#utility.yul\":9240:9243   */\n      dup7\n        /* \"#utility.yul\":9236:9250   */\n      add\n        /* \"#utility.yul\":9222:9234   */\n      dup3\n        /* \"#utility.yul\":9188:9251   */\n      tag_165\n      jump\t// in\n    tag_246:\n        /* \"#utility.yul\":9089:9261   */\n      pop\n        /* \"#utility.yul\":9354:9358   */\n      0x60\n        /* \"#utility.yul\":9347:9352   */\n      dup4\n        /* \"#utility.yul\":9343:9359   */\n      add\n        /* \"#utility.yul\":9337:9360   */\n      mload\n        /* \"#utility.yul\":9373:9436   */\n      tag_247\n        /* \"#utility.yul\":9430:9434   */\n      0x60\n        /* \"#utility.yul\":9425:9428   */\n      dup7\n        /* \"#utility.yul\":9421:9435   */\n      add\n        /* \"#utility.yul\":9407:9419   */\n      dup3\n        /* \"#utility.yul\":9373:9436   */\n      tag_238\n      jump\t// in\n    tag_247:\n        /* \"#utility.yul\":9271:9446   */\n      pop\n        /* \"#utility.yul\":9537:9541   */\n      0x80\n        /* \"#utility.yul\":9530:9535   */\n      dup4\n        /* \"#utility.yul\":9526:9542   */\n      add\n        /* \"#utility.yul\":9520:9543   */\n      mload\n        /* \"#utility.yul\":9556:9619   */\n      tag_248\n        /* \"#utility.yul\":9613:9617   */\n      0x80\n        /* \"#utility.yul\":9608:9611   */\n      dup7\n        /* \"#utility.yul\":9604:9618   */\n      add\n        /* \"#utility.yul\":9590:9602   */\n      dup3\n        /* \"#utility.yul\":9556:9619   */\n      tag_238\n      jump\t// in\n    tag_248:\n        /* \"#utility.yul\":9456:9629   */\n      pop\n        /* \"#utility.yul\":9714:9718   */\n      0xa0\n        /* \"#utility.yul\":9707:9712   */\n      dup4\n        /* \"#utility.yul\":9703:9719   */\n      add\n        /* \"#utility.yul\":9697:9720   */\n      mload\n        /* \"#utility.yul\":9767:9770   */\n      dup5\n        /* \"#utility.yul\":9761:9765   */\n      dup3\n        /* \"#utility.yul\":9757:9771   */\n      sub\n        /* \"#utility.yul\":9750:9754   */\n      0xa0\n        /* \"#utility.yul\":9745:9748   */\n      dup7\n        /* \"#utility.yul\":9741:9755   */\n      add\n        /* \"#utility.yul\":9734:9772   */\n      mstore\n        /* \"#utility.yul\":9793:9866   */\n      tag_249\n        /* \"#utility.yul\":9861:9865   */\n      dup3\n        /* \"#utility.yul\":9847:9859   */\n      dup3\n        /* \"#utility.yul\":9793:9866   */\n      tag_217\n      jump\t// in\n    tag_249:\n        /* \"#utility.yul\":9785:9866   */\n      swap2\n      pop\n        /* \"#utility.yul\":9639:9877   */\n      pop\n        /* \"#utility.yul\":9966:9970   */\n      0xc0\n        /* \"#utility.yul\":9959:9964   */\n      dup4\n        /* \"#utility.yul\":9955:9971   */\n      add\n        /* \"#utility.yul\":9949:9972   */\n      mload\n        /* \"#utility.yul\":9985:10048   */\n      tag_250\n        /* \"#utility.yul\":10042:10046   */\n      0xc0\n        /* \"#utility.yul\":10037:10040   */\n      dup7\n        /* \"#utility.yul\":10033:10047   */\n      add\n        /* \"#utility.yul\":10019:10031   */\n      dup3\n        /* \"#utility.yul\":9985:10048   */\n      tag_191\n      jump\t// in\n    tag_250:\n        /* \"#utility.yul\":9887:10058   */\n      pop\n        /* \"#utility.yul\":10075:10079   */\n      dup1\n        /* \"#utility.yul\":10068:10079   */\n      swap2\n      pop\n        /* \"#utility.yul\":8684:10085   */\n      pop\n        /* \"#utility.yul\":8556:10085   */\n      swap3\n      swap2\n      pop\n      pop\n      jump\t// out\n        /* \"#utility.yul\":10091:10199   */\n    tag_238:\n        /* \"#utility.yul\":10168:10192   */\n      tag_252\n        /* \"#utility.yul\":10186:10191   */\n      dup2\n        /* \"#utility.yul\":10168:10192   */\n      tag_253\n      jump\t// in\n    tag_252:\n        /* \"#utility.yul\":10163:10166   */\n      dup3\n        /* \"#utility.yul\":10156:10193   */\n      mstore\n        /* \"#utility.yul\":10091:10199   */\n      pop\n      pop\n      jump\t// out\n        /* \"#utility.yul\":10205:10323   */\n    tag_254:\n        /* \"#utility.yul\":10292:10316   */\n      tag_256\n        /* \"#utility.yul\":10310:10315   */\n      dup2\n        /* \"#utility.yul\":10292:10316   */\n      tag_253\n      jump\t// in\n    tag_256:\n        /* \"#utility.yul\":10287:10290   */\n      dup3\n        /* \"#utility.yul\":10280:10317   */\n      mstore\n        /* \"#utility.yul\":10205:10323   */\n      pop\n      pop\n      jump\t// out\n        /* \"#utility.yul\":10329:10486   */\n    tag_257:\n        /* \"#utility.yul\":10434:10479   */\n      tag_259\n        /* \"#utility.yul\":10454:10478   */\n      tag_260\n        /* \"#utility.yul\":10472:10477   */\n      dup3\n        /* \"#utility.yul\":10454:10478   */\n      tag_253\n      jump\t// in\n    tag_260:\n        /* \"#utility.yul\":10434:10479   */\n      tag_261\n      jump\t// in\n    tag_259:\n        /* \"#utility.yul\":10429:10432   */\n      dup3\n        /* \"#utility.yul\":10422:10480   */\n      mstore\n        /* \"#utility.yul\":10329:10486   */\n      pop\n      pop\n      jump\t// out\n        /* \"#utility.yul\":10492:11351   */\n    tag_55:\n        /* \"#utility.yul\":10746:10749   */\n      0x00\n        /* \"#utility.yul\":10761:10836   */\n      tag_263\n        /* \"#utility.yul\":10832:10835   */\n      dup3\n        /* \"#utility.yul\":10823:10829   */\n      dup10\n        /* \"#utility.yul\":10761:10836   */\n      tag_172\n      jump\t// in\n    tag_263:\n        /* \"#utility.yul\":10861:10863   */\n      0x14\n        /* \"#utility.yul\":10856:10859   */\n      dup3\n        /* \"#utility.yul\":10852:10864   */\n      add\n        /* \"#utility.yul\":10845:10864   */\n      swap2\n      pop\n        /* \"#utility.yul\":10874:10949   */\n      tag_264\n        /* \"#utility.yul\":10945:10948   */\n      dup3\n        /* \"#utility.yul\":10936:10942   */\n      dup9\n        /* \"#utility.yul\":10874:10949   */\n      tag_172\n      jump\t// in\n    tag_264:\n        /* \"#utility.yul\":10974:10976   */\n      0x14\n        /* \"#utility.yul\":10969:10972   */\n      dup3\n        /* \"#utility.yul\":10965:10977   */\n      add\n        /* \"#utility.yul\":10958:10977   */\n      swap2\n      pop\n        /* \"#utility.yul\":10987:11062   */\n      tag_265\n        /* \"#utility.yul\":11058:11061   */\n      dup3\n        /* \"#utility.yul\":11049:11055   */\n      dup8\n        /* \"#utility.yul\":10987:11062   */\n      tag_257\n      jump\t// in\n    tag_265:\n        /* \"#utility.yul\":11087:11089   */\n      0x20\n        /* \"#utility.yul\":11082:11085   */\n      dup3\n        /* \"#utility.yul\":11078:11090   */\n      add\n        /* \"#utility.yul\":11071:11090   */\n      swap2\n      pop\n        /* \"#utility.yul\":11100:11175   */\n      tag_266\n        /* \"#utility.yul\":11171:11174   */\n      dup3\n        /* \"#utility.yul\":11162:11168   */\n      dup7\n        /* \"#utility.yul\":11100:11175   */\n      tag_257\n      jump\t// in\n    tag_266:\n        /* \"#utility.yul\":11200:11202   */\n      0x20\n        /* \"#utility.yul\":11195:11198   */\n      dup3\n        /* \"#utility.yul\":11191:11203   */\n      add\n        /* \"#utility.yul\":11184:11203   */\n      swap2\n      pop\n        /* \"#utility.yul\":11220:11325   */\n      tag_267\n        /* \"#utility.yul\":11321:11324   */\n      dup3\n        /* \"#utility.yul\":11312:11318   */\n      dup5\n        /* \"#utility.yul\":11304:11310   */\n      dup7\n        /* \"#utility.yul\":11220:11325   */\n      tag_211\n      jump\t// in\n    tag_267:\n        /* \"#utility.yul\":11213:11325   */\n      swap2\n      pop\n        /* \"#utility.yul\":11342:11345   */\n      dup2\n        /* \"#utility.yul\":11335:11345   */\n      swap1\n      pop\n        /* \"#utility.yul\":10492:11351   */\n      swap8\n      swap7\n      pop\n      pop\n      pop\n      pop\n      pop\n      pop\n      pop\n      jump\t// out\n        /* \"#utility.yul\":11357:12357   */\n    tag_61:\n        /* \"#utility.yul\":11639:11642   */\n      0x00\n        /* \"#utility.yul\":11654:11729   */\n      tag_269\n        /* \"#utility.yul\":11725:11728   */\n      dup3\n        /* \"#utility.yul\":11716:11722   */\n      dup11\n        /* \"#utility.yul\":11654:11729   */\n      tag_198\n      jump\t// in\n    tag_269:\n        /* \"#utility.yul\":11754:11756   */\n      0x14\n        /* \"#utility.yul\":11749:11752   */\n      dup3\n        /* \"#utility.yul\":11745:11757   */\n      add\n        /* \"#utility.yul\":11738:11757   */\n      swap2\n      pop\n        /* \"#utility.yul\":11767:11842   */\n      tag_270\n        /* \"#utility.yul\":11838:11841   */\n      dup3\n        /* \"#utility.yul\":11829:11835   */\n      dup10\n        /* \"#utility.yul\":11767:11842   */\n      tag_172\n      jump\t// in\n    tag_270:\n        /* \"#utility.yul\":11867:11869   */\n      0x14\n        /* \"#utility.yul\":11862:11865   */\n      dup3\n        /* \"#utility.yul\":11858:11870   */\n      add\n        /* \"#utility.yul\":11851:11870   */\n      swap2\n      pop\n        /* \"#utility.yul\":11880:11955   */\n      tag_271\n        /* \"#utility.yul\":11951:11954   */\n      dup3\n        /* \"#utility.yul\":11942:11948   */\n      dup9\n        /* \"#utility.yul\":11880:11955   */\n      tag_172\n      jump\t// in\n    tag_271:\n        /* \"#utility.yul\":11980:11982   */\n      0x14\n        /* \"#utility.yul\":11975:11978   */\n      dup3\n        /* \"#utility.yul\":11971:11983   */\n      add\n        /* \"#utility.yul\":11964:11983   */\n      swap2\n      pop\n        /* \"#utility.yul\":11993:12068   */\n      tag_272\n        /* \"#utility.yul\":12064:12067   */\n      dup3\n        /* \"#utility.yul\":12055:12061   */\n      dup8\n        /* \"#utility.yul\":11993:12068   */\n      tag_257\n      jump\t// in\n    tag_272:\n        /* \"#utility.yul\":12093:12095   */\n      0x20\n        /* \"#utility.yul\":12088:12091   */\n      dup3\n        /* \"#utility.yul\":12084:12096   */\n      add\n        /* \"#utility.yul\":12077:12096   */\n      swap2\n      pop\n        /* \"#utility.yul\":12106:12181   */\n      tag_273\n        /* \"#utility.yul\":12177:12180   */\n      dup3\n        /* \"#utility.yul\":12168:12174   */\n      dup7\n        /* \"#utility.yul\":12106:12181   */\n      tag_257\n      jump\t// in\n    tag_273:\n        /* \"#utility.yul\":12206:12208   */\n      0x20\n        /* \"#utility.yul\":12201:12204   */\n      dup3\n        /* \"#utility.yul\":12197:12209   */\n      add\n        /* \"#utility.yul\":12190:12209   */\n      swap2\n      pop\n        /* \"#utility.yul\":12226:12331   */\n      tag_274\n        /* \"#utility.yul\":12327:12330   */\n      dup3\n        /* \"#utility.yul\":12318:12324   */\n      dup5\n        /* \"#utility.yul\":12310:12316   */\n      dup7\n        /* \"#utility.yul\":12226:12331   */\n      tag_211\n      jump\t// in\n    tag_274:\n        /* \"#utility.yul\":12219:12331   */\n      swap2\n      pop\n        /* \"#utility.yul\":12348:12351   */\n      dup2\n        /* \"#utility.yul\":12341:12351   */\n      swap1\n      pop\n        /* \"#utility.yul\":11357:12357   */\n      swap9\n      swap8\n      pop\n      pop\n      pop\n      pop\n      pop\n      pop\n      pop\n      pop\n      jump\t// out\n        /* \"#utility.yul\":12363:12634   */\n    tag_57:\n        /* \"#utility.yul\":12493:12496   */\n      0x00\n        /* \"#utility.yul\":12515:12608   */\n      tag_276\n        /* \"#utility.yul\":12604:12607   */\n      dup3\n        /* \"#utility.yul\":12595:12601   */\n      dup5\n        /* \"#utility.yul\":12515:12608   */\n      tag_203\n      jump\t// in\n    tag_276:\n        /* \"#utility.yul\":12508:12608   */\n      swap2\n      pop\n        /* \"#utility.yul\":12625:12628   */\n      dup2\n        /* \"#utility.yul\":12618:12628   */\n      swap1\n      pop\n        /* \"#utility.yul\":12363:12634   */\n      swap3\n      swap2\n      pop\n      pop\n      jump\t// out\n        /* \"#utility.yul\":12640:13121   */\n    tag_29:\n        /* \"#utility.yul\":12837:12841   */\n      0x00\n        /* \"#utility.yul\":12875:12877   */\n      0x20\n        /* \"#utility.yul\":12864:12873   */\n      dup3\n        /* \"#utility.yul\":12860:12878   */\n      add\n        /* \"#utility.yul\":12852:12878   */\n      swap1\n      pop\n        /* \"#utility.yul\":12924:12933   */\n      dup2\n        /* \"#utility.yul\":12918:12922   */\n      dup2\n        /* \"#utility.yul\":12914:12934   */\n      sub\n        /* \"#utility.yul\":12910:12911   */\n      0x00\n        /* \"#utility.yul\":12899:12908   */\n      dup4\n        /* \"#utility.yul\":12895:12912   */\n      add\n        /* \"#utility.yul\":12888:12935   */\n      mstore\n        /* \"#utility.yul\":12952:13114   */\n      tag_278\n        /* \"#utility.yul\":13109:13113   */\n      dup2\n        /* \"#utility.yul\":13100:13106   */\n      dup5\n        /* \"#utility.yul\":12952:13114   */\n      tag_177\n      jump\t// in\n    tag_278:\n        /* \"#utility.yul\":12944:13114   */\n      swap1\n      pop\n        /* \"#utility.yul\":12640:13121   */\n      swap3\n      swap2\n      pop\n      pop\n      jump\t// out\n        /* \"#utility.yul\":13127:14104   */\n    tag_14:\n        /* \"#utility.yul\":13408:13412   */\n      0x00\n        /* \"#utility.yul\":13446:13449   */\n      0xe0\n        /* \"#utility.yul\":13435:13444   */\n      dup3\n        /* \"#utility.yul\":13431:13450   */\n      add\n        /* \"#utility.yul\":13423:13450   */\n      swap1\n      pop\n        /* \"#utility.yul\":13460:13531   */\n      tag_280\n        /* \"#utility.yul\":13528:13529   */\n      0x00\n        /* \"#utility.yul\":13517:13526   */\n      dup4\n        /* \"#utility.yul\":13513:13530   */\n      add\n        /* \"#utility.yul\":13504:13510   */\n      dup11\n        /* \"#utility.yul\":13460:13531   */\n      tag_195\n      jump\t// in\n    tag_280:\n        /* \"#utility.yul\":13541:13613   */\n      tag_281\n        /* \"#utility.yul\":13609:13611   */\n      0x20\n        /* \"#utility.yul\":13598:13607   */\n      dup4\n        /* \"#utility.yul\":13594:13612   */\n      add\n        /* \"#utility.yul\":13585:13591   */\n      dup10\n        /* \"#utility.yul\":13541:13613   */\n      tag_169\n      jump\t// in\n    tag_281:\n        /* \"#utility.yul\":13623:13695   */\n      tag_282\n        /* \"#utility.yul\":13691:13693   */\n      0x40\n        /* \"#utility.yul\":13680:13689   */\n      dup4\n        /* \"#utility.yul\":13676:13694   */\n      add\n        /* \"#utility.yul\":13667:13673   */\n      dup9\n        /* \"#utility.yul\":13623:13695   */\n      tag_169\n      jump\t// in\n    tag_282:\n        /* \"#utility.yul\":13705:13777   */\n      tag_283\n        /* \"#utility.yul\":13773:13775   */\n      0x60\n        /* \"#utility.yul\":13762:13771   */\n      dup4\n        /* \"#utility.yul\":13758:13776   */\n      add\n        /* \"#utility.yul\":13749:13755   */\n      dup8\n        /* \"#utility.yul\":13705:13777   */\n      tag_254\n      jump\t// in\n    tag_283:\n        /* \"#utility.yul\":13787:13860   */\n      tag_284\n        /* \"#utility.yul\":13855:13858   */\n      0x80\n        /* \"#utility.yul\":13844:13853   */\n      dup4\n        /* \"#utility.yul\":13840:13859   */\n      add\n        /* \"#utility.yul\":13831:13837   */\n      dup7\n        /* \"#utility.yul\":13787:13860   */\n      tag_254\n      jump\t// in\n    tag_284:\n        /* \"#utility.yul\":13908:13917   */\n      dup2\n        /* \"#utility.yul\":13902:13906   */\n      dup2\n        /* \"#utility.yul\":13898:13918   */\n      sub\n        /* \"#utility.yul\":13892:13895   */\n      0xa0\n        /* \"#utility.yul\":13881:13890   */\n      dup4\n        /* \"#utility.yul\":13877:13896   */\n      add\n        /* \"#utility.yul\":13870:13919   */\n      mstore\n        /* \"#utility.yul\":13936:14014   */\n      tag_285\n        /* \"#utility.yul\":14009:14013   */\n      dup2\n        /* \"#utility.yul\":14000:14006   */\n      dup6\n        /* \"#utility.yul\":13936:14014   */\n      tag_226\n      jump\t// in\n    tag_285:\n        /* \"#utility.yul\":13928:14014   */\n      swap1\n      pop\n        /* \"#utility.yul\":14024:14097   */\n      tag_286\n        /* \"#utility.yul\":14092:14095   */\n      0xc0\n        /* \"#utility.yul\":14081:14090   */\n      dup4\n        /* \"#utility.yul\":14077:14096   */\n      add\n        /* \"#utility.yul\":14068:14074   */\n      dup5\n        /* \"#utility.yul\":14024:14097   */\n      tag_195\n      jump\t// in\n    tag_286:\n        /* \"#utility.yul\":13127:14104   */\n      swap9\n      swap8\n      pop\n      pop\n      pop\n      pop\n      pop\n      pop\n      pop\n      pop\n      jump\t// out\n        /* \"#utility.yul\":14110:14491   */\n    tag_36:\n        /* \"#utility.yul\":14257:14261   */\n      0x00\n        /* \"#utility.yul\":14295:14297   */\n      0x20\n        /* \"#utility.yul\":14284:14293   */\n      dup3\n        /* \"#utility.yul\":14280:14298   */\n      add\n        /* \"#utility.yul\":14272:14298   */\n      swap1\n      pop\n        /* \"#utility.yul\":14344:14353   */\n      dup2\n        /* \"#utility.yul\":14338:14342   */\n      dup2\n        /* \"#utility.yul\":14334:14354   */\n      sub\n        /* \"#utility.yul\":14330:14331   */\n      0x00\n        /* \"#utility.yul\":14319:14328   */\n      dup4\n        /* \"#utility.yul\":14315:14332   */\n      add\n        /* \"#utility.yul\":14308:14355   */\n      mstore\n        /* \"#utility.yul\":14372:14484   */\n      tag_288\n        /* \"#utility.yul\":14479:14483   */\n      dup2\n        /* \"#utility.yul\":14470:14476   */\n      dup5\n        /* \"#utility.yul\":14372:14484   */\n      tag_242\n      jump\t// in\n    tag_288:\n        /* \"#utility.yul\":14364:14484   */\n      swap1\n      pop\n        /* \"#utility.yul\":14110:14491   */\n      swap3\n      swap2\n      pop\n      pop\n      jump\t// out\n        /* \"#utility.yul\":14578:14737   */\n    tag_184:\n        /* \"#utility.yul\":14672:14676   */\n      0x00\n        /* \"#utility.yul\":14695:14698   */\n      dup2\n        /* \"#utility.yul\":14687:14698   */\n      swap1\n      pop\n        /* \"#utility.yul\":14725:14729   */\n      0x20\n        /* \"#utility.yul\":14720:14723   */\n      dup3\n        /* \"#utility.yul\":14716:14730   */\n      add\n        /* \"#utility.yul\":14708:14730   */\n      swap1\n      pop\n        /* \"#utility.yul\":14578:14737   */\n      swap2\n      swap1\n      pop\n      jump\t// out\n        /* \"#utility.yul\":14743:14884   */\n    tag_180:\n        /* \"#utility.yul\":14837:14843   */\n      0x00\n        /* \"#utility.yul\":14871:14876   */\n      dup2\n        /* \"#utility.yul\":14865:14877   */\n      mload\n        /* \"#utility.yul\":14855:14877   */\n      swap1\n      pop\n        /* \"#utility.yul\":14743:14884   */\n      swap2\n      swap1\n      pop\n      jump\t// out\n        /* \"#utility.yul\":14890:14988   */\n    tag_206:\n        /* \"#utility.yul\":14941:14947   */\n      0x00\n        /* \"#utility.yul\":14975:14980   */\n      dup2\n        /* \"#utility.yul\":14969:14981   */\n      mload\n        /* \"#utility.yul\":14959:14981   */\n      swap1\n      pop\n        /* \"#utility.yul\":14890:14988   */\n      swap2\n      swap1\n      pop\n      jump\t// out\n        /* \"#utility.yul\":14994:15093   */\n    tag_220:\n        /* \"#utility.yul\":15046:15052   */\n      0x00\n        /* \"#utility.yul\":15080:15085   */\n      dup2\n        /* \"#utility.yul\":15074:15086   */\n      mload\n        /* \"#utility.yul\":15064:15086   */\n      swap1\n      pop\n        /* \"#utility.yul\":14994:15093   */\n      swap2\n      swap1\n      pop\n      jump\t// out\n        /* \"#utility.yul\":15099:15239   */\n    tag_190:\n        /* \"#utility.yul\":15196:15200   */\n      0x00\n        /* \"#utility.yul\":15228:15232   */\n      0x20\n        /* \"#utility.yul\":15223:15226   */\n      dup3\n        /* \"#utility.yul\":15219:15233   */\n      add\n        /* \"#utility.yul\":15211:15233   */\n      swap1\n      pop\n        /* \"#utility.yul\":15099:15239   */\n      swap2\n      swap1\n      pop\n      jump\t// out\n        /* \"#utility.yul\":15245:15456   */\n    tag_182:\n        /* \"#utility.yul\":15371:15382   */\n      0x00\n        /* \"#utility.yul\":15405:15411   */\n      dup3\n        /* \"#utility.yul\":15400:15403   */\n      dup3\n        /* \"#utility.yul\":15393:15412   */\n      mstore\n        /* \"#utility.yul\":15445:15449   */\n      0x20\n        /* \"#utility.yul\":15440:15443   */\n      dup3\n        /* \"#utility.yul\":15436:15450   */\n      add\n        /* \"#utility.yul\":15421:15450   */\n      swap1\n      pop\n        /* \"#utility.yul\":15245:15456   */\n      swap3\n      swap2\n      pop\n      pop\n      jump\t// out\n        /* \"#utility.yul\":15462:15609   */\n    tag_208:\n        /* \"#utility.yul\":15563:15574   */\n      0x00\n        /* \"#utility.yul\":15600:15603   */\n      dup2\n        /* \"#utility.yul\":15585:15603   */\n      swap1\n      pop\n        /* \"#utility.yul\":15462:15609   */\n      swap3\n      swap2\n      pop\n      pop\n      jump\t// out\n        /* \"#utility.yul\":15615:15774   */\n    tag_222:\n        /* \"#utility.yul\":15689:15700   */\n      0x00\n        /* \"#utility.yul\":15723:15729   */\n      dup3\n        /* \"#utility.yul\":15718:15721   */\n      dup3\n        /* \"#utility.yul\":15711:15730   */\n      mstore\n        /* \"#utility.yul\":15763:15767   */\n      0x20\n        /* \"#utility.yul\":15758:15761   */\n      dup3\n        /* \"#utility.yul\":15754:15768   */\n      add\n        /* \"#utility.yul\":15739:15768   */\n      swap1\n      pop\n        /* \"#utility.yul\":15615:15774   */\n      swap3\n      swap2\n      pop\n      pop\n      jump\t// out\n        /* \"#utility.yul\":15780:15949   */\n    tag_230:\n        /* \"#utility.yul\":15864:15875   */\n      0x00\n        /* \"#utility.yul\":15898:15904   */\n      dup3\n        /* \"#utility.yul\":15893:15896   */\n      dup3\n        /* \"#utility.yul\":15886:15905   */\n      mstore\n        /* \"#utility.yul\":15938:15942   */\n      0x20\n        /* \"#utility.yul\":15933:15936   */\n      dup3\n        /* \"#utility.yul\":15929:15943   */\n      add\n        /* \"#utility.yul\":15914:15943   */\n      swap1\n      pop\n        /* \"#utility.yul\":15780:15949   */\n      swap3\n      swap2\n      pop\n      pop\n      jump\t// out\n        /* \"#utility.yul\":15955:16103   */\n    tag_214:\n        /* \"#utility.yul\":16057:16068   */\n      0x00\n        /* \"#utility.yul\":16094:16097   */\n      dup2\n        /* \"#utility.yul\":16079:16097   */\n      swap1\n      pop\n        /* \"#utility.yul\":15955:16103   */\n      swap3\n      swap2\n      pop\n      pop\n      jump\t// out\n        /* \"#utility.yul\":16109:16205   */\n    tag_168:\n        /* \"#utility.yul\":16146:16153   */\n      0x00\n        /* \"#utility.yul\":16175:16199   */\n      tag_302\n        /* \"#utility.yul\":16193:16198   */\n      dup3\n        /* \"#utility.yul\":16175:16199   */\n      tag_303\n      jump\t// in\n    tag_302:\n        /* \"#utility.yul\":16164:16199   */\n      swap1\n      pop\n        /* \"#utility.yul\":16109:16205   */\n      swap2\n      swap1\n      pop\n      jump\t// out\n        /* \"#utility.yul\":16211:16361   */\n    tag_194:\n        /* \"#utility.yul\":16248:16255   */\n      0x00\n        /* \"#utility.yul\":16288:16354   */\n      0xffffffffffffffffffffffffffffffffffffffff000000000000000000000000\n        /* \"#utility.yul\":16281:16286   */\n      dup3\n        /* \"#utility.yul\":16277:16355   */\n      and\n        /* \"#utility.yul\":16266:16355   */\n      swap1\n      pop\n        /* \"#utility.yul\":16211:16361   */\n      swap2\n      swap1\n      pop\n      jump\t// out\n        /* \"#utility.yul\":16367:16493   */\n    tag_303:\n        /* \"#utility.yul\":16404:16411   */\n      0x00\n        /* \"#utility.yul\":16444:16486   */\n      0xffffffffffffffffffffffffffffffffffffffff\n        /* \"#utility.yul\":16437:16442   */\n      dup3\n        /* \"#utility.yul\":16433:16487   */\n      and\n        /* \"#utility.yul\":16422:16487   */\n      swap1\n      pop\n        /* \"#utility.yul\":16367:16493   */\n      swap2\n      swap1\n      pop\n      jump\t// out\n        /* \"#utility.yul\":16499:16576   */\n    tag_253:\n        /* \"#utility.yul\":16536:16543   */\n      0x00\n        /* \"#utility.yul\":16565:16570   */\n      dup2\n        /* \"#utility.yul\":16554:16570   */\n      swap1\n      pop\n        /* \"#utility.yul\":16499:16576   */\n      swap2\n      swap1\n      pop\n      jump\t// out\n        /* \"#utility.yul\":16582:16736   */\n    tag_216:\n        /* \"#utility.yul\":16666:16672   */\n      dup3\n        /* \"#utility.yul\":16661:16664   */\n      dup2\n        /* \"#utility.yul\":16656:16659   */\n      dup4\n        /* \"#utility.yul\":16643:16673   */\n      calldatacopy\n        /* \"#utility.yul\":16728:16729   */\n      0x00\n        /* \"#utility.yul\":16719:16725   */\n      dup4\n        /* \"#utility.yul\":16714:16717   */\n      dup4\n        /* \"#utility.yul\":16710:16726   */\n      add\n        /* \"#utility.yul\":16703:16730   */\n      mstore\n        /* \"#utility.yul\":16582:16736   */\n      pop\n      pop\n      pop\n      jump\t// out\n        /* \"#utility.yul\":16742:17049   */\n    tag_210:\n        /* \"#utility.yul\":16810:16811   */\n      0x00\n        /* \"#utility.yul\":16820:16933   */\n    tag_309:\n        /* \"#utility.yul\":16834:16840   */\n      dup4\n        /* \"#utility.yul\":16831:16832   */\n      dup2\n        /* \"#utility.yul\":16828:16841   */\n      lt\n        /* \"#utility.yul\":16820:16933   */\n      iszero\n      tag_311\n      jumpi\n        /* \"#utility.yul\":16919:16920   */\n      dup1\n        /* \"#utility.yul\":16914:16917   */\n      dup3\n        /* \"#utility.yul\":16910:16921   */\n      add\n        /* \"#utility.yul\":16904:16922   */\n      mload\n        /* \"#utility.yul\":16900:16901   */\n      dup2\n        /* \"#utility.yul\":16895:16898   */\n      dup5\n        /* \"#utility.yul\":16891:16902   */\n      add\n        /* \"#utility.yul\":16884:16923   */\n      mstore\n        /* \"#utility.yul\":16856:16858   */\n      0x20\n        /* \"#utility.yul\":16853:16854   */\n      dup2\n        /* \"#utility.yul\":16849:16859   */\n      add\n        /* \"#utility.yul\":16844:16859   */\n      swap1\n      pop\n        /* \"#utility.yul\":16820:16933   */\n      jump(tag_309)\n    tag_311:\n        /* \"#utility.yul\":16951:16957   */\n      dup4\n        /* \"#utility.yul\":16948:16949   */\n      dup2\n        /* \"#utility.yul\":16945:16958   */\n      gt\n        /* \"#utility.yul\":16942:17043   */\n      iszero\n      tag_312\n      jumpi\n        /* \"#utility.yul\":17031:17032   */\n      0x00\n        /* \"#utility.yul\":17022:17028   */\n      dup5\n        /* \"#utility.yul\":17017:17020   */\n      dup5\n        /* \"#utility.yul\":17013:17029   */\n      add\n        /* \"#utility.yul\":17006:17033   */\n      mstore\n        /* \"#utility.yul\":16942:17043   */\n    tag_312:\n        /* \"#utility.yul\":16791:17049   */\n      pop\n        /* \"#utility.yul\":16742:17049   */\n      pop\n      pop\n      pop\n      jump\t// out\n        /* \"#utility.yul\":17055:17375   */\n    tag_43:\n        /* \"#utility.yul\":17099:17105   */\n      0x00\n        /* \"#utility.yul\":17136:17137   */\n      0x02\n        /* \"#utility.yul\":17130:17134   */\n      dup3\n        /* \"#utility.yul\":17126:17138   */\n      div\n        /* \"#utility.yul\":17116:17138   */\n      swap1\n      pop\n        /* \"#utility.yul\":17183:17184   */\n      0x01\n        /* \"#utility.yul\":17177:17181   */\n      dup3\n        /* \"#utility.yul\":17173:17185   */\n      and\n        /* \"#utility.yul\":17204:17222   */\n      dup1\n        /* \"#utility.yul\":17194:17275   */\n      tag_314\n      jumpi\n        /* \"#utility.yul\":17260:17264   */\n      0x7f\n        /* \"#utility.yul\":17252:17258   */\n      dup3\n        /* \"#utility.yul\":17248:17265   */\n      and\n        /* \"#utility.yul\":17238:17265   */\n      swap2\n      pop\n        /* \"#utility.yul\":17194:17275   */\n    tag_314:\n        /* \"#utility.yul\":17322:17324   */\n      0x20\n        /* \"#utility.yul\":17314:17320   */\n      dup3\n        /* \"#utility.yul\":17311:17325   */\n      lt\n        /* \"#utility.yul\":17291:17309   */\n      dup2\n        /* \"#utility.yul\":17288:17326   */\n      eq\n        /* \"#utility.yul\":17285:17369   */\n      iszero\n      tag_315\n      jumpi\n        /* \"#utility.yul\":17341:17359   */\n      tag_316\n      tag_317\n      jump\t// in\n    tag_316:\n        /* \"#utility.yul\":17285:17369   */\n    tag_315:\n        /* \"#utility.yul\":17106:17375   */\n      pop\n        /* \"#utility.yul\":17055:17375   */\n      swap2\n      swap1\n      pop\n      jump\t// out\n        /* \"#utility.yul\":17381:17481   */\n    tag_176:\n        /* \"#utility.yul\":17420:17427   */\n      0x00\n        /* \"#utility.yul\":17449:17475   */\n      tag_319\n        /* \"#utility.yul\":17469:17474   */\n      dup3\n        /* \"#utility.yul\":17449:17475   */\n      tag_320\n      jump\t// in\n    tag_319:\n        /* \"#utility.yul\":17438:17475   */\n      swap1\n      pop\n        /* \"#utility.yul\":17381:17481   */\n      swap2\n      swap1\n      pop\n      jump\t// out\n        /* \"#utility.yul\":17487:17566   */\n    tag_202:\n        /* \"#utility.yul\":17526:17533   */\n      0x00\n        /* \"#utility.yul\":17555:17560   */\n      dup2\n        /* \"#utility.yul\":17544:17560   */\n      swap1\n      pop\n        /* \"#utility.yul\":17487:17566   */\n      swap2\n      swap1\n      pop\n      jump\t// out\n        /* \"#utility.yul\":17572:17666   */\n    tag_320:\n        /* \"#utility.yul\":17611:17618   */\n      0x00\n        /* \"#utility.yul\":17640:17660   */\n      tag_323\n        /* \"#utility.yul\":17654:17659   */\n      dup3\n        /* \"#utility.yul\":17640:17660   */\n      tag_324\n      jump\t// in\n    tag_323:\n        /* \"#utility.yul\":17629:17660   */\n      swap1\n      pop\n        /* \"#utility.yul\":17572:17666   */\n      swap2\n      swap1\n      pop\n      jump\t// out\n        /* \"#utility.yul\":17672:17751   */\n    tag_261:\n        /* \"#utility.yul\":17711:17718   */\n      0x00\n        /* \"#utility.yul\":17740:17745   */\n      dup2\n        /* \"#utility.yul\":17729:17745   */\n      swap1\n      pop\n        /* \"#utility.yul\":17672:17751   */\n      swap2\n      swap1\n      pop\n      jump\t// out\n        /* \"#utility.yul\":17757:17937   */\n    tag_317:\n        /* \"#utility.yul\":17805:17882   */\n      0x4e487b7100000000000000000000000000000000000000000000000000000000\n        /* \"#utility.yul\":17802:17803   */\n      0x00\n        /* \"#utility.yul\":17795:17883   */\n      mstore\n        /* \"#utility.yul\":17902:17906   */\n      0x22\n        /* \"#utility.yul\":17899:17900   */\n      0x04\n        /* \"#utility.yul\":17892:17907   */\n      mstore\n        /* \"#utility.yul\":17926:17930   */\n      0x24\n        /* \"#utility.yul\":17923:17924   */\n      0x00\n        /* \"#utility.yul\":17916:17931   */\n      revert\n        /* \"#utility.yul\":17943:18060   */\n    tag_129:\n        /* \"#utility.yul\":18052:18053   */\n      0x00\n        /* \"#utility.yul\":18049:18050   */\n      dup1\n        /* \"#utility.yul\":18042:18054   */\n      revert\n        /* \"#utility.yul\":18066:18183   */\n    tag_126:\n        /* \"#utility.yul\":18175:18176   */\n      0x00\n        /* \"#utility.yul\":18172:18173   */\n      dup1\n        /* \"#utility.yul\":18165:18177   */\n      revert\n        /* \"#utility.yul\":18189:18306   */\n    tag_132:\n        /* \"#utility.yul\":18298:18299   */\n      0x00\n        /* \"#utility.yul\":18295:18296   */\n      dup1\n        /* \"#utility.yul\":18288:18300   */\n      revert\n        /* \"#utility.yul\":18312:18429   */\n    tag_150:\n        /* \"#utility.yul\":18421:18422   */\n      0x00\n        /* \"#utility.yul\":18418:18419   */\n      dup1\n        /* \"#utility.yul\":18411:18423   */\n      revert\n        /* \"#utility.yul\":18435:18552   */\n    tag_140:\n        /* \"#utility.yul\":18544:18545   */\n      0x00\n        /* \"#utility.yul\":18541:18542   */\n      dup1\n        /* \"#utility.yul\":18534:18546   */\n      revert\n        /* \"#utility.yul\":18558:18660   */\n    tag_225:\n        /* \"#utility.yul\":18599:18605   */\n      0x00\n        /* \"#utility.yul\":18650:18652   */\n      0x1f\n        /* \"#utility.yul\":18646:18653   */\n      not\n        /* \"#utility.yul\":18641:18643   */\n      0x1f\n        /* \"#utility.yul\":18634:18639   */\n      dup4\n        /* \"#utility.yul\":18630:18644   */\n      add\n        /* \"#utility.yul\":18626:18654   */\n      and\n        /* \"#utility.yul\":18616:18654   */\n      swap1\n      pop\n        /* \"#utility.yul\":18558:18660   */\n      swap2\n      swap1\n      pop\n      jump\t// out\n        /* \"#utility.yul\":18666:18760   */\n    tag_324:\n        /* \"#utility.yul\":18699:18707   */\n      0x00\n        /* \"#utility.yul\":18747:18752   */\n      dup2\n        /* \"#utility.yul\":18743:18745   */\n      0x60\n        /* \"#utility.yul\":18739:18753   */\n      shl\n        /* \"#utility.yul\":18718:18753   */\n      swap1\n      pop\n        /* \"#utility.yul\":18666:18760   */\n      swap2\n      swap1\n      pop\n      jump\t// out\n        /* \"#utility.yul\":18766:18888   */\n    tag_117:\n        /* \"#utility.yul\":18839:18863   */\n      tag_335\n        /* \"#utility.yul\":18857:18862   */\n      dup2\n        /* \"#utility.yul\":18839:18863   */\n      tag_168\n      jump\t// in\n    tag_335:\n        /* \"#utility.yul\":18832:18837   */\n      dup2\n        /* \"#utility.yul\":18829:18864   */\n      eq\n        /* \"#utility.yul\":18819:18882   */\n      tag_336\n      jumpi\n        /* \"#utility.yul\":18878:18879   */\n      0x00\n        /* \"#utility.yul\":18875:18876   */\n      dup1\n        /* \"#utility.yul\":18868:18880   */\n      revert\n        /* \"#utility.yul\":18819:18882   */\n    tag_336:\n        /* \"#utility.yul\":18766:18888   */\n      pop\n      jump\t// out\n        /* \"#utility.yul\":18894:19016   */\n    tag_121:\n        /* \"#utility.yul\":18967:18991   */\n      tag_338\n        /* \"#utility.yul\":18985:18990   */\n      dup2\n        /* \"#utility.yul\":18967:18991   */\n      tag_194\n      jump\t// in\n    tag_338:\n        /* \"#utility.yul\":18960:18965   */\n      dup2\n        /* \"#utility.yul\":18957:18992   */\n      eq\n        /* \"#utility.yul\":18947:19010   */\n      tag_339\n      jumpi\n        /* \"#utility.yul\":19006:19007   */\n      0x00\n        /* \"#utility.yul\":19003:19004   */\n      dup1\n        /* \"#utility.yul\":18996:19008   */\n      revert\n        /* \"#utility.yul\":18947:19010   */\n    tag_339:\n        /* \"#utility.yul\":18894:19016   */\n      pop\n      jump\t// out\n        /* \"#utility.yul\":19022:19144   */\n    tag_136:\n        /* \"#utility.yul\":19095:19119   */\n      tag_341\n        /* \"#utility.yul\":19113:19118   */\n      dup2\n        /* \"#utility.yul\":19095:19119   */\n      tag_253\n      jump\t// in\n    tag_341:\n        /* \"#utility.yul\":19088:19093   */\n      dup2\n        /* \"#utility.yul\":19085:19120   */\n      eq\n        /* \"#utility.yul\":19075:19138   */\n      tag_342\n      jumpi\n        /* \"#utility.yul\":19134:19135   */\n      0x00\n        /* \"#utility.yul\":19131:19132   */\n      dup1\n        /* \"#utility.yul\":19124:19136   */\n      revert\n        /* \"#utility.yul\":19075:19138   */\n    tag_342:\n        /* \"#utility.yul\":19022:19144   */\n      pop\n      jump\t// out\n\n    auxdata: 0xa2646970667358221220669f2d4e1f97c86f174817c0134ff7efa5ce698f729774572514457c161effa764736f6c63430008070033\n}\n",
				"bytecode": {
					"linkReferences": {},
					"object": "608060405234801561001057600080fd5b506118bc806100206000396000f3fe608060405234801561001057600080fd5b506004361061007d5760003560e01c806392206f3f1161005b57806392206f3f146100f8578063af34aea414610128578063b69c905314610132578063f7ed5ce8146101625761007d565b806318015191146100825780632b08a98a146100a6578063431f48c8146100dc575b600080fd5b61008a610198565b60405161009d97969594939291906115a8565b60405180910390f35b6100c060048036038101906100bb919061114f565b6102aa565b6040516100d397969594939291906115a8565b60405180910390f35b6100f660048036038101906100f19190611087565b6103ce565b005b610112600480360381019061010d919061105a565b6106b7565b60405161011f9190611586565b60405180910390f35b610130610911565b005b61014c6004803603810190610147919061114f565b610ac6565b604051610159919061161e565b60405180910390f35b61017c6004803603810190610177919061110f565b610ccd565b60405161018f97969594939291906115a8565b60405180910390f35b60008060000160009054906101000a900460601b908060010160009054906101000a900473ffffffffffffffffffffffffffffffffffffffff16908060020160009054906101000a900473ffffffffffffffffffffffffffffffffffffffff169080600301549080600401549080600501805461021490611771565b80601f016020809104026020016040519081016040528092919081815260200182805461024090611771565b801561028d5780601f106102625761010080835404028352916020019161028d565b820191906000526020600020905b81548152906001019060200180831161027057829003601f168201915b5050505050908060060160009054906101000a900460601b905087565b60086020528060005260406000206000915090508060000160009054906101000a900460601b908060010160009054906101000a900473ffffffffffffffffffffffffffffffffffffffff16908060020160009054906101000a900473ffffffffffffffffffffffffffffffffffffffff169080600301549080600401549080600501805461033890611771565b80601f016020809104026020016040519081016040528092919081815260200182805461036490611771565b80156103b15780601f10610386576101008083540402835291602001916103b1565b820191906000526020600020905b81548152906001019060200180831161039457829003601f168201915b5050505050908060060160009054906101000a900460601b905087565b60008590506000859050600085905060004290506000819050600060038b8b8b868c8c604051602001610406969594939291906114a4565b604051602081830303815290604052604051610422919061156f565b602060405180830381855afa15801561043f573d6000803e3d6000fd5b5050506040515160601b9050600081905060006003838e8e8e898f8f6040516020016104719796959493929190611501565b60405160208183030381529060405260405161048d919061156f565b602060405180830381855afa1580156104aa573d6000803e3d6000fd5b5050506040515160601b905060008190506040518060e00160405280856bffffffffffffffffffffffff191681526020018f73ffffffffffffffffffffffffffffffffffffffff1681526020018e73ffffffffffffffffffffffffffffffffffffffff1681526020018d81526020018781526020018c8c8080601f016020809104026020016040519081016040528093929190818152602001838380828437600081840152601f19601f820116905080830192505050505050508152602001836bffffffffffffffffffffffff19168152506000808201518160000160006101000a81548173ffffffffffffffffffffffffffffffffffffffff021916908360601c021790555060208201518160010160006101000a81548173ffffffffffffffffffffffffffffffffffffffff021916908373ffffffffffffffffffffffffffffffffffffffff16021790555060408201518160020160006101000a81548173ffffffffffffffffffffffffffffffffffffffff021916908373ffffffffffffffffffffffffffffffffffffffff160217905550606082015181600301556080820151816004015560a082015181600501908051906020019061066f929190610e0e565b5060c08201518160060160006101000a81548173ffffffffffffffffffffffffffffffffffffffff021916908360601c02179055509050505050505050505050505050505050565b6060600960008373ffffffffffffffffffffffffffffffffffffffff1673ffffffffffffffffffffffffffffffffffffffff168152602001908152602001600020805480602002602001604051908101604052809291908181526020016000905b8282101561090657838290600052602060002090600702016040518060e00160405290816000820160009054906101000a900460601b6bffffffffffffffffffffffff19166bffffffffffffffffffffffff191681526020016001820160009054906101000a900473ffffffffffffffffffffffffffffffffffffffff1673ffffffffffffffffffffffffffffffffffffffff1673ffffffffffffffffffffffffffffffffffffffff1681526020016002820160009054906101000a900473ffffffffffffffffffffffffffffffffffffffff1673ffffffffffffffffffffffffffffffffffffffff1673ffffffffffffffffffffffffffffffffffffffff168152602001600382015481526020016004820154815260200160058201805461084090611771565b80601f016020809104026020016040519081016040528092919081815260200182805461086c90611771565b80156108b95780601f1061088e576101008083540402835291602001916108b9565b820191906000526020600020905b81548152906001019060200180831161089c57829003601f168201915b505050505081526020016006820160009054906101000a900460601b6bffffffffffffffffffffffff19166bffffffffffffffffffffffff19168152505081526020019060010190610718565b505050509050919050565b6007600090806001815401808255809150506001900390600052602060002090600702016000909190919091506000820160009054906101000a900460601b8160000160006101000a81548173ffffffffffffffffffffffffffffffffffffffff021916908360601c02179055506001820160009054906101000a900473ffffffffffffffffffffffffffffffffffffffff168160010160006101000a81548173ffffffffffffffffffffffffffffffffffffffff021916908373ffffffffffffffffffffffffffffffffffffffff1602179055506002820160009054906101000a900473ffffffffffffffffffffffffffffffffffffffff168160020160006101000a81548173ffffffffffffffffffffffffffffffffffffffff021916908373ffffffffffffffffffffffffffffffffffffffff16021790555060038201548160030155600482015481600401556005820181600501908054610a7590611771565b610a80929190610e94565b506006820160009054906101000a900460601b8160060160006101000a81548173ffffffffffffffffffffffffffffffffffffffff021916908360601c02179055505050565b610ace610f21565b60086000836bffffffffffffffffffffffff19166bffffffffffffffffffffffff191681526020019081526020016000206040518060e00160405290816000820160009054906101000a900460601b6bffffffffffffffffffffffff19166bffffffffffffffffffffffff191681526020016001820160009054906101000a900473ffffffffffffffffffffffffffffffffffffffff1673ffffffffffffffffffffffffffffffffffffffff1673ffffffffffffffffffffffffffffffffffffffff1681526020016002820160009054906101000a900473ffffffffffffffffffffffffffffffffffffffff1673ffffffffffffffffffffffffffffffffffffffff1673ffffffffffffffffffffffffffffffffffffffff1681526020016003820154815260200160048201548152602001600582018054610c0f90611771565b80601f0160208091040260200160405190810160405280929190818152602001828054610c3b90611771565b8015610c885780601f10610c5d57610100808354040283529160200191610c88565b820191906000526020600020905b815481529060010190602001808311610c6b57829003601f168201915b505050505081526020016006820160009054906101000a900460601b6bffffffffffffffffffffffff19166bffffffffffffffffffffffff1916815250509050919050565b60096020528160005260406000208181548110610ce957600080fd5b9060005260206000209060070201600091509150508060000160009054906101000a900460601b908060010160009054906101000a900473ffffffffffffffffffffffffffffffffffffffff16908060020160009054906101000a900473ffffffffffffffffffffffffffffffffffffffff1690806003015490806004015490806005018054610d7890611771565b80601f0160208091040260200160405190810160405280929190818152602001828054610da490611771565b8015610df15780601f10610dc657610100808354040283529160200191610df1565b820191906000526020600020905b815481529060010190602001808311610dd457829003601f168201915b5050505050908060060160009054906101000a900460601b905087565b828054610e1a90611771565b90600052602060002090601f016020900481019282610e3c5760008555610e83565b82601f10610e5557805160ff1916838001178555610e83565b82800160010185558215610e83579182015b82811115610e82578251825591602001919060010190610e67565b5b509050610e909190610fa8565b5090565b828054610ea090611771565b90600052602060002090601f016020900481019282610ec25760008555610f10565b82601f10610ed35780548555610f10565b82800160010185558215610f1057600052602060002091601f016020900482015b82811115610f0f578254825591600101919060010190610ef4565b5b509050610f1d9190610fa8565b5090565b6040518060e0016040528060006bffffffffffffffffffffffff19168152602001600073ffffffffffffffffffffffffffffffffffffffff168152602001600073ffffffffffffffffffffffffffffffffffffffff16815260200160008152602001600081526020016060815260200160006bffffffffffffffffffffffff191681525090565b5b80821115610fc1576000816000905550600101610fa9565b5090565b600081359050610fd481611841565b92915050565b600081359050610fe981611858565b92915050565b60008083601f8401126110055761100461180f565b5b8235905067ffffffffffffffff8111156110225761102161180a565b5b60208301915083600182028301111561103e5761103d611814565b5b9250929050565b6000813590506110548161186f565b92915050565b6000602082840312156110705761106f61181e565b5b600061107e84828501610fc5565b91505092915050565b6000806000806000608086880312156110a3576110a261181e565b5b60006110b188828901610fc5565b95505060206110c288828901610fc5565b94505060406110d388828901611045565b935050606086013567ffffffffffffffff8111156110f4576110f3611819565b5b61110088828901610fef565b92509250509295509295909350565b600080604083850312156111265761112561181e565b5b600061113485828601610fc5565b925050602061114585828601611045565b9150509250929050565b6000602082840312156111655761116461181e565b5b600061117384828501610fda565b91505092915050565b60006111888383611337565b905092915050565b611199816116c7565b82525050565b6111a8816116c7565b82525050565b6111bf6111ba826116c7565b6117a3565b82525050565b60006111d082611650565b6111da818561167e565b9350836020820285016111ec85611640565b8060005b858110156112285784840389528151611209858261117c565b945061121483611671565b925060208a019950506001810190506111f0565b50829750879550505050505092915050565b611243816116d9565b82525050565b611252816116d9565b82525050565b611269611264826116d9565b6117b5565b82525050565b600061127a8261165b565b611284818561168f565b935061129481856020860161173e565b80840191505092915050565b60006112ac83856116bc565b93506112b983858461172f565b82840190509392505050565b60006112d082611666565b6112da818561169a565b93506112ea81856020860161173e565b6112f381611823565b840191505092915050565b600061130982611666565b61131381856116ab565b935061132381856020860161173e565b61132c81611823565b840191505092915050565b600060e08301600083015161134f600086018261123a565b5060208301516113626020860182611190565b5060408301516113756040860182611190565b506060830151611388606086018261146f565b50608083015161139b608086018261146f565b5060a083015184820360a08601526113b382826112c5565b91505060c08301516113c860c086018261123a565b508091505092915050565b600060e0830160008301516113eb600086018261123a565b5060208301516113fe6020860182611190565b5060408301516114116040860182611190565b506060830151611424606086018261146f565b506080830151611437608086018261146f565b5060a083015184820360a086015261144f82826112c5565b91505060c083015161146460c086018261123a565b508091505092915050565b61147881611725565b82525050565b61148781611725565b82525050565b61149e61149982611725565b6117d1565b82525050565b60006114b082896111ae565b6014820191506114c082886111ae565b6014820191506114d0828761148d565b6020820191506114e0828661148d565b6020820191506114f18284866112a0565b9150819050979650505050505050565b600061150d828a611258565b60148201915061151d82896111ae565b60148201915061152d82886111ae565b60148201915061153d828761148d565b60208201915061154d828661148d565b60208201915061155e8284866112a0565b915081905098975050505050505050565b600061157b828461126f565b915081905092915050565b600060208201905081810360008301526115a081846111c5565b905092915050565b600060e0820190506115bd600083018a611249565b6115ca602083018961119f565b6115d7604083018861119f565b6115e4606083018761147e565b6115f1608083018661147e565b81810360a083015261160381856112fe565b905061161260c0830184611249565b98975050505050505050565b6000602082019050818103600083015261163881846113d3565b905092915050565b6000819050602082019050919050565b600081519050919050565b600081519050919050565b600081519050919050565b6000602082019050919050565b600082825260208201905092915050565b600081905092915050565b600082825260208201905092915050565b600082825260208201905092915050565b600081905092915050565b60006116d282611705565b9050919050565b60007fffffffffffffffffffffffffffffffffffffffff00000000000000000000000082169050919050565b600073ffffffffffffffffffffffffffffffffffffffff82169050919050565b6000819050919050565b82818337600083830152505050565b60005b8381101561175c578082015181840152602081019050611741565b8381111561176b576000848401525b50505050565b6000600282049050600182168061178957607f821691505b6020821081141561179d5761179c6117db565b5b50919050565b60006117ae826117bf565b9050919050565b6000819050919050565b60006117ca82611834565b9050919050565b6000819050919050565b7f4e487b7100000000000000000000000000000000000000000000000000000000600052602260045260246000fd5b600080fd5b600080fd5b600080fd5b600080fd5b600080fd5b6000601f19601f8301169050919050565b60008160601b9050919050565b61184a816116c7565b811461185557600080fd5b50565b611861816116d9565b811461186c57600080fd5b50565b61187881611725565b811461188357600080fd5b5056fea2646970667358221220669f2d4e1f97c86f174817c0134ff7efa5ce698f729774572514457c161effa764736f6c63430008070033",
					"opcodes": "PUSH1 0x80 PUSH1 0x40 MSTORE CALLVALUE DUP1 ISZERO PUSH2 0x10 JUMPI PUSH1 0x0 DUP1 REVERT JUMPDEST POP PUSH2 0x18BC DUP1 PUSH2 0x20 PUSH1 0x0 CODECOPY PUSH1 0x0 RETURN INVALID PUSH1 0x80 PUSH1 0x40 MSTORE CALLVALUE DUP1 ISZERO PUSH2 0x10 JUMPI PUSH1 0x0 DUP1 REVERT JUMPDEST POP PUSH1 0x4 CALLDATASIZE LT PUSH2 0x7D JUMPI PUSH1 0x0 CALLDATALOAD PUSH1 0xE0 SHR DUP1 PUSH4 0x92206F3F GT PUSH2 0x5B JUMPI DUP1 PUSH4 0x92206F3F EQ PUSH2 0xF8 JUMPI DUP1 PUSH4 0xAF34AEA4 EQ PUSH2 0x128 JUMPI DUP1 PUSH4 0xB69C9053 EQ PUSH2 0x132 JUMPI DUP1 PUSH4 0xF7ED5CE8 EQ PUSH2 0x162 JUMPI PUSH2 0x7D JUMP JUMPDEST DUP1 PUSH4 0x18015191 EQ PUSH2 0x82 JUMPI DUP1 PUSH4 0x2B08A98A EQ PUSH2 0xA6 JUMPI DUP1 PUSH4 0x431F48C8 EQ PUSH2 0xDC JUMPI JUMPDEST PUSH1 0x0 DUP1 REVERT JUMPDEST PUSH2 0x8A PUSH2 0x198 JUMP JUMPDEST PUSH1 0x40 MLOAD PUSH2 0x9D SWAP8 SWAP7 SWAP6 SWAP5 SWAP4 SWAP3 SWAP2 SWAP1 PUSH2 0x15A8 JUMP JUMPDEST PUSH1 0x40 MLOAD DUP1 SWAP2 SUB SWAP1 RETURN JUMPDEST PUSH2 0xC0 PUSH1 0x4 DUP1 CALLDATASIZE SUB DUP2 ADD SWAP1 PUSH2 0xBB SWAP2 SWAP1 PUSH2 0x114F JUMP JUMPDEST PUSH2 0x2AA JUMP JUMPDEST PUSH1 0x40 MLOAD PUSH2 0xD3 SWAP8 SWAP7 SWAP6 SWAP5 SWAP4 SWAP3 SWAP2 SWAP1 PUSH2 0x15A8 JUMP JUMPDEST PUSH1 0x40 MLOAD DUP1 SWAP2 SUB SWAP1 RETURN JUMPDEST PUSH2 0xF6 PUSH1 0x4 DUP1 CALLDATASIZE SUB DUP2 ADD SWAP1 PUSH2 0xF1 SWAP2 SWAP1 PUSH2 0x1087 JUMP JUMPDEST PUSH2 0x3CE JUMP JUMPDEST STOP JUMPDEST PUSH2 0x112 PUSH1 0x4 DUP1 CALLDATASIZE SUB DUP2 ADD SWAP1 PUSH2 0x10D SWAP2 SWAP1 PUSH2 0x105A JUMP JUMPDEST PUSH2 0x6B7 JUMP JUMPDEST PUSH1 0x40 MLOAD PUSH2 0x11F SWAP2 SWAP1 PUSH2 0x1586 JUMP JUMPDEST PUSH1 0x40 MLOAD DUP1 SWAP2 SUB SWAP1 RETURN JUMPDEST PUSH2 0x130 PUSH2 0x911 JUMP JUMPDEST STOP JUMPDEST PUSH2 0x14C PUSH1 0x4 DUP1 CALLDATASIZE SUB DUP2 ADD SWAP1 PUSH2 0x147 SWAP2 SWAP1 PUSH2 0x114F JUMP JUMPDEST PUSH2 0xAC6 JUMP JUMPDEST PUSH1 0x40 MLOAD PUSH2 0x159 SWAP2 SWAP1 PUSH2 0x161E JUMP JUMPDEST PUSH1 0x40 MLOAD DUP1 SWAP2 SUB SWAP1 RETURN JUMPDEST PUSH2 0x17C PUSH1 0x4 DUP1 CALLDATASIZE SUB DUP2 ADD SWAP1 PUSH2 0x177 SWAP2 SWAP1 PUSH2 0x110F JUMP JUMPDEST PUSH2 0xCCD JUMP JUMPDEST PUSH1 0x40 MLOAD PUSH2 0x18F SWAP8 SWAP7 SWAP6 SWAP5 SWAP4 SWAP3 SWAP2 SWAP1 PUSH2 0x15A8 JUMP JUMPDEST PUSH1 0x40 MLOAD DUP1 SWAP2 SUB SWAP1 RETURN JUMPDEST PUSH1 0x0 DUP1 PUSH1 0x0 ADD PUSH1 0x0 SWAP1 SLOAD SWAP1 PUSH2 0x100 EXP SWAP1 DIV PUSH1 0x60 SHL SWAP1 DUP1 PUSH1 0x1 ADD PUSH1 0x0 SWAP1 SLOAD SWAP1 PUSH2 0x100 EXP SWAP1 DIV PUSH20 0xFFFFFFFFFFFFFFFFFFFFFFFFFFFFFFFFFFFFFFFF AND SWAP1 DUP1 PUSH1 0x2 ADD PUSH1 0x0 SWAP1 SLOAD SWAP1 PUSH2 0x100 EXP SWAP1 DIV PUSH20 0xFFFFFFFFFFFFFFFFFFFFFFFFFFFFFFFFFFFFFFFF AND SWAP1 DUP1 PUSH1 0x3 ADD SLOAD SWAP1 DUP1 PUSH1 0x4 ADD SLOAD SWAP1 DUP1 PUSH1 0x5 ADD DUP1 SLOAD PUSH2 0x214 SWAP1 PUSH2 0x1771 JUMP JUMPDEST DUP1 PUSH1 0x1F ADD PUSH1 0x20 DUP1 SWAP2 DIV MUL PUSH1 0x20 ADD PUSH1 0x40 MLOAD SWAP1 DUP2 ADD PUSH1 0x40 MSTORE DUP1 SWAP3 SWAP2 SWAP1 DUP2 DUP2 MSTORE PUSH1 0x20 ADD DUP3 DUP1 SLOAD PUSH2 0x240 SWAP1 PUSH2 0x1771 JUMP JUMPDEST DUP1 ISZERO PUSH2 0x28D JUMPI DUP1 PUSH1 0x1F LT PUSH2 0x262 JUMPI PUSH2 0x100 DUP1 DUP4 SLOAD DIV MUL DUP4 MSTORE SWAP2 PUSH1 0x20 ADD SWAP2 PUSH2 0x28D JUMP JUMPDEST DUP3 ADD SWAP2 SWAP1 PUSH1 0x0 MSTORE PUSH1 0x20 PUSH1 0x0 KECCAK256 SWAP1 JUMPDEST DUP2 SLOAD DUP2 MSTORE SWAP1 PUSH1 0x1 ADD SWAP1 PUSH1 0x20 ADD DUP1 DUP4 GT PUSH2 0x270 JUMPI DUP3 SWAP1 SUB PUSH1 0x1F AND DUP3 ADD SWAP2 JUMPDEST POP POP POP POP POP SWAP1 DUP1 PUSH1 0x6 ADD PUSH1 0x0 SWAP1 SLOAD SWAP1 PUSH2 0x100 EXP SWAP1 DIV PUSH1 0x60 SHL SWAP1 POP DUP8 JUMP JUMPDEST PUSH1 0x8 PUSH1 0x20 MSTORE DUP1 PUSH1 0x0 MSTORE PUSH1 0x40 PUSH1 0x0 KECCAK256 PUSH1 0x0 SWAP2 POP SWAP1 POP DUP1 PUSH1 0x0 ADD PUSH1 0x0 SWAP1 SLOAD SWAP1 PUSH2 0x100 EXP SWAP1 DIV PUSH1 0x60 SHL SWAP1 DUP1 PUSH1 0x1 ADD PUSH1 0x0 SWAP1 SLOAD SWAP1 PUSH2 0x100 EXP SWAP1 DIV PUSH20 0xFFFFFFFFFFFFFFFFFFFFFFFFFFFFFFFFFFFFFFFF AND SWAP1 DUP1 PUSH1 0x2 ADD PUSH1 0x0 SWAP1 SLOAD SWAP1 PUSH2 0x100 EXP SWAP1 DIV PUSH20 0xFFFFFFFFFFFFFFFFFFFFFFFFFFFFFFFFFFFFFFFF AND SWAP1 DUP1 PUSH1 0x3 ADD SLOAD SWAP1 DUP1 PUSH1 0x4 ADD SLOAD SWAP1 DUP1 PUSH1 0x5 ADD DUP1 SLOAD PUSH2 0x338 SWAP1 PUSH2 0x1771 JUMP JUMPDEST DUP1 PUSH1 0x1F ADD PUSH1 0x20 DUP1 SWAP2 DIV MUL PUSH1 0x20 ADD PUSH1 0x40 MLOAD SWAP1 DUP2 ADD PUSH1 0x40 MSTORE DUP1 SWAP3 SWAP2 SWAP1 DUP2 DUP2 MSTORE PUSH1 0x20 ADD DUP3 DUP1 SLOAD PUSH2 0x364 SWAP1 PUSH2 0x1771 JUMP JUMPDEST DUP1 ISZERO PUSH2 0x3B1 JUMPI DUP1 PUSH1 0x1F LT PUSH2 0x386 JUMPI PUSH2 0x100 DUP1 DUP4 SLOAD DIV MUL DUP4 MSTORE SWAP2 PUSH1 0x20 ADD SWAP2 PUSH2 0x3B1 JUMP JUMPDEST DUP3 ADD SWAP2 SWAP1 PUSH1 0x0 MSTORE PUSH1 0x20 PUSH1 0x0 KECCAK256 SWAP1 JUMPDEST DUP2 SLOAD DUP2 MSTORE SWAP1 PUSH1 0x1 ADD SWAP1 PUSH1 0x20 ADD DUP1 DUP4 GT PUSH2 0x394 JUMPI DUP3 SWAP1 SUB PUSH1 0x1F AND DUP3 ADD SWAP2 JUMPDEST POP POP POP POP POP SWAP1 DUP1 PUSH1 0x6 ADD PUSH1 0x0 SWAP1 SLOAD SWAP1 PUSH2 0x100 EXP SWAP1 DIV PUSH1 0x60 SHL SWAP1 POP DUP8 JUMP JUMPDEST PUSH1 0x0 DUP6 SWAP1 POP PUSH1 0x0 DUP6 SWAP1 POP PUSH1 0x0 DUP6 SWAP1 POP PUSH1 0x0 TIMESTAMP SWAP1 POP PUSH1 0x0 DUP2 SWAP1 POP PUSH1 0x0 PUSH1 0x3 DUP12 DUP12 DUP12 DUP7 DUP13 DUP13 PUSH1 0x40 MLOAD PUSH1 0x20 ADD PUSH2 0x406 SWAP7 SWAP6 SWAP5 SWAP4 SWAP3 SWAP2 SWAP1 PUSH2 0x14A4 JUMP JUMPDEST PUSH1 0x40 MLOAD PUSH1 0x20 DUP2 DUP4 SUB SUB DUP2 MSTORE SWAP1 PUSH1 0x40 MSTORE PUSH1 0x40 MLOAD PUSH2 0x422 SWAP2 SWAP1 PUSH2 0x156F JUMP JUMPDEST PUSH1 0x20 PUSH1 0x40 MLOAD DUP1 DUP4 SUB DUP2 DUP6 GAS STATICCALL ISZERO DUP1 ISZERO PUSH2 0x43F JUMPI RETURNDATASIZE PUSH1 0x0 DUP1 RETURNDATACOPY RETURNDATASIZE PUSH1 0x0 REVERT JUMPDEST POP POP POP PUSH1 0x40 MLOAD MLOAD PUSH1 0x60 SHL SWAP1 POP PUSH1 0x0 DUP2 SWAP1 POP PUSH1 0x0 PUSH1 0x3 DUP4 DUP15 DUP15 DUP15 DUP10 DUP16 DUP16 PUSH1 0x40 MLOAD PUSH1 0x20 ADD PUSH2 0x471 SWAP8 SWAP7 SWAP6 SWAP5 SWAP4 SWAP3 SWAP2 SWAP1 PUSH2 0x1501 JUMP JUMPDEST PUSH1 0x40 MLOAD PUSH1 0x20 DUP2 DUP4 SUB SUB DUP2 MSTORE SWAP1 PUSH1 0x40 MSTORE PUSH1 0x40 MLOAD PUSH2 0x48D SWAP2 SWAP1 PUSH2 0x156F JUMP JUMPDEST PUSH1 0x20 PUSH1 0x40 MLOAD DUP1 DUP4 SUB DUP2 DUP6 GAS STATICCALL ISZERO DUP1 ISZERO PUSH2 0x4AA JUMPI RETURNDATASIZE PUSH1 0x0 DUP1 RETURNDATACOPY RETURNDATASIZE PUSH1 0x0 REVERT JUMPDEST POP POP POP PUSH1 0x40 MLOAD MLOAD PUSH1 0x60 SHL SWAP1 POP PUSH1 0x0 DUP2 SWAP1 POP PUSH1 0x40 MLOAD DUP1 PUSH1 0xE0 ADD PUSH1 0x40 MSTORE DUP1 DUP6 PUSH12 0xFFFFFFFFFFFFFFFFFFFFFFFF NOT AND DUP2 MSTORE PUSH1 0x20 ADD DUP16 PUSH20 0xFFFFFFFFFFFFFFFFFFFFFFFFFFFFFFFFFFFFFFFF AND DUP2 MSTORE PUSH1 0x20 ADD DUP15 PUSH20 0xFFFFFFFFFFFFFFFFFFFFFFFFFFFFFFFFFFFFFFFF AND DUP2 MSTORE PUSH1 0x20 ADD DUP14 DUP2 MSTORE PUSH1 0x20 ADD DUP8 DUP2 MSTORE PUSH1 0x20 ADD DUP13 DUP13 DUP1 DUP1 PUSH1 0x1F ADD PUSH1 0x20 DUP1 SWAP2 DIV MUL PUSH1 0x20 ADD PUSH1 0x40 MLOAD SWAP1 DUP2 ADD PUSH1 0x40 MSTORE DUP1 SWAP4 SWAP3 SWAP2 SWAP1 DUP2 DUP2 MSTORE PUSH1 0x20 ADD DUP4 DUP4 DUP1 DUP3 DUP5 CALLDATACOPY PUSH1 0x0 DUP2 DUP5 ADD MSTORE PUSH1 0x1F NOT PUSH1 0x1F DUP3 ADD AND SWAP1 POP DUP1 DUP4 ADD SWAP3 POP POP POP POP POP POP POP DUP2 MSTORE PUSH1 0x20 ADD DUP4 PUSH12 0xFFFFFFFFFFFFFFFFFFFFFFFF NOT AND DUP2 MSTORE POP PUSH1 0x0 DUP1 DUP3 ADD MLOAD DUP2 PUSH1 0x0 ADD PUSH1 0x0 PUSH2 0x100 EXP DUP2 SLOAD DUP2 PUSH20 0xFFFFFFFFFFFFFFFFFFFFFFFFFFFFFFFFFFFFFFFF MUL NOT AND SWAP1 DUP4 PUSH1 0x60 SHR MUL OR SWAP1 SSTORE POP PUSH1 0x20 DUP3 ADD MLOAD DUP2 PUSH1 0x1 ADD PUSH1 0x0 PUSH2 0x100 EXP DUP2 SLOAD DUP2 PUSH20 0xFFFFFFFFFFFFFFFFFFFFFFFFFFFFFFFFFFFFFFFF MUL NOT AND SWAP1 DUP4 PUSH20 0xFFFFFFFFFFFFFFFFFFFFFFFFFFFFFFFFFFFFFFFF AND MUL OR SWAP1 SSTORE POP PUSH1 0x40 DUP3 ADD MLOAD DUP2 PUSH1 0x2 ADD PUSH1 0x0 PUSH2 0x100 EXP DUP2 SLOAD DUP2 PUSH20 0xFFFFFFFFFFFFFFFFFFFFFFFFFFFFFFFFFFFFFFFF MUL NOT AND SWAP1 DUP4 PUSH20 0xFFFFFFFFFFFFFFFFFFFFFFFFFFFFFFFFFFFFFFFF AND MUL OR SWAP1 SSTORE POP PUSH1 0x60 DUP3 ADD MLOAD DUP2 PUSH1 0x3 ADD SSTORE PUSH1 0x80 DUP3 ADD MLOAD DUP2 PUSH1 0x4 ADD SSTORE PUSH1 0xA0 DUP3 ADD MLOAD DUP2 PUSH1 0x5 ADD SWAP1 DUP1 MLOAD SWAP1 PUSH1 0x20 ADD SWAP1 PUSH2 0x66F SWAP3 SWAP2 SWAP1 PUSH2 0xE0E JUMP JUMPDEST POP PUSH1 0xC0 DUP3 ADD MLOAD DUP2 PUSH1 0x6 ADD PUSH1 0x0 PUSH2 0x100 EXP DUP2 SLOAD DUP2 PUSH20 0xFFFFFFFFFFFFFFFFFFFFFFFFFFFFFFFFFFFFFFFF MUL NOT AND SWAP1 DUP4 PUSH1 0x60 SHR MUL OR SWAP1 SSTORE POP SWAP1 POP POP POP POP POP POP POP POP POP POP POP POP POP POP POP POP JUMP JUMPDEST PUSH1 0x60 PUSH1 0x9 PUSH1 0x0 DUP4 PUSH20 0xFFFFFFFFFFFFFFFFFFFFFFFFFFFFFFFFFFFFFFFF AND PUSH20 0xFFFFFFFFFFFFFFFFFFFFFFFFFFFFFFFFFFFFFFFF AND DUP2 MSTORE PUSH1 0x20 ADD SWAP1 DUP2 MSTORE PUSH1 0x20 ADD PUSH1 0x0 KECCAK256 DUP1 SLOAD DUP1 PUSH1 0x20 MUL PUSH1 0x20 ADD PUSH1 0x40 MLOAD SWAP1 DUP2 ADD PUSH1 0x40 MSTORE DUP1 SWAP3 SWAP2 SWAP1 DUP2 DUP2 MSTORE PUSH1 0x20 ADD PUSH1 0x0 SWAP1 JUMPDEST DUP3 DUP3 LT ISZERO PUSH2 0x906 JUMPI DUP4 DUP3 SWAP1 PUSH1 0x0 MSTORE PUSH1 0x20 PUSH1 0x0 KECCAK256 SWAP1 PUSH1 0x7 MUL ADD PUSH1 0x40 MLOAD DUP1 PUSH1 0xE0 ADD PUSH1 0x40 MSTORE SWAP1 DUP2 PUSH1 0x0 DUP3 ADD PUSH1 0x0 SWAP1 SLOAD SWAP1 PUSH2 0x100 EXP SWAP1 DIV PUSH1 0x60 SHL PUSH12 0xFFFFFFFFFFFFFFFFFFFFFFFF NOT AND PUSH12 0xFFFFFFFFFFFFFFFFFFFFFFFF NOT AND DUP2 MSTORE PUSH1 0x20 ADD PUSH1 0x1 DUP3 ADD PUSH1 0x0 SWAP1 SLOAD SWAP1 PUSH2 0x100 EXP SWAP1 DIV PUSH20 0xFFFFFFFFFFFFFFFFFFFFFFFFFFFFFFFFFFFFFFFF AND PUSH20 0xFFFFFFFFFFFFFFFFFFFFFFFFFFFFFFFFFFFFFFFF AND PUSH20 0xFFFFFFFFFFFFFFFFFFFFFFFFFFFFFFFFFFFFFFFF AND DUP2 MSTORE PUSH1 0x20 ADD PUSH1 0x2 DUP3 ADD PUSH1 0x0 SWAP1 SLOAD SWAP1 PUSH2 0x100 EXP SWAP1 DIV PUSH20 0xFFFFFFFFFFFFFFFFFFFFFFFFFFFFFFFFFFFFFFFF AND PUSH20 0xFFFFFFFFFFFFFFFFFFFFFFFFFFFFFFFFFFFFFFFF AND PUSH20 0xFFFFFFFFFFFFFFFFFFFFFFFFFFFFFFFFFFFFFFFF AND DUP2 MSTORE PUSH1 0x20 ADD PUSH1 0x3 DUP3 ADD SLOAD DUP2 MSTORE PUSH1 0x20 ADD PUSH1 0x4 DUP3 ADD SLOAD DUP2 MSTORE PUSH1 0x20 ADD PUSH1 0x5 DUP3 ADD DUP1 SLOAD PUSH2 0x840 SWAP1 PUSH2 0x1771 JUMP JUMPDEST DUP1 PUSH1 0x1F ADD PUSH1 0x20 DUP1 SWAP2 DIV MUL PUSH1 0x20 ADD PUSH1 0x40 MLOAD SWAP1 DUP2 ADD PUSH1 0x40 MSTORE DUP1 SWAP3 SWAP2 SWAP1 DUP2 DUP2 MSTORE PUSH1 0x20 ADD DUP3 DUP1 SLOAD PUSH2 0x86C SWAP1 PUSH2 0x1771 JUMP JUMPDEST DUP1 ISZERO PUSH2 0x8B9 JUMPI DUP1 PUSH1 0x1F LT PUSH2 0x88E JUMPI PUSH2 0x100 DUP1 DUP4 SLOAD DIV MUL DUP4 MSTORE SWAP2 PUSH1 0x20 ADD SWAP2 PUSH2 0x8B9 JUMP JUMPDEST DUP3 ADD SWAP2 SWAP1 PUSH1 0x0 MSTORE PUSH1 0x20 PUSH1 0x0 KECCAK256 SWAP1 JUMPDEST DUP2 SLOAD DUP2 MSTORE SWAP1 PUSH1 0x1 ADD SWAP1 PUSH1 0x20 ADD DUP1 DUP4 GT PUSH2 0x89C JUMPI DUP3 SWAP1 SUB PUSH1 0x1F AND DUP3 ADD SWAP2 JUMPDEST POP POP POP POP POP DUP2 MSTORE PUSH1 0x20 ADD PUSH1 0x6 DUP3 ADD PUSH1 0x0 SWAP1 SLOAD SWAP1 PUSH2 0x100 EXP SWAP1 DIV PUSH1 0x60 SHL PUSH12 0xFFFFFFFFFFFFFFFFFFFFFFFF NOT AND PUSH12 0xFFFFFFFFFFFFFFFFFFFFFFFF NOT AND DUP2 MSTORE POP POP DUP2 MSTORE PUSH1 0x20 ADD SWAP1 PUSH1 0x1 ADD SWAP1 PUSH2 0x718 JUMP JUMPDEST POP POP POP POP SWAP1 POP SWAP2 SWAP1 POP JUMP JUMPDEST PUSH1 0x7 PUSH1 0x0 SWAP1 DUP1 PUSH1 0x1 DUP2 SLOAD ADD DUP1 DUP3 SSTORE DUP1 SWAP2 POP POP PUSH1 0x1 SWAP1 SUB SWAP1 PUSH1 0x0 MSTORE PUSH1 0x20 PUSH1 0x0 KECCAK256 SWAP1 PUSH1 0x7 MUL ADD PUSH1 0x0 SWAP1 SWAP2 SWAP1 SWAP2 SWAP1 SWAP2 POP PUSH1 0x0 DUP3 ADD PUSH1 0x0 SWAP1 SLOAD SWAP1 PUSH2 0x100 EXP SWAP1 DIV PUSH1 0x60 SHL DUP2 PUSH1 0x0 ADD PUSH1 0x0 PUSH2 0x100 EXP DUP2 SLOAD DUP2 PUSH20 0xFFFFFFFFFFFFFFFFFFFFFFFFFFFFFFFFFFFFFFFF MUL NOT AND SWAP1 DUP4 PUSH1 0x60 SHR MUL OR SWAP1 SSTORE POP PUSH1 0x1 DUP3 ADD PUSH1 0x0 SWAP1 SLOAD SWAP1 PUSH2 0x100 EXP SWAP1 DIV PUSH20 0xFFFFFFFFFFFFFFFFFFFFFFFFFFFFFFFFFFFFFFFF AND DUP2 PUSH1 0x1 ADD PUSH1 0x0 PUSH2 0x100 EXP DUP2 SLOAD DUP2 PUSH20 0xFFFFFFFFFFFFFFFFFFFFFFFFFFFFFFFFFFFFFFFF MUL NOT AND SWAP1 DUP4 PUSH20 0xFFFFFFFFFFFFFFFFFFFFFFFFFFFFFFFFFFFFFFFF AND MUL OR SWAP1 SSTORE POP PUSH1 0x2 DUP3 ADD PUSH1 0x0 SWAP1 SLOAD SWAP1 PUSH2 0x100 EXP SWAP1 DIV PUSH20 0xFFFFFFFFFFFFFFFFFFFFFFFFFFFFFFFFFFFFFFFF AND DUP2 PUSH1 0x2 ADD PUSH1 0x0 PUSH2 0x100 EXP DUP2 SLOAD DUP2 PUSH20 0xFFFFFFFFFFFFFFFFFFFFFFFFFFFFFFFFFFFFFFFF MUL NOT AND SWAP1 DUP4 PUSH20 0xFFFFFFFFFFFFFFFFFFFFFFFFFFFFFFFFFFFFFFFF AND MUL OR SWAP1 SSTORE POP PUSH1 0x3 DUP3 ADD SLOAD DUP2 PUSH1 0x3 ADD SSTORE PUSH1 0x4 DUP3 ADD SLOAD DUP2 PUSH1 0x4 ADD SSTORE PUSH1 0x5 DUP3 ADD DUP2 PUSH1 0x5 ADD SWAP1 DUP1 SLOAD PUSH2 0xA75 SWAP1 PUSH2 0x1771 JUMP JUMPDEST PUSH2 0xA80 SWAP3 SWAP2 SWAP1 PUSH2 0xE94 JUMP JUMPDEST POP PUSH1 0x6 DUP3 ADD PUSH1 0x0 SWAP1 SLOAD SWAP1 PUSH2 0x100 EXP SWAP1 DIV PUSH1 0x60 SHL DUP2 PUSH1 0x6 ADD PUSH1 0x0 PUSH2 0x100 EXP DUP2 SLOAD DUP2 PUSH20 0xFFFFFFFFFFFFFFFFFFFFFFFFFFFFFFFFFFFFFFFF MUL NOT AND SWAP1 DUP4 PUSH1 0x60 SHR MUL OR SWAP1 SSTORE POP POP POP JUMP JUMPDEST PUSH2 0xACE PUSH2 0xF21 JUMP JUMPDEST PUSH1 0x8 PUSH1 0x0 DUP4 PUSH12 0xFFFFFFFFFFFFFFFFFFFFFFFF NOT AND PUSH12 0xFFFFFFFFFFFFFFFFFFFFFFFF NOT AND DUP2 MSTORE PUSH1 0x20 ADD SWAP1 DUP2 MSTORE PUSH1 0x20 ADD PUSH1 0x0 KECCAK256 PUSH1 0x40 MLOAD DUP1 PUSH1 0xE0 ADD PUSH1 0x40 MSTORE SWAP1 DUP2 PUSH1 0x0 DUP3 ADD PUSH1 0x0 SWAP1 SLOAD SWAP1 PUSH2 0x100 EXP SWAP1 DIV PUSH1 0x60 SHL PUSH12 0xFFFFFFFFFFFFFFFFFFFFFFFF NOT AND PUSH12 0xFFFFFFFFFFFFFFFFFFFFFFFF NOT AND DUP2 MSTORE PUSH1 0x20 ADD PUSH1 0x1 DUP3 ADD PUSH1 0x0 SWAP1 SLOAD SWAP1 PUSH2 0x100 EXP SWAP1 DIV PUSH20 0xFFFFFFFFFFFFFFFFFFFFFFFFFFFFFFFFFFFFFFFF AND PUSH20 0xFFFFFFFFFFFFFFFFFFFFFFFFFFFFFFFFFFFFFFFF AND PUSH20 0xFFFFFFFFFFFFFFFFFFFFFFFFFFFFFFFFFFFFFFFF AND DUP2 MSTORE PUSH1 0x20 ADD PUSH1 0x2 DUP3 ADD PUSH1 0x0 SWAP1 SLOAD SWAP1 PUSH2 0x100 EXP SWAP1 DIV PUSH20 0xFFFFFFFFFFFFFFFFFFFFFFFFFFFFFFFFFFFFFFFF AND PUSH20 0xFFFFFFFFFFFFFFFFFFFFFFFFFFFFFFFFFFFFFFFF AND PUSH20 0xFFFFFFFFFFFFFFFFFFFFFFFFFFFFFFFFFFFFFFFF AND DUP2 MSTORE PUSH1 0x20 ADD PUSH1 0x3 DUP3 ADD SLOAD DUP2 MSTORE PUSH1 0x20 ADD PUSH1 0x4 DUP3 ADD SLOAD DUP2 MSTORE PUSH1 0x20 ADD PUSH1 0x5 DUP3 ADD DUP1 SLOAD PUSH2 0xC0F SWAP1 PUSH2 0x1771 JUMP JUMPDEST DUP1 PUSH1 0x1F ADD PUSH1 0x20 DUP1 SWAP2 DIV MUL PUSH1 0x20 ADD PUSH1 0x40 MLOAD SWAP1 DUP2 ADD PUSH1 0x40 MSTORE DUP1 SWAP3 SWAP2 SWAP1 DUP2 DUP2 MSTORE PUSH1 0x20 ADD DUP3 DUP1 SLOAD PUSH2 0xC3B SWAP1 PUSH2 0x1771 JUMP JUMPDEST DUP1 ISZERO PUSH2 0xC88 JUMPI DUP1 PUSH1 0x1F LT PUSH2 0xC5D JUMPI PUSH2 0x100 DUP1 DUP4 SLOAD DIV MUL DUP4 MSTORE SWAP2 PUSH1 0x20 ADD SWAP2 PUSH2 0xC88 JUMP JUMPDEST DUP3 ADD SWAP2 SWAP1 PUSH1 0x0 MSTORE PUSH1 0x20 PUSH1 0x0 KECCAK256 SWAP1 JUMPDEST DUP2 SLOAD DUP2 MSTORE SWAP1 PUSH1 0x1 ADD SWAP1 PUSH1 0x20 ADD DUP1 DUP4 GT PUSH2 0xC6B JUMPI DUP3 SWAP1 SUB PUSH1 0x1F AND DUP3 ADD SWAP2 JUMPDEST POP POP POP POP POP DUP2 MSTORE PUSH1 0x20 ADD PUSH1 0x6 DUP3 ADD PUSH1 0x0 SWAP1 SLOAD SWAP1 PUSH2 0x100 EXP SWAP1 DIV PUSH1 0x60 SHL PUSH12 0xFFFFFFFFFFFFFFFFFFFFFFFF NOT AND PUSH12 0xFFFFFFFFFFFFFFFFFFFFFFFF NOT AND DUP2 MSTORE POP POP SWAP1 POP SWAP2 SWAP1 POP JUMP JUMPDEST PUSH1 0x9 PUSH1 0x20 MSTORE DUP2 PUSH1 0x0 MSTORE PUSH1 0x40 PUSH1 0x0 KECCAK256 DUP2 DUP2 SLOAD DUP2 LT PUSH2 0xCE9 JUMPI PUSH1 0x0 DUP1 REVERT JUMPDEST SWAP1 PUSH1 0x0 MSTORE PUSH1 0x20 PUSH1 0x0 KECCAK256 SWAP1 PUSH1 0x7 MUL ADD PUSH1 0x0 SWAP2 POP SWAP2 POP POP DUP1 PUSH1 0x0 ADD PUSH1 0x0 SWAP1 SLOAD SWAP1 PUSH2 0x100 EXP SWAP1 DIV PUSH1 0x60 SHL SWAP1 DUP1 PUSH1 0x1 ADD PUSH1 0x0 SWAP1 SLOAD SWAP1 PUSH2 0x100 EXP SWAP1 DIV PUSH20 0xFFFFFFFFFFFFFFFFFFFFFFFFFFFFFFFFFFFFFFFF AND SWAP1 DUP1 PUSH1 0x2 ADD PUSH1 0x0 SWAP1 SLOAD SWAP1 PUSH2 0x100 EXP SWAP1 DIV PUSH20 0xFFFFFFFFFFFFFFFFFFFFFFFFFFFFFFFFFFFFFFFF AND SWAP1 DUP1 PUSH1 0x3 ADD SLOAD SWAP1 DUP1 PUSH1 0x4 ADD SLOAD SWAP1 DUP1 PUSH1 0x5 ADD DUP1 SLOAD PUSH2 0xD78 SWAP1 PUSH2 0x1771 JUMP JUMPDEST DUP1 PUSH1 0x1F ADD PUSH1 0x20 DUP1 SWAP2 DIV MUL PUSH1 0x20 ADD PUSH1 0x40 MLOAD SWAP1 DUP2 ADD PUSH1 0x40 MSTORE DUP1 SWAP3 SWAP2 SWAP1 DUP2 DUP2 MSTORE PUSH1 0x20 ADD DUP3 DUP1 SLOAD PUSH2 0xDA4 SWAP1 PUSH2 0x1771 JUMP JUMPDEST DUP1 ISZERO PUSH2 0xDF1 JUMPI DUP1 PUSH1 0x1F LT PUSH2 0xDC6 JUMPI PUSH2 0x100 DUP1 DUP4 SLOAD DIV MUL DUP4 MSTORE SWAP2 PUSH1 0x20 ADD SWAP2 PUSH2 0xDF1 JUMP JUMPDEST DUP3 ADD SWAP2 SWAP1 PUSH1 0x0 MSTORE PUSH1 0x20 PUSH1 0x0 KECCAK256 SWAP1 JUMPDEST DUP2 SLOAD DUP2 MSTORE SWAP1 PUSH1 0x1 ADD SWAP1 PUSH1 0x20 ADD DUP1 DUP4 GT PUSH2 0xDD4 JUMPI DUP3 SWAP1 SUB PUSH1 0x1F AND DUP3 ADD SWAP2 JUMPDEST POP POP POP POP POP SWAP1 DUP1 PUSH1 0x6 ADD PUSH1 0x0 SWAP1 SLOAD SWAP1 PUSH2 0x100 EXP SWAP1 DIV PUSH1 0x60 SHL SWAP1 POP DUP8 JUMP JUMPDEST DUP3 DUP1 SLOAD PUSH2 0xE1A SWAP1 PUSH2 0x1771 JUMP JUMPDEST SWAP1 PUSH1 0x0 MSTORE PUSH1 0x20 PUSH1 0x0 KECCAK256 SWAP1 PUSH1 0x1F ADD PUSH1 0x20 SWAP1 DIV DUP2 ADD SWAP3 DUP3 PUSH2 0xE3C JUMPI PUSH1 0x0 DUP6 SSTORE PUSH2 0xE83 JUMP JUMPDEST DUP3 PUSH1 0x1F LT PUSH2 0xE55 JUMPI DUP1 MLOAD PUSH1 0xFF NOT AND DUP4 DUP1 ADD OR DUP6 SSTORE PUSH2 0xE83 JUMP JUMPDEST DUP3 DUP1 ADD PUSH1 0x1 ADD DUP6 SSTORE DUP3 ISZERO PUSH2 0xE83 JUMPI SWAP2 DUP3 ADD JUMPDEST DUP3 DUP2 GT ISZERO PUSH2 0xE82 JUMPI DUP3 MLOAD DUP3 SSTORE SWAP2 PUSH1 0x20 ADD SWAP2 SWAP1 PUSH1 0x1 ADD SWAP1 PUSH2 0xE67 JUMP JUMPDEST JUMPDEST POP SWAP1 POP PUSH2 0xE90 SWAP2 SWAP1 PUSH2 0xFA8 JUMP JUMPDEST POP SWAP1 JUMP JUMPDEST DUP3 DUP1 SLOAD PUSH2 0xEA0 SWAP1 PUSH2 0x1771 JUMP JUMPDEST SWAP1 PUSH1 0x0 MSTORE PUSH1 0x20 PUSH1 0x0 KECCAK256 SWAP1 PUSH1 0x1F ADD PUSH1 0x20 SWAP1 DIV DUP2 ADD SWAP3 DUP3 PUSH2 0xEC2 JUMPI PUSH1 0x0 DUP6 SSTORE PUSH2 0xF10 JUMP JUMPDEST DUP3 PUSH1 0x1F LT PUSH2 0xED3 JUMPI DUP1 SLOAD DUP6 SSTORE PUSH2 0xF10 JUMP JUMPDEST DUP3 DUP1 ADD PUSH1 0x1 ADD DUP6 SSTORE DUP3 ISZERO PUSH2 0xF10 JUMPI PUSH1 0x0 MSTORE PUSH1 0x20 PUSH1 0x0 KECCAK256 SWAP2 PUSH1 0x1F ADD PUSH1 0x20 SWAP1 DIV DUP3 ADD JUMPDEST DUP3 DUP2 GT ISZERO PUSH2 0xF0F JUMPI DUP3 SLOAD DUP3 SSTORE SWAP2 PUSH1 0x1 ADD SWAP2 SWAP1 PUSH1 0x1 ADD SWAP1 PUSH2 0xEF4 JUMP JUMPDEST JUMPDEST POP SWAP1 POP PUSH2 0xF1D SWAP2 SWAP1 PUSH2 0xFA8 JUMP JUMPDEST POP SWAP1 JUMP JUMPDEST PUSH1 0x40 MLOAD DUP1 PUSH1 0xE0 ADD PUSH1 0x40 MSTORE DUP1 PUSH1 0x0 PUSH12 0xFFFFFFFFFFFFFFFFFFFFFFFF NOT AND DUP2 MSTORE PUSH1 0x20 ADD PUSH1 0x0 PUSH20 0xFFFFFFFFFFFFFFFFFFFFFFFFFFFFFFFFFFFFFFFF AND DUP2 MSTORE PUSH1 0x20 ADD PUSH1 0x0 PUSH20 0xFFFFFFFFFFFFFFFFFFFFFFFFFFFFFFFFFFFFFFFF AND DUP2 MSTORE PUSH1 0x20 ADD PUSH1 0x0 DUP2 MSTORE PUSH1 0x20 ADD PUSH1 0x0 DUP2 MSTORE PUSH1 0x20 ADD PUSH1 0x60 DUP2 MSTORE PUSH1 0x20 ADD PUSH1 0x0 PUSH12 0xFFFFFFFFFFFFFFFFFFFFFFFF NOT AND DUP2 MSTORE POP SWAP1 JUMP JUMPDEST JUMPDEST DUP1 DUP3 GT ISZERO PUSH2 0xFC1 JUMPI PUSH1 0x0 DUP2 PUSH1 0x0 SWAP1 SSTORE POP PUSH1 0x1 ADD PUSH2 0xFA9 JUMP JUMPDEST POP SWAP1 JUMP JUMPDEST PUSH1 0x0 DUP2 CALLDATALOAD SWAP1 POP PUSH2 0xFD4 DUP2 PUSH2 0x1841 JUMP JUMPDEST SWAP3 SWAP2 POP POP JUMP JUMPDEST PUSH1 0x0 DUP2 CALLDATALOAD SWAP1 POP PUSH2 0xFE9 DUP2 PUSH2 0x1858 JUMP JUMPDEST SWAP3 SWAP2 POP POP JUMP JUMPDEST PUSH1 0x0 DUP1 DUP4 PUSH1 0x1F DUP5 ADD SLT PUSH2 0x1005 JUMPI PUSH2 0x1004 PUSH2 0x180F JUMP JUMPDEST JUMPDEST DUP3 CALLDATALOAD SWAP1 POP PUSH8 0xFFFFFFFFFFFFFFFF DUP2 GT ISZERO PUSH2 0x1022 JUMPI PUSH2 0x1021 PUSH2 0x180A JUMP JUMPDEST JUMPDEST PUSH1 0x20 DUP4 ADD SWAP2 POP DUP4 PUSH1 0x1 DUP3 MUL DUP4 ADD GT ISZERO PUSH2 0x103E JUMPI PUSH2 0x103D PUSH2 0x1814 JUMP JUMPDEST JUMPDEST SWAP3 POP SWAP3 SWAP1 POP JUMP JUMPDEST PUSH1 0x0 DUP2 CALLDATALOAD SWAP1 POP PUSH2 0x1054 DUP2 PUSH2 0x186F JUMP JUMPDEST SWAP3 SWAP2 POP POP JUMP JUMPDEST PUSH1 0x0 PUSH1 0x20 DUP3 DUP5 SUB SLT ISZERO PUSH2 0x1070 JUMPI PUSH2 0x106F PUSH2 0x181E JUMP JUMPDEST JUMPDEST PUSH1 0x0 PUSH2 0x107E DUP5 DUP3 DUP6 ADD PUSH2 0xFC5 JUMP JUMPDEST SWAP2 POP POP SWAP3 SWAP2 POP POP JUMP JUMPDEST PUSH1 0x0 DUP1 PUSH1 0x0 DUP1 PUSH1 0x0 PUSH1 0x80 DUP7 DUP9 SUB SLT ISZERO PUSH2 0x10A3 JUMPI PUSH2 0x10A2 PUSH2 0x181E JUMP JUMPDEST JUMPDEST PUSH1 0x0 PUSH2 0x10B1 DUP9 DUP3 DUP10 ADD PUSH2 0xFC5 JUMP JUMPDEST SWAP6 POP POP PUSH1 0x20 PUSH2 0x10C2 DUP9 DUP3 DUP10 ADD PUSH2 0xFC5 JUMP JUMPDEST SWAP5 POP POP PUSH1 0x40 PUSH2 0x10D3 DUP9 DUP3 DUP10 ADD PUSH2 0x1045 JUMP JUMPDEST SWAP4 POP POP PUSH1 0x60 DUP7 ADD CALLDATALOAD PUSH8 0xFFFFFFFFFFFFFFFF DUP2 GT ISZERO PUSH2 0x10F4 JUMPI PUSH2 0x10F3 PUSH2 0x1819 JUMP JUMPDEST JUMPDEST PUSH2 0x1100 DUP9 DUP3 DUP10 ADD PUSH2 0xFEF JUMP JUMPDEST SWAP3 POP SWAP3 POP POP SWAP3 SWAP6 POP SWAP3 SWAP6 SWAP1 SWAP4 POP JUMP JUMPDEST PUSH1 0x0 DUP1 PUSH1 0x40 DUP4 DUP6 SUB SLT ISZERO PUSH2 0x1126 JUMPI PUSH2 0x1125 PUSH2 0x181E JUMP JUMPDEST JUMPDEST PUSH1 0x0 PUSH2 0x1134 DUP6 DUP3 DUP7 ADD PUSH2 0xFC5 JUMP JUMPDEST SWAP3 POP POP PUSH1 0x20 PUSH2 0x1145 DUP6 DUP3 DUP7 ADD PUSH2 0x1045 JUMP JUMPDEST SWAP2 POP POP SWAP3 POP SWAP3 SWAP1 POP JUMP JUMPDEST PUSH1 0x0 PUSH1 0x20 DUP3 DUP5 SUB SLT ISZERO PUSH2 0x1165 JUMPI PUSH2 0x1164 PUSH2 0x181E JUMP JUMPDEST JUMPDEST PUSH1 0x0 PUSH2 0x1173 DUP5 DUP3 DUP6 ADD PUSH2 0xFDA JUMP JUMPDEST SWAP2 POP POP SWAP3 SWAP2 POP POP JUMP JUMPDEST PUSH1 0x0 PUSH2 0x1188 DUP4 DUP4 PUSH2 0x1337 JUMP JUMPDEST SWAP1 POP SWAP3 SWAP2 POP POP JUMP JUMPDEST PUSH2 0x1199 DUP2 PUSH2 0x16C7 JUMP JUMPDEST DUP3 MSTORE POP POP JUMP JUMPDEST PUSH2 0x11A8 DUP2 PUSH2 0x16C7 JUMP JUMPDEST DUP3 MSTORE POP POP JUMP JUMPDEST PUSH2 0x11BF PUSH2 0x11BA DUP3 PUSH2 0x16C7 JUMP JUMPDEST PUSH2 0x17A3 JUMP JUMPDEST DUP3 MSTORE POP POP JUMP JUMPDEST PUSH1 0x0 PUSH2 0x11D0 DUP3 PUSH2 0x1650 JUMP JUMPDEST PUSH2 0x11DA DUP2 DUP6 PUSH2 0x167E JUMP JUMPDEST SWAP4 POP DUP4 PUSH1 0x20 DUP3 MUL DUP6 ADD PUSH2 0x11EC DUP6 PUSH2 0x1640 JUMP JUMPDEST DUP1 PUSH1 0x0 JUMPDEST DUP6 DUP2 LT ISZERO PUSH2 0x1228 JUMPI DUP5 DUP5 SUB DUP10 MSTORE DUP2 MLOAD PUSH2 0x1209 DUP6 DUP3 PUSH2 0x117C JUMP JUMPDEST SWAP5 POP PUSH2 0x1214 DUP4 PUSH2 0x1671 JUMP JUMPDEST SWAP3 POP PUSH1 0x20 DUP11 ADD SWAP10 POP POP PUSH1 0x1 DUP2 ADD SWAP1 POP PUSH2 0x11F0 JUMP JUMPDEST POP DUP3 SWAP8 POP DUP8 SWAP6 POP POP POP POP POP POP SWAP3 SWAP2 POP POP JUMP JUMPDEST PUSH2 0x1243 DUP2 PUSH2 0x16D9 JUMP JUMPDEST DUP3 MSTORE POP POP JUMP JUMPDEST PUSH2 0x1252 DUP2 PUSH2 0x16D9 JUMP JUMPDEST DUP3 MSTORE POP POP JUMP JUMPDEST PUSH2 0x1269 PUSH2 0x1264 DUP3 PUSH2 0x16D9 JUMP JUMPDEST PUSH2 0x17B5 JUMP JUMPDEST DUP3 MSTORE POP POP JUMP JUMPDEST PUSH1 0x0 PUSH2 0x127A DUP3 PUSH2 0x165B JUMP JUMPDEST PUSH2 0x1284 DUP2 DUP6 PUSH2 0x168F JUMP JUMPDEST SWAP4 POP PUSH2 0x1294 DUP2 DUP6 PUSH1 0x20 DUP7 ADD PUSH2 0x173E JUMP JUMPDEST DUP1 DUP5 ADD SWAP2 POP POP SWAP3 SWAP2 POP POP JUMP JUMPDEST PUSH1 0x0 PUSH2 0x12AC DUP4 DUP6 PUSH2 0x16BC JUMP JUMPDEST SWAP4 POP PUSH2 0x12B9 DUP4 DUP6 DUP5 PUSH2 0x172F JUMP JUMPDEST DUP3 DUP5 ADD SWAP1 POP SWAP4 SWAP3 POP POP POP JUMP JUMPDEST PUSH1 0x0 PUSH2 0x12D0 DUP3 PUSH2 0x1666 JUMP JUMPDEST PUSH2 0x12DA DUP2 DUP6 PUSH2 0x169A JUMP JUMPDEST SWAP4 POP PUSH2 0x12EA DUP2 DUP6 PUSH1 0x20 DUP7 ADD PUSH2 0x173E JUMP JUMPDEST PUSH2 0x12F3 DUP2 PUSH2 0x1823 JUMP JUMPDEST DUP5 ADD SWAP2 POP POP SWAP3 SWAP2 POP POP JUMP JUMPDEST PUSH1 0x0 PUSH2 0x1309 DUP3 PUSH2 0x1666 JUMP JUMPDEST PUSH2 0x1313 DUP2 DUP6 PUSH2 0x16AB JUMP JUMPDEST SWAP4 POP PUSH2 0x1323 DUP2 DUP6 PUSH1 0x20 DUP7 ADD PUSH2 0x173E JUMP JUMPDEST PUSH2 0x132C DUP2 PUSH2 0x1823 JUMP JUMPDEST DUP5 ADD SWAP2 POP POP SWAP3 SWAP2 POP POP JUMP JUMPDEST PUSH1 0x0 PUSH1 0xE0 DUP4 ADD PUSH1 0x0 DUP4 ADD MLOAD PUSH2 0x134F PUSH1 0x0 DUP7 ADD DUP3 PUSH2 0x123A JUMP JUMPDEST POP PUSH1 0x20 DUP4 ADD MLOAD PUSH2 0x1362 PUSH1 0x20 DUP7 ADD DUP3 PUSH2 0x1190 JUMP JUMPDEST POP PUSH1 0x40 DUP4 ADD MLOAD PUSH2 0x1375 PUSH1 0x40 DUP7 ADD DUP3 PUSH2 0x1190 JUMP JUMPDEST POP PUSH1 0x60 DUP4 ADD MLOAD PUSH2 0x1388 PUSH1 0x60 DUP7 ADD DUP3 PUSH2 0x146F JUMP JUMPDEST POP PUSH1 0x80 DUP4 ADD MLOAD PUSH2 0x139B PUSH1 0x80 DUP7 ADD DUP3 PUSH2 0x146F JUMP JUMPDEST POP PUSH1 0xA0 DUP4 ADD MLOAD DUP5 DUP3 SUB PUSH1 0xA0 DUP7 ADD MSTORE PUSH2 0x13B3 DUP3 DUP3 PUSH2 0x12C5 JUMP JUMPDEST SWAP2 POP POP PUSH1 0xC0 DUP4 ADD MLOAD PUSH2 0x13C8 PUSH1 0xC0 DUP7 ADD DUP3 PUSH2 0x123A JUMP JUMPDEST POP DUP1 SWAP2 POP POP SWAP3 SWAP2 POP POP JUMP JUMPDEST PUSH1 0x0 PUSH1 0xE0 DUP4 ADD PUSH1 0x0 DUP4 ADD MLOAD PUSH2 0x13EB PUSH1 0x0 DUP7 ADD DUP3 PUSH2 0x123A JUMP JUMPDEST POP PUSH1 0x20 DUP4 ADD MLOAD PUSH2 0x13FE PUSH1 0x20 DUP7 ADD DUP3 PUSH2 0x1190 JUMP JUMPDEST POP PUSH1 0x40 DUP4 ADD MLOAD PUSH2 0x1411 PUSH1 0x40 DUP7 ADD DUP3 PUSH2 0x1190 JUMP JUMPDEST POP PUSH1 0x60 DUP4 ADD MLOAD PUSH2 0x1424 PUSH1 0x60 DUP7 ADD DUP3 PUSH2 0x146F JUMP JUMPDEST POP PUSH1 0x80 DUP4 ADD MLOAD PUSH2 0x1437 PUSH1 0x80 DUP7 ADD DUP3 PUSH2 0x146F JUMP JUMPDEST POP PUSH1 0xA0 DUP4 ADD MLOAD DUP5 DUP3 SUB PUSH1 0xA0 DUP7 ADD MSTORE PUSH2 0x144F DUP3 DUP3 PUSH2 0x12C5 JUMP JUMPDEST SWAP2 POP POP PUSH1 0xC0 DUP4 ADD MLOAD PUSH2 0x1464 PUSH1 0xC0 DUP7 ADD DUP3 PUSH2 0x123A JUMP JUMPDEST POP DUP1 SWAP2 POP POP SWAP3 SWAP2 POP POP JUMP JUMPDEST PUSH2 0x1478 DUP2 PUSH2 0x1725 JUMP JUMPDEST DUP3 MSTORE POP POP JUMP JUMPDEST PUSH2 0x1487 DUP2 PUSH2 0x1725 JUMP JUMPDEST DUP3 MSTORE POP POP JUMP JUMPDEST PUSH2 0x149E PUSH2 0x1499 DUP3 PUSH2 0x1725 JUMP JUMPDEST PUSH2 0x17D1 JUMP JUMPDEST DUP3 MSTORE POP POP JUMP JUMPDEST PUSH1 0x0 PUSH2 0x14B0 DUP3 DUP10 PUSH2 0x11AE JUMP JUMPDEST PUSH1 0x14 DUP3 ADD SWAP2 POP PUSH2 0x14C0 DUP3 DUP9 PUSH2 0x11AE JUMP JUMPDEST PUSH1 0x14 DUP3 ADD SWAP2 POP PUSH2 0x14D0 DUP3 DUP8 PUSH2 0x148D JUMP JUMPDEST PUSH1 0x20 DUP3 ADD SWAP2 POP PUSH2 0x14E0 DUP3 DUP7 PUSH2 0x148D JUMP JUMPDEST PUSH1 0x20 DUP3 ADD SWAP2 POP PUSH2 0x14F1 DUP3 DUP5 DUP7 PUSH2 0x12A0 JUMP JUMPDEST SWAP2 POP DUP2 SWAP1 POP SWAP8 SWAP7 POP POP POP POP POP POP POP JUMP JUMPDEST PUSH1 0x0 PUSH2 0x150D DUP3 DUP11 PUSH2 0x1258 JUMP JUMPDEST PUSH1 0x14 DUP3 ADD SWAP2 POP PUSH2 0x151D DUP3 DUP10 PUSH2 0x11AE JUMP JUMPDEST PUSH1 0x14 DUP3 ADD SWAP2 POP PUSH2 0x152D DUP3 DUP9 PUSH2 0x11AE JUMP JUMPDEST PUSH1 0x14 DUP3 ADD SWAP2 POP PUSH2 0x153D DUP3 DUP8 PUSH2 0x148D JUMP JUMPDEST PUSH1 0x20 DUP3 ADD SWAP2 POP PUSH2 0x154D DUP3 DUP7 PUSH2 0x148D JUMP JUMPDEST PUSH1 0x20 DUP3 ADD SWAP2 POP PUSH2 0x155E DUP3 DUP5 DUP7 PUSH2 0x12A0 JUMP JUMPDEST SWAP2 POP DUP2 SWAP1 POP SWAP9 SWAP8 POP POP POP POP POP POP POP POP JUMP JUMPDEST PUSH1 0x0 PUSH2 0x157B DUP3 DUP5 PUSH2 0x126F JUMP JUMPDEST SWAP2 POP DUP2 SWAP1 POP SWAP3 SWAP2 POP POP JUMP JUMPDEST PUSH1 0x0 PUSH1 0x20 DUP3 ADD SWAP1 POP DUP2 DUP2 SUB PUSH1 0x0 DUP4 ADD MSTORE PUSH2 0x15A0 DUP2 DUP5 PUSH2 0x11C5 JUMP JUMPDEST SWAP1 POP SWAP3 SWAP2 POP POP JUMP JUMPDEST PUSH1 0x0 PUSH1 0xE0 DUP3 ADD SWAP1 POP PUSH2 0x15BD PUSH1 0x0 DUP4 ADD DUP11 PUSH2 0x1249 JUMP JUMPDEST PUSH2 0x15CA PUSH1 0x20 DUP4 ADD DUP10 PUSH2 0x119F JUMP JUMPDEST PUSH2 0x15D7 PUSH1 0x40 DUP4 ADD DUP9 PUSH2 0x119F JUMP JUMPDEST PUSH2 0x15E4 PUSH1 0x60 DUP4 ADD DUP8 PUSH2 0x147E JUMP JUMPDEST PUSH2 0x15F1 PUSH1 0x80 DUP4 ADD DUP7 PUSH2 0x147E JUMP JUMPDEST DUP2 DUP2 SUB PUSH1 0xA0 DUP4 ADD MSTORE PUSH2 0x1603 DUP2 DUP6 PUSH2 0x12FE JUMP JUMPDEST SWAP1 POP PUSH2 0x1612 PUSH1 0xC0 DUP4 ADD DUP5 PUSH2 0x1249 JUMP JUMPDEST SWAP9 SWAP8 POP POP POP POP POP POP POP POP JUMP JUMPDEST PUSH1 0x0 PUSH1 0x20 DUP3 ADD SWAP1 POP DUP2 DUP2 SUB PUSH1 0x0 DUP4 ADD MSTORE PUSH2 0x1638 DUP2 DUP5 PUSH2 0x13D3 JUMP JUMPDEST SWAP1 POP SWAP3 SWAP2 POP POP JUMP JUMPDEST PUSH1 0x0 DUP2 SWAP1 POP PUSH1 0x20 DUP3 ADD SWAP1 POP SWAP2 SWAP1 POP JUMP JUMPDEST PUSH1 0x0 DUP2 MLOAD SWAP1 POP SWAP2 SWAP1 POP JUMP JUMPDEST PUSH1 0x0 DUP2 MLOAD SWAP1 POP SWAP2 SWAP1 POP JUMP JUMPDEST PUSH1 0x0 DUP2 MLOAD SWAP1 POP SWAP2 SWAP1 POP JUMP JUMPDEST PUSH1 0x0 PUSH1 0x20 DUP3 ADD SWAP1 POP SWAP2 SWAP1 POP JUMP JUMPDEST PUSH1 0x0 DUP3 DUP3 MSTORE PUSH1 0x20 DUP3 ADD SWAP1 POP SWAP3 SWAP2 POP POP JUMP JUMPDEST PUSH1 0x0 DUP2 SWAP1 POP SWAP3 SWAP2 POP POP JUMP JUMPDEST PUSH1 0x0 DUP3 DUP3 MSTORE PUSH1 0x20 DUP3 ADD SWAP1 POP SWAP3 SWAP2 POP POP JUMP JUMPDEST PUSH1 0x0 DUP3 DUP3 MSTORE PUSH1 0x20 DUP3 ADD SWAP1 POP SWAP3 SWAP2 POP POP JUMP JUMPDEST PUSH1 0x0 DUP2 SWAP1 POP SWAP3 SWAP2 POP POP JUMP JUMPDEST PUSH1 0x0 PUSH2 0x16D2 DUP3 PUSH2 0x1705 JUMP JUMPDEST SWAP1 POP SWAP2 SWAP1 POP JUMP JUMPDEST PUSH1 0x0 PUSH32 0xFFFFFFFFFFFFFFFFFFFFFFFFFFFFFFFFFFFFFFFF000000000000000000000000 DUP3 AND SWAP1 POP SWAP2 SWAP1 POP JUMP JUMPDEST PUSH1 0x0 PUSH20 0xFFFFFFFFFFFFFFFFFFFFFFFFFFFFFFFFFFFFFFFF DUP3 AND SWAP1 POP SWAP2 SWAP1 POP JUMP JUMPDEST PUSH1 0x0 DUP2 SWAP1 POP SWAP2 SWAP1 POP JUMP JUMPDEST DUP3 DUP2 DUP4 CALLDATACOPY PUSH1 0x0 DUP4 DUP4 ADD MSTORE POP POP POP JUMP JUMPDEST PUSH1 0x0 JUMPDEST DUP4 DUP2 LT ISZERO PUSH2 0x175C JUMPI DUP1 DUP3 ADD MLOAD DUP2 DUP5 ADD MSTORE PUSH1 0x20 DUP2 ADD SWAP1 POP PUSH2 0x1741 JUMP JUMPDEST DUP4 DUP2 GT ISZERO PUSH2 0x176B JUMPI PUSH1 0x0 DUP5 DUP5 ADD MSTORE JUMPDEST POP POP POP POP JUMP JUMPDEST PUSH1 0x0 PUSH1 0x2 DUP3 DIV SWAP1 POP PUSH1 0x1 DUP3 AND DUP1 PUSH2 0x1789 JUMPI PUSH1 0x7F DUP3 AND SWAP2 POP JUMPDEST PUSH1 0x20 DUP3 LT DUP2 EQ ISZERO PUSH2 0x179D JUMPI PUSH2 0x179C PUSH2 0x17DB JUMP JUMPDEST JUMPDEST POP SWAP2 SWAP1 POP JUMP JUMPDEST PUSH1 0x0 PUSH2 0x17AE DUP3 PUSH2 0x17BF JUMP JUMPDEST SWAP1 POP SWAP2 SWAP1 POP JUMP JUMPDEST PUSH1 0x0 DUP2 SWAP1 POP SWAP2 SWAP1 POP JUMP JUMPDEST PUSH1 0x0 PUSH2 0x17CA DUP3 PUSH2 0x1834 JUMP JUMPDEST SWAP1 POP SWAP2 SWAP1 POP JUMP JUMPDEST PUSH1 0x0 DUP2 SWAP1 POP SWAP2 SWAP1 POP JUMP JUMPDEST PUSH32 0x4E487B7100000000000000000000000000000000000000000000000000000000 PUSH1 0x0 MSTORE PUSH1 0x22 PUSH1 0x4 MSTORE PUSH1 0x24 PUSH1 0x0 REVERT JUMPDEST PUSH1 0x0 DUP1 REVERT JUMPDEST PUSH1 0x0 DUP1 REVERT JUMPDEST PUSH1 0x0 DUP1 REVERT JUMPDEST PUSH1 0x0 DUP1 REVERT JUMPDEST PUSH1 0x0 DUP1 REVERT JUMPDEST PUSH1 0x0 PUSH1 0x1F NOT PUSH1 0x1F DUP4 ADD AND SWAP1 POP SWAP2 SWAP1 POP JUMP JUMPDEST PUSH1 0x0 DUP2 PUSH1 0x60 SHL SWAP1 POP SWAP2 SWAP1 POP JUMP JUMPDEST PUSH2 0x184A DUP2 PUSH2 0x16C7 JUMP JUMPDEST DUP2 EQ PUSH2 0x1855 JUMPI PUSH1 0x0 DUP1 REVERT JUMPDEST POP JUMP JUMPDEST PUSH2 0x1861 DUP2 PUSH2 0x16D9 JUMP JUMPDEST DUP2 EQ PUSH2 0x186C JUMPI PUSH1 0x0 DUP1 REVERT JUMPDEST POP JUMP JUMPDEST PUSH2 0x1878 DUP2 PUSH2 0x1725 JUMP JUMPDEST DUP2 EQ PUSH2 0x1883 JUMPI PUSH1 0x0 DUP1 REVERT JUMPDEST POP JUMP INVALID LOG2 PUSH5 0x6970667358 0x22 SLT KECCAK256 PUSH7 0x9F2D4E1F97C86F OR BASEFEE OR 0xC0 SGT 0x4F 0xF7 0xEF 0xA5 0xCE PUSH10 0x8F729774572514457C16 0x1E SELFDESTRUCT 0xA7 PUSH5 0x736F6C6343 STOP ADDMOD SMOD STOP CALLER "
				},
				"gasEstimates": {
					"creation": {
						"codeDepositCost": "1266400",
						"executionCost": "1315",
						"totalCost": "1267715"
					},
					"external": {
						"TXaddresses(address,uint256)": "infinite",
						"addTransaction()": "infinite",
						"clienttransactions(bytes20)": "infinite",
						"getAllTransactionsOfAClient(address)": "infinite",
						"getPaymentByID(bytes20)": "infinite",
						"setTransaction(address,address,uint256,string)": "infinite",
						"transactions()": "infinite"
					}
				},
				"methodIdentifiers": {
					"TXaddresses(address,uint256)": "f7ed5ce8",
					"addTransaction()": "af34aea4",
					"clienttransactions(bytes20)": "2b08a98a",
					"getAllTransactionsOfAClient(address)": "92206f3f",
					"getPaymentByID(bytes20)": "b69c9053",
					"setTransaction(address,address,uint256,string)": "431f48c8",
					"transactions()": "18015191"
				}
			},
			"storageLayout": {
				"storage": [
					{
						"astId": 19,
						"contract": "contracts/BankTransaction.sol:BankTransaction",
						"label": "transactions",
						"offset": 0,
						"slot": "0",
						"type": "t_struct(Transaction)16_storage"
					},
					{
						"astId": 23,
						"contract": "contracts/BankTransaction.sol:BankTransaction",
						"label": "ClientTXs",
						"offset": 0,
						"slot": "7",
						"type": "t_array(t_struct(Transaction)16_storage)dyn_storage"
					},
					{
						"astId": 28,
						"contract": "contracts/BankTransaction.sol:BankTransaction",
						"label": "clienttransactions",
						"offset": 0,
						"slot": "8",
						"type": "t_mapping(t_bytes20,t_struct(Transaction)16_storage)"
					},
					{
						"astId": 34,
						"contract": "contracts/BankTransaction.sol:BankTransaction",
						"label": "TXaddresses",
						"offset": 0,
						"slot": "9",
						"type": "t_mapping(t_address,t_array(t_struct(Transaction)16_storage)dyn_storage)"
					}
				],
				"types": {
					"t_address": {
						"encoding": "inplace",
						"label": "address",
						"numberOfBytes": "20"
					},
					"t_array(t_struct(Transaction)16_storage)dyn_storage": {
						"base": "t_struct(Transaction)16_storage",
						"encoding": "dynamic_array",
						"label": "struct BankTransaction.Transaction[]",
						"numberOfBytes": "32"
					},
					"t_bytes20": {
						"encoding": "inplace",
						"label": "bytes20",
						"numberOfBytes": "20"
					},
					"t_mapping(t_address,t_array(t_struct(Transaction)16_storage)dyn_storage)": {
						"encoding": "mapping",
						"key": "t_address",
						"label": "mapping(address => struct BankTransaction.Transaction[])",
						"numberOfBytes": "32",
						"value": "t_array(t_struct(Transaction)16_storage)dyn_storage"
					},
					"t_mapping(t_bytes20,t_struct(Transaction)16_storage)": {
						"encoding": "mapping",
						"key": "t_bytes20",
						"label": "mapping(bytes20 => struct BankTransaction.Transaction)",
						"numberOfBytes": "32",
						"value": "t_struct(Transaction)16_storage"
					},
					"t_string_storage": {
						"encoding": "bytes",
						"label": "string",
						"numberOfBytes": "32"
					},
					"t_struct(Transaction)16_storage": {
						"encoding": "inplace",
						"label": "struct BankTransaction.Transaction",
						"members": [
							{
								"astId": 3,
								"contract": "contracts/BankTransaction.sol:BankTransaction",
								"label": "payment_ID",
								"offset": 0,
								"slot": "0",
								"type": "t_bytes20"
							},
							{
								"astId": 5,
								"contract": "contracts/BankTransaction.sol:BankTransaction",
								"label": "client_ID",
								"offset": 0,
								"slot": "1",
								"type": "t_address"
							},
							{
								"astId": 7,
								"contract": "contracts/BankTransaction.sol:BankTransaction",
								"label": "recipient_ID",
								"offset": 0,
								"slot": "2",
								"type": "t_address"
							},
							{
								"astId": 9,
								"contract": "contracts/BankTransaction.sol:BankTransaction",
								"label": "amountOfPayment",
								"offset": 0,
								"slot": "3",
								"type": "t_uint256"
							},
							{
								"astId": 11,
								"contract": "contracts/BankTransaction.sol:BankTransaction",
								"label": "timeOfPayment",
								"offset": 0,
								"slot": "4",
								"type": "t_uint256"
							},
							{
								"astId": 13,
								"contract": "contracts/BankTransaction.sol:BankTransaction",
								"label": "Remarks",
								"offset": 0,
								"slot": "5",
								"type": "t_string_storage"
							},
							{
								"astId": 15,
								"contract": "contracts/BankTransaction.sol:BankTransaction",
								"label": "paymentHash",
								"offset": 0,
								"slot": "6",
								"type": "t_bytes20"
							}
						],
						"numberOfBytes": "224"
					},
					"t_uint256": {
						"encoding": "inplace",
						"label": "uint256",
						"numberOfBytes": "32"
					}
				}
			},
			"userdoc": {
				"kind": "user",
				"methods": {},
				"version": 1
			}
		}
	}
}